:02000004085D95
:1010000000105D08FCFF5F080000060020000501DD
:081010000401B514000000000A
:101018000E480F4908B5884205D00E4A824202D0D0
:101028000D4B121A98470D480D4A00210D4B121A04
:1010380098470D480D49884205D00D4A824202D092
:10104800054B121A9847014808BD00BF98F90610C9
:101058002CE45F0808FF06102D0D1110200707105B
:1010680000B00710A10E1110582C3D0290105D0819
:0C107800F4FF3F0219105D0800000000AA
:081084008026E0790100000064
:081090007C105D0890A33F02F3
:1010980081F0004102E000BF83F0004330B54FEA21
:1010A80041044FEA430594EA050F08BF90EA020F8E
:1010B8001FBF54EA000C55EA020C7FEA645C7FEA21
:1010C800655C00F0E2804FEA5454D4EB5555B8BF44
:1010D8006D420CDD2C4480EA020281EA030382EAB5
:1010E800000083EA010180EA020281EA0303362D47
:1010F80088BF30BD11F0004F4FEA01314FF4801C1A
:101108004CEA113102D0404261EB410113F0004F2B
:101118004FEA03334CEA133302D0524263EB4303E2
:1011280094EA050F00F0A780A4F10104D5F1200E80
:101138000DDB02FA0EFC22FA05F2801841F10001DB
:1011480003FA0EF2801843FA05F359410EE0A5F1AF
:1011580020050EF1200E012A03FA0EFC28BF4CF0E0
:10116800020C43FA05F3C01851EBE37101F0004596
:1011780007D54FF0000EDCF1000C7EEB00006EEBA3
:101188000101B1F5801F1BD3B1F5001F0CD349082D
:101198005FEA30004FEA3C0C04F101044FEA445284
:1011A80012F5800F80F09A80BCF1004F08BF5FEA0B
:1011B800500C50F1000041EB045141EA050130BDEB
:1011C8005FEA4C0C404141EB0101013C28BFB1F5FD
:1011D800801FE9D291F0000F04BF01460020B1FA48
:1011E80081F308BF2033A3F10B03B3F120020CDA1B
:1011F8000C3208DD02F1140CC2F10C0201FA0CF0F9
:1012080021FA02F10CE002F11402D8BFC2F1200C5D
:1012180001FA02F120FA0CFCDCBF41EA0C01904013
:10122800E41AA2BF01EB0451294330BD6FEA04045C
:101238001F3C1CDA0C340EDC04F11404C4F1200247
:1012480020FA04F001FA02F340EA030021FA04F359
:1012580045EA030130BDC4F10C04C4F1200220FAB0
:1012680002F001FA04F340EA0300294630BD21FAEE
:1012780004F0294630BD94F0000F83F4801306BFB4
:1012880081F480110134013D4EE77FEA645C18BFA8
:101298007FEA655C29D094EA050F08BF90EA020F3F
:1012A80005D054EA000C04BF1946104630BD91EA37
:1012B800030F1EBF0021002030BD5FEA545C05D13A
:1012C8004000494128BF41F0004130BD14F5800479
:1012D8003CBF01F5801130BD01F0004545F0FE41ED
:1012E80041F470014FF0000030BD7FEA645C1ABF22
:1012F800194610467FEA655C1CBF0B46024650EA59
:10130800013406BF52EA033591EA030F41F4002184
:1013180030BD00BF90F0000F04BF0021704730B50A
:101328004FF4806404F132044FF000054FF00001DF
:1013380050E700BF90F0000F04BF0021704730B5A0
:101348004FF4806404F1320410F0004548BF404275
:101358004FF000013EE700BF42004FEAE2014FEACA
:1013680031014FEA02701FBF12F07F4393F07F4FA5
:1013780081F06051704732F07F4208BF704793F0A8
:101388007F4F04BF41F40021704730B54FF46074BB
:1013980001F0004521F000411CE700BF50EA0102BE
:1013A80008BF704730B54FF000050AE050EA010267
:1013B80008BF704730B511F0004502D5404261EBD7
:1013C80041014FF4806404F132045FEA915C3FF418
:1013D800D8AE4FF003025FEADC0C18BF03325FEAB5
:1013E800DC0C18BF033202EBDC02C2F1200300FA66
:1013F80003FC20FA02F001FA03FE40EA0E0021FA8B
:1014080002F11444BDE600BF70B54FF0FF0C4CF478
:10141800E06C1CEA11541DBF1CEA135594EA0C0F2A
:1014280095EA0C0F00F0DEF82C4481EA030621EA65
:101438004C5123EA4C5350EA013518BF52EA0335A0
:1014480041F4801143F4801338D0A0FB02CE4FF052
:101458000005E1FB02E506F00042E0FB03E54FF082
:101468000006E1FB03569CF0000F18BF4EF0010E7A
:10147800A4F1FF04B6F5007F64F5407404D25FEA76
:101488004E0E6D4146EB060642EAC62141EA555129
:101498004FEAC52040EA5E504FEACE2EB4F1FD0C6B
:1014A80088BFBCF5E06F1ED8BEF1004F08BF5FEAE9
:1014B800500E50F1000041EB045170BD06F000469B
:1014C80046EA010140EA020081EA0301B4EB5C0448
:1014D800C2BFD4EB0C0541EA045170BD41F4801140
:1014E8004FF0000E013C00F3AB8014F1360FDEBF65
:1014F800002001F0004170BDC4F10004203C35DA41
:101508000C341BDC04F11404C4F1200500FA05F3C3
:1015180020FA04F001FA05F240EA020001F0004264
:1015280021F0004110EBD37021FA04F642EB0601DA
:101538005EEA430E08BF20EAD37070BDC4F10C0404
:10154800C4F1200500FA04F320FA05F001FA04F2C8
:1015580040EA020001F0004110EBD37041F10001B4
:101568005EEA430E08BF20EAD37070BDC4F12005BF
:1015780000FA05F24EEA020E20FA04F301FA05F227
:1015880043EA020321FA04F001F0004121FA04F2CF
:1015980020EA020000EBD3705EEA430E08BF20EA9F
:1015A800D37070BD94F0000F0FD101F000464000D9
:1015B80041EB010111F4801F08BF013CF7D041EA5B
:1015C800060195F0000F18BF704703F0004652005F
:1015D80043EB030313F4801F08BF013DF7D043EA30
:1015E8000603704794EA0C0F0CEA135518BF95EAE6
:1015F8000C0F0CD050EA410618BF52EA4306D1D16D
:1016080081EA030101F000414FF0000070BD50EA8B
:10161800410606BF1046194652EA430619D094EA15
:101628000C0F02D150EA013613D195EA0C0F05D1FF
:1016380052EA03361CBF104619460AD181EA030153
:1016480001F0004141F0FE4141F470014FF000000B
:1016580070BD41F0FE4141F4780170BD70B54FF0A6
:10166800FF0C4CF4E06C1CEA11541DBF1CEA135526
:1016780094EA0C0F95EA0C0F00F0A7F8A4EB050408
:1016880081EA030E52EA03354FEA013100F08880FF
:101698004FEA03334FF0805545EA131343EA1263C8
:1016A8004FEA022245EA111545EA10654FEA00267D
:1016B8000EF000419D4208BF964244F1FD0404F536
:1016C800407402D25B084FEA3202B61A65EB030592
:1016D8005B084FEA32024FF480104FF4002CB6EB4F
:1016E800020E75EB030E22BFB61A754640EA0C00CF
:1016F8005B084FEA3202B6EB020E75EB030E22BF0F
:10170800B61A754640EA5C005B084FEA3202B6EB4F
:10171800020E75EB030E22BFB61A754640EA9C000E
:101728005B084FEA3202B6EB020E75EB030E22BFDE
:10173800B61A754640EADC0055EA060E18D04FEA9C
:10174800051545EA16754FEA06164FEAC30343EA3C
:1017580052734FEAC2025FEA1C1CC0D111F4801F09
:101768000BD141EA00014FF000004FF0004CB6E702
:1017780011F4801F04BF01430020B4F1FD0C88BFA1
:10178800BCF5E06F3FF6AFAEB5EB030C04BFB6EBAC
:10179800020C5FEA500C50F1000041EB045170BD9F
:1017A8000EF0004E4EEA113114EB5C04C2BFD4EBCC
:1017B8000C0541EA045170BD41F480114FF0000E50
:1017C800013C90E645EA060E8DE60CEA135594EACC
:1017D8000C0F08BF95EA0C0F3FF43BAF94EA0C0FCF
:1017E8000AD150EA01347FF434AF95EA0C0F7FF444
:1017F80025AF104619462CE795EA0C0F06D152EA98
:1018080003353FF4FDAE1046194622E750EA41067B
:1018180018BF52EA43067FF4C5AE50EA41047FF48C
:101828000DAF52EA43057FF4EBAE12E74FF0FF3CF1
:1018380006E000BF4FF0010C02E000BF4FF0010CC2
:101848004DF804CD4FEA410C7FEA6C5C4FEA430C3B
:1018580018BF7FEA6C5C1BD001B050EA410C0CBF8A
:1018680052EA430C91EA030F02BF90EA020F0020EC
:10187800704710F1000F91EA030F58BF994208BF53
:1018880090422CBFD8176FEAE37040F00100704710
:101898004FEA410C7FEA6C5C02D150EA013C07D167
:1018A8004FEA430C7FEA6C5CD6D152EA033CD3D0B2
:1018B8005DF8040B704700BF8446104662468C46AC
:1018C8001946634600E000BF01B5FFF7B7FF0028DF
:1018D80048BF10F1000F01BD4DF808EDFFF7F4FF08
:1018E8000CBF012000205DF808FB00BF4DF808ED93
:1018F800FFF7EAFF34BF012000205DF808FB00BFB6
:101908004DF808EDFFF7E0FF94BF012000205DF8D7
:1019180008FB00BF4DF808EDFFF7CEFF94BF01208C
:1019280000205DF808FB00BF4DF808EDFFF7C4FF85
:1019380034BF012000205DF808FB00BF4FEA410CCE
:101948007FEA6C5C02D150EA013C0AD14FEA430CB1
:101958007FEA6C5C02D152EA033C02D14FF00000EE
:1019680070474FF0010070474FEA410212F500122C
:1019780015D211D56FF47873B3EB625212D94FEACE
:10198800C12343F0004343EA505311F0004F23FAB8
:1019980002F018BF404270474FF00000704750EA0D
:1019A800013005D111F0004008BF6FF000407047CA
:1019B8004FF00000704700BF4A0011D212F5001224
:1019C80011D20DD56FF47873B3EB62520ED44FEA8F
:1019D800C12343F0004343EA505323FA02F070470F
:1019E8004FF00000704750EA013002D14FF0FF304D
:1019F80070474FF0000070474FEA4102B2F1E043F0
:101A080024BFB3F5001CDCF1FE5C0DD901F0004CDD
:101A18004FEAC0024CEA5070B2F1004F40EB83002D
:101A280008BF20F00100704711F0804F21D113F159
:101A38003872BCBF01F00040704741F480114FEA92
:101A48005252C2F11802C2F1200C10FA0CF320FA1B
:101A580002F018BF40F001004FEAC1234FEAD32338
:101A680003FA0CFC40EA0C0023FA02F34FEA4303A2
:101A7800CCE77FEA625307D150EA01331EBF4FF02B
:101A8800FE4040F44000704701F0004040F0FE4046
:101A980040F40000704700BF53B94AB9002908BF95
:101AA80000281CBF4FF0FF314FF0FF3000F0B8B9ED
:101AB800ADF1080C6DE904CE00F03CF8DDF804E067
:101AC800DDE9022304B0704738B50022002304463C
:101AD8000D46FFF70BFF28B920462946BDE83840D8
:101AE80000F00AB8204605F1004100F005F8404230
:101AF80061EB410138BD00BFD0B500220B4B064653
:101B08000F46FFF781FCFFF757FF0446FFF702FC7B
:101B18000022074BFFF778FC02460B463046394651
:101B2800FFF7BAFAFFF748FF2146D0BD0000F03DA5
:101B38000000F0412DE9F04F099D04460F46002BA7
:101B480048D18A42944661D9B2FA82F343B1C3F1CB
:101B580020019F4002FA03FC9C4020FA01F10F4348
:101B68004FEA1C411FFA8CFE220CB7FBF1F601FB71
:101B7800167706FB0EF042EA0742904208D91CEBA2
:101B8800020206F1FF3702D2904200F237813E4648
:101B9800121AA4B2B2FBF1F001FB102200FB0EFEF8
:101BA80044EA0244A64508D91CEB040400F1FF32BC
:101BB80002D2A64500F21C81104640EA0640A4EB7A
:101BC8000E0400261DB1DC400023C5E90043314660
:101BD800BDE8F08F8B4209D9002D00F0FD8000266A
:101BE800C5E9000130463146BDE8F08FB3FA83F607
:101BF800002E4BD18B42C0F0F280824240F2EF803F
:101C08003046002DE3D0C5E90047E0E702B9FFDE22
:101C1800B2FA82F3002B40F09D80891A4FEA124EE7
:101C280097B20126200CB1FBFEF20EFB121140EA1E
:101C3800014107FB02F088420FD91CEB010102F1B8
:101C4800FF382CBF4FF001094FF00009884203D933
:101C5800B9F1000F00F0CF804246091AA4B2B1FBD7
:101C6800FEF00EFB101100FB07F744EA0144A742FF
:101C780008D91CEB040400F1FF3102D2A74200F29C
:101C8800B4800846E41B40EA02409BE7C6F12007FF
:101C9800B34001FA06F422FA07FCF940B2404CEAD4
:101CA800030C20FA07F34FEA1C491C431FFA8CFE69
:101CB80000FA06F3200CB1FBF9F809FB181140EA09
:101CC800014108FB0EF088420FD91CEB010108F115
:101CD800FF3A2CBF4FF0010B4FF0000B884203D99D
:101CE800BBF1000F00F08D80D046091AA4B2B1FBF9
:101CF800F9F009FB101100FB0EFE44EA01418E4584
:101D080007D91CEB010100F1FF3401D28E457FD8C1
:101D1800204640EA0840A1EB0E01A0FB029841458D
:101D28004C46C64602D306D14B4504D20138B9EB1E
:101D3800020468EB0C0E002D70D01A1B61EB0E012B
:101D480022FA06F301FA07F7F14000261F43C5E916
:101D580000713CE702FA03FCC3F1200001FA03F228
:101D680021FA00F64FEA1C4E24FA00F11FFA8CF70C
:101D78009C401143B6FBFEF00A0C0EFB106642EACB
:101D8800064200FB07F696420ED91CEB020200F150
:101D9800FF382CBF4FF001094FF00009964202D9D5
:101DA800B9F1000F31D04046921B89B2B2FBFEF662
:101DB8000EFB162241EA024106FB07F28A4207D9C6
:101DC8001CEB010106F1FF3801D28A4223D84646AE
:101DD800891A46EA004625E72E462846F7E6841A79
:101DE80061EB030301201F460BE76444023849E70F
:101DF80064440238E1E6023A61442EE7023E624456
:101E0800C6E6A8F1020861446FE702386244CBE7EE
:101E1800023861447DE7023E6144D9E72E46D6E6A2
:101E2800704700BF10F8012B11F8013B012A28BFA9
:101E38009A42F7D0D01A7047034613F8012B002AAC
:101E4800FBD1181A0138704770B506F0A9FC0025B7
:101E5800054E064CA41BA408AC4200D170BD56F830
:101E6800043B98470135F7E7A4FF3F02F4FF3F0220
:101E780001F086BF08B501F0A9FFBDE8084006F0EB
:101E880047BC05F033BE05F031BE05F03DBE05F098
:101E98003BBE05F039BE0000004870472CB23F0237
:101EA8000C2008B5024A034905F008FDFEE700BF0B
:101EB800BD8F3D02A0A33F020078B0FA80F0400930
:101EC800704701230370704782B00346684680E874
:101ED800060040F60F31998100219960997303C873
:101EE80083E8050002B0704773B504461D46A37B1E
:101EF80002A800E9060033B940F60F33A2899A42D6
:101F080003D00123A37302B070BDD4E901329A4211
:101F1800F7D8019E9B1AB342F3D3AA42F1D3521BBE
:101F280005D0216819B12944881920F0F0FE2068ED
:101F380020B132460099284420F0E9FEA3683344D2
:101F4800A360E0E78B7B10B51BB1002303604360FF
:101F580010BD40F60F328C89944202D001228A7358
:101F6800F4E70A688B680260F1E7000053EC102B75
:101F78002DE9F04100241F46DFF8A8C0C3F30A5337
:101F880013EB0C0644F1FF31A3F2FF7E5EEA010277
:101F980010EE108A4FEAD775C7F3130014D158EA28
:101FA80000033CD03B03C8F3080009D540F4007097
:101FB8001F2340EAC53040EA832080B2BDE8F081A3
:101FC800012838BF0120F3E7B1F1FF3F08BF66459C
:101FD80022D0102E71F1000221DA16F10E0F71F1E4
:101FE800FF3214DA6FF00D01891B01F12A0300F5A5
:101FF8008010C3F1200600FA06F60A3128FA03F326
:1020080020FA01F133430B4398B22346D1E7A3F5F5
:102018007C739BB2800ACCE723462046C9E71F237E
:102028002046C6E701FCFFFF2DE9F04155EC104BB7
:10203800064688460022002310EE100A2946FFF7BC
:102048004BFC58B145EC104BFFF790FF00220223E0
:10205800C6E9020233703046BDE8F081194FC5F376
:102068000A5313EB070E61EB0101A3F2FF7C5CEA54
:10207800010720462A46E5D0B8F1000F0DD01EF121
:102088000E0F71F1FF3708DBBEF1100F71F100017F
:1020980003DAC5F309012143D4D06FF460715B18EA
:1020A80061EB0101FE2B71F1000309D230F06047AA
:1020B80006D120462946FFF79FFC3A460423C7E786
:1020C8000823C5E701FCFFFF2DE9F0430C2987B081
:1020D8000DF11505DDE90E6740D00D2942D0182E07
:1020E80077F1000303D242B9F2B22B461FE0072969
:1020F80003D1A6F11F033B4338D04FF0000C2B4609
:10210800DFF86C800AE09E4618F80440A3EB0E093D
:102118004C451CDC1B1B121B0CF1010C56EA070E6C
:102128005FFA8CF4EFD1002AEDDC1734E2B25C1EC2
:1021380002EB41122D1B03F8012C21462A46109B65
:1021480001940295FFF7D0FE07B0BDE8F0830EF8C2
:10215800016D360A46EA07663F0AD7E71F222B4673
:102168000421E4E71F222B460521E0E71F22BCE7F4
:10217800B5A33F021FB58468CDE90023029400226D
:10218800FFF7A2FF04B010BD8388C3F57F42FE327B
:10219800012AC3BF0133838000200320704737B56D
:1021A8006D46044685E806009822002120F0C9FD06
:1021B80095E806002046FFF787FE04F11403C4F8EB
:1021C80094300423A37603B030BD7FB56E4686E80D
:1021D8000C00037C04460D4683B9092910D196E802
:1021E800030002AA82E80300A368204606CAFFF794
:1021F8007BFED4F89400FFF7C7FF207404B070BDCD
:102208000B2908BF0221019AFFF7B4FF0B2DF0D06C
:10221800E5E730B5057C044685B05DB985688DE88D
:102228002C000A460721FFF74FFFD4F89400FFF768
:10223800ABFF207405B030BD1FB5044601216846C8
:10224800FFF7F2FEDDE9022320469DF8001004B0F6
:10225800BDE81040FFF7DDBF38B50446D0F894005C
:10226800FFF792FF207428B9A26812F1660F02D90D
:102278000723237438BDD4F8943004F18C05AB429D
:102288000FBF022003F10805C4F8945098811FBFBE
:10229800D4F894301A60D4F8943099712074E9E72E
:1022A80030B5836885B000220293002304460D46AA
:1022B800CDE90023FFF708FF2946204605B0BDE811
:1022C8003040FFF7C9BFF0B51646027C04460B46FE
:1022D80087B03AB9D0F8942000F114018A4203D1AA
:1022E8000423237407B0F0BD91798B4201D00F23EA
:1022F800F7E7836802291FBF9088CB1E9BB2B0FB0B
:10230800F3F34FF000051768204608BFDB1B2A4689
:10231800CDE900350297FFF7D7FE66B1214604A83C
:10232800FFF710FEDDE9043297420AD8D51B03B146
:102338003B44C6E90035D4F89430083BC4F89430DF
:10234800D0E72B46F5E770B5057C0446164686B0FF
:102358003DB9D0F8943000F11402934203D104231C
:10236800237406B070BD9B798B4201D00F23F7E729
:1023780083681F22029300230721CDE900232A4600
:10238800FFF7A2FE6EB1214604A8FFF7DBFDDDE9E9
:102398000432A16891420AD8551A03B10B44C6E920
:1023A8000035D4F89430083BC4F89430D9E72B466C
:1023B800F5E773B5837B0C460BB101230374057CE9
:1023C80075B9D0F8942000F114039A420BD16E46E7
:1023D80001463046FFF7B6FD96E8030084E803009F
:1023E800284602B070BD0A25FAE7000010B5054C72
:1023F80020680368DB6D9847206803689B689847E6
:10240800012010BD2407071008B5054B186803689C
:102418001B6998470168034801F00EFD012008BDBB
:1024280024070710DEA33F022DE9F04F2DED028BA4
:10243800764C83B0206801AA036869465B6E9847AA
:10244800734801F0F9FC2068002603689FED718A43
:102458001B6998470168704801F0EEFC2068DFF8B6
:102468002C820368DFF82892DB68984701686B487C
:1024780001F0E2FC6A4801F0DFFC20680368DB6ECB
:1024880098470146674801F0D7FC674801F0D4FC3B
:10249800664801F0D1FC019BB3422FD9009B77011C
:1024A80003EB46124046128BD95901F0C5FC0025B2
:1024B800DFF8E0A1009B4FEA850B3B4403EB850264
:1024C800D2ED017AF4EEC87AF1EE10FA0EDD15B10C
:1024D800504601F0B1FC009B3B445B445868FEF752
:1024E8003BFF02460B46484601F0A6FC0135052D88
:1024F800E0D14F4801F0A0FC0136CCE74D4801F08F
:102508009BFC494801F098FC4B4801F095FC4B486E
:1025180001F092FC444801F08FFC494801F08CFC22
:10252800484801F089FC484801F086FC474801F01A
:1025380083FC474801F080FC464801F07DFC3A489E
:1025480001F07AFC444801F077FC206803689B6A34
:1025580098470168414801F06FFC206803681B6BCD
:10256800984710EE100AFEF7F7FE02460B463C4865
:1025780001F062FC206803689B6B98470146394864
:1025880001F05AFC206803681B6A984701683648BE
:1025980001F052FC244801F04FFC344801F04CFC97
:1025A800206803681B6D98470168314801F044FCB6
:1025B800206803681B6C984701682E4801F03CFCB2
:1025C800206803689B6C984701682B4801F034FC2D
:1025D800154801F031FC294801F02EFC20680368F9
:1025E8009B6998470168264801F026FC254801F0B8
:1025F80023FC254801F020FC0B4801F01DFC0120BC
:1026080003B0BDEC028BBDE8F08F00BF24070710B4
:10261800B9A33F02CDCCCC3DD2A33F02E2A33F02F7
:10262800F2A33F0205A43F020BB33F0222A43F02DC
:1026380015A73F0274A43F02CCA43F02E3A43F02C3
:10264800F7A43F0209A53F0216A53F0223A53F02B2
:1026580031A53F023FA53F024DA53F026EA53F02AF
:102668007DA53F0292A53F02A6A53F02B5A53F0260
:10267800D2A53F02E1A53F02F0A53F02FFA53F0218
:102688001EA63F022EA63F023DA63F0238A43F02E7
:102698006DA43F026AA43F0210B5144C2068036879
:1026A8009B6A98470168124801F0C6FB20680368D6
:1026B8001B6B984710EE100AFEF74EFE02460B46BB
:1026C8000C4801F0B9FB206803689B6B98470146EA
:1026D800094801F0B1FB206803681B6A9847016844
:1026E800064801F0A9FB012010BD00BF2407071010
:1026F8006EA53F027DA53F0292A53F02A6A53F0217
:1027080008B5054B186803689B6998470168034832
:1027180001F092FB012008BD24070710DEA33F0249
:1027280010B50D4C206803681B6D984701680B486D
:1027380001F082FB206803681B6C98470168084811
:1027480001F07AFB206803689B6C9847016805488C
:1027580001F072FB012010BD24070710D2A53F022B
:10276800E1A53F02F0A53F0208B5054B18680368CC
:102778001B6C98470168034801F05EFB012008BD07
:1027880024070710DEA33F0208B5024801F054FBF6
:10279800012008BD0BB33F0200292DE9F347054688
:1027A80006DC214801F048FB012002B0BDE8F087B3
:1027B80000261E4C6946206801AA03685B6E98478C
:1027C800DDE90079D5F80080B14517D0BA46414611
:1027D80057F8200BFFF726FB70B9DAF81C3098473A
:1027E8000546B0B9124801F027FB2946206803685E
:1027F800D3F880309847D7E70136E5E7002140460F
:1028080001F05AFE58B101F087FC054608B909489D
:10281800E9E7206804210368D3F88030EAE72968EB
:10282800054801F009FBBFE74BA63F022407071044
:1028380061A63F0280A63F02ADA63F0201292DE90D
:10284800F04105460E4605DC254801F0F5FA012061
:10285800BDE8F08100681FF02FFC074668681FF08C
:102868002BFC204C8046206803210368D3F8803075
:102878009847022E29D0AB681B78792B25D11A48A6
:1028880001F0DAFA2068012603685B6F9847642034
:1028980001F0B0FA4146384601F07EFB05464EB1DC
:1028A800124801F0C9FA642001F0A4FA206803680C
:1028B8001B6F98475DB90E4801F0BEFA294620689B
:1028C8000368D3F880309847C1E70026E2E7094853
:1028D80001F0B2FA206804210368D3F88030F2E7E7
:1028E800E1A63F022407071019A73F0218A73F02D5
:1028F8001DA73F020BB33F022DE9F04F0129054602
:1029080089B02DDD1C4B00681B68DFF87890D3F880
:1029180000811FF0D1FB044668681FF0CDFB074615
:10292800DFF864A0DFF858B0BC4221D2D8F80030F4
:102938002246DD69694610234046A84700266D46B1
:10294800484615F8011B01F077FA0F2E0CBF5846C0
:102958005046013601F070FA102EF1D11034E3E739
:102968000221064801F068FA012009B0BDE8F08F9D
:10297800034801F061FAF7E7240707103EA73F0272
:102988000BB33F02B0AA3F0239E53F0230B5414BD5
:1029980085B0186003F060FC002405463E4B3F49B3
:1029A80001933F4B029100933E4A002303F0E0FB62
:1029B8003D4B28460093CDE9014423463B4A3C4918
:1029C80003F0D6FB2846CDE901443A4B3A4A3B4945
:1029D800009403F0CDFB3A4B28460293394B3A4A10
:1029E80001933A4B3A490093234603F0C1FB394B14
:1029F80028460293384B394ACDE9004338492346E3
:102A080003F0B6FB374B28460293374B374A0193FE
:102A1800374B38490093234603F0AAFB364B284628
:102A28000293364B364ACDE900433649234603F034
:102A38009FFB354B28460293344B354A0193354B5F
:102A480035490093234603F093FB344B2846029301
:102A5800334B344A0193344B34490093234603F0F3
:102A680087FB334B28460293324B334ACDE9004368
:102A78003249234603F07CFB314B28460293314B05
:102A8800314ACDE900433149234603F071FB28461A
:102A980005B030BD2407071075473D0272A73F02F5
:102AA800D93F3D025FA73F02F93F3D027BA73F02A6
:102AB800BFA73F02BD3F3D0291A73F02BAA73F0211
:102AC800FDA73F02B9473D02C6A73F0269423D0242
:102AD800EEA73F023FA83F0269433D0224A83F02F8
:102AE80033A83F0282A83F0219493D024BA83F0282
:102AF800D1423D0275A83F02BCA83F020D443D02E9
:102B080086A83F02B1A83F020BA93F025D493D02DA
:102B1800D6A83F02F1423D02FCA83F022EA93F027F
:102B2800C1493D0217A93F0239433D0228A93F0286
:102B380050A93F0259433D0233A93F024AA93F0227
:102B480071A93F02C9443D0255A93F0269A93F0244
:102B580000F1080373B504460D460360E1B1084669
:102B6800FFF76AF90F2805EB0006019007D9002244
:102B7800204601A917F03AFD019B2060A360324668
:102B88002946206817F0CAFD00212046019B2268CB
:102B98006360D15402B070BD014811F035FD00BF2B
:102BA8007EA93F0230B5002989B005DC0B4801F049
:102BB80043F9012009B030BD094B01681C6801AA1E
:102BC800236802A85D69FFF7C3FF0122204602A916
:102BD800A84702A817F02CFD0248E8E7A8A93F0279
:102BE8002407071019A73F022DE9F04F2DED028B9E
:102BF800022904460E4695B008DC4E4801F01CF93F
:102C0800012015B0BDEC028BBDE8F08F4A4D01687C
:102C18002F6808AA3B680EA8D3F82C80FFF798FF06
:102C2800002238460EA9C0470EA817F001FD6168BA
:102C38000EAA02A8FFF78CFF2F68DDF808803B6812
:102C4800D3F8349004F0DEFFD0F800A004F0DAFFE7
:102C580000230EA90360404621F090F80E9BB0EEC9
:102C6800408A984502D1354811F0D1FC04F0CAFFDA
:102C78000368222B02D1314811F0CFFC04F0C2FFC7
:102C880003681BB904F0BEFFC0F800A0B0EE480A04
:102C980038460021C847A1680EAA08A8FFF758FFC0
:102CA800D5F80080DDF82090D8F80030D3F83CA0A3
:102CB80004F0A8FFD0F800B004F0A4FF00230A2213
:102CC80003600EA9484621F093F90E9B07469945E3
:102CD80001D11B48C8E704F095FF0368222B01D1F6
:102CE8001748C9E704F08EFF03681BB904F08AFF90
:102CF800C0F800B0002239464046D047032E0ED017
:102D08002D68E1682B6801AA0EA85E6AFFF720FF0C
:102D1800284601220EA9B0470EA817F089FC0948D9
:102D280001F08AF808A817F083FC02A817F080FCC5
:102D380066E700BFBBA93F0224070710FFA93F02AF
:102D480004AA3F0219A73F0230B5002989B005DC63
:102D58000B4801F071F8012009B030BD094B01683A
:102D68001C6801AA236802A8DD69FFF7F1FE0122A9
:102D7800204602A9A84702A817F05AFC0248E8E72B
:102D8800A8A93F022407071019A73F02F0B5012997
:102D9800044689B005DC134801F04EF8012009B05B
:102DA800F0BD114D01682E6801AA336802A85F6D55
:102DB800FFF7CEFE0122304602A9B84702A817F055
:102DC80037FC2D6861682B6801AA02A8DE6CFFF742
:102DD800BFFE0122284602A9B04702A817F028FC26
:102DE8000248D9E709AA3F022407071019A73F029A
:102DF80030B5002989B005DC0B4801F01DF8012029
:102E080009B030BD094B01681C6801AA236802A8F3
:102E18005D6CFFF79DFE0122204602A9A84702A883
:102E280017F006FC0248E8E7A8A93F0224070710A4
:102E380019A73F02014806F015B800BF2807071078
:102E4800D0E90202101A7047D0E9022340699B1AA0
:102E58005843704738B5036814461D681346002266
:102E6800A847031B5842584138BD002070473830E6
:102E780070475030704768307047803070479830DE
:102E8800704790ED2C0A7047D0F8B4007047B830FE
:102E98007047D0307047E8307047002070470020F6
:102EA8007047002301200B601360704700F10C028B
:102EB800426000228260027370474FF4E13070472D
:102EC8007047704700207047002070477047002007
:102ED800704700207047006D7047806B7047000096
:102EE800024B1B6803B11847704700BF340707102F
:102EF8004FF4E1307047704780F8041170470000C4
:102F080070B50446D0F800010E4603681546DB6824
:102F18009847D4F8003101385B6904F58274584346
:102F2800094B2360094BE3614FF4FA43B0FBF3F01C
:102F3800074B20836360074B0020A360064BE360C8
:102F4800012334602B6070BD32AA3F02A5893D027F
:102F580000007A460000FA4500007A4510B504469C
:102F68001649503017F0EBFD154904F1680017F0C9
:102F7800E6FD134904F1800017F0E1FD104904F162
:102F8800980017F0DCFD0023C4F8B03000230C498A
:102F9800C4F8B43004F1B80017F0D1FD084904F1C1
:102FA800D00017F0CCFD04F1E800054917F0C7FD83
:102FB80023682046BDE810409B6818473DAA3F0299
:102FC8002CB23F0210B50446FFF7C8FF236820461D
:102FD8009B68984723682046BDE810401B6818473F
:102FE80030B4D0E9004524682A44A44630BC604780
:102FF80030B4D0E9004564682A44A44630BC604730
:1030080010B4D0E9003421449B685DF8044B18479C
:1030180038B53830154600231F220C4617F0C4FD7A
:10302800002328602354184638BD38B5503015465B
:1030380000231F220C4617F0B7FD002328602354F5
:10304800184638BD10B503695B1A934228BF13466A
:103058001C4601F11C032246002118441FF071FE92
:10306800204610BD30B54FF46D750446ADF56F7D43
:103078002A46002101A81FF064FE6168802201A889
:1030880020F026F8E169802221A820F021F894F8A0
:103098003430D4F898108DF80431D4F8B030802248
:1030A8004293D4F8B43044A8439320F011F8D4F8EC
:1030B8008010212264A820F00BF8D4F8B8108022E0
:1030C8000DF2B11020F004F8D4F8D01080220DF2DF
:1030D80031201FF0FDFFD4F8E81080220DF2B12056
:1030E8001FF0F6FFA16E80220DF231301FF0F0FFC5
:1030F800064BD4F80001ED9303682A465B6901A9E1
:10310800984701200DF56F7D30BD00BFEFBEADDEE5
:1031180020B50569AD1A9D4228BF1D4602F11C0362
:1031280018442A461FF0E6FD284620BD68B5064625
:1031380035690846AD1A9D4228BF1D4602F11C019B
:1031480031442A461FF0D6FD284668BD436913B1AD
:1031580083690C301847704713B5002104460846A8
:1031680004F0C6F80023204601A9019304F0EAF808
:10317800019C0CB1012323710021012004F0B8F84F
:103188002CB1236820469B6898470023237102B01E
:1031980010BDF8B5144686684269036856430F4661
:1031A800324600219B6805469847B0420AD12B68F1
:1031B80000225E68394623462846B047231A5842FB
:1031C8005841F8BD0020FCE780ED2C0A11B10368D6
:1031D8001B6818477047C0F8B41012B103681B6821
:1031E8001847704770B515460446E83017F09BFA43
:1031F8002DB123682046BDE870401B68184770BD94
:1032080070B515460446D03017F08DFA2DB12368F5
:103218002046BDE870401B68184770BD70B515465C
:103228000446B83017F07FFA2DB123682046BDE870
:1032380070401B68184770BD70B515460446983035
:1032480017F071FA2DB123682046BDE870401B685D
:10325800184770BD70B515460446803017F063FAFC
:103268002DB123682046BDE870401B68184770BD23
:1032780070B515460446683017F055FA2DB1236825
:103288002046BDE870401B68184770BD70B51546EC
:103298000446503017F047FA2DB123682046BDE8A0
:1032A80070401B68184770BD012A02D101600020D8
:1032B8007047022A04BF0B680360F8E703681847E1
:1032C80010B58368044613B1032201469847204687
:1032D80010BD07B58068002340B1CDE900131A4638
:1032E800022104F03DF8B0FA80F0400903B05DF81F
:1032F80004FB000013B5124C124BA068196058B1BA
:103308006FF000430022FDEEC07ACDE900320321C0
:1033180017EE903A04F024F800210948FFF7D9FF86
:10332800A068002350B16FF0004219460092019343
:103338001A4604F015F8B0FA80F0400902B010BD42
:10334800380707103407071010B504466FF000411E
:103358000548FFF7BEFF236820460021D3F88030D8
:103368009847012010BD00BF3807071038B50F4B2C
:103378000446036083689BB16FF00041FFF7A9FF23
:103388000021A06804F016F8237903F0FF0513B1B3
:1033980003F0A0FFF8E72946A06803F0C5FFA56081
:1033A80004F10C00FFF78CFF204638BD70AB3F02DC
:1033B80010B50446FFF7DAFF20461C21FEF769FD29
:1033C800204610BD10B50446144B40F8E83B17F0F2
:1033D8002FF904F1D00017F02BF904F1B80017F019
:1033E80027F904F1980017F023F904F1800017F089
:1033F8001FF904F1680017F01BF904F1500017F0E9
:1034080017F904F1380017F013F904F11C0017F04C
:103418000FF9201D17F00CF9204610BDCCAA3F0269
:103428000148FFF7CFBF00BF5407071073B5044624
:1034380016460D4619B912B10D4811F0E5F8731B7F
:103448000F2B019307D90022204601A917F0CEF8C7
:10345800019B2060A36032462946206817F05EF978
:103468000021019B22686360D15402B070BD00BF87
:103478007EA93F0237B50446214B01AA40F8043B18
:103488002049FFF765FB01AA1E4904F11C00FFF75C
:103498005FFB00231C4D84F8343001AA1B4904F15A
:1034A8003800FFF755FB01AA194904F15000FFF74E
:1034B8004FFB294601AA04F16800FFF749FB01AA5E
:1034C800144904F18000FFF743FB01AA124904F1F3
:1034D8009800FFF73DFB01AA104904F1B800FFF777
:1034E80037FB294601AA04F1D000FFF731FB0C494C
:1034F80001AA04F1E800FFF72BFB204603B030BD1A
:10350800CCAA3F022CB23F026EAA3F024FAA3F024A
:103518005CAA3F0273AA3F0281AA3F0223A93F0285
:1035280086AA3F02002210B5154B92B004461146F8
:10353800586804F025FA90F85C2090F85730049207
:1035480090F85B201221039290F85A20029290F88A
:103558005920019290F8582007A80092094A04F0CF
:10356800FDFA06AA07A90CA8FFF7F2FA0CA904F1BC
:10357800500017F04EF90CA817F05AF812B010BD09
:103588008897071097AA3F0213B504462422002102
:103598001FF0D7FB044901AA201DFFF7D9FA002321
:1035A8002046236202B010BD2CB23F0230B504465B
:1035B800ADF5757D4FF46D72002107A81FF0C1FBB2
:1035C800D4F800014FF46D72036807A99B69984706
:1035D800F39A454B9A4240F0838003AD27AA07A986
:1035E80001A80195FFF722FF01A9201D17F011F985
:1035F80001A817F01DF847AA27A901A80195FFF708
:1036080015FF01A904F11C0017F003F901A817F030
:103618000FF89DF81C316AAA84F83430489B4AA9EF
:10362800C4F8B030499B01A8C4F8B4300195FFF73D
:10363800FDFE01A904F1980017F0EBF801A816F0B7
:10364800F7FF0DF2C9126AA901A80195FFF7EEFE6E
:1036580001A904F1800017F0DCF801A816F0E8FFD2
:103668000DF249220DF2C91101A80195FFF7DEFEFE
:1036780001A904F1B80017F0CCF801A816F0D8FF9A
:103688000DF2C9220DF2492101A80195FFF7CEFEDE
:1036980001A904F1D00017F0BCF801A816F0C8FF82
:1036A8000DF249320DF2C92101A80195FFF7BEFEBE
:1036B80001A904F1E80017F0ACF801A816F0B8FF6A
:1036C8000DF2C9320DF2493101A80195FFF7AEFE9E
:1036D80001A904F1680017F09CF801A816F0A8FFEA
:1036E8000DF5757D30BD00BFEFBEADDE38B50446C3
:1036F8000D46FFF7BFFE084B20462360C4F8005173
:10370800FFF710FF2046FFF751FF044904F1380086
:1037180017F015FA204638BDB8AB3F02B5AA3F02EC
:1037280038B5194DD5E88F3F13F0010417D1284655
:10373800FEF7C2FB98B102224FF46D71134B402083
:10374800C3E901124FF40042C3E903024FF40072C7
:10375800C3E905240E4A28461A60FEF7B2FB0D4C51
:10376800D4E88F3FDB070DD42046FEF7A5FB48B110
:1037780006490948FFF7BAFF2046FEF7A2FB0748AB
:103788001EF094FC044838BD300707105C08071089
:1037980084AB3F022C07071054070710F14F3D0276
:1037A80070B5174B88B00493164A174B04AC1A60CF
:1037B800002294E8030002AE86E8030003F10C053A
:1037C80095E8030084E8030096E8030085E8030011
:1037D8000E491A71596199699A6007910C490692C4
:1037E800996103F108004FF47A71CDE90022094A82
:1037F80003F08CFD2046FFF763FD08B070BD00BFE5
:10380800B14A3D0270AB3F0238070710794E3D02BE
:103818008D4E3D02294D3D020020704700000000FA
:1038280020B105A3D3E90023C0E9002302A1D1E90F
:1038380000017047AFF3008083A745000000000037
:103848002DE9F84F04461646FFF76AFFDFF84C806B
:10385800D0F800711049DFF848A004EB060B5C456E
:1038680017D0D8F8005014F8012B05F003030135E0
:10387800CA54AB07C8F80050F1D1DAF800203B6809
:10388800043AD3F82090384604232A44C84702490A
:10389800E5E73046BDE8F88F848807107888071078
:1038A8007C88071008B58A080146074801F058F9CE
:1038B800064A136801331360054A1068834294BFAF
:1038C8000020012008BD00BF9CF906108088071061
:1038D800AC8807102DE9F04F2DED028B83B0904690
:1038E8008B460746FFF71CFF0446D0F800619E4848
:1038F80000F0A2FA236820461B6B984710EE100AC6
:10390800FDF72AFD02460B46984800F095FA236811
:1039180020469B6B98470146954800F08DFA23682E
:1039280020469B6A98470168924800F085FA236808
:1039380020461B6A984701688F4800F07DFA236883
:1039480020469B6A984701688C4800F075FA2368FE
:1039580020469B6B984708EE100A236820461B6B8D
:103968009847B8EE488AC8EE007AFCEEE77A17EE78
:10397800905A08FB05F5824BDFF84892C3ED007AB0
:1039880073696D00C9F80050B5FBF3F54FF0000AF4
:10399800B369DFF8348205FB0335B5F5FA6F2946BC
:1039A800784838BF4FF4FA61C8F800A000F044FA2C
:1039B800236801212046D3F8803098473368514660
:1039C8005B6A3046D9F800209847D9F80030984209
:1039D80006D00025284603B0BDEC028BBDE8F08F69
:1039E800B5F5FA6F03D2C5F5FA6000F003FAFFF7F0
:1039F80097FE0368D0F800911B6A9847624E0268E8
:103A08006249634802F034FC3946012300223046FB
:103A180000F00EFF014618B15E4800F00DFAD8E735
:103A2800F569B169013D002D00F08F804B5D002BD9
:103A380040F08D80013DF6E7574BDFF890A1C6F8BE
:103A4800C8300023554F5648CAF800503B6000F074
:103A5800F3F9236820461B6B98475248D847054618
:103A68000028B6D0236802212046D3F88030984732
:103A7800434BD8F800201B689A4203D20A2000F072
:103A8800B9F9F5E7FFF74CFED7F80090D0F800B188
:103A980019F00300DFF8108114D0C0F10402FF21EF
:103AA800D2B240441FF04DF9DAF80010DBF80030CC
:103AB80029F003020A44D3F82090414604235846CB
:103AC800C84704204FF0FF093A68DAF8003088F850
:103AD800009088F8019088F8029088F8039022F006
:103AE80003021A44DBF800300244D3F820802E4940
:103AF80004235846C0473B68B06801333B60012245
:103B080003698DF8049001A99847804600287FF43E
:103B180061AFB068316A43699847236820469B6B58
:103B28009847174B2148196800F086F9204800F09B
:103B380083F93A68DAF800301E4841461A4400F022
:103B48007BF91D4800F078F944E71C48FAE7D9F8F2
:103B5800003000221F6A48462B46B8478542014676
:103B68003FF46AAF164858E754AC3F0268AC3F02CE
:103B78007DAC3F028FAC3F029AAC3F02A9AC3F023A
:103B8800AC880710B9AC3F029CF90610888807106A
:103B9800B48C0710F0AC3F02D08C0710788807105F
:103BA80038AD3F0275543D028488071045AD3F0289
:103BB8006FAD3F0298AD3F0219A73F02E3AD3F0248
:103BC8000CAD3F02B0880710808807107C8807106A
:103BD800704710B504461021FEF75BF9204610BD6A
:103BE80007B51148694600680DF1020201AB02F001
:103BF800DFFB6A460021DFED0D6A9FED0D7A0D4867
:103C080032F9023B01315B0007EE903AF8EEE77AB1
:103C180067EEA67A67EE877A0329E0EC017AEFD19E
:103C2800044803B05DF804FBF08C07100000003A6C
:103C38000AE81C41E08C07100EB403B503AB53F837
:103C4800042B0021019304F00CFB02B05DF804EB97
:103C580003B0704773B5044622790846A36832B1A9
:103C6800A3B90B4902B0BDE8704004F0F1B9094AA4
:103C7800267B094D0949647B012E18BF2946CDE9E9
:103C880000140749FFF7D8FF02B070BD054AEFE7F7
:103C980012AE3F022CB23F020EAE3F020AAE3F0206
:103CA80028AE3F0201AE3F0230B52B4CB5B0D4E888
:103CB8008F1F11F001010BD120462F91FEF7FCF860
:103CC8002F9928B1254804F009FB2046FEF7F9F89A
:103CD800234B3020309300238DF8C430214B32938E
:103CE8000123ADF8CC30FEF7CCF8044620B10D2204
:103CF8001A4930AB02F00AFB1B4D20462C6002F03B
:103D0800A6FB642003F0B6FF184C286802F08CFB71
:103D180038B9204600F090F84FF47A7000F06AF84D
:103D2800F3E704230093002328681A461946104C29
:103D380002F0A2FB2868012102F08DFB04F11001BA
:103D4800B42268461EF0D6FF94E80F0000F042FB4C
:103D5800012035B030BD00BFD48C0710D88C0710B7
:103D680078AE3F0200093D00F08C071045AE3F02D7
:103D7800ACAE3F02014805F075B800BFEC8C0710E7
:103D880010B5FFF7CDFC04464FF4FA6003F072FF5C
:103D980004F02EFC4FF4E13104F01EFC084800F05A
:103DA8004BF8FFF781FF2046FEF7F0FD054C206039
:103DB800054800F041F82068BDE8104001F026BB36
:103DC80070AF3F02F48C0710A5AF3F0208B500F0B2
:103DD80021F8FF28014605D0034B1868BDE80840C4
:103DE80001F05EBD08BD00BFF48C07100021012062
:103DF80003F08EBD08B503F03DFF002008BD07B5F0
:103E0800019004F0F5FB036801999B6803B05DF825
:103E180004EB184708B504F0EBFB03681B699847E7
:103E2800002806DD04F0E4FB03685B699847C0B22C
:103E380008BD0020FCE700000FB413B504AB53F82D
:103E4800042B4FF480610B48019303F095FE002882
:103E58000BDD04F0CDFB04460648FDF7EDFF2368B3
:103E68000246DB6820460349984702B0BDE8104087
:103E780004B07047F88C071007B58DED010A04F0FF
:103E8800B7FB06219DED010A03B05DF804EB04F0D1
:103E9800D9B903F02BBE03F037BE00002DE9F74374
:103EA800064615460024DFF8EC804718BE4232D09B
:103EB80016F8011B02AA2244022C04F1010302F89D
:103EC800081C26D100249DF800200DF10409930850
:103ED8008DF8043012019DF8013002F0300202EB37
:103EE80013128DF805209B009DF8022003F03C0377
:103EF80003EB921302F03F028DF806308DF807208D
:103F080019F8013B013418F80300A847042CF7D12D
:103F180000231C46CAE7CCB326460027032CC4F16D
:103F280003024FF00001C8BF00220DEB04001EF091
:103F380008FF9DF800109DF802208B088DF80430CA
:103F480009019DF8013001F0300101EB13119B00CC
:103F580003F03C0303EB9213DFF8389002F03F02C2
:103F68008DF805108DF806308DF807200DF104083E
:103F780018F8013B013719F80300A847BC42F7DAE3
:103F8800022E03D83D20A8470136F9E703B0BDE863
:103F9800F08300BFCFAF3F022DE9F0470C4607463C
:103FA800FFF7BEFBD0F8008140F20120FFF771FF58
:103FB8000646DFF85090B4F5007F06D8BCB9304605
:103FC800FFF769FF0120BDE8F08740F20125D8F826
:103FD80000303A46D3F81CA031462B464046D0471D
:103FE800A84206D03046FFF756FF0020EBE72546EB
:103FF800EDE74A4629463046FFF750FF2F44641B39
:10400800D9E700BFCF593D0213B504468DED010A2B
:10401800FFF786FB074A146044B19DED010A036867
:1040280005499B6F02B0BDE810401847204602B012
:1040380010BD00BF089107100D5C3D022DE9F84F37
:10404800FFF76EFBDFF8C4900746D9F80000800040
:10405800FFF71FFF0446002854D000252E46DFF83E
:10406800B0B0DFF8B080DBF80030AB4239DDD8F80B
:1040780000304FEA850A53F82520D2F8BC30506842
:104088009BB900220020D8F8003053F80A104B687A
:10409800934224DDD1F8C0301341DB0742BF04EB63
:1040A8008603186001360132EDE798470028E8D00A
:1040B80003460021D8F8002052F80A0042688A42D4
:1040C8000DDDD0F8C02004330A41D20741BF53F8B0
:1040D800040C04EB8602106001360131EAE7013571
:1040E800C1E7D9F80010084B20461B68890098479B
:1040F80018B13B683846DB6F98472046BDE8F84F53
:10410800FFF7C9BEBDE8F88F08910710289107107E
:104118002C910710FC9007102DE9F04F2DED028B24
:10412800B1B0FFF7FDFA4FF00008754E754F3368D0
:104138000446D0F80051C7F800803BB94FF000089A
:10414800404631B0BDEC028BBDE8F08F2B682846A5
:10415800DB6898476D692368013845439B6B2046A7
:10416800984708EE100A236820461B6B9847D6F834
:104178000090B8EE488A4FEA890307EE903A88EE35
:10418800007AF8EE677A67EE277A77EEA77AFAFE72
:10419800677AFCEEE77A17EE903A9D4228D22368B8
:1041A80020461B6B4FEAC909984707EE109A07EE9D
:1041B800905AB8EE477AF8EE677AC7EE006A87EE4B
:1041C800A67AFBFE477AFDEEE77A4F4817EE901A7B
:1041D800FFF732FE236820461B6B9847F7EE007AFC
:1041E80087EE800AFFF748FE4848FFF725FEA7E755
:1041F800AC22414605A81EF0A4FD236820461B6991
:1042080098470368204605932368DB689847036846
:1042180020460693236844461B6B984740468DED1D
:10422800070A3B4B1B6801933A4BD3F800A0019B4C
:10423800A34237DD02464FF0000805AB03EBC00987
:104248005AF824103D684B6808EB02004345039276
:1042580009F1080924DD08F1030001EBC0014968F0
:10426800C9F804105AF8243003EBC0039B68C9F856
:1042780008305AF8243003EBC803D8690293FDF7D5
:10428800DBFD029B8346186AFDF7D6FD05F10E0398
:1042980003EB0B052844039A386008F10108CFE7BF
:1042A8000134C4E738680430FFF7F3FD05460028F9
:1042B8003FF444AF3A68941C14F0030415D03368F3
:1042C80030A901EBC30353F8A41C1EF001FF124FE1
:1042D8003946284601341EF0CEFE042CF8D1336846
:1042E80030AA02EBC30343F8A45C32680B4992007E
:1042F80005A8FFF7EFFA80462846FFF7CCFD1FE731
:1043080028910710F890071010B03F024CB03F02F8
:104318002C910710FC90071039E53F02D95B3D024C
:104328002DE9F347284BD0E90089A9EB0804A4102C
:104338005C43264B8A469C420746114602D12448D4
:1043480010F068F9012C224638BF0122A418AAEB04
:10435800080535D2B4B39C4228BF1C46C42060432C
:104368000191FDF78EFD06460199701902D0C4220D
:104378001EF0C0FC002D04DD2A46414630461EF0E2
:10438800C6FCA9EB0A09C435B9F1000F354404DDB0
:104398004A46514628461EF0ADFC4D44B8F1000F80
:1043A80005D0B9684046A1EB0801FDF772FDC420AD
:1043B80000FB0464C7E90065BC6002B0BDE8F08793
:1043C8001C46CBE72646D0E7D1581F1A052FA70071
:1043D80052B03F0284B010B502AC84E80F000C4C18
:1043E800D4E9010398420CD018B1C42202A91EF0E6
:1043F80081FC6368C43363600120BDE8104004B0E9
:104408007047014602AA2046FFF78AFFF4E700BF7B
:10441800109107102DE9F84F6FF06043D0E900893B
:104428009346A9EB0802B3EBA20F07468A464FEA68
:10443800A20402D11F4810F0EDF8012C224638BF23
:104448000122A418A1EB080530D28CB39C4228BFE6
:104458001C46A000FDF715FD0646EE421CBFDBF822
:1044680000307351002D04DD2A46414630461EF0C7
:104478004EFCA9EB0A090435B9F1000F354404DDF7
:104488004A46514628461EF035FC4D44B8F1000F07
:1044980005D0B9684046A1EB0801FDF7FAFC06EB28
:1044A8008404C7E90065BC60BDE8F88F1C46D0E706
:1044B8002646D2E752B03F0200232DE9F04F0546C9
:1044C8000027854A854C864E89B033601360DFF833
:1044D8001C92D4E900329342039118BF6360D9E972
:1044E80000239B1A7F4A9B1053439F4211D2D4E961
:1044F800011200239142079306D001B10B60636853
:10450800043363600137EAE7744807AAFFF782FFBC
:10451800F8E72846FDF790FC0130FFF7BAFC07469C
:10452800002800F0BF802846FDF786FC0021421CC9
:1045380038461EF006FC2846FDF77EFC2946024652
:1045480038461EF0C5FD384667491FF073FC4FF02A
:10455800000805467DB3002362490093D9E900238A
:104568009B1A9B104B430099994280F098800B4608
:10457800C4214B430193039B3BBB019B2846D15865
:1045880002EB03081EF0B7FD10B9009B0133E3E707
:104598003368D4F800B0DDF80CA0534540F38480AC
:1045A8005BF82A202846116800931EF0A4FD009BA2
:1045B80040B14FF001083846FFF76DFC404609B09E
:1045C800BDE8F08F0AF1010AE7E74FF00008C3469B
:1045D800D9F80030019A03EB020ADAF804304345AF
:1045E8004FDD0AEBC8032846D9691EF084FD002870
:1045F80032D04FF0000B336802932368029A5A4571
:104608000BDD53F82B202846116804931EF073FD28
:1046180000BB049B0BF1010BF0E74FF0000B029A73
:104628005A451FDD53F82B20DAF80010106805935F
:1046380004921EF060FDDDE9042380B1012303FA32
:1046480008F1D2F8C0300B43C2F8C030224A1368D0
:10465800013313604FF0010B08F10108B8E70BF1C3
:10466800010BDCE70121029A01FA08F143F822A0C4
:104678003368226852F823200133C2F8C01033602F
:10468800E4E7BBF1000F80D03368002B91DC0020F9
:1046980015491FF0CFFB4FF0010805465AE74FF0C8
:1046A800000888E7804689E701204BF82380019AB3
:1046B800D9F80030084913445B680A681A440A604C
:1046C8003268216800FA03F351F82210013B0244D2
:1046D800C1F8C0303260D7E728910710FC90071066
:1046E8002C910710D1581F1A2FB23F0210910710B2
:1046F80008B5084804F0B6FB0023074AC2E90033AE
:104708009360064AC2E900339360054AC2E9003360
:10471800936008BD0C910710109107101C910710A9
:10472800FC90071037B5054608460C46FDF784FB94
:104738000321CDE90040284602AB13E90C0003B081
:10474800BDE83040FDF741BD00220521FDF7BBBDA6
:1047580010B40446D4F8C83008462BB1E4680121E7
:10476800A4465DF8044B604701485DF8044B704768
:1047780085E8FFFFF0B5D0F8C830054685B01BB90D
:10478800194C204605B0F0BD00F12806314602A8B4
:10479800FDF7D8FB304602A9FDF70BFE04460028BA
:1047A800EFD1DDE90272D5F8C830002BE8D0A8684F
:1047B800394603690192984704460028E1D1019AD5
:1047C80039462846FFF7C4FF019A824209D121469B
:1047D80038461EF0B6FAD5E906123046FDF7DFFC7A
:1047E800CFE7024CCDE700BF85E8FFFF81E8FFFF78
:1047F8007FB56E46054608460C4686E80C00FDF770
:104808001BFBCDE9024002AC284694E80C000321CA
:10481800FDF7DBFC96E8030084E80300032194E835
:104828000C00284604B0BDE87040FDF7CEBC00007F
:104838002DE9F04F2DED028B0E469046044689B0C7
:10484800002800F04081002900F03F8112B9002BB8
:1048580000F03D81A36862685B68934280F039810B
:1048680020685B006362D31A0344236200211EF0B0
:1048780068FA626A3021206A1EF063FA6368626A25
:10488800C4F8C8809B1AE3612368A361E368002B1E
:1048980000F021812369002B00F01F81A068002807
:1048A80000F01D818368002B00F01B810269002A3B
:1048B80000F019814269002A00F017817268002A05
:1048C80000F0158198470546002840F0F680D4E9A5
:1048D800061204F12805C4F8C0002846FDF75FFC5D
:1048E80005212846FDF7B8FC28468349FFF71AFF3B
:1048F80005212846FDF7B0FC804B0DF11009049303
:104908000223059399E80C007D492846FFF770FFBC
:10491800A36806AF18680690FDF78EFA079097E827
:104928000C0028467749FFF763FFA068C3680BB1FE
:10493800294698472846FFF707FF236A2846069323
:10494800636A7149079397E80C00FFF751FF2846FF
:104958006E49FFF7E7FE28460521FDF77DFC306824
:1049680048B10690FDF768FA07906949284697E824
:104978000C00FFF73DFF7068DFF8DCA10290FDF73F
:104988005BFA029A0346634903902846FFF730FF13
:10499800B068FCF7E1FC41EC180B5F492846FFF7CB
:1049A800C1FEB0EE480AF0EE680A2846FDF744FC5E
:1049B80028465A49FFF7B6FE04212846FDF74CFC65
:1049C800DFF898B106F1A0030193F3682BB31B78C5
:1049D8001BB333690BB3D4F8C0300133C4F8C0300B
:1049E80030690490FDF728FA052105902846FDF75F
:1049F80033FCF0680690FDF71FFA0790514697E8D8
:104A08000C002846FFF7F4FE99E80C0028465946A2
:104A1800FFF7EEFE2846FFF797FE019B0836B342E4
:104A2800D3D1002228460421FDF74DFC28463C49F5
:104A3800FFF778FE28460C21FDF732FC00220C21F6
:104A48002846FDF780FC2846FFF77EFE2846FFF73C
:104A58007BFE29463846FDF775FA28463946FDF7A4
:104A6800A8FC054648BB079ED4F82490013E069F43
:104A78000796A6EB090AAA453BD04A46216A781947
:104A88001EF028F908B10135F5E7002D31D0A068EE
:104A9800C4F8C4503246394603699847054660B998
:104AA800B8F1000F09D0DDE906122046FFF750FEE5
:104AB800079A1C4B904218BF1D46284609B0BDEC0A
:104AC800028BBDE8F08F184DF7E7184DF5E7184D44
:104AD800F3E7184DF1E7184DEFE7184DEDE7184DDE
:104AE800EBE7184DE9E7184DE7E7184DE5E7184DEE
:104AF800E3E7184DE1E700BF6FB03F026CB03F023B
:104B080079B03F027DB03F0281B03F028BB03F02D7
:104B180093B03F029FB03F02ABB03F02B7B03F0235
:104B2800C5B03F0281E8FFFF87E8FFFF86E8FFFF87
:104B380085E8FFFF8FE8FFFF8DE8FFFF8CE8FFFFA8
:104B48007EE8FFFF8AE8FFFF89E8FFFF88E8FFFFAC
:104B580084E8FFFF82E8FFFF9AB03F02BFB03F0240
:104B68002DE9F041D0F8C080044690450D4617461F
:104B780038D1D0F8C830C3B3C2690021806904F1C4
:104B880028061EF0DEF8D4E906123046FDF707FBCA
:104B9800B8F1010F0CD12868FCF7DEFB41EC100BD3
:104BA8003046FDF749FB2046BDE8F041FFF7E2BD7E
:104BB80004213046FDF750FB4FF00008B8450BD0F4
:104BC80055F8040BFCF7C8FB41EC100B3046FDF719
:104BD80033FB08F10108F1E7002204213046FDF714
:104BE80072FBE0E70248BDE8F0810248FBE700BF3E
:104BF80080E8FFFF85E8FFFF2DE9F047B2B06A467D
:104C08004D4908A8FDF7A4FF4C4901AA0EA8FDF7D5
:104C18009FFF4B4902AA14A8FDF79AFF494903AA26
:104C28001AA8FDF795FF484904AA20A8FDF790FFA8
:104C3800464905AA26A8FDF78BFF454906AA2CA8D0
:104C4800FDF786FFA820FDF71CF94FF0000905467F
:104C58000EAE00F1180400F1C008182CA4F11800D9
:104C680027D0A4F1100344F8183C56E9067307EB63
:104C7800030A2FB9BAF1000F02D036480FF0C4FC6E
:104C88000F2B079308D9002207A915F0AFFC079B43
:104C980044F8180C44F8103C5246394654F8180C9D
:104CA80015F037FD079B54F8182C44F8143C02F80B
:104CB800039027461834A04506F11806CDD10624DE
:104CC800182608AB06FB043015F0B2FC013CF8D2FC
:104CD8002148FFF7B1F82148FFF7AEF81E48FFF763
:104CE800ABF81F48FFF7A8F81E48FFF7A5F81E48BD
:104CF800FFF7A2F81D48FFF79FF842F2DD111C48A4
:104D0800FFF79AF84FF485711A48FFF795F8296B61
:104D18001948FFF791F82C46A74204D0204615F011
:104D280087FC1834F8E72846A821FDF7B2F80120D7
:104D380032B0BDE8F08700BFCCB03F02D4B03F022C
:104D4800DFB03F02EDB03F02F4B03F02F9B03F02DE
:104D580007B13F027EA93F020EB13F0229B13F02CF
:104D680044B13F0268B13F0289B13F02B0B13F028E
:104D7800D9B13F02F4B13F020FB23F0273B500F15F
:104D880008030360D1E900530446EE181DB916B1B3
:104D98000C480FF039FC0F2B019307D9002220464D
:104DA80001A915F023FC019B2060A3603246294627
:104DB800206815F0AEFC0021019B22686360D15485
:104DC80002B070BD7EA93F0273B5044616460D4673
:104DD80019B912B10D480FF017FC731B0F2B019373
:104DE80007D90022204601A915F000FC019B20608C
:104DF800A36032462946206815F090FC0021019BEB
:104E080022686360D15402B070BD00BF7EA93F0222
:104E18000B4670B50C4653F8081B054699420068C6
:104E28000DD162680AB115F031FC002163682A6867
:104E38006B60D154002322686360137070BD05F164
:104E48000806B04208BF00202960616818BFAA6838
:104E58006960A168A96010B12060A260EAE72360D8
:104E6800E8E7F8B50D4614460027A8421FD000F120
:104E780018069CB1034604F10802226053F8081B87
:104E8800994210D1194651F804CBB14242F804CBEB
:104E9800F9D142686260C0E90037077215F0C8FBB3
:104EA80018343046E1E721608268A260F1E72046C5
:104EB800F8BDF8B5032303700023426883601370BC
:104EC800D0E90767BE42044607D03546284618355C
:104ED80015F0AEFBAF42F9D126620023A362F8BDFC
:104EE8002DE9F347244BD0E90087A7EB0804E41029
:104EF8005C43224B0E469C420546114602D120488F
:104F08000FF088FB012C224638BF0122A418A6EB1B
:104F1800080A2DD274B39C4228BF1C46182060434F
:104F28000191FCF7AEFF8146019919EB0A0001D007
:104F3800FFF724FF31464A464046FFF792FF3946BD
:104F480000F118023046FFF78CFF0646B8F1000F53
:104F580005D0A9684046A1EB0801FCF79AFF182084
:104F680000FB0494C5E90096AC6002B0BDE8F08788
:104F78001C46D3E7A146D8E7ABAAAAAA55555505BA
:104F880052B03F0238B5D0E90135AB4204460A4673
:104F980007D013B11846FFF7F1FE63681833636052
:104FA80038BD1946FFF79CFFFAE700002DE9F047E6
:104FB8000C4600268CB002AB0093054601968DF88E
:104FC8000860FFF776FF636843B903232B706846D0
:104FD80015F02EFB28460CB0BDE8F08732465E4936
:104FE800204615F0D0FE4FF0FF330246214606A8B2
:104FF80015F074FF06A92046FFF70AFF06A815F06A
:1050080017FB32462046554915F071FE0746002821
:10501800DBD14FF0FF330322214606A815F05EFFCF
:1050280006A92046FFF7F4FE06A815F001FB4FF08D
:10503800FF324B49204615F0DAFE4FF0FF32411C93
:10504800204615F069FC0146204615F06CFB3A46EF
:105058004449204615F070FE064603463A46214666
:1050680006A815F03BFF06A9281DFFF7D1FE06A8E4
:1050780015F0DEFA731C01D12F70A8E731462046DF
:1050880015F020FC03783D2B26D102232B703146E6
:10509800204615F017FC03783D2B98D13246204660
:1050A800314915F049FE8246DFF8BC9008AF05F19A
:1050B8001C08721CBAF1FF3FD4E9000300EB02019F
:1050C80030D00AF1FF309A42A0EB0600069708D9C3
:1050D800264927480FF0A4FA3F2B0CBF01230323CE
:1050E800D4E79B1A834294BFCA180A1806A8FFF788
:1050F8006BFE06A96846FFF78BFE06A815F098FA1E
:1051080069464046FFF73EFFAA6A019B49469A4214
:1051180020460AF1010238BFAB6215F00DFE564673
:105128008246C6E79A420697D2D8C21806A8FFF761
:105138004BFE06A96846FFF76BFE06A815F078FA3D
:1051480069464046FFF71EFF019BAA6A9A42BFF4D0
:105158003EAFAB623BE700BF2AB23F022DB23F022F
:1051680031B23F0235B23F0238B23F023AB23F0293
:1051780055B23F0201207047012A02D10160002088
:105188007047022A04BF0B680360F8E710B40C46A6
:105198000368116820685DF8044B1847012A02D19A
:1051A800016000207047022A04BF0B680360F8E71B
:1051B800036818470B4670B50C4653F8081B05469C
:1051C800994200680DD162680AB115F05FFA0021B2
:1051D80063682A686B60D154002322686360137087
:1051E80070BD05F10806B04208BF0020296061685B
:1051F80018BFAA686960A168A96010B12060A260A0
:10520800EAE72360E8E71FB5044608460391FCF780
:1052180013FE00210090039B2046626815F004FCF1
:1052280004B010BD73B500F108030360D1E9005361
:105238000446EE181DB916B10C480FF0E5F90F2B0E
:10524800019307D90022204601A915F0CFF9019B47
:105258002060A36032462946206815F05AFA0021DA
:10526800019B22686360D15402B070BD7EA93F02E1
:10527800034B186818B19968091AFCF70ABE7047F9
:10528800389107100B4670B500F10802026053F818
:10529800084B9C420FD11C4601F1180554F8046BC9
:1052A800AC4242F8046BF9D10B6000234A684B60AA
:1052B80042600B7270BD8A6804608260F4E7000087
:1052C80073B50D46466881690446D5E90032B14296
:1052D80008D1194615F037FCA3696A681344A3611D
:1052E80002B070BD05D90A463346044904480FF098
:1052F80097F90092002215F097FBEDE78CB23F0278
:1053080055B23F0243688B4201DA83617047002936
:1053180001DA0023F9E78161704710B5044660306F
:1053280015F086F904F15000FDF7CAFF04F14000BA
:10533800FDF7C6FF04F13000FDF7C2FF04F11800C5
:1053480015F076F9204615F073F9204610BD0000D7
:105358002DE9F843064600252548FEF76DFD25484A
:10536800FEF76AFD7469244FDFF89880DFF898909B
:105378006034B269A4F160039A4235D054F8283CED
:105388003BB954F8183C53B954F8083C3BB9783445
:10539800EFE754F8601C1948FEF74EFD012554F854
:1053A800183C2BB154F8601C1548FEF745FD012543
:1053B80054F8083C5BB9002DE9D054F8443C23B1BB
:1053C800384654F8481CFEF737FD0125DFE741460B
:1053D800204615F01BFD0028EDD04846226854F8F9
:1053E800601CFEF729FDE8E70120BDE8F88300BF4F
:1053F800A2B23F02C8B23F0226B33F020DB33F023A
:1054080014B33F022CB23F021CB33F020148FEF71F
:1054180013BD00BF2CB33F0270B50446D0E9005657
:10542800AE4204D0284615F003F91835F8E720688D
:1054380018B1A168091AFCF72CFD204670BD70B59B
:1054480004465830FFF7E8FF04F1400015F0F0F883
:1054580004F1200015F0ECF8D4E90556AE4204D06A
:105468002846FFF75AFF7835F8E7606918B1E1690F
:10547800091AFCF70EFD2046FFF7CEFF204670BD47
:1054880008B542684B689A4208D14AB10968006871
:105498001DF020FCB0FA80F0400908BD0020FCE7B0
:1054A8000120FAE710B5D0E90042121B914202D35D
:1054B80002480FF0B5F8601810BD00BF2FB33F02C7
:1054C80010B582680AB90FF0CAF8C368BDE8104081
:1054D800184700002DE9F04F95B00CAB82460A93AF
:1054E800002303A8CDE910330B938DF830301293C5
:1054F8008846FFF797FE03A90AF13C00FFF756FD1F
:105508000146064611F8043B0AA88DF824300DF12F
:10551800400915F008F906F11C03994538D0D6E979
:105528000745DDF840B0129B2F1BA3EB0B03BB42D2
:105538003ED2A7B1894B9F4201D90FF05FF8384698
:10554800FCF79FFC83465846A5420AD020B1214665
:105558000090FFF767FE009818301834F4E7BB4650
:10556800F1E7DDE91045A54204D0204615F060F8C2
:105578001834F8E7109818B11299091AFCF789FC41
:105588000BEB0700CDF840B01290109B3B441193F1
:10559800B36A03A8139315F04BF89DF82430032B36
:1055A8004AD1D8F800106E48FEF746FC01244FE0B7
:1055B800119B6C4DA3EB0B039F421FD8F81045437A
:1055C80058462B46002B019309DD2146009015F023
:1055D800AAF80098019B18341830013BF2E7182408
:1055E80025EAE57504FB05B4119BA3420093CCD0D2
:1055F800204615F01DF81834009BF6E7DB105D43D4
:10560800002D08DD2146584615F08DF818340BF1A9
:10561800180B013DF4E7DDE91045291BF469D6F8BC
:1056280020B00C44A345B0D01DB121462846FFF751
:10563800F9FD18341835F5E74B490AA815F0E6FBCB
:1056480080B99DF824306BB95046FFF781FE0446B7
:105658004846FFF7E1FE0AA814F0EAFF204615B015
:10566800BDE8F08FDAE90567BE42354673D03046AB
:105678000AA9FFF705FF783604460028F4D09DF8FC
:10568800243033B9AB6B43B105F13000FFF718FF95
:10569800DDE7012B07D0022B0BD0D8F800103348D8
:1056A800FEF7CAFBD4E7AB6C002BF6D005F140003F
:1056B800ECE7AB6D002BF0D0DDE91030294CC01AB7
:1056C800C01060438000FEF7E4FB4FF00008064678
:1056D8001827DDE910239B1ADB10634398451AD27B
:1056E80013980130FEF7D5FB46F82800DDE91032A3
:1056F800D21AD2106243904503D341461C480EF09B
:105708008FFF07FB08F1139A595801321DF0E0FC8E
:1057180008F10108DDE7CDE90263AB6D0BB90EF0C6
:105728009EFFEB6D05F1500003AA02A998470025DA
:1057380004460C4FDDE910239B1ADB107B439D4286
:1057480005D256F82500FEF7A6FB0135F2E73046EC
:10575800FEF7A1FB7CE70A99064825E7F8FFFF7FDB
:1057680079B33F02ABAAAAAA96B33F029BB33F0202
:105778002FB33F02B9B33F020A4673B504461F4927
:105788001046019215F042FBB0B3D4E901039842E8
:10579800019A20D010B11146FFF744FD6368183311
:1057A80063601749D4E900031A1AD2104A43E5681E
:1057B800AA421AD900F11805AB4211D05D1BED10B1
:1057C8004D43002D00F118060ADD3146FFF7F2FCC3
:1057D800013D3046F5E701462046FFF781FBE0E74B
:1057E80060681838606014F023FFD4E900239B1A1E
:1057F800034ADB105343236102B070BD2CB23F0251
:10580800ABAAAAAA2DE9F84F6FF00043D0E90089A6
:10581800A9EB08049C4207468A46934602D11F48D2
:105828000EF0F8FE012C224638BF0122A418A1EB85
:1058380008052ED2002C2CDB2DD02046FCF721FBAE
:105848000646EE421CBF9BF800307355002D04DD60
:105858002A46414630461DF05AFAA9EB0A09013595
:10586800B9F1000F354404DD4A46514628461DF07B
:1058780041FA4D44B8F1000F05D0B9684046A1EB94
:105888000801FCF706FB3444C7E90065BC60BDE8C5
:10589800F88F1C46D1E72646D3E700BF52B03F0237
:1058A800F0B593B008AB069304460023A14E8DF8DB
:1058B8000F1007938DF82030D6E88F5F15F001059B
:1058C8000DD13046FCF7F8FA48B19B4B3046C3E996
:1058D80000559D60FCF7F5FA98481CF0E7FB984FD7
:1058E8003D78002D00F03C81934DD5E90113994294
:1058F80055D011B19DF80F300B706B6801336B6098
:105908009DF80F2022F02003413B192B01D97E2A54
:1059180040D1D5E9002300269B1A022B3E7040F0A7
:10592800CD8031468448FFF7BDFD03785B2B40F0FE
:10593800DC8001218048FFF7B5FD0378412B3CD17D
:105948008048FEF779FA23690BB1013B2361D4E95A
:1059580000329A4229D17C4905AA0CA8FDF7F8F82B
:105968000CA906A8FFF726FC0CA814F061FE0699FE
:105978007648FEF761FA0023226A636206A913706B
:1059880004F12000A363FFF79BFCD5E900329342A2
:1059980000D06B6006A814F04BFE13B0F0BD28468B
:1059A8000DF10F02FFF72EFFAAE71821226901FB6C
:1059B80002310CA8FFF736FCD2E701215E48FFF759
:1059C80071FD0378422B13D15E48FEF735FAD4E90E
:1059D80000135F485B1ADB104343226901329A4285
:1059E800226101D32361B6E7182303FB0211E0E724
:1059F80001215148FFF756FD0378442B17D1A16BBD
:105A080019B95048FEF718FABFE704F12000013928
:105A1800FFF778FC1B20FEF7F2F9D5E900239B1A63
:105A28009E42B2D2905DFEF7EAF90136F5E7012110
:105A38004148FFF737FD0378432B15D1A16B636A03
:105A48009942DED004F120000131FFF75BFC1B20F6
:105A5800FEF7D5F9D5E900239B1A9E4295D2905DB1
:105A6800FEF7CDF90136F5E701213348FFF71AFDB6
:105A78000378482B13D104F1200731463846FFF745
:105A880041FC39460CA8FFF7CDFBA26B0C993148B5
:105A98000332FEF7D1F90CA814F0CAFD75E701210D
:105AA8002548FFF7FFFC0378462B1ED104F120069A
:105AB8003046616AFFF726FC3146E3E7032B14D131
:105AC80031461D48FFF7EEFC03785B2B0DD1012111
:105AD8001948FFF7E7FC0378332B06D10221164853
:105AE800FFF7E0FC03787E2B0ED01B20FEF787F92A
:105AF8000024D5E900239B1A9C42BFF446AF105DF1
:105B0800FEF77DF90134F4E7636A002B3FF43DAFFB
:105B1800A16B8B423FF439AF04F1200604D20A4648
:105B28000D490E480EF07CFD0122304614F05CFE53
:105B3800C2E700BF3091071038910710416E3D024F
:105B480034910710D5B33F022CB23F02D9B33F02BC
:105B5800ABAAAAAAE3B33F02F1B33F0255B23F0290
:105B68009DF80F000D2842D018D808281AD00A2806
:105B78003FF410AFA0F120035E2B3FF60BAFA16BF3
:105B8800636A04F1200599428DF8300067D16FF0FF
:105B98004043994253D13C480EF03CFD1B284AD063
:105BA8007F28E7D1636A002B3FF4F4AEA16B00298C
:105BB8003FF4F0AE01398B42B1D35A1A012A04F1ED
:105BC800200528BF0122284614F00EFEA36B2946A3
:105BD800013B0CA8A363FFF725FBA26B0C992B488C
:105BE8000332FEF729F90CA814F022FDD2E6FEF7DD
:105BF80006F90A20FEF703F904F120010CA8FFF7C3
:105C080011FB0CA906A8FFF7D5FA0CA814F010FD93
:105C1800204606A9FFF7B0FD204606A9FFF75AFC63
:105C2800236A65621D70A56300283FF4B3AE184867
:105C3800FEF702F9AEE6012316483B70F8E70122A9
:105C480028460CA914F07FFFA36B626A01339A42BD
:105C5800A36310D19DF80F00FEF7D1F89AE602D998
:105C68000A460D495DE701230022009328460CAB44
:105C780014F0DAFEE8E729460CA8FFF7D3FAA26B7E
:105C88000C9906480332ACE709B43F02E3B33F027C
:105C98002CB33F0205B43F028CB23F021EB43F0250
:105CA80013B56C460B460246D0E9000184E80300B0
:105CB80093E8030082E8030094E8030083E8030004
:105CC80002B010BD38B505460C46FFF7E9FFAB68D2
:105CD800A268AA60A360EB68E268EA60E36038BD86
:105CE8001FB50023029321B1074B00910393074B83
:105CF800029301466846FFF7E5FF6846FDF7E0FABC
:105D080005B05DF804FB00BF816D3D026D6D3D027D
:105D180038B505460C46FFF7C3FFAB68A268AA6012
:105D2800A360EB68E268EA60E36038BDF8B5054651
:105D38000E4614460027B5422BD024B329462046E8
:105D4800FFF7A0FA05F1180104F11800FFF79AFA15
:105D580004F1300105F13000A763FFF7B3FF04F148
:105D6800400105F14000A764FFF7ACFF04F15001C2
:105D780005F15000A765FFF7CBFF05F1600104F1BD
:105D88006000FFF77FFA2846FFF7C7FA78357834BE
:105D9800D1E72046F8BD00001FB50023029321B1CA
:105DA800074B00910393074B029301466846FFF7A0
:105DB800AFFF6846FDF784FA05B05DF804FB00BF45
:105DC8005D6D3D02496D3D022DE9F043456801F1E5
:105DD80078039D4207460E4685B04AD00C464FF0E0
:105DE8000008ED1A274BED105D43002D41DD04F14D
:105DF800780920464946FFF7DDF904F1900104F1DE
:105E08001800FFF7D7F904F1A8006946CDF8088013
:105E1800FFF758FF04F130016846FFF753FF684663
:105E2800FDF74EFA04F1B8006946CDF80880FFF78F
:105E380049FF04F140016846FFF744FF6846FDF753
:105E48003FFA04F1C8006946CDF80880FFF760FF03
:105E580004F150016846FFF75BFF6846FDF730FA2A
:105E680004F1D80104F16000FFF7A4F94C46013DA4
:105E7800BBE7786878387860FFF74FFA304605B0A6
:105E8800BDE8F083EFEEEEEE38B5002383608B6853
:105E980004460D462BB102229847EB68E360AB68D5
:105EA800A360204638BD38B504460D46FFF7BAF959
:105EB80005F1180104F11800FFF7B4F905F13001F4
:105EC80004F13000FFF7E0FF05F1400104F1400064
:105ED800FFF7DAFF0023A365AB6D4BB1022205F192
:105EE800500104F150009847EB6DE365AB6DA36575
:105EF80004F1600005F16001FFF794F9204638BD10
:105F08002DE9F347244BD0E90087A7EB0804E410F8
:105F18005C43224B0E469C420546114602D120485E
:105F28000EF078FB012C224638BF0122A418A6EBFC
:105F3800080A2DD274B39C4228BF1C4678206043BF
:105F48000191FBF79EFF8146019919EB0A0001D0E8
:105F5800FFF7A9FF31464A464046FFF7E7FE3946B4
:105F680000F178023046FFF7E1FE0646B8F1000F6F
:105F780005D0A9684046A1EB0801FBF78AFF782005
:105F880000FB0494C5E90096AC6002B0BDE8F08758
:105F98001C46D3E7A146D8E7EFEEEEEE111111014A
:105FA80052B03F0238B5D0E90135AB4204460A4643
:105FB80007D013B11846FFF776FF6368783363603C
:105FC80038BD1946FFF79CFFFAE70000F0B500243A
:105FD800A7B00AAB089310ABCDE90E34304922AB19
:105FE800054608A8CDE9203409948DF828408DF895
:105FF800404016941A941E948DF88840FFF703F9D0
:1060080028490EA8FFF7FFF8274F284B284E14A958
:1060180002A8029305970496FFF754FE02A8FDF71D
:106028004FF91A9B2BB118A9032208469847CDE9C6
:106038001A441E9B33B11CA9032208469847002323
:10604800CDE91E3301AA1B4902A8FCF781FD02A96C
:1060580020A8FFF7AFF8143502A814F0E9FA28468B
:1060680008A9FFF79FFF08A81349FFF7CCF80EA867
:106078001249FFF7C8F8124B14A902A80293CDE9F8
:106088000467FFF71FFE02A8FDF71AF9284608A9BA
:10609800FFF788FF08A8FFF740F927B0F0BD00BF59
:1060A80096B33F0229B43F02816D3D02456D3D0222
:1060B8006D6D3D022CB23F023CB43F0241B43F0239
:1060C800C9673D022DE9F0410D4604460E492846B0
:1060D80014F09CFEB0B1D4E90568464537460BD0AC
:1060E80030462946FFF7CCF978360028F5D03946EE
:1060F80004F11400FFF768FE04F114002946FFF7C5
:1061080051FF0120BDE8F08196B33F022DE9F3412C
:10611800002504461646C0E90253C0E90055C0E907
:106128000455C0E906550F4601AA10492030FCF76E
:106138000FFD04F14803C4E91035C4E91655A563F9
:1061480084F84850256656B14FB14FF0780808FBDF
:10615800057120460135FFF7B5FFAE42F7D120465D
:10616800FFF734FF204602B0BDE8F0812CB23F02B1
:106178002DE9F041002417461E46A6B00AAB089345
:1061880010ABCDE90E34054622AB08A8CDE9203482
:10619800DDF8B88009948DF828408DF840401694B1
:1061A8001A941E948DF88840FFF72DF839460EA8EA
:1061B800FFF729F8314614A8FFF792FD2C9918A883
:1061C800FFF78EFD2D991CA8FFF7E6FDB8F1000F2B
:1061D8000BD0414601AA02A8FCF7BAFC20A802A9E4
:1061E800FEF7E8FF02A814F023FA08A92846FFF7EB
:1061F80069FF044608A8FFF790F8204626B0BDE8D6
:10620800F08100000148FFF71AB900BF4891071054
:1062180073B5134605460E460C4CD4E88F2FD207AB
:1062280010D420460193FBF747FE019B50B132463C
:1062380029460748FFF76AFF2046FBF742FE054854
:106248001BF034FF024802B070BD00BF4491071034
:1062580048910710D57D3D0200210A220846FFF724
:10626800D7BF00207047002070470020704700000B
:1062780070B513460446084602F1200553F8046B2E
:10628800AB4240F8046BF9D10023104681F8203066
:10629800FBF7D2FD202802D90848FDF7CDFD084BB1
:1062A800084A2360202363600023C4E90223A36112
:1062B800054B2361054B636170BD00BF75B43F0298
:1062C800DEB43F02337E3D02377E3D023B7E3D0217
:1062D800084B1A68084B02F13001C3F8AC1002F100
:1062E80010015A60C3F8C420C3F8DC10C3F8F420C6
:1062F800704700BFB091071068FA0610704710B5D4
:1063080004463021FBF7C5FD204610BD30B582603C
:10631800094A0A4DC2601A79C0E9005102749A68A4
:106328009B89426103834FF4007383830023836254
:1063380080F82C3030BD00BF78AE3F023CBB3F0236
:1063480010B590F82C30044633B90123018980F840
:106358002C30406801F0CCFF04F10C01606801F0BA
:10636800F5FF20890021BDE8104002F089BA10B578
:1063780004460121008902F083FA6068BDE81040F4
:1063880001F0CABF10B586B00446CDE904210393D5
:10639800FFF7D6FFDDE90332002005990090606819
:1063A80002F042F8204606B0BDE81040FFF7DFBF14
:1063B800F0B51D460B2385B08DF800300E238DF8FF
:1063C8000130082300240F46164669460DEB0302E8
:1063D8008DF802408DF803408DF804408DF8054093
:1063E8008DF806408DF80740FFF7CCFFBDF80A305E
:1063F8003B80BDF80C303380BDF80E302B8005B0E3
:10640800F0BD0B2307B58DF8003000238DF801107F
:106418008DF802306946032301AAFFF7B3FF9DF800
:10642800060003B05DF804FB0B21FFF7EABF0A235F
:1064380007B58DF800308DF801108DF80220032380
:10644800694601AAFFF79EFF03B05DF804FB5222DC
:106458001F21FFF7ECBF38B50D462D210446FFF785
:10646800D0FF00F0FC020DB142F002022046BDE868
:1064780038402D21FFF7DBBF30B401294FEA8114E2
:106488009DF80850E4B203D0022910D0022100E0A0
:10649800042141770AB144F010040BB144F0080418
:1064A80005F0070222432C2130BCFFF7C0BF0821AA
:1064B800EFE7000000230248036000F05FBF00BF61
:1064C800B49107100904064A41EA002040F001008F
:1064D800044B10601168C90701D5013BFAD1704718
:1064E80000000140A0860100064A000240F01000AA
:1064F800106005481368D90602D50138FAD17047EB
:10650800180C704700000140A08601002DE9F347F0
:1065180017464FF090421D468846D2F84433116919
:1065280023F0FE0349014CBF43F0540343F0D0036A
:1065380015F010040646C2F8443340EA001959D051
:106548004FF421611220FFF7BDFF4FF421611520A0
:10655800FFF7B8FF1B20FFF7C7FF40F0070081B225
:106568001B20FFF7AFFF1B20FFF7BEFF40F0100016
:1065780081B21B20FFF7A6FF41F6BF711820FFF775
:10658800A1FFFB20FFF7B0FF40F0020081B2FB2023
:10659800FFF798FF1120FFF7A7FF20F4005141F4FF
:1065A800805189B21120FFF78DFF1420FFF79CFF5F
:1065B80020F4005141F4805189B21420FFF782FF82
:1065C8001820FFF791FF6FEAC0406FEAD04081B210
:1065D8001820FFF777FF17211B20FFF773FF4946A5
:1065E8001720FFF76FFF8021102002B0BDE8F047A9
:1065F800FFF768BF0320FFF777FF20F4406141F4FD
:106608000061032089B2FFF75DFF15F0080A4AD040
:106618001820FFF769FF40F03F0081B21820FFF70C
:1066280051FF2046FFF760FF00F4406040F44671D8
:1066380041F003012046FFF745FF40F2FC710120BD
:10664800FFF740FF0220FFF74FFF00F4E05040F44F
:10665800014141F0EA010220FFF734FF10210C202C
:10666800FFF730FF49F6FC710120FFF72BFF0220EE
:10667800FFF73AFF00F4E05040F4014141F0FA011D
:106688000220FFF71FFF2046FFF72EFF00F44060AF
:1066980040F4667141F003012046FFF713FF18210B
:1066A8000C20FFF70FFF15F005042FD00220FFF78D
:1066B8001BFF20F4C04141F40141022089B2FFF7D9
:1066C80001FF052022F06CF8EA077FD50C20FFF7C0
:1066D8000BFF40F0100081B20C20FFF7F3FE022000
:1066E800FFF702FF40F4C06081B20220FFF7EAFE24
:1066F800642022F055F80320FFF7F6FE20F0F001A1
:1067080041F4687189B20320FFF7DCFE15F00D0F24
:1067180002D0C82022F03CF8BAF1000F20D00020A7
:10672800FFF7E2FE00F4406040F4067141F0030117
:106738000020FFF7C7FE40F2FC410120FFF7C2FE30
:106748000220FFF7D1FE00F4E05040F4014141F08F
:10675800EA010220FFF7B6FE10210C20FFF7B2FE77
:106768006CB10020FFF7C0FE40F4606040F001000B
:1067780081B20020FFF7A6FE322022F011F841F680
:10678800BF711820FFF79EFE46F220311120FFF757
:1067980099FE46F220311420FFF794FE64B31220CC
:1067A800FFF7A2FE04461520FFF79EFE24F4C764F7
:1067B80020F4C76AA4B21FFA8AFA092E0ED8DFE8B5
:1067C80006F0BBC00DB60D0D0D0DBBC00320FFF7C5
:1067D8008BFE00F47F4040F4547194E744F00401C8
:1067E8004AF0040A1220FFF76DFE15205146FFF704
:1067F80069FE322021F0CCFF17211B20FFF762FE33
:1068080049461720FFF75EFEFB20FFF76DFE20F0DC
:10681800060141F0080189B2FB20FFF753FEFD2075
:10682800FFF762FE20F0060141F0080189B2FD2061
:10683800FFF748FE2720FFF757FE20F4807081B24B
:106848000FB941F480712720FFF73CFEFA20FFF7CB
:106858004BFE20F400704005400D40F48051FA20B2
:106868000191FFF72FFEFC200199FFF72BFEAB07E4
:1068780040D51120FFF738FE344C204040F4A041A9
:1068880041F0190189B21120FFF71CFE1220FFF711
:106898002BFE40F0040081B21220FFF713FE1420F3
:1068A800FFF722FE204040F4A04141F0180189B2D0
:1068B8001420FFF707FE1520FFF716FE40F004002E
:1068C80081B21520FFF7FEFD1720FFF70DFE20F41B
:1068D800E06141F4807189B21720FFF7F3FD1820B9
:1068E800FFF702FE6FEAC0406FEAD04081B218207D
:1068F800FFF7E8FD26F00806012E13D11720FFF751
:10690800F3FD20F4F04141F4006189B21720FFF74C
:10691800D9FD1B20FFF7E8FD20F00C0081B21B20F9
:10692800FFF7D0FD47EA081141F080015CE644F02A
:106938000C014AF00C0A55E744F014014AF0140A15
:1069480050E744F01C014AF01C0A4BE7FEDFFFFF4A
:106958000C21054A92F83D304B43D118D35C0BB952
:106968004868704700207047A092071038B50C4D52
:106978000A4695F83D4028B10C2303FB0453596897
:106988001CF0B8F90C23012263431444E4B2042C2C
:10699800EA540ABF002385F83D4085F83D3038BDEC
:1069A800A0920710094A92F83E1069B90C2092F893
:1069B8003C3058430133DBB2042B115402D082F827
:1069C8003C30704782F83C10704700BFA092071017
:1069D8000C21084B93F83C204A4399189A5C22B141
:1069E8000022486883F83E2070470122586B83F8DC
:1069F8003E207047A0920710064B93F83E200AB13C
:106A0800986B70470C2193F83C2001FB023398687F
:106A1800704700BFA092071037B5214B04465B6949
:106A2800D8031AD5636A228DD9064FEA820208D0A4
:106A380023F01F01013B134423F01F0320335A1A8C
:106A48000B46BFF34F8F16481344002AA3EB0201ED
:106A580021DCBFF34F8FBFF36F8F6178114B207824
:106A68009847FFF79FFFFFF7B3FF0190FFF7C4FFB9
:106A78000546019A617820780B4B98476178207811
:106A8800AA080A4B9847012261782078084B03B07E
:106A9800BDE830401847C0F85C12203AD5E700BF7F
:106AA80000ED00E0A5BD1010B9C2101009C3101008
:106AB80091BF1010B0F5FA5FF7B51CD0B0F5FA4FDA
:106AC80014BF05250325374B0120B1FA81F49847F7
