:02000004085B97
:10E0000000E05B08FCFF5F0800000600200005013F
:08E0100004017D150000000071
:10E018001348144908B5884205D0134A824202D0F1
:10E02800124B121A98471248124A0021124B121A20
:10E03800984712481249884205D0124A824202D0B3
:10E048000A4B121A984710481049884205D0104ABE
:10E05800824202D0054B121A9847014808BD00BFFA
:10E06800608D061060E05F08C09506102D0D111038
:10E07800C09D0610E8AF0710A10E111040003C0229
:10E08800B0E05B0848003C0250003C02B8E05B0886
:0CE09800F8FF3F0219E05B0800000000E8
:08E0A400F02AE0790100000000
:08E0B0009CE05B08546C3F0288
:10E0B80081F0004102E000BF83F0004330B54FEA31
:10E0C80041044FEA430594EA050F08BF90EA020F9E
:10E0D8001FBF54EA000C55EA020C7FEA645C7FEA31
:10E0E800655C00F0E2804FEA5454D4EB5555B8BF54
:10E0F8006D420CDD2C4480EA020281EA030382EAC5
:10E10800000083EA010180EA020281EA0303362D56
:10E1180088BF30BD11F0004F4FEA01314FF4801C29
:10E128004CEA113102D0404261EB410113F0004F3B
:10E138004FEA03334CEA133302D0524263EB4303F2
:10E1480094EA050F00F0A780A4F10104D5F1200E90
:10E158000DDB02FA0EFC22FA05F2801841F10001EB
:10E1680003FA0EF2801843FA05F359410EE0A5F1BF
:10E1780020050EF1200E012A03FA0EFC28BF4CF0F0
:10E18800020C43FA05F3C01851EBE37101F00045A6
:10E1980007D54FF0000EDCF1000C7EEB00006EEBB3
:10E1A8000101B1F5801F1BD3B1F5001F0CD349083D
:10E1B8005FEA30004FEA3C0C04F101044FEA445294
:10E1C80012F5800F80F09A80BCF1004F08BF5FEA1B
:10E1D800500C50F1000041EB045141EA050130BDFB
:10E1E8005FEA4C0C404141EB0101013C28BFB1F50D
:10E1F800801FE9D291F0000F04BF01460020B1FA58
:10E2080081F308BF2033A3F10B03B3F120020CDA2A
:10E218000C3208DD02F1140CC2F10C0201FA0CF008
:10E2280021FA02F10CE002F11402D8BFC2F1200C6D
:10E2380001FA02F120FA0CFCDCBF41EA0C01904023
:10E24800E41AA2BF01EB0451294330BD6FEA04046C
:10E258001F3C1CDA0C340EDC04F11404C4F1200257
:10E2680020FA04F001FA02F340EA030021FA04F369
:10E2780045EA030130BDC4F10C04C4F1200220FAC0
:10E2880002F001FA04F340EA0300294630BD21FAFE
:10E2980004F0294630BD94F0000F83F4801306BFC4
:10E2A80081F480110134013D4EE77FEA645C18BFB8
:10E2B8007FEA655C29D094EA050F08BF90EA020F4F
:10E2C80005D054EA000C04BF1946104630BD91EA47
:10E2D800030F1EBF0021002030BD5FEA545C05D14A
:10E2E8004000494128BF41F0004130BD14F5800489
:10E2F8003CBF01F5801130BD01F0004545F0FE41FD
:10E3080041F470014FF0000030BD7FEA645C1ABF31
:10E31800194610467FEA655C1CBF0B46024650EA68
:10E32800013406BF52EA033591EA030F41F4002194
:10E3380030BD00BF90F0000F04BF0021704730B51A
:10E348004FF4806404F132044FF000054FF00001EF
:10E3580050E700BF90F0000F04BF0021704730B5B0
:10E368004FF4806404F1320410F0004548BF404285
:10E378004FF000013EE700BF42004FEAE2014FEADA
:10E3880031014FEA02701FBF12F07F4393F07F4FB5
:10E3980081F06051704732F07F4208BF704793F0B8
:10E3A8007F4F04BF41F40021704730B54FF46074CB
:10E3B80001F0004521F000411CE700BF50EA0102CE
:10E3C80008BF704730B54FF000050AE050EA010277
:10E3D80008BF704730B511F0004502D5404261EBE7
:10E3E80041014FF4806404F132045FEA915C3FF428
:10E3F800D8AE4FF003025FEADC0C18BF03325FEAC5
:10E40800DC0C18BF033202EBDC02C2F1200300FA75
:10E4180003FC20FA02F001FA03FE40EA0E0021FA9A
:10E4280002F11444BDE600BF70B54FF0FF0C4CF488
:10E43800E06C1CEA11541DBF1CEA135594EA0C0F3A
:10E4480095EA0C0F00F0DEF82C4481EA030621EA75
:10E458004C5123EA4C5350EA013518BF52EA0335B0
:10E4680041F4801143F4801338D0A0FB02CE4FF062
:10E478000005E1FB02E506F00042E0FB03E54FF092
:10E488000006E1FB03569CF0000F18BF4EF0010E8A
:10E49800A4F1FF04B6F5007F64F5407404D25FEA86
:10E4A8004E0E6D4146EB060642EAC62141EA555139
:10E4B8004FEAC52040EA5E504FEACE2EB4F1FD0C7B
:10E4C80088BFBCF5E06F1ED8BEF1004F08BF5FEAF9
:10E4D800500E50F1000041EB045170BD06F00046AB
:10E4E80046EA010140EA020081EA0301B4EB5C0458
:10E4F800C2BFD4EB0C0541EA045170BD41F4801150
:10E508004FF0000E013C00F3AB8014F1360FDEBF74
:10E51800002001F0004170BDC4F10004203C35DA50
:10E528000C341BDC04F11404C4F1200500FA05F3D3
:10E5380020FA04F001FA05F240EA020001F0004274
:10E5480021F0004110EBD37021FA04F642EB0601EA
:10E558005EEA430E08BF20EAD37070BDC4F10C0414
:10E56800C4F1200500FA04F320FA05F001FA04F2D8
:10E5780040EA020001F0004110EBD37041F10001C4
:10E588005EEA430E08BF20EAD37070BDC4F12005CF
:10E5980000FA05F24EEA020E20FA04F301FA05F237
:10E5A80043EA020321FA04F001F0004121FA04F2DF
:10E5B80020EA020000EBD3705EEA430E08BF20EAAF
:10E5C800D37070BD94F0000F0FD101F000464000E9
:10E5D80041EB010111F4801F08BF013CF7D041EA6B
:10E5E800060195F0000F18BF704703F0004652006F
:10E5F80043EB030313F4801F08BF013DF7D043EA40
:10E608000603704794EA0C0F0CEA135518BF95EAF5
:10E618000C0F0CD050EA410618BF52EA4306D1D17C
:10E6280081EA030101F000414FF0000070BD50EA9B
:10E63800410606BF1046194652EA430619D094EA25
:10E648000C0F02D150EA013613D195EA0C0F05D10F
:10E6580052EA03361CBF104619460AD181EA030163
:10E6680001F0004141F0FE4141F470014FF000001B
:10E6780070BD41F0FE4141F4780170BD70B54FF0B6
:10E68800FF0C4CF4E06C1CEA11541DBF1CEA135536
:10E6980094EA0C0F95EA0C0F00F0A7F8A4EB050418
:10E6A80081EA030E52EA03354FEA013100F088800F
:10E6B8004FEA03334FF0805545EA131343EA1263D8
:10E6C8004FEA022245EA111545EA10654FEA00268D
:10E6D8000EF000419D4208BF964244F1FD0404F546
:10E6E800407402D25B084FEA3202B61A65EB0305A2
:10E6F8005B084FEA32024FF480104FF4002CB6EB5F
:10E70800020E75EB030E22BFB61A754640EA0C00DE
:10E718005B084FEA3202B6EB020E75EB030E22BF1E
:10E72800B61A754640EA5C005B084FEA3202B6EB5F
:10E73800020E75EB030E22BFB61A754640EA9C001E
:10E748005B084FEA3202B6EB020E75EB030E22BFEE
:10E75800B61A754640EADC0055EA060E18D04FEAAC
:10E76800051545EA16754FEA06164FEAC30343EA4C
:10E7780052734FEAC2025FEA1C1CC0D111F4801F19
:10E788000BD141EA00014FF000004FF0004CB6E712
:10E7980011F4801F04BF01430020B4F1FD0C88BFB1
:10E7A800BCF5E06F3FF6AFAEB5EB030C04BFB6EBBC
:10E7B800020C5FEA500C50F1000041EB045170BDAF
:10E7C8000EF0004E4EEA113114EB5C04C2BFD4EBDC
:10E7D8000C0541EA045170BD41F480114FF0000E60
:10E7E800013C90E645EA060E8DE60CEA135594EADC
:10E7F8000C0F08BF95EA0C0F3FF43BAF94EA0C0FDF
:10E808000AD150EA01347FF434AF95EA0C0F7FF453
:10E8180025AF104619462CE795EA0C0F06D152EAA7
:10E8280003353FF4FDAE1046194622E750EA41068B
:10E8380018BF52EA43067FF4C5AE50EA41047FF49C
:10E848000DAF52EA43057FF4EBAE12E74FF0FF3C01
:10E8580006E000BF4FF0010C02E000BF4FF0010CD2
:10E868004DF804CD4FEA410C7FEA6C5C4FEA430C4B
:10E8780018BF7FEA6C5C1BD001B050EA410C0CBF9A
:10E8880052EA430C91EA030F02BF90EA020F0020FC
:10E89800704710F1000F91EA030F58BF994208BF63
:10E8A80090422CBFD8176FEAE37040F00100704720
:10E8B8004FEA410C7FEA6C5C02D150EA013C07D177
:10E8C8004FEA430C7FEA6C5CD6D152EA033CD3D0C2
:10E8D8005DF8040B704700BF8446104662468C46BC
:10E8E8001946634600E000BF01B5FFF7B7FF0028EF
:10E8F80048BF10F1000F01BD4DF808EDFFF7F4FF18
:10E908000CBF012000205DF808FB00BF4DF808EDA2
:10E91800FFF7EAFF34BF012000205DF808FB00BFC5
:10E928004DF808EDFFF7E0FF94BF012000205DF8E7
:10E9380008FB00BF4DF808EDFFF7CEFF94BF01209C
:10E9480000205DF808FB00BF4DF808EDFFF7C4FF95
:10E9580034BF012000205DF808FB00BF4FEA410CDE
:10E968007FEA6C5C02D150EA013C0AD14FEA430CC1
:10E978007FEA6C5C02D152EA033C02D14FF00000FE
:10E9880070474FF0010070474FEA410212F500123C
:10E9980015D211D56FF47873B3EB625212D94FEADE
:10E9A800C12343F0004343EA505311F0004F23FAC8
:10E9B80002F018BF404270474FF00000704750EA1D
:10E9C800013005D111F0004008BF6FF000407047DA
:10E9D8004FF00000704700BF4A0011D212F5001234
:10E9E80011D20DD56FF47873B3EB62520ED44FEA9F
:10E9F800C12343F0004343EA505323FA02F070471F
:10EA08004FF00000704750EA013002D14FF0FF305C
:10EA180070474FF0000070474FEA4102B2F1E043FF
:10EA280024BFB3F5001CDCF1FE5C0DD901F0004CED
:10EA38004FEAC0024CEA5070B2F1004F40EB83003D
:10EA480008BF20F00100704711F0804F21D113F169
:10EA58003872BCBF01F00040704741F480114FEAA2
:10EA68005252C2F11802C2F1200C10FA0CF320FA2B
:10EA780002F018BF40F001004FEAC1234FEAD32348
:10EA880003FA0CFC40EA0C0023FA02F34FEA4303B2
:10EA9800CCE77FEA625307D150EA01331EBF4FF03B
:10EAA800FE4040F44000704701F0004040F0FE4056
:10EAB80040F40000704700BF7BB972B90029BEBF9F
:10EAC80000204FF0004106E008BF00281CBF6FF08F
:10EAD80000414FF0FF3000F003BAADF1080C6DE9CA
:10EAE80004CE002909DB002B1ADB00F083F8DDF8DF
:10EAF80004E0DDE9022304B07047404261EB4101C4
:10EB0800002B1BDB00F076F8DDF804E0DDE90223DA
:10EB180004B0404261EB4101524263EB430370474A
:10EB2800524263EB430300F065F8DDF804E0DDE9E9
:10EB3800022304B0404261EB41017047524263EB4B
:10EB4800430300F057F8DDF804E0DDE9022304B0E0
:10EB5800524263EB4303704753B94AB9002908BFCF
:10EB680000281CBF4FF0FF314FF0FF3000F0B8B95C
:10EB7800ADF1080C6DE904CE00F03CF8DDF804E0D6
:10EB8800DDE9022304B0704738B5002200230446AB
:10EB98000D46FFF7BBFE28B920462946BDE8384098
:10EBA80000F00AB8204605F1004100F005F840429F
:10EBB80061EB410138BD00BFD0B500220B4B0646C2
:10EBC8000F46FFF731FCFFF707FF0446FFF7B2FBDC
:10EBD8000022074BFFF728FC02460B463046394611
:10EBE800FFF76AFAFFF7F8FE2146D0BD0000F03DB6
:10EBF8000000F0412DE9F04F099D04460F46002B17
:10EC080048D18A42944661D9B2FA82F343B1C3F13A
:10EC180020019F4002FA03FC9C4020FA01F10F43B7
:10EC28004FEA1C411FFA8CFE220CB7FBF1F601FBE0
:10EC3800167706FB0EF042EA0742904208D91CEB11
:10EC4800020206F1FF3702D2904200F237813E46B7
:10EC5800121AA4B2B2FBF1F001FB102200FB0EFE67
:10EC680044EA0244A64508D91CEB040400F1FF322B
:10EC780002D2A64500F21C81104640EA0640A4EBE9
:10EC88000E0400261DB1DC400023C5E900433146CF
:10EC9800BDE8F08F8B4209D9002D00F0FD800026D9
:10ECA800C5E9000130463146BDE8F08FB3FA83F676
:10ECB800002E4BD18B42C0F0F280824240F2EF80AE
:10ECC8003046002DE3D0C5E90047E0E702B9FFDE92
:10ECD800B2FA82F3002B40F09D80891A4FEA124E57
:10ECE80097B20126200CB1FBFEF20EFB121140EA8E
:10ECF800014107FB02F088420FD91CEB010102F128
:10ED0800FF382CBF4FF001094FF00009884203D9A2
:10ED1800B9F1000F00F0CF804246091AA4B2B1FB46
:10ED2800FEF00EFB101100FB07F744EA0144A7426E
:10ED380008D91CEB040400F1FF3102D2A74200F20B
:10ED4800B4800846E41B40EA02409BE7C6F120076E
:10ED5800B34001FA06F422FA07FCF940B2404CEA43
:10ED6800030C20FA07F34FEA1C491C431FFA8CFED8
:10ED780000FA06F3200CB1FBF9F809FB181140EA78
:10ED8800014108FB0EF088420FD91CEB010108F184
:10ED9800FF3A2CBF4FF0010B4FF0000B884203D90C
:10EDA800BBF1000F00F08D80D046091AA4B2B1FB68
:10EDB800F9F009FB101100FB0EFE44EA01418E45F3
:10EDC80007D91CEB010100F1FF3401D28E457FD831
:10EDD800204640EA0840A1EB0E01A0FB02984145FD
:10EDE8004C46C64602D306D14B4504D20138B9EB8E
:10EDF800020468EB0C0E002D70D01A1B61EB0E019B
:10EE080022FA06F301FA07F7F14000261F43C5E985
:10EE180000713CE702FA03FCC3F1200001FA03F297
:10EE280021FA00F64FEA1C4E24FA00F11FFA8CF77B
:10EE38009C401143B6FBFEF00A0C0EFB106642EA3A
:10EE4800064200FB07F696420ED91CEB020200F1BF
:10EE5800FF382CBF4FF001094FF00009964202D944
:10EE6800B9F1000F31D04046921B89B2B2FBFEF6D1
:10EE78000EFB162241EA024106FB07F28A4207D935
:10EE88001CEB010106F1FF3801D28A4223D846461D
:10EE9800891A46EA004625E72E462846F7E6841AE8
:10EEA80061EB030301201F460BE76444023849E77E
:10EEB80064440238E1E6023A61442EE7023E6244C5
:10EEC800C6E6A8F1020861446FE702386244CBE75E
:10EED800023861447DE7023E6144D9E72E46D6E612
:10EEE800704700BF10F8012B11F8013B012A28BF19
:10EEF8009A42F7D0D01A7047034613F8012B002A1C
:10EF0800FBD1181A0138704770B511F0E7FD0025DC
:10EF1800054E064CA41BA408AC4200D170BD56F89F
:10EF2800043B98470135F7E7A8FF3F02F8FF3F0287
:10EF380001F04CBD08B501F071FDBDE8084011F0C5
:10EF480085BD11F09DB911F09BB911F0A7B911F069
:10EF5800A5B911F0A3B900000048704719813F0214
:10EF68000C2008B5024A034911F072F8FEE700BF09
:10EF7800311E3D02646C3F020078B0FA80F040090F
:10EF880070470123037070472DE9F04F95B0079142
:10EF98000F93DDE9233101EBD17149100A911E99D4
:10EFA800002B09B2C1EA014B1946B8BFD91C8146EA
:10EFB8008810019058000990229821F0030A22999C
:10EFC8000028C1F10001C8BF002104910121049863
:10EFD800079E8140013905914910069101310B9135
:10EFE800279949000891079901EB0A0509EB0A01DD
:10EFF8000E910F99029100210391C9F1000113911B
:10F00800229921EAE171119103990A9881424DDB15
:10F01800089D20EAE070099C0799454300FB04110C
:10F02800249C2846E4073DD502B112688C46019C11
:10F03800002C40F0DB800E9E5144AAEB06057719A0
:10F04800BB4200F3E780229B4FF0804123EAE37341
:10F058009A400023219CC2FB0413229A1D46002AD1
:10F06800DCBF524201920122CB0F0199019C8A40D8
:10F0780043EA4503013A53FA04F403EA02014FEA6A
:10F08800620248BF0132209B9142C8BF01341C4430
:10F09800259B9C42B8BF1C46269B9C42A8BF1C4689
:10F0A8000F9B1C54002015B0BDE8F08F002A6AD0D1
:10F0B800174657F8080B51683A46F7180D97099FF5
:10F0C800DDF804E0F7191297CDF83090BEF1000F83
:10F0D8005CD105EB030CE6460E9F139C3E19B34228
:10F0E80077DC4FF080460025119CA040219CC0FB96
:10F0F8000465059CF00F40EA450000EA0405049CFD
:10F10800069E20410B9C48BF2646119CB54201FA39
:10F1180004F64FF000054FF08041219CC8BF013034
:10F12800C6FB0415059CC90F41EA450101EA04051F
:10F13800049C069E21410B9C48BF2646209CB54254
:10F14800C8BF013120442144259C129EA042B8BF6B
:10F158002046A142B8BF2146269C03EB0C05A042DD
:10F16800A8BF2046029C207026988142A8BF01466D
:10F178002046279C015501460898014402910399AD
:10F188000131039140E71146104696E70C9C54F86C
:10F19800047B0C942BFA97F456F804CB10942BFAB2
:10F1A80087F72FFA9CF82FFA8CFC28FB04002CFB1D
:10F1B80007000D9C54F804CB0D942FFA9CF8109C72
:10F1C8002FFA8CFC28FB04112CFB07110EF1FF3ED3
:10F1D8007CE717F9016B1E9C15F9018B264406FB89
:10F1E80008001EF9018B06FB081176E759F8046B35
:10F1F8002BFA96FE5CF8045B2BFA86F62FFA95F745
:10F208002FFA85F527FB0E2225FB0622019C013CDF
:10F2180001940CE716F9017B1E9C11F901CB2744D8
:10F2280007FB0C220BE71FB5089C039400240294EB
:10F23800079C0194069C009400F002F804B010BDED
:10F248002DE9F04F91B09B469DF870300A900D93D0
:10F2580000230C91039201930493019A0A9B13448F
:10F2680005930C9A049B934202DB11B0BDE8F08F22
:10F278000A9B019A9B5602930123039A9342C0F278
:10F288007A810025AE46DFF80083039B9E45C0F2D5
:10F298007F81002D00F0D682B5FA85F6B54005F1DC
:10F2A80000456FF00043E917ED1841F10001B1F195
:10F2B800FF3F08BFB5F1FF3F0BBF2B4601230A46AE
:10F2C8000022EB1841EB0202D50FEB1842F10002C5
:10F2D8005B0843EAC2735F1CAB4806BF4FF080402F
:10F2E80000254FF0FF35A94952105C4201FB02444A
:10F2F800A3FB011C0918644444EB0504002C04DA40
:10F308006FF00040091844F10004C90F41EA4401B4
:10F318005C1C9D4D1ABF4FF080454FF0000E4FF01A
:10F32800FF3E01F15A3101FB02F4C81703FB004408
:10F33800A1FB03084019444444EB0E04002C4FEA97
:10F34800D37C04DA6FF00045401944F10004C00F83
:10F3580040EA4400C0F100500028ACBF00254FF03F
:10F36800FF35894CA8BF4FF08044C1FB0045002DF4
:10F3780004DA6FF00040241845F10005E40F44EA70
:10F388004504B4F1604FCBBF4FF0FF3500254FF077
:10F39800000E4FF0004E05EA840484EA0E0460185B
:10F3A8004FEAD07EF445784D06BF4FF080454FF0C8
:10F3B80000084FF0FF3800FB02F4C11703FB0144BB
:10F3C800A0FB031949194C4444EB0804002C04DA47
:10F3D8006FF00045491944F10004C90F41EA44019E
:10F3E800C1F10051684CBEEBD17F13BFA6464FF068
:10F3F800804E00244FF0FF34C0FB01E42546002D69
:10F40800744604DA6FF00041641845F10005E40F12
:10F4180044EA4504B4F1005FABBF00214FF0FF316F
:10F428006FF00045002501EA8401B4F1604F81EADC
:10F438000501D5BF00254FF0FF354FF000440024EB
:10F44800294061400844C40FA4454F4906BF4FF006
:10F45800804100254FF0FF3542434FEAE07C03FB33
:10F468000C22A0FB033C5B18624442EB0502002A15
:10F4780004DA6FF000415B1842F10002DB0F43EA47
:10F488004203C3F10053B4EBD37F0CBF00214FF00C
:10F49800FF313D4A08BF4FF08042C0FB03210029DD
:10F4A80004DA6FF00043D21841F10001D20F42EAAA
:10F4B8004101B1F1005FB5BF4FF0FF3300230022D7
:10F4C8006FF00042B1F1604F03EA8103D4BF00211D
:10F4D8004FF0FF3183EA0203D4BF4FF0004200220D
:10F4E800194051400844B0F1804FABBF00234FF0A2
:10F4F800FF336FF000420022B0F1404FD4BF00212B
:10F508004FF0FF3103EA400383EA0203D4BF4FF010
:10F51800004200220B40534006930D9B002B7FF4C2
:10F52800A4AE019A1D9B4FF0000C13440993069B4F
:10F53800C6F1230A002BB3BF4FF0FF3300234FF06F
:10F548008042114ADFF840E0CDE90E23012303FA97
:10F558000AF3013B07935B10089301330B93039B5A
:10F568009C45C0F28381049B019A01330493039B59
:10F578001A44019271E6059A0299D25601339142D2
:10F58800B8BF1146029178E6010000C0C4C3C3C3E6
:10F59800059B13F90E10029BC91A1B9B8B4200F3A3
:10F5A8004E811A9B9940CB0FB3EBDB7F0BBF4FF01B
:10F5B8008042424600234FF0FF33C1FB0B23002B50
:10F5C800184604DA6FF00043D21840F10000D30F58
:10F5D800594543EA400304D1BBF1004F08BF6FF01F
:10F5E80000434FF08042002443F07F4CACEB030112
:10F5F8004FEA4C1C0CF1805CCCFB0C24002C4FEA2D
:10F60800EC7604DA6FF00040121844F10004D20FCF
:10F6180042EA4402A2FB0209E41702FB04FA10F1D1
:10F62800804049EB4A09B9F1000F05DA6FF0004A4A
:10F6380010EB0A0049F10009C00F40EA490000F048
:10F648000309801054BF4FF0010A4FF0020AD14558
:10F658004FEAD279C8BF0130B9EBDC7F0BBF4FF05E
:10F668008049C1464FF0000A4FF0FF3A0CFB04F402
:10F6780002FB0644ACFB026716EB09063C4444EB6C
:10F688000A04002C05DA6FF0004916EB090644F16C
:10F698000004F60F46EA440630440028ABBF4FF09A
:10F6A8008044444600264FF0FF36684FC0FB0746AB
:10F6B800002E04DA6FF00040241846F10006E40F2B
:10F6C80044EA46041444621002D4E60748BF0132F3
:10F6D8009444BCF1000FABBF4FF080444446002077
:10F6E8004FF0FF305A4ACCFB0240002804DA6FF092
:10F6F8000042A41840F10000E40F4FF0804244EAB1
:10F70800400400209446824604F1E244514FA4F597
:10F718002524A4F26C74C4FB07CAC1F300664FEA3F
:10F72800DC7C4CEA4A0C41F30069013E09EA0C0909
:10F73800344094460646484F89EA0404C4FB07C689
:10F74800C1F3406A4FEADC7C0AF1FF3A4CEA460C06
:10F758000AEA040A1646044641F3406909EA0C0914
:10F768003E4F89EA0A09C9FB0764C1F3806AF60FAC
:10F7780046EA440641F3806C0AF1FF3A0AEA090AAC
:10F788000CEA060C8CEA0A0C14468246344EC1F385
:10F79800C069CCFB064AE40F44EA4A0441F3C06658
:10F7A80009F1FF3909EA0C09264086EA090682466A
:10F7B80091462C4CC1F3007CC6FB049A4FEAD979D8
:10F7C80049EA4A0941F300740CF1FF3C0CEA060CC3
:10F7D80004EA090484EA0C0482469446DFF8889017
:10F7E800C1F34076013EC4FB09CA2640F224B3FAAD
:10F7F80083F34FEADC7C4CEA4A0C41F3407909EA8E
:10F808000C0C8CEA060CCCFB0420C1F3807AD20FD6
:10F8180042EA400241F380710AF1FF3A0A405B096B
:10F828000AEA0C0C581E82EA0C025B4223F00043E1
:10F8380002405A401313110548BF01331D440EF10D
:10F84800010E22E520264FF000452AE5ABAAAA2A98
:10F8580094A8F5707BBEAF63F2CBA24D6CAC162FAB
:10F86800A4AA5211B72A580211FE0A00059B13F9DF
:10F878000C10029BC91A1B9B9942C0F269811A9B02
:10F888009940CB0FB3EBDB7F0BBF4FF08043734640
:10F8980000224FF0FF32C1FB0B32002A104604DA77
:10F8A8006FF000429B1840F10000DA0F594542EA18
:10F8B800400204D1BBF1004F08BF6FF000424FF087
:10F8C8008041002442F07F46B31A760106F1805643
:10F8D800C6FB0614002C4FEAE67504DA6FF0004008
:10F8E800091844F10004C90F41EA4401A1FB0108C9
:10F8F800E41701FB04F910F1804048EB4908B8F11E
:10F90800000F05DA6FF0004910EB090048F1000814
:10F91800C00F40EA480000F00308801054BF4FF0C1
:10F9280001094FF00209C8454FEAD178C8BF013034
:10F93800B8EBD67F0BBF4FF08048F0464FF0000978
:10F948004FF0FF39744301FB0544A6FB015715EB43
:10F9580008053C4444EB0904002C05DA6FF0004824
:10F9680015EB080544F10004ED0F45EA4405284469
:10F978000028ABBF4FF08044744600254FF0FF3598
:10F98800744FC0FB0745002D04DA6FF000402418BF
:10F9980045F10005E40F44EA45040C44611002D423
:10F9A800E00748BF01310E44002EABBF4FF0804442
:10F9B800744600214FF0FF316748C6FB004100291B
:10F9C80004DA6FF00040241841F10001E40F002030
:10F9D80044EA41044FF0804181460E4604F1E24476
:10F9E8005E4FA4F52524A4F26C74C4FB0769C3F325
:10F9F8000065F60F46EA490643F30068013D08EA48
:10FA080006082C400E460546554F88EA0404C4FBF8
:10FA18000765C3F34069F60F09F1FF3946EA450661
:10FA280009EA04090D46044643F3406808EA060853
:10FA38004C4E88EA0908C8FB0654C3F38069ED0FE9
:10FA480045EA440543F3806609F1FF3909EA0809E4
:10FA58002E4086EA09060C468146434DC3F3C0682A
:10FA6800C6FB0549E40F44EA490443F3C06508F1BD
:10FA7800FF3808EA0608254085EA080581468846D1
:10FA88003A4CC3F30076C5FB04894FEAD87848EAB4
:10FA9800490843F30074013E2E4004EA0804744008
:10FAA80081460E46DFF8C880C3F34075013DC4FBAC
:10FAB80008692540F224B2FA82F2F60F46EA4906AE
:10FAC80043F3407808EA06066E40C6FB0410C3F309
:10FAD8008079C90F41EA400143F3807309F1FF3986
:10FAE8001940520909EA0606501E71405242014067
:10FAF80022F0004048400699DDE90E32C1FB003291
:10FB0800002A144604DA6FF000429B1844F10004FE
:10FB1800079ADB0F43EA440308981A4053FA0AF39A
:10FB28000B9958BF01468A42C8BF0133803B13F185
:10FB38007F0F08DB7E2B09DC5BB2099A02F80C30D8
:10FB48000CF1010C0BE56FF07F03F6E77F23F4E778
:10FB58008023F2E7ABAAAA2A94A8F5707BBEAF630C
:10FB6800F2CBA24D6CAC162FA4AA5211B72A580298
:10FB780011FE0A002DE9F04F0C4616464FF0000B17
:10FB88001D688BB0DDE91478DDE9199A1DB928469E
:10FB98000BB0BDE8F08F0123099323693846089319
:10FBA800E368189A0793D9F80C3016990693D8F891
:10FBB8000030013D05937368049333680393A36889
:10FBC800CDE901B3236800935346FFF7DDF9D8F870
:10FBD80000301F44D9F80C309A44D7E7002070470A
:10FBE8000388426840884968584300B97047F2EC76
:10FBF800017A67EE807A0138E1EC017AF5E7F0B531
:10FC080002884B68458844684FEA820CAF0003EBD2
:10FC1800820219462846264620B9043393423C44BA
:10FC2800F7D1F0BD56F804EB0138C1F800E06144A3
:10FC3800F2E700000129DFED137A10B502D8C2ED12
:10FC4800007A10BD0B460446B4EC017A013B77EE0E
:10FC5800877AF9D107EE101AB8EE477ADFED096A0C
:10FC680087EE876AF0EC017A77EEC67A0139E7EE1B
:10FC7800A76AF7D1F7EE007A37EE677AC6EE877A89
:10FC8800DDE700BF000000000B469FED0A7A82B056
:10FC980001914BB9DDED017AF8EE677AC7EE276A74
:10FCA800C2ED006A02B07047F0EC017A013B37EE12
:10FCB800277AEEE7000000009FED117A13B50B4696
:10FCC8001446F0EE476A019183B9DDED017AF8EE4A
:10FCD800677A87EE270AB5EEC00AF1EE10FA0BDB59
:10FCE8002BF042FA84ED000A02B010BDF0EC017A64
:10FCF800013BA7EEA77AE7E7C4ED006AF4E700BF87
:10FD08000000000030B5F0EC017A01240025A14282
:10FD180003D1C2ED007A1D6030BDB0EC017AF4EE7B
:10FD2800C77AF1EE10FA54BFB0EE677A2546F0EEC6
:10FD3800477A0134EBE730B5F0EC017A012400256D
:10FD4800A14203D1C2ED007A1D6030BDB0EC017A4A
:10FD5800F4EEC77AF1EE10FAD4BFB0EE677A254612
:10FD6800F0EE477A0134EBE72DE9F0430C2987B030
:10FD78000DF11505DDE90E6740D00D2942D0182E8A
:10FD880077F1000303D242B9F2B22B461FE00729EC
:10FD980003D1A6F11F033B4338D04FF0000C2B468C
:10FDA800DFF86C800AE09E4618F80440A3EB0E09C1
:10FDB8004C451CDC1B1B121B0CF1010C56EA070EF0
:10FDC8005FFA8CF4EFD1002AEDDC1734E2B25C1E46
:10FDD80002EB41122D1B03F8012C21462A46109BE9
:10FDE8000194029500F010FA07B0BDE8F0830EF810
:10FDF800016D360A46EA07663F0AD7E71F222B46F7
:10FE08000421E4E71F222B460521E0E71F22BCE777
:10FE1800796C3F021FB58468CDE900230294002263
:10FE2800FFF7A2FF04B010BD8388C3F57F42FE32FE
:10FE3800012AC3BF0133838000200320704737B5F0
:10FE48006D46044685E80600982200212FF0ABF99C
:10FE580095E80600204600F0C7F904F11403C4F839
:10FE680094300423A37603B030BD7FB56E4686E890
:10FE78000C00037C04460D4683B9092910D196E885
:10FE8800030002AA82E80300A368204606CA00F01D
:10FE9800BBF9D4F89400FFF7C7FF207404B070BD15
:10FEA8000B2908BF0221019AFFF7B4FF0B2DF0D0F0
:10FEB800E5E730B5057C044685B05DB985688DE811
:10FEC8002C000A460721FFF74FFFD4F89400FFF7EC
:10FED800ABFF207405B030BD1FB50446012168464C
:10FEE80000F032F9DDE9022320469DF8001004B045
:10FEF800BDE81040FFF7DDBF38B50446D0F89400E0
:10FF0800FFF792FF207428B9A26812F1660F02D990
:10FF18000723237438BDD4F8943004F18C05AB4220
:10FF28000FBF022003F10805C4F8945098811FBF41
:10FF3800D4F894301A60D4F8943099712074E9E7B1
:10FF480030B5836885B000220293002304460D462D
:10FF5800CDE90023FFF708FF2946204605B0BDE894
:10FF68003040FFF7C9BFF0B51646027C04460B4681
:10FF780087B03AB9D0F8942000F114018A4203D12D
:10FF88000423237407B0F0BD91798B4201D00F236D
:10FF9800F7E7836802291FBF9088CB1E9BB2B0FB8E
:10FFA800F3F34FF000051768204608BFDB1B2A460D
:10FFB800CDE900350297FFF7D7FE66B1214604A8C0
:10FFC80000F050F9DDE9043297420AD8D51B03B195
:10FFD8003B44C6E90035D4F89430083BC4F8943063
:10FFE800D0E72B46F5E770B5057C0446164686B083
:08FFF8003DB9D0F8943000F18E
:02000004085C96
:100000001402934203D10423237406B070BD9B797C
:100010008B4201D00F23F7E783681F22029300234E
:100020000721CDE900232A46FFF7A2FE6EB1214643
:1000300004A800F01BF9DDE90432A16891420AD856
:10004000551A03B10B44C6E90035D4F89430083B87
:10005000C4F89430D9E72B46F5E773B5837B0C469B
:100060000BB101230374057C75B9D0F8942000F11D
:1000700014039A420BD16E460146304600F0F6F862
:1000800096E8030084E80300284602B070BD0A2504
:10009000FAE7000053EC102B2DE9F04100241F4635
:1000A000DFF8A8C0C3F30A5313EB0C0644F1FF3189
:1000B000A3F2FF7E5EEA010210EE108A4FEAD775C6
:1000C000C7F3130014D158EA00033CD03B03C8F334
:1000D000080009D540F400701F2340EAC53040EA0B
:1000E000832080B2BDE8F081012838BF0120F3E70A
:1000F000B1F1FF3F08BF664522D0102E71F100021A
:1001000021DA16F10E0F71F1FF3214DA6FF00D01E2
:10011000891B01F12A0300F58010C3F1200600FAC3
:1001200006F60A3128FA03F320FA01F133430B43B0
:1001300098B22346D1E7A3F57C739BB2800ACCE743
:1001400023462046C9E71F232046C6E701FCFFFFE0
:100150002DE9F04155EC104B06468846002200235D
:1001600010EE100A2946FEF7CBFB58B145EC104BB8
:10017000FFF790FF00220223C6E9020233703046E7
:10018000BDE8F081194FC5F30A5313EB070E61EB7D
:100190000101A3F2FF7C5CEA010720462A46E5D074
:1001A000B8F1000F0DD01EF10E0F71F1FF3708DB13
:1001B000BEF1100F71F1000103DAC5F3090121430B
:1001C000D4D06FF460715B1861EB0101FE2B71F10B
:1001D000000309D230F0604706D120462946FEF7D9
:1001E0001FFC3A460423C7E70823C5E701FCFFFFCD
:1001F00082B00346684680E8060040F60F319981D8
:1002000000219960997303C883E8050002B0704724
:1002100073B504461D46A37B02A800E9060033B966
:1002200040F60F33A2899A4203D00123A37302B090
:1002300070BDD4E901329A42F7D8019E9B1AB342AD
:10024000F3D3AA42F1D3521B05D0216819B1294436
:1002500088192EF092FF206820B132460099284478
:100260002EF08BFFA3683344A360E0E78B7B10B5CF
:100270001BB100230360436010BD40F60F328C8930
:10028000944202D001228A73F4E70A688B68026004
:10029000F1E700000904064A41EA002040F00100AD
:1002A000044B10601168C90701D5013BFAD17047B2
:1002B00000000140A0860100064A000240F0100044
:1002C000106005481368D90602D50138FAD1704785
:1002D000180C704700000140A08601002DE9F3478B
:1002E00017464FF090421D468846D2F844331169B4
:1002F00023F0FE0349014CBF43F0540343F0D00305
:1003000015F010040646C2F8443340EA001959D0EB
:100310004FF421611220FFF7BDFF4FF4216115203A
:10032000FFF7B8FF1B20FFF7C7FF40F0070081B2BF
:100330001B20FFF7AFFF1B20FFF7BEFF40F01000B0
:1003400081B21B20FFF7A6FF41F6BF711820FFF70F
:10035000A1FFFB20FFF7B0FF40F0020081B2FB20BD
:10036000FFF798FF1120FFF7A7FF20F4005141F499
:10037000805189B21120FFF78DFF1420FFF79CFFF9
:1003800020F4005141F4805189B21420FFF782FF1C
:100390001820FFF791FF6FEAC0406FEAD04081B2AA
:1003A0001820FFF777FF17211B20FFF773FF49463F
:1003B0001720FFF76FFF8021102002B0BDE8F04743
:1003C000FFF768BF0320FFF777FF20F4406141F497
:1003D0000061032089B2FFF75DFF15F0080A4AD0DB
:1003E0001820FFF769FF40F03F0081B21820FFF7A7
:1003F00051FF2046FFF760FF00F4406040F4467173
:1004000041F003012046FFF745FF40F2FC71012057
:10041000FFF740FF0220FFF74FFF00F4E05040F4E9
:10042000014141F0EA010220FFF734FF10210C20C6
:10043000FFF730FF49F6FC710120FFF72BFF022088
:10044000FFF73AFF00F4E05040F4014141F0FA01B7
:100450000220FFF71FFF2046FFF72EFF00F4406049
:1004600040F4667141F003012046FFF713FF1821A5
:100470000C20FFF70FFF15F005042FD00220FFF727
:100480001BFF20F4C04141F40141022089B2FFF773
:1004900001FF052034F0B0FBEA077FD50C20FFF701
:1004A0000BFF40F0100081B20C20FFF7F3FE02209A
:1004B000FFF702FF40F4C06081B20220FFF7EAFEBE
:1004C000642034F099FB0320FFF7F6FE20F0F001E2
:1004D00041F4687189B20320FFF7DCFE15F00D0FBF
:1004E00002D0C82034F098FBBAF1000F20D00020D1
:1004F000FFF7E2FE00F4406040F4067141F00301B2
:100500000020FFF7C7FE40F2FC410120FFF7C2FECA
:100510000220FFF7D1FE00F4E05040F4014141F029
:10052000EA010220FFF7B6FE10210C20FFF7B2FE11
:100530006CB10020FFF7C0FE40F4606040F00100A5
:1005400081B20020FFF7A6FE322034F055FB41F6C1
:10055000BF711820FFF79EFE46F220311120FFF7F1
:1005600099FE46F220311420FFF794FE64B3122066
:10057000FFF7A2FE04461520FFF79EFE24F4C76491
:1005800020F4C76AA4B21FFA8AFA092E0ED8DFE84F
:1005900006F0BBC00DB60D0D0D0DBBC00320FFF75F
:1005A0008BFE00F47F4040F4547194E744F0040162
:1005B0004AF0040A1220FFF76DFE15205146FFF79E
:1005C00069FE322034F028FB17211B20FFF762FE62
:1005D00049461720FFF75EFEFB20FFF76DFE20F077
:1005E000060141F0080189B2FB20FFF753FEFD2010
:1005F000FFF762FE20F0060141F0080189B2FD20FC
:10060000FFF748FE2720FFF757FE20F4807081B2E5
:100610000FB941F480712720FFF73CFEFA20FFF765
:100620004BFE20F400704005400D40F48051FA204C
:100630000191FFF72FFEFC200199FFF72BFEAB077E
:1006400040D51120FFF738FE344C204040F4A04143
:1006500041F0190189B21120FFF71CFE1220FFF7AB
:100660002BFE40F0040081B21220FFF713FE14208D
:10067000FFF722FE204040F4A04141F0180189B26A
:100680001420FFF707FE1520FFF716FE40F00400C8
:1006900081B21520FFF7FEFD1720FFF70DFE20F4B5
:1006A000E06141F4807189B21720FFF7F3FD182053
:1006B000FFF702FE6FEAC0406FEAD04081B2182017
:1006C000FFF7E8FD26F00806012E13D11720FFF7EB
:1006D000F3FD20F4F04141F4006189B21720FFF7E7
:1006E000D9FD1B20FFF7E8FD20F00C0081B21B2094
:1006F000FFF7D0FD47EA081141F080015CE644F0C5
:100700000C014AF00C0A55E744F014014AF0140AAF
:1007100050E744F01C014AF01C0A4BE7FEDFFFFFE4
:100720000C21054A92F83D304B43D118D35C0BB9EC
:100730004868704700207047C09E061038B50C4DC1
:100740000A4695F83D4028B10C2303FB0453596831
:100750002EF006FD0C23012263431444E4B2042C62
:10076000EA540ABF002385F83D4085F83D3038BD86
:10077000C09E0610094A92F83E1069B90C2092F802
:100780003C3058430133DBB2042B115402D082F8C1
:100790003C30704782F83C10704700BFC09E061086
:1007A0000C21084B93F83C204A4399189A5C22B1DB
:1007B0000022486883F83E2070470122586B83F876
:1007C0003E207047C09E0610064B93F83E200AB1AB
:1007D000986B70470C2193F83C2001FB023398681A
:1007E000704700BFC09E061037B5214B04465B69B9
:1007F000D8031AD5636A228DD9064FEA820208D03F
:1008000023F01F01013B134423F01F0320335A1A26
:100810000B46BFF34F8F16481344002AA3EB020187
:1008200021DCBFF34F8FBFF36F8F6178114B2078BE
:100830009847FFF79FFFFFF7B3FF0190FFF7C4FF53
:100840000546019A617820780B4B984761782078AB
:10085000AA080A4B9847012261782078084B03B018
:10086000BDE830401847C0F85C12203AD5E700BF19
:1008700000ED00E0A5BD1010B9C2101009C31010A2
:1008800091BF1010B0F5FA5FF7B51CD0B0F5FA4F74
:1008900014BF05250325374B0120B1FA81F4984791
:1008A0004FF0414101220846334FB84733490122F6
:1008B0000846B847EB1E6409042B07D8DFE803F0AD
:1008C0000506560658000725E5E70C26304610F0C9
:1008D000BEFC0223224628460021FFF7FFFC284DDC
:1008E00000212120A84700212220A847254D0C21C6
:1008F0002120A8470C212220A847234B234A012569
:100900005A6380229A6300224FF4007020499A872C
:1009100083F83E200132042AC3E901101D7001F55D
:10092000007103F10C03F5D100261A4D1A4B28462D
:100930009847294619481A4BAC602E609847012108
:100940001648184B98470121174B14489847FFF752
:1009500027FF0446FFF738FF144ACDE9004011464F
:100960003046134B134CA04703B0F0BD1826ADE73B
:100970003026ABE7FD313D02390011100000084080
:1009800099CF1010B9CF1010C09E0610409E0610CF
:10099000C0950610189E0610B1323D0200080140B5
:1009A00005333D02A5333D02E1323D02C49D0610F0
:1009B00081273C02C9333D0208B5FFF7B1FE00B9FB
:1009C00008BD00210846FFF7B9FEF6E7FFF7A8BE0D
:1009D000FFF7B4BE10B505F0FDFD04464FF4FA6014
:1009E00000F048F80FF06CFF4FF4E1310FF05CFFBE
:1009F000094800F06BF80EF0CBF80EF0C7F920466E
:100A000004F0BAFF054C2060054800F05FF820684C
:100A1000BDE8104003F020BB7D6C3F02009F061034
:100A2000B26C3F0210B500F03FF8044608F0B2F98E
:100A300068B1622C07D108F08DF9BDE81040094B70
:100A4000186803F009BBBDE8104009F033BFFF2C64
:100A500006D0044B2146BDE81040186803F046BD9F
:100A600010BD00BF009F0610002101200FF0E2BB67
:100A70000020704708B510F06DF8002008BD08B5DB
:100A80000FF026FA002108BD08B50FF013FA002177
:100A900008BD07B501900FF013FF036801999B682B
:100AA00003B05DF804EB184708B50FF009FF0368C1
:100AB0001B699847002806DD0FF002FF03685B6999
:100AC0009847C0B208BD0020FCE700000FB413B582
:100AD00004AB53F8042B4FF480610B4801930FF0E3
:100AE00019FC00280BDD0FF0EBFE04460648FEF76C
:100AF00007FA23680246DB6820460349984702B09C
:100B0000BDE8104004B07047049F061007B58DED96
:100B1000010A0FF0D5FE06219DED010A03B05DF834
:100B200004EB10F04FB90FF0AFBB2DF041BD0FF04B
:100B3000B9BB000012289ABF024B53F820000248AC
:100B4000704700BF5C6D3F02DC6C3F02704740683D
:100B500003685B691847036953F82100704737B58C
:100B6000D0E9014255690B46216800954D6812692C
:100B7000C1682046A84703B030BD406803689B6841
:100B800018478268D2E9043003EBC0030C205B688D
:100B900000FB0130704710B504461821FEF7DDF95F
:100BA000204610BD10B484681346406862695DF841
:100BB000044B00F054B80000C0E90232002330B505
:100BC000024DC0E90433C0E9005130BDB06D3F02B1
:100BD000002904DB914202DA53F8210070474FF0FC
:100BE000FF3070470B4610B511461A680446131DB6
:100BF0001268FFF7EDFF011E05DB23682046BDE804
:100C000010405B691847002010BD0B4610B5114617
:100C10005A680446131D1268FFF7DAFF011E05DB50
:100C200023682046BDE810405B691847002010BDCE
:100C30000B4610B511469A680446131D1268FFF75B
:100C4000C7FF011E05DB23682046BDE810405B6935
:100C50001847002010BD0421C06900F028B82DE914
:100C6000F8430446894690461F46FFF7F4FF0C23DD
:100C700005460022A6695E4381198D4205D06B6846
:100C80000C35013308BF0132F7E70B2A0DD84FF0BE
:100C9000FF3340F806900020C5E90138A3693B60A6
:100CA000A3690133A361BDE8F8830120FBE74B1E74
:100CB0001844B0FBF1F04843704710B5044611B931
:100CC0000160204610BD896851F8042B40F8042BC0
:100CD00092002EF045FAF4E7002908B501DA0FF08A
:100CE00027FB03688B42FADD00EB8100406808BDFA
:100CF000C360002310B501600299C0E90433C0E964
:100D00000112C0E90633036210BD70B508B90FF0D7
:100D10000FFB0029FBD00B68002A194651F8045B31
:100D20000CDB95420ADD51F82210002906DBBDE8F4
:100D3000704003EB82025168036D1847002070BDBC
:100D4000FFF7E3BF10B508B90FF0F2FA0029FBD0A6
:100D5000BDE810404968036D01EB820251681847F5
:100D600010B5044609B1496819B90023236020462B
:100D700010BD51F8042B40F8042B92002EF0F0F92E
:100D8000F5E72DE9F0411D461B7A0446122B084673
:100D900086B0114607D095E8070084E80700204692
:100DA00006B0BDE8F081036C9847D5E90087294675
:100DB00006466846FFF7D4FF6B4600220121009DDE
:100DC000954203F1040303DD186801324143F7E75C
:100DD0003246404600F0B1FE0923C4E900672372A1
:100DE000DDE72DE9FF47012A0746DDE90E95884634
:100DF0001E46DDF830A02DD000220023CDE90223CD
:100E000002ABCDE90093524631460D9B00F0B0FC99
:100E10000446D8B928469DED020B291D00F0B0FD0F
:100E200033696B61DAF810300BB10FF081FAAC6105
:100E3000D9F810304A46EB6105F10C0300934146A6
:100E4000384605F1080300F0E9FC0446204604B0EA
:100E5000BDE8F0870024F9E710B5436B0BB90FF03C
:100E600067FA3C21BDE81040184700002DE9F04F1B
:100E7000ABB0DDE9348A04460E4624A851469946B3
:100E80001546FFF76DFF249B023B022B01D90FF0A3
:100E90004FFA3368726B0B937368CDE912220C938F
:100EA0000123B26BCDE91033CDE91433CDE916231C
:100EB000CDE91833CDE91C330023316BCDE90D3377
:100EC000CDE91A210F91F16A1E92994203DB204667
:100ED000236C98470D90B8F1000F01D0D8F800802E
:100EE0004FF0000B7369CDF880B05B421F93F3693C
:100EF0002193B3682293F3682393002DC7D02B6806
:100F0000D9F80020BAF1000FC1D0DAF8001017AEFE
:100F1000CDE902261BAF13AACDE900320691CDE937
:100F200004870FAB0BAA1FA90DA8FEF727FE08B375
:100F300023690BAA0993DAF800301FA9CDE90573DC
:100F4000D9F80030CDE90368029313AB01932B6805
:100F50000DA800930FABFEF711FE084BCDE9020B75
:100F60000193074B20460093064AF2230649099C49
:100F7000A04701202BB0BDE8F08F00BF536E3F02A9
:100F8000686E3F02EC6D3F02396E3F022DE9F0477B
:100F90004B6905460C4686B00BB90FF0C9F9234BD7
:100FA0001A68FFF7CDFE224B21461A6807462846ED
:100FB000FFF7C6FE1F4B21461A6806462846FFF774
:100FC000BFFE1D4B8146214628461A68FFF7BAFE30
:100FD000D4F810808246B8F1000FDED0334629469F
:100FE000D8F8202003A8FFF7CCFE3C7A072C18D0B5
:100FF000092C08D0012C204614D1FFF79BFD204678
:1010000006B0BDE8F0879DF81430092B09D13A46A7
:1010100041462846CDE9009A03ABFFF727FF044677
:10102000EDE7307AFFF786FD0124E8E7E06D3F0247
:10103000E86D3F02DC6D3F02E46D3F022DE9F04FA9
:10104000D1F8108005460E469FB0B8F1000F01D1CF
:101050000FF06EF94B690593002BF9D08468804A34
:10106000236820469B6912689847074660B97D4B04
:101070002C690093472328467B4A7C49A0470126D8
:1010800030461FB0BDE8F08F2368794A31462046CC
:101090009B6912689847814620B9764B2C6900936A
:1010A0004A23E8E72368744A31469B691268204660
:1010B00098472368714A049031462046DB691268DC
:1010C0009847824620B96E4B2C6900934F23D2E794
:1010D00038789AF80030834213D02E69FFF72AFD42
:1010E00004469AF80000FFF725FD664BCDE9024063
:1010F0000193654B284600935B4A51236349B047EF
:10110000BDE749460CA8FFF7D8FD514612A8FFF7E6
:10111000D4FD0C9A0CA8013A11460792FFF7DCFDAA
:101120000126DDF848B008900BF1FF33194612A8EC
:101130000693CDE90966FFF7CFFD079A0B9011469C
:101140000CA8FFF7C9FD069BC8F83400002BFFF67A
:101150007FAF002212A9934507D093420CBF012014
:101160004868013246430431F5E71946C8F8306053
:1011700012A8FFF7B1FD4FF0FF33C8F82C30059BE4
:10118000C8F838001978049B3A782846CDE90093CE
:10119000CDE902A83B46FFF724FE064600287FF46F
:1011A0006FAF3878072802D1FFF7C4FC67E709283A
:1011B00029D1394618A8ABF1020BFFF77EFDBBF130
:1011C000020F3FF645AF08A8FEF70CFD834699F8DD
:1011D0000030122B1ED1D9F8081019A851F8043B81
:1011E0009A00189305932DF0BBFF00220121059B67
:1011F0000DF1600C93420CF1040C06DDDCF80000EC
:1012000001324143F6E7B346E1E72846EB6B08F1CC
:1012100020029847BBF1000F18DC23685146204696
:101220005B6A98472368394620465B6A984723687B
:1012300049465B6A20469847049B002B3FF420AF49
:10124000236820465B6A0499984719E7594628465F
:10125000EB6B08F12C0298470028DED006460FE71A
:10126000E06D3F02816F3F02EC6D3F026A6F3F020B
:10127000E86D3F02926F3F02DC6D3F02E46D3F027A
:10128000A46F3F02D06F3F02DD6F3F02B66F3F0297
:10129000002313B504460093034A044B0449FFF7A7
:1012A00027FD204602B010BDD52F3C02252F3C0261
:1012B000F12D3C0210B5436B0BB90FF039F840210A
:1012C000BDE8104018477FB500220C460646FFF7E0
:1012D00037FD2146054600223046FFF733FD2169E0
:1012E00009B90FF025F82C7A072C1AD0092C07D051
:1012F000012C204616D1FFF71DFC204604B070BD1E
:10130000037A092B0DD10368002402938B690193A2
:10131000CB6800938B682868D1E90E12FDF787FF30
:10132000EBE72046FFF706FC0124E6E72DE9F04F46
:101330000B680546884693B013B11B68012B10D08B
:101340000124CDE90234584B28460193574B584AA3
:1013500000932E6934235749B047204613B0BDE8A7
:10136000F08F4C6814B12468012C0ED001264E4B2E
:10137000CDE902460193504B284600932C69352352
:101380004B4A4C49A0473446E7E786680022336859
:1013900030469B699847074640B9484B009337232E
:1013A0002E692846424A4649B047D6E783681B68FB
:1013B000002B04DC434B00932E693823F1E733689C
:1013C000002241463046DB699847814620B93E4BB2
:1013D00000932E693A23E4E7D8F810A0BAF1000F81
:1013E00004D13A4B00932E693C23DAE7CDF800A0F4
:1013F000D8F8143002463946284600F07BF8B96820
:10140000044651F804BB07A84FEA8B02CDF818B088
:101410002DF0A6FED9F808100DA851F8042B0025D0
:101420000C9292002DF09CFE0BF1FF385D4511DA15
:10143000A8450DD0294606A8FFF74EFC2946059081
:101440000CA8FFF749FC059B834201D00EF070FF0A
:101450000135EBE7B8F1000FF8DB06AA0123002104
:1014600010468B4507D088450CBF012555680131D2
:101470006B430432F5E741460593FFF72DFC4146E7
:1014800005460CA8FFF728FC8542DFD1059B3946AD
:10149000CAE90E35336830465B6A98473368494677
:1014A00030465B6A984758E767703F022E703F02EC
:1014B000E96F3F02396E3F023E703F02816F3F028B
:1014C0006A6F3F024F703F02A46F3F0269703F0294
:1014D000002313B504460093034A044B0449FFF765
:1014E00007FC204602B010BDC5323C025F323C0210
:1014F0004D323C022DE9F0412DED028B0E7888B083
:10150000092E04460D469846109F0AD007693046BA
:10151000FFF710FB2B78024650492046B8470120C0
:1015200097E01378072B39D1136913F5004F0CD0CE
:101530004B4ACDE902324B4B01934B4B00936E2348
:1015400004694A4A4A49A047E9E7DFED4A7A92ED41
:10155000037AB4EEE77AF1EE10FADFED476ACCBF1A
:1015600077EE677A77EEC77AF4EEE67AF1EE10FA64
:101570004ADD0022414B17EE100ACDE90423FCF7A7
:10158000FFFE3F4BCDE9020101933E4B2046009305
:1015900025696F23354A3C49A847C0E7092B13D07A
:1015A00007691846FFF7C6FA05463046FFF7C2FA44
:1015B000364BCDE902500193354B204600932B4A20
:1015C00072233449B847AAE7136913F1800F0AD090
:1015D0006FF07F02CDE902322F4B0193224B009333
:1015E00004697323ADE792ED037ADFED2C7AB4EE54
:1015F000677AF1EE10FA07D0294B1C4A0093046970
:1016000074232849A0478AE7E868FCF7B9FE41EC53
:10161000180BD8F80000FCF7B3FE07F1080441EC02
:10162000100BB0EE481AF0EE681A2146052007AA02
:1016300000F006FA07991F22F960052000F03CFA35
:10164000FCF78CFE01F100431946FDF7A1F9B861E2
:10165000002008B0BDEC028BBDE8F08184703F0231
:101660000080FFFFEC703F02F3703F02A0703F026A
:10167000396E3F02000080376F1283320000F03E67
:101680002D713F0239713F020D713F024E713F02D1
:10169000D06F3F02B66F3F025A713F020000803B9D
:1016A0005F713F026A6F3F02C0EE807A9FED117A50
:1016B000F8FE677AF4EEC77AF1EE10FA13B50FDB95
:1016C0009FED0D7AF4EEC77AF1EE10FA08D8FDEE30
:1016D000E77A17EE903A00200B44136002B010BD79
:1016E000064B074A0093046940F257130549A04787
:1016F0000120F3E7000000CF0000004FC9713F0256
:1017000081713F026A6F3F0273B5D1ED037A92EDAA
:10171000037A67EE877AF5EEC07AF1EE10FA1E468C
:101720000ADA0F4B0F4A0093046940F249130E493D
:10173000A047012002B070BD17EE900AFCF720FE12
:101740000446F0680D46FCF71BFE0B460246294690
:101750002046FCF797FF069BC3E900010020E9E75C
:10176000EF713F0281713F026A6F3F02000000008B
:101770002DE9F74F0446DDE90C7BC86815461E4687
:101780008A46FCF7FDFD8046E8688946FCF7F8FDCF
:1017900002460B4640464946FCF74AFE80468946CB
:1017A000D6B1F068FCF7ECFD02460B4640464946D0
:1017B000FCF786FC8046F86821F00049FCF7E0FD64
:1017C00002460B4640464946FCF75CFF11A3D3E9AD
:1017D0000023FDF7A9F850B13B462A465146204662
:1017E000CDF830B003B0BDE8F04FFFF78DBF064B2A
:1017F0002046009325694FF49E73044A0449A84784
:10180000012003B0BDE8F08F08723F0281713F02F2
:101810006A6F3F027B14AE47E17A943F2DE9F041B5
:101820001F46137886B0032B06468C460C9D0FD0BE
:10183000092B26D0072B28D0374B384A0093046950
:1018400040F28F133649A047012006B0BDE8F08171
:10185000FF244FF00008BCF1010F92ED030A11695B
:1018600018D1DFED300A304605AAFFF71DFF00282A
:10187000EBD1059B4345ACBF3B60C7F800802C60B3
:10188000E3E77F246FF07F08E5E747F6FF74DFF8B2
:101890009880E0E7BCF1030F21D1DFED220A30464A
:1018A00005AA8DED020A0391FFF7FEFE0028CCD1B8
:1018B000F1EE080A059B05AA4345ACBF3B60C7F89B
:1018C00000809DED020A30460399FFF7EDFE0028E7
:1018D000BBD1059BA342D4BF2B602C60B5E7BCF104
:1018E000020F14D1FFEE000A304605AA8DED020A60
:1018F0000391FFF7D9FE0028A7D1059BF7EE000A58
:101900004345ACBF3B60C7F8008005AAD9E7C7F8DC
:10191000008000202C6098E72A723F0281713F020C
:101920006A6F3F02000000000080FFFF00F1080323
:1019300073B504460D460360E1B10846FDF7E0FAD1
:101940000F2805EB0006019007D90022204601A9C7
:1019500021F040FA019B2060A360324629462068AE
:1019600021F0D0FA00212046019B22686360D15407
:1019700002B070BD01481BF03BFA00BF30723F025D
:1019800073B5002206460C46002351EC100B8DED7A
:10199000000BFCF7B5FF9DED000B054620B10023C1
:1019A0003360236002B070BD204629F095F8002214
:1019B000134B51EC100BFCF73BFD41EC100B29F0E5
:1019C000C3F851EC100BFDF7E3F84FF000428242F0
:1019D00075EB010C034601DA0EF0AAFCA94208BF20
:1019E000904202BF236801332360226808BF4FF092
:1019F00080431F32BCBF002323603360D2E700BFA7
:101A00000000E04137B50C4B05460C46002251EC76
:101A1000100B8DED000BFCF79BFF9DED000B08B943
:101A20000EF086FC21462846FFF7AAFF2368002B0C
:101A3000F6DB03B030BD00BF0000F03F0000000047
:101A40002DE9F84F4FF000432DED028B23FA00F003
:101A500057EC106B59EC118B93468A46FCF77EFCD1
:101A6000424604460D464B4630463946FCF7E0FCFC
:101A700002460B4620462946FCF7DAFC02460B4696
:101A800043EC182B0AA3D3E90023FCF761FF08B14C
:101A90009FED078B59465046B0EE480AF0EE680AB3
:101AA000BDEC028BBDE8F84FFFF7ACBFAFF3008091
:101AB0000000C0FFFFFFDF412DE9F843012481460C
:101AC00004FA00F0013888461546FCF747FC064644
:101AD000A5EB09000F46C0F12003A0F1200124FA74
:101AE00003F304FA01F104FA00F01943FCF772FC65
:101AF00002460B4630463946FCF79AFCC8F12003F3
:101B00000F46A8F1200124FA03F304FA01F1064676
:101B1000194304FA08F0FCF75DFC02460B46304618
:101B20003946FCF7AFFD41EC100B28F051FF51ECAA
:101B3000100BFCF72DFFBDE8F883002370B5561C91
:101B40008B420CDA5D10445744F30304D4545C1CFC
:101B5000A14204D044572411F4540233F0E770BD7D
:101B60002DE9F04F2DED088B164689B0DDE91A25D9
:101B70000F46D2F804A01168BAF1010F0AFB01F96F
:101B8000039106FB03F1044600EBC9094FEAC108C3
:101B900016D1034697E8030083E80300083399450C
:101BA0004744F7D105F584730593039B023B032B50
:101BB00000F28A82DFE813F01B005600FB009B0155
:101BC00008320492039A4FEACA0B724304990195B2
:101BD00000913946CDE906230590FFF7C1FFDDE905
:101BE00006230598474458448145EFD1DAE70AF1C6
:101BF000010304EBC303F6000834D5ED436A53ED4B
:101C0000015AD5ED427A13ED026A26EEE57AA6EE88
:101C1000277A67EEA57AE6EE267A54ED026A76EE2A
:101C2000C76A43ED026A54ED016A76EEE76A43ED56
:101C3000016A54ED026A36EE877A04ED027A14EDF9
:101C4000017A77EE277ABAF1010A44ED017A03F1BD
:101C5000080304F108043544CFD109B0BDEC088B6A
:101C6000BDE8F08F06FB0AF305EBC30393ED439A3F
:101C700004EBCA08330104EB0A194FEAC60B04F15E
:101C8000080644465746F1EE499AAA46039304349F
:101C9000D8ED017AD5ED436A66EEE78A14ED016A64
:101CA00095ED428AB0EE687AA6EE087A28EE278A89
:101CB000F0EE487AD9ED015AE6EE267ADAED436A7B
:101CC00099ED006A9AED428A66EEE58AE6EE088AA8
:101CD00028EE258AA6EE268A56F8080C37EE88AA42
:101CE00077EE28AA37EEC88A77EE688AFCF748FBB9
:101CF00041EC1B0B1AEE900AFCF742FB0022F14B61
:101D0000FCF796FB02460B4651EC1B0BFCF7D8F98F
:101D1000FCF786FE44F8040C56F8040CFCF730FB84
:101D200041EC1B0B1AEE100AFCF72AFB0022E54BD4
:101D3000FCF77EFB0B46024651EC1B0BFCF7C0F98F
:101D4000FCF76EFEC8F8040056ED027A77EEAA7A28
:101D500046ED027A56ED017A77EE8A7A46ED017AFF
:101D600054ED017AE9EE087AC9ED007AD8ED017AEE
:101D7000E9EEA87AC9ED017A54ED017AE9EE887AA4
:101D800044ED017AD8ED017AE9EE287AC8ED017ABE
:101D9000039B013F06F1080608F108085D4409F1BC
:101DA00008099A4404F108047FF472AF55E7182239
:101DB0005746A946AE46A8464FEAC60B4FEA061A52
:101DC000564304EB071004EBC70100EBC70304F113
:101DD000040C91ED017AD9ED436A91ED005AD9EDE9
:101DE000427A26EEC76AA5EE276A67EE877AE5EEA5
:101DF000267AD0ED014AB0EE677AD8ED437A90EDBD
:101E0000005AF0EE465A67EEE46A98ED426AE5EE53
:101E1000066A26EE246AD3ED013AA5EE276A9EED06
:101E2000435AD3ED004ADEED427A25EE634A1CEDBB
:101E3000013AA4EEA74A67EEA37AD4ED013AE4EEA4
:101E4000857A73EE664A76EE836A35EE843A4CED17
:101E5000016A33EEC65A76EEC36A36EE236A84ED23
:101E6000016AC0ED006A77EE273A35EEC46AD4ED18
:101E7000015A75EEE35AC0ED015A5CED016A76EE47
:101E8000836A4CED016A77EE677A94ED017A37EE5A
:101E9000237A84ED017A6A6874EEA76A35EE467A91
:101EA00074EEE77A35EE066AC2B1C1ED007A81EDD3
:101EB000016AC3ED006A83ED017A013F04F1080471
:101EC00001F10801D94400F10800D04403F10803EE
:101ED000B6440CF1080C7FF47CAFBEE6C1ED006A9D
:101EE00081ED017AC3ED007A83ED016AE5E70AFB33
:101EF00006F3059AAC4602EBC30797ED012AF20000
:101F000003921822AE46A8464FF00009F1EE420AAD
:101F10007243D7ED001A07EBC30704EB0A1397EDE2
:101F2000001AD7ED012A4FEA061B04EBCA0703EBA0
:101F3000CA0103EB0A1004927601CA4504F10804B1
:101F400007F1080703F1080301F1080100F1080097
:101F50007FF783AED5ED436A57ED013AD5ED425A8E
:101F600017ED026A26EEE33AA6EE253A65EEA35A8D
:101F7000E6EE265AD8ED424A53ED016AF0EE653A94
:101F8000D8ED435A13ED025A25EEE66A64EEA66ACE
:101F9000E5EE256AA5EE246ADEED435AF0EE664AC8
:101FA00051ED016A9EED425A11ED024AF0EE468A69
:101FB00025EEE66AA4EE056A25EE265ADCED436AB4
:101FC000A4EE255A50ED015A9CED424AF0EE439A98
:101FD000B0EE460A26EEE53A10ED026AA6EE043AA5
:101FE00064EE255A39EE83AA39EEC33A78EE809A28
:101FF00014ED027A34EE858AE6EE265A74EEC56A4E
:102000003AEE295A33EEA59A35EE075A54ED017A85
:1020100004ED025A39EE085AF0EE474A35EE275AD7
:1020200038EEC06A04ED015A73EEE55AB0EE675A15
:1020300062EEA63AE1EE8A4AE2EE253AE1EE294A5C
:1020400026EE624AA1EE895AA1EE0A7A65EEE25ABC
:1020500034EEE30AE2EE265AA1EE085AA0EE834AD5
:10206000A1EEA97A66EE426AE1EE097A07ED020A6C
:1020700037EE256A35EE440AE1EE887AE2EE836AAD
:1020800074EEA34A35EE045A07ED010A37EE657A7D
:1020900040ED024A00ED015A03ED026A37EEA66AEE
:1020A00077EEE67A039A03ED016A1544049A01ED8E
:1020B000027A41ED017A09F10109D8449644B44409
:1020C0003BE700BF0000E03F2B680493039B4FEA0F
:1020D000C30B5846FEF727FD4FF0000C034665463C
:1020E0004FEACA0207920AFB06F283440692AA4507
:1020F00051DDAE4600220399914238DCE6464FF0AE
:10210000000804EBC5020399414541DD93E8030053
:1021100082E80300002103F10800584531D0049FF4
:1021200071448F42D8BFC91B059F90ED015A07EB40
:10213000C10999ED016AD0ED005AD9ED007A26EE79
:10214000457AA5EEA77AF0EE476A92ED007A67EE3F
:10215000857A37EE267AE5EE867A82ED007A92ED80
:10216000017A77EE277A0830C2ED017AD5E703EBE2
:10217000C20804EBCE0103C9D64488E8030001324B
:10218000B9E7079908F101080A4406998E44BAE7AD
:102190000135B444ABE7184609B0BDEC088BBDE887
:1021A000F04FFEF7C4BC00BF2DE9F84F00F1210746
:1021B0002DED028B04460E461546DDF830B0FF00CB
:1021C000002B3DD13846FEF7AEFC0546D0B3C5E93D
:1021D000004605F5847A002E44D056464FF0000A9A
:1021E0002046FCF7BBF8A2458046894606F1080662
:1021F00067DA5046FCF7B2F84BA3D3E90023FCF7AB
:1022000017F942464B46FCF73DFA41EC100B41EC06
:10221000180B28F07DFB51EC100BFCF701FCB0EE25
:10222000480AF0EE680A46F8080C28F0E1FC51EC88
:10223000100BFCF7F5FB0AF1010A46F8040CCFE796
:1022400052B91F60BBF1000F01D0CBF800702846D7
:10225000BDEC028BBDE8F88F1A681F60BA42B6D297
:102260000025EFE72046FCF779F8A642804689462C
:102270000AF1080A25DA3046FCF770F82CA3D3E9F6
:102280000023FCF7D5F842464B46FCF7FBF941EC3E
:10229000100B41EC180B28F03BFB51EC100BFCF73A
:1022A000BFFBB0EE480AF0EE680A4AF8080C28F0C6
:1022B0009FFC51EC100BFCF7B3FB01364AF8040C01
:1022C000D0E72046FCF74AF841EC100B28F0A2FEBC
:1022D00028F07EFB042659EC108B05F1080A94FBCC
:1022E000F6F306FB1342AAB1022E0FD0042E0FD034
:1022F00002363046FCF732F802460B464046494665
:10230000FCF708FB002818BF2646E8E70326F0E79D
:102310000226EEE7012B1C46CAE9006392DD0AF1B2
:10232000080ADCE7AFF30080182D4454FB21194064
:10233000182D4454FB2119C02DE9F3410446914264
:102340000D4610461F4604F1080817D12068C0004A
:10235000FEF7E9FB06463B4629460122CDE900840B
:10236000FFF7FEFB226831462846D2002CF0F8FE2B
:10237000304602B0BDE8F041FEF7D9BB0122CDE9FD
:102380000084FFF7EDFB02B0BDE8F0810123FFF709
:10239000D3BF0000000000002DE9F04F2DED028BAF
:1023A000002585B010F0010A8B4614461F460395A0
:1023B00009D06348FEF78AFB2C46204605B0BDECE9
:1023C000028BBDE8F08F451003AB52462846CDF88E
:1023D00000A0FFF7E9FE05EB4506039B06EBD6766A
:1023E00076100C3303EBC606002F58D13046FEF7AB
:1023F0009AFB0446002CE0D004F10C022260039BFF
:1024000059461344636003EBC503A36000232846C9
:10241000009305EBD57703ABFFF7C6FE7F10BBF14A
:10242000000F42D057457DDD0AF1010A5046FBF707
:1024300095FF804628468946FBF790FF02460B46EB
:1024400040464946FCF71EF900223E4BFBF73AFE98
:1024500037A3D3E90023FBF7EBFF41EC100B41EC72
:10246000180B28F055FA4FEACA08A36851EC100B74
:10247000A8F1080803EB0809FCF7D2FAB0EE480A05
:10248000F0EE680AC9F8000028F0B2FBA36851EC2E
:10249000100B9844FCF7C4FAC8F80400C2E73B6884
:1024A0003E60B342A6D2544687E75F453ADD0BF162
:1024B000010B5846FBF752FF804628468946FBF73A
:1024C0004DFF02460B4640464946FCF7DBF800222A
:1024D0001C4BFBF7F7FD18A3D3E90023FBF7A8FF7C
:1024E00041EC100B41EC180B28F012FA4FEACB0824
:1024F000A36851EC100BA8F1080803EB0809FCF7DE
:102500008FFAB0EE480AF0EE680AC9F8000028F029
:102510006FFBA36851EC100B9844FCF781FAC8F8E4
:102520000400C2E7109B002B3FF447AF1E6044E756
:10253000182D4454FB210940182D4454FB2109C097
:102540005A723F020000E03FF7B5036804465B683B
:10255000164623B136480191FEF7B8FA0199206872
:1025600062680568FFF712FF63680022D3ED007A06
:1025700093ED017A77EE876A77EEC77A06EBC503AB
:10258000C6ED006AC3ED007A72605A606FF0070210
:102590000127B6EE006A05EBD5756D1006F1080C43
:1025A000921BBD420CF1080C3FDB6168F80001EBA7
:1025B000C706D6ED015AD6ED006AD6183144D1EDE2
:1025C000004AD1ED017AA1680838014434EEA67AB8
:1025D00035EEE75A76EEE46A77EEA57AD1ED014A58
:1025E00091ED004A64EEE75A67EE847AE6EE845A8B
:1025F000E6EEA47A77EE256A66EE866A37EE657AAD
:102600004CED026A77EE856A77EEC57A66EE866AE9
:1026100027EE067A67EE867A4CED016A013703ED04
:10262000027A43ED017A083BBBE703B0F0BD00BF7F
:1026300073723F022DE9F04385B00C9C904662080E
:1026400001329A4206460D4651D18C4201D80028EB
:1026500047D10121A000FEF768FA0746002844D0C0
:10266000A54228BF25464FEA850931464A46651BE3
:102670002CF076FDAA00002107EB09002CF097FD55
:102680003E460125202C34D0402C32D0802C30D036
:10269000B4F5807F2DD0B4F5007F2AD0B4F5806FDB
:1026A00027D0B4F5006F24D0B4F5805F21D003AB00
:1026B0000093002320461A461946FFF76DFE044694
:1026C00088B142463146FFF73FFF2046FEF72FFA1A
:1026D000002415B13046FEF72AFA204605B0BDE8C1
:1026E000F0830025CEE7044CF3E7034CF5E7034CF9
:1026F000F3E7034CEDE700BF16FCFFFF11FCFFFF03
:1027000008FCFFFF000000002DE9F04F2DED048BC9
:102710004D0887B005F1010903900E464FEA810884
:102720004FEAC9000121FEF700FA0746F8B101217E
:102730004046FEF7FAF90446B0B10246039B00EBAF
:1027400008010493AB000593039B00EB850C6245E5
:1027500003F108030ED053F8080C42F8040B53F8A9
:10276000040C41F8040DF2E73846FEF7E0F9DFF813
:10277000188117E0F30706D5039B9844059B58F88A
:10278000042CE3181A604B463A4631462046009620
:10279000FFF750FF804658B12046FEF7C8F938468B
:1027A000FEF7C5F9404607B0BDEC048BBDE8F08FDD
:1027B0007000FBF7C3FDBB4641EC190BC246504607
:1027C000FBF7BCFD2EA3D3E90023FBF731FE53EC4E
:1027D000192BFBF757FFFCF723F900EE100A08EE60
:1027E000100A28F08DFAF0EE408AB0EE480A28F080
:1027F000F9FADBED017A5B4660EE277A93ED007A19
:10280000E7EE287A049B0AF1010AE3EC017AD1454C
:102810000BF1080B0493D2D8059B751B03F1040A36
:10282000039B07EBC50553449A46B145B4D24846CD
:10283000FBF784FD12A3D3E90023FBF7F9FD53EC6A
:10284000192BFBF71FFFFCF7EBF800EE100A08EE60
:10285000100A28F055FAF0EE408AB0EE480A28F047
:10286000C1FA55ED017A15ED027A67EEC07AE7EE0E
:10287000287A083DEAEC017A09F10109D5E700BFA1
:10288000182D4454FB21094016FCFFFF13B50446E4
:102890008DED010A03F09EFE074A146044B19DEDE0
:1028A000010A036805499B6F02B0BDE81040184754
:1028B000204602B010BD00BF14A3061059483C02C8
:1028C0002DE9F84F03F086FEDFF8C4900746D9F8EB
:1028D00000008000FEF727F90446002854D00025A8
:1028E0002E46DFF8B0B0DFF8B080DBF80030AB4246
:1028F00039DDD8F800304FEA850A53F82520D2F8A0
:10290000BC3050689BB900220020D8F8003053F842
:102910000A104B68934224DDD1F8C0301341DB0725
:1029200042BF04EB8603186001360132EDE7984799
:102930000028E8D003460021D8F8002052F80A0009
:1029400042688A420DDDD0F8C02004330A41D20724
:1029500041BF53F8040C04EB8602106001360131CC
:10296000EAE70135C1E7D9F80010084B20461B689B
:102970008900984718B13B683846DB6F9847204676
:10298000BDE8F84FFEF7D3B8BDE8F88F14A30610E2
:1029900030A3061034A3061008A3061008B548B1EA
:1029A000B0F1005F01D31AF01DFA8000BDE80840C5
:1029B000FCF7CBBA08BD00002DE9F04F2DED028BDE
:1029C000B1B003F007FE4FF00008754E754F336845
:1029D0000446D0F80051C7F800803BB94FF000081A
:1029E000404631B0BDEC028BBDE8F08F2B68284625
:1029F000DB6898472D692368013845439B6B204667
:102A0000984708EE100A236820461B6B9847D6F8B3
:102A10000090B8EE488A4FEA890307EE903A88EEB4
:102A2000007AF8EE677A67EE277A77EEA77AFAFEF1
:102A3000677AFCEEE77A17EE903A9D4228D2236837
:102A400020461B6B4FEAC909984707EE109A07EE1C
:102A5000905AB8EE477AF8EE677AC7EE006A87EECA
:102A6000A67AFBFE477AFDEEE77A4F4817EE901AFA
:102A7000FEF72CF8236820461B6B9847F7EE007A88
:102A800087EE800AFEF742F84848FEF71FF8A7E7EE
:102A9000AC22414605A82CF08AFB236820461B691E
:102AA00098470368204605932368DB6898470368C6
:102AB00020460693236844461B6B984740468DED9D
:102AC000070A3B4B1B6801933A4BD3F800A0019BCC
:102AD000A34237DD02464FF0000805AB03EBC00907
:102AE0005AF824103D684B6808EB020043450392F6
:102AF00009F1080924DD08F1030001EBC001496870
:102B0000C9F804105AF8243003EBC0039B68C9F8D5
:102B100008305AF8243003EBC803D8690293FCF755
:102B2000EFF9029B8346186AFCF7EAF905F10E03F8
:102B300003EB0B052844039A386008F10108CFE73E
:102B40000134C4E738680430FDF7EDFF054600287E
:102B50003FF444AF3A68941C14F0030415D0336872
:102B600030A901EBC30353F8A41C2CF0E7FC124F6F
:102B70003946284601342CF0B4FC042CF8D13368D3
:102B800030AA02EBC30343F8A45C32680B499200FD
:102B900005A80CF0BBFB80462846FDF7C8FF1FE7E1
:102BA00030A3061004A3061099723F02D5723F02AB
:102BB00034A3061008A306106DDE3F0225483C0230
:102BC00010B50446C06918B1616A091AFCF7C5F965
:102BD000204620F021F9204610BDF8B504460F46E6
:102BE00015460026BC422BD005B3234605F108024A
:102BF0002A6053F8081B8B421ED1194604F11800B5
:102C000051F804CB814242F804CBF9D162686A6082
:102C1000C4E90036A3692672AB61E369EB61236AFC
:102C20002B62636A6B62C4E90866E6612046FFF7BF
:102C3000C7FF28342835D5E72960A268AA60E5E7F0
:102C40002846F8BD70B50446D0E90056AE4204D01F
:102C50002846FFF7B5FF2835F8E7206818B1A168C6
:102C6000091AFCF77AF9204670BD00002DE9F347F8
:102C7000284BD0E90089A9EB0804A4105C43264B3B
:102C80008A469C420746114602D124481AF0B6F8FB
:102C9000012C224638BF0122A418AAEB080535D220
:102CA000B4B39C4228BF1C46C42060430191FCF78A
:102CB0004CF906460199701902D0C4222CF050FA42
:102CC000002D04DD2A46414630462CF056FAA9EB89
:102CD0000A09C435B9F1000F354404DD4A465146AE
:102CE00028462CF03DFA4D44B8F1000F05D0B968E4
:102CF0004046A1EB0801FCF730F9C42000FB046456
:102D0000C7E90065BC6002B0BDE8F0871C46CBE7B0
:102D10002646D0E7D1581F1A052FA700DB723F02C5
:102D200084B010B502AC84E80F000C4CD4E9010368
:102D300098420CD018B1C42202A92CF011FA636891
:102D4000C43363600120BDE8104004B07047014601
:102D500002AA2046FFF78AFFF4E700BF18A3061077
:102D60002DE9F84F6FF06043D0E900899346A9EB55
:102D70000802B3EBA20F07468A464FEAA20402D12B
:102D80001F481AF03BF8012C224638BF0122A41834
:102D9000A1EB080530D28CB39C4228BF1C46A00092
:102DA000FCF7D3F80646EE421CBFDBF80030735147
:102DB000002D04DD2A46414630462CF0DEF9A9EB11
:102DC0000A090435B9F1000F354404DD4A4651467D
:102DD00028462CF0C5F94D44B8F1000F05D0B9686C
:102DE0004046A1EB0801FCF7B8F806EB8404C7E9FC
:102DF0000065BC60BDE8F88F1C46D0E72646D2E7E8
:102E0000DB723F0200232DE9F04F05460027874A79
:102E1000874C884E89B033601360DFF82492D4E980
:102E200000329342039118BF6360D9E900239B1AD3
:102E3000814A9B1053439F4211D2D4E901120023CF
:102E40009142079306D001B10B606368043363605D
:102E50000137EAE7764807AAFFF782FFF8E7284636
:102E6000FCF74EF80130FDF75EFE0746002800F043
:102E7000C2802846FCF744F80021421C38462CF05A
:102E800096F92846FCF73CF82946024638462CF0CD
:102E900055FB384669492DF001FA4FF00008054608
:102EA000002D00F0A180002363490093D9E900239D
:102EB0009B1A9B104B430099994280F093800B46DC
:102EC000C4214B430193039BFBB9019B2846D15876
:102ED00002EB03082CF045FB10B9009B0133E3E73C
:102EE0003368D4F800B0DDF80CA0534540F385807A
:102EF0005BF82A202846116800932CF032FB00284A
:102F000062D1009B0AF1010AEFE74FF00008C346C7
:102F1000D9F80030019A03EB020ADAF8043043458D
:102F20004FDD0AEBC8032846D9692CF01AFB0028AC
:102F300032D04FF0000B336802932368029A5A454F
:102F40000BDD53F82B202846116804932CF009FB65
:102F500000BB049B0BF1010BF0E74FF0000B029A52
:102F60005A451FDD53F82B20DAF80010106805933E
:102F700004922CF0F6FADDE9042380B1012303FA70
:102F800008F1D2F8C0300B43C2F8C030274A1368AA
:102F9000013313604FF0010B08F10108B8E70BF1A2
:102FA000010BDCE70121029A01FA08F143F822A0A3
:102FB0003368226852F823200133C2F8C01033600E
:102FC000E4E7BBF1000F88D03368012B02DD4FF03E
:102FD000010809E0002019492DF060F94FF00108BF
:102FE00005465DE74FF000083846FDF7A0FD404676
:102FF00009B0BDE8F08F8046F9E701204BF8238047
:10300000019AD9F80030094913445B680A681A44E8
:103010000A603268216800FA03F351F82210013B7C
:103020000244C1F8C0303260CEE700BF30A30610C2
:1030300008A3061034A30610D1581F1AEE743F02DD
:1030400018A3061038B50346D3E90035ED1A6FF022
:103050006043AC10A3EBA5058D42104601D219F0D8
:10306000CDFEA14238BF2146601803D2984228BF46
:10307000184638BD1846FCE7F7B500F108030360B1
:10308000D1E9006304460D46F7181EB917B11B4875
:1030900019F0AEFE0F2B019307D90022204601A99B
:1030A0001FF098FE019B2060A3603A4631462068DD
:1030B0001FF023FF0023019A216862608B54AA69E4
:1030C000A261D5E90727BF1AC4E907336362B810C4
:1030D000FFF764FCC4E9070007446762D5E90713FA
:1030E00099420646A3EB010502D02A462CF045F88A
:1030F00020462E44266203B0F0BD00BF30723F026E
:103100002DE9F347244BD0E90087A7EB0804E4102E
:103110005C43224B0E469C420546114602D1204894
:1031200019F06CFE012C224638BF0122A418A6EB30
:10313000080A2DD274B39C4228BF1C462820604345
:103140000191FBF702FF8146019919EB0A0001D0BA
:10315000FFF792FF31464A464046FFF73EFD3946AB
:1031600000F128023046FFF738FD0646B8F1000F9F
:1031700005D0A9684046A1EB0801FBF7EEFE282028
:1031800000FB0494C5E90096AC6002B0BDE8F0878E
:103190001C46D3E7A146D8E7CDCCCCCC33333303A0
:1031A000DB723F022DE9F04F00251E46A1B006ABB1
:1031B000049318ABCDE916352A9B81469E420F46F3
:1031C000CDE91D55DFF8108305958DF818508DF861
:1031D00060501F9540F04A812C46DFF800B3A1F102
:1031E000040AC4215AF8043FD8F800204B4352F88F
:1031F00003900CAB0A93B9F1000F00F05D814846D3
:10320000FBF77EFE0F2809EB0003109009D900227E
:1032100010A90AA802931FF0DDFD109A029B0A90E4
:103220000C9249464FF000091A460A981FF06AFEB0
:10323000109B0A9A0B93594602F803900AA84A4633
:1032400020F061F948B3012E27D0431E4A460AA94F
:1032500010A820F077FADDE9101204A820F067F832
:1032600010A81FF0D9FDC421DAF80020D8F80030EA
:10327000013501FB02335B681C442A9B9D4217DA2F
:10328000059BC3F17F5303F57F1303F57F533F3352
:10329000022B08D88A4819F0B1FD04A8DDE90A120A
:1032A00020F045F8DFE70322864904A820F03FF824
:1032B0000AA81FF0B1FD2A9B9D4292D104A916A82D
:1032C0001FF025FEA300012E07EE903A40F08A8001
:1032D000C4219FED7D7A3A68D8F8003001FB0233B3
:1032E00003F108021C33F2EC016AB4EE667AF1EEE7
:1032F00010FA48BFB0EE667A9342F4D1F8EE677ADE
:10330000DDED2B6A67EE877AF8EE666A77EEA77ACC
:1033100086EEA77ABDEEC77A00268DED1C7A4FF0B7
:10332000C40ADFF8ACB13A68B3000AFB0233D8F83C
:1033300000201344D3ED027AF5EE407AF1EE10FA54
:1033400009D0DDE91E4294421FD00CB1C4ED007AD1
:103350001E9B04331E930136052EE4D11C9B5BB1EA
:103360005A4CD4E9010398427AD010B116A9FFF75C
:1033700083FE63682833636016A8FFF721FC04A866
:103380001FF04AFD21B0BDE8F08F01215A461DA86B
:103390000393FFF757FE1D9D0290FFF7FFFAA4EB82
:1033A000050910EB090118BF039B04461CBF9B686D
:1033B0000B60B9F1000F03DD4A4629462BF0DDFE14
:1033C00009F10402224435B11F992846491B039292
:1033D000FBF7C3FD039A029BCDE91D4204EB830476
:1033E0001F94B8E79DED2B7ADDE91E43F8EE677A6E
:1033F000F8EE476A77EEA77A86EEA77ABDEEC77A2F
:103400009C428DED1C7A07D014B14FF07E5323609F
:103410001E9B04331E93A1E72D4A01211DA8FFF72F
:1034200011FE1D9E0746FFF7B9FAA41B03191CBF26
:103430004FF07E521A60002C054603DD22463146CD
:103440002BF09BFE04342C4426B11F993046891B77
:10345000FBF783FDCDE91D5405EB87051F957DE73F
:10346000014616AA2046FFF74BFE85E714462A9B25
:10347000DFF86CA001EB860B9D1B0136D8E900122A
:10348000521A92100AFB02F2531EA342FFF474AFC9
:10349000121BAA42FFF670AF59F824300134CBF862
:1034A00000302B9B224601932A9B394600934846C5
:1034B0003346FFF777FEE1E7064819F099FC00BFB5
:1034C000F5723F020A733F020000000024A30610B9
:1034D000DB723F0230723F0218A306106F8D3F026D
:1034E000D1581F1A2DE9F74303F074F8D0F80041C2
:1034F000284E23682046DB689847D6E9007824697F
:103500000138474500FB04F407D03D4628462835DE
:10351000FFF756FBA845F9D1776000231E4D1F4FDA
:103520005E1CB000FBF713FD8046D5E900031B1AB3
:103530005BBF9B107B434FF0FF309800FBF707FD0C
:10354000D5E9002381469B1A00229B107B439342BE
:1035500003D049F822200132F9E7002341461A46F8
:103560004846CDE90064FFF71DFEB8F1000F02D018
:103570004046FBF7F0FCB9F1000F02D04846FBF7DC
:10358000EAFC022E4FF00103CAD1024803B0BDE8A5
:10359000F08300BF24A3061018A30610D1581F1AE9
:1035A0002DE9FF47FFF79EFF0023D0E90025AD1A64
:1035B0000646CDE90133039318D0284B9D4201D92B
:1035C00019F010FC2846FBF7C0FC0446CDE9014485
:1035D00025440395D6E90057AF4209D01CB12946CE
:1035E0002046FFF749FD28342835F5E72C46EDE75E
:1035F00002941B4E019C1B4FDFF87080029BA3427C
:1036000025D030462168FDF761FA3846A169FDF7FB
:103610005DFA4046FDF75AFADFF854A0E569DFF895
:103620005490236A9D420DD0B5EC010AFDF76EFA65
:103630005046FDF74BFA236AAB42F2D04846FDF7FD
:1036400045FAEEE70848FDF741FA2834D6E701A825
:10365000FFF7F8FA04B0BDE8F08700BFF8FFFF7F7E
:103660000E733F0219733F02807A3F0295783F0242
:10367000A8783F0216733F020023064AC2E90033CE
:103680009360054AC2E900339360044AC2E90033FB
:103690009360704718A3061024A3061008A3061011
:1036A000012A02D1016000207047022A04BF0B6882
:1036B0000360F8E730B40D46114604681A682868BC
:1036C000234630BC0968184710B58368044613B117
:1036D000032201469847204610BD00002DE9F0471F
:1036E0000C46074602F076FFD0F8008140F2012038
:1036F000FDF719FA0646DFF85090B4F5007F06D8BA
:10370000BCB93046FDF713FA0120BDE8F08740F25E
:103710000125D8F800303A46D3F81CA031462B4694
:103720004046D047A84206D03046FDF700FA0020B8
:10373000EBE72546EDE74A462946304600F006F815
:103740002F44641BD9E700BF2B2A3C022DE9F74325
:10375000064615460024DFF8EC804718BE4232D0FA
:1037600016F8011B02AA2244022C04F1010302F8FC
:10377000081C26D100249DF800200DF104099308AF
:103780008DF8043012019DF8013002F0300202EB96
:1037900013128DF805209B009DF8022003F03C03D6
:1037A00003EB921302F03F028DF806308DF80720EC
:1037B00019F8013B013418F80300A847042CF7D18D
:1037C00000231C46CAE7CCB326460027032CC4F1CD
:1037D00003024FF00001C8BF00220DEB04002BF0E4
:1037E000E6FC9DF800109DF802208B088DF804304F
:1037F00009019DF8013001F0300101EB13119B002C
:1038000003F03C0303EB9213DFF8389002F03F0221
:103810008DF805108DF806308DF807200DF104089D
:1038200018F8013B013719F80300A847BC42F7DA42
:10383000022E03D83D20A8470136F9E703B0BDE8C2
:10384000F08300BF32733F022DE9F047B2B06A4601
:103850004C4908A8FEF76AF84B4901AA0EA8FEF7E2
:1038600065F84A4902AA14A8FEF760F8484903AA75
:103870001AA8FEF75BF8474904AA20A8FEF756F8F5
:10388000454905AA26A8FEF751F8444906AA2CA8DE
:10389000FEF74CF8A820FBF758FB4FF0000905464F
:1038A0000EAE00F1180400F1C008182CA4F11800A5
:1038B00027D0A4F1100344F8183C56E9067307EB2F
:1038C000030A2FB9BAF1000F02D0354819F090FA67
:1038D0000F2B079308D9002207A91FF07BFA079B3B
:1038E00044F8180C44F8103C5246394654F8180C69
:1038F0001FF003FB079B54F8182C44F8143C02F803
:10390000039027461834A04506F11806CDD10624A9
:10391000182608AB06FB04301FF07EFA013CF8D2F3
:103920002048FDF7D3F82048FDF7D0F81D48FDF7F3
:10393000CDF81E48FDF7CAF81D48FDF7C7F81D4829
:10394000FDF7C4F81C48FDF7C1F834211B48FDF70A
:10395000BDF801211A48FDF7B9F8296B1948FDF7A0
:10396000B5F82C46A74204D020461FF055FA18346B
:10397000F8E72846A821FBF7F0FA012032B0BDE8AD
:10398000F08700BF73733F027B733F0286733F0271
:1039900094733F029B733F02A0733F02AE733F02DA
:1039A00030723F02B5733F02D0733F02EB733F02A8
:1039B0000F743F0230743F025F743F029B743F02FA
:1039C000B6743F02D1743F0273B500F1080303607F
:1039D000D1E900530446EE181DB916B10C4819F090
:1039E00007FA0F2B019307D90022204601A91FF0E7
:1039F000F1F9019B2060A3603246294620681FF040
:103A00007CFA0021019B22686360D15402B070BD32
:103A100030723F0273B5044616460D4619B912B10D
:103A20000D4819F0E5F9731B0F2B019307D90022FC
:103A3000204601A91FF0CEF9019B2060A360324609
:103A4000294620681FF05EFA0021019B226863600E
:103A5000D15402B070BD00BF30723F020B4670B54A
:103A60000C4653F8081B0546994200680DD1626860
:103A70000AB11FF0FFF9002163682A686B60D15416
:103A8000002322686360137070BD05F10806B04220
:103A900008BF00202960616818BFAA686960A16832
:103AA000A96010B12060A260EAE72360E8E7F8B5FA
:103AB0000D4614460027A8421FD000F118069CB1FD
:103AC000034604F10802226053F8081B994210D102
