:02000004085F93
:10B0000000B05F08FCFF5F0800000600200005019B
:08B010000401221500000000FC
:10B018001348144908B5884205D0134A824202D021
:10B02800124B121A98471248124A0021124B121A50
:10B03800984712481249884205D0124A824202D0E3
:10B048000A4B121A984710481049884205D0104AEE
:10B05800824202D0054B121A9847014808BD00BF2A
:10B068009CA807100CF05F081CAA07102D0D1110E2
:10B078001CAA0710E8AF0710A10E111090C03F02DC
:10B08800A8B05F0898C03F02A0C03F02B0B05F08F8
:0CB09800FCFF3F0219B05F080000000040
:08B0A8009CB05F08F0F33F02C9
:10B0B00010F8012B11F8013B012A28BF9A42F7D062
:10B0C000D01A7047034613F8012B002AFBD1181A37
:10B0D0000138704770B502F061FE0025054E064C40
:10B0E000A41BA408AC4200D170BD56F8043B98479D
:10B0F0000135F7E7D0FF3F02FCFF3F0200F0A0B8A8
:10B1000008B500F01DF9BDE8084002F0FFBD00F0F1
:10B11000CDBE00F0CBBE00F0D7BE00000C2008B5BD
:10B12000024A034900F080FDFEE700BF65C73F0209
:10B1300000F43F020078B0FA80F040097047012324
:10B14000037070477047704710B504461021FFF731
:10B15000E2FF204610BD000010B50446094B036015
:10B1600001F0A0FB214601F0D7FD02F03FFD02F007
:10B170002FFD2046044B40F8043B01F069FC2046BB
:10B1800010BD00BF24F53F020CF53F0210B5044688
:10B19000FFF7E2FF20462421FFF7BDFF204610BD48
:10B1A0000EB403B503AB53F8042B0021019302F056
:10B1B000B8FA02B05DF804EB03B0704773B504460B
:10B1C00022790846A36832B1A3B90B4902B0BDE8A1
:10B1D000704002F075BA094A267B094D0949647B23
:10B1E000012E18BF2946CDE900140749FFF7D8FF03
:10B1F00002B070BD054AEFE726F43F02B8F43F0203
:10B2000022F43F021EF43F023CF43F0215F43F02D9
:10B210000EB44FF0200C002300B58CB00DAA52F8EC
:10B22000041BCDE904C3CDE900120392016804AA0E
:10B23000322000F007FD0CB05DF804EB03B070475E
:10B2400030B5002089B000F0B1FA43F698250446E5
:10B25000002000F0ABFA001B61F10001A84271F17F
:10B26000000307D202F0C2FC02F0B5FC10B900F0F6
:10B2700059FDEDE702F0BAFC02F0ADFC42F21070AD
:10B2800000F076FE26492748FFF7C2FF264CD4E897
:10B290008F1F11F001010BD120460391FFF74AFFE8
:10B2A000039928B1214802F079FA2046FFF747FFB9
:10B2B0001F4B3020049300238DF814301D4B069350
:10B2C0000123ADF81C30FFF722FF044620B10D2208
:10B2D000164904AB00F048F9174D20462C6000F0E9
:10B2E000BBF9642000F044FE144C286800F0A1F97A
:10B2F00038B9204600F0FAF84FF47A7000F0F0F810
:10B30000F3E7042300930023286819461A4600F047
:10B31000B8F90121286809B0BDE8304000F0A0B9B3
:10B3200059F43F0270AE07101CAA071020AA07109C
:10B33000F8F43F0200093D0028AA07108EF43F02EE
:10B3400008B5064800F0D2F84FF4FA6000F010FE9D
:10B35000BDE80840024800F0C9B800BFB9F43F0298
:10B36000E0F43F0270B51426D0E90053044606FB12
:10B370000356AE4204D0284602F0C9FA1435F8E765
:10B38000206800F0A1FD204670BD8842F8B5044653
:10B390000D46164616D9904215D2A2F11406751A1A
:10B3A000A1F114072C44B7421CD02CB131462046E1
:10B3B00002F016FB337C2374304602F0A8FA143EE8
:10B3C000143CF0E70ED0B5420CD02CB129462046F3
:10B3D00002F006FB2B7C2374284602F098FA143501
:10B3E0001434F0E7F8BD00232DE9F041C0E9003343
:10B3F00083604F6804469F420E4624DD4FF01408D8
:10B4000008FB07F000F052FD0546E0B1D4E9001258
:10B4100008FB0212FFF7B9FF206800F055FD256018
:10B42000A760D6E9007308FB0378B84509D0394610
:10B43000284602F0EFFA3B7C143505F8043C14373B
:10B44000F3E7736863602046BDE8F08170B50021C2
:10B450008CB0012000F03CFC0023CDE900330293C6
:10B4600002F0C4FB1A4C05462646694603A8FFF7BE
:10B47000BAFF03A906A8FFF7B6FF164B06A946F8C0
:10B48000043B09A8FFF7AFFF09AA3221304601F0BB
:10B4900025FD09A8FFF766FF06A8FFF763FF0E4B1F
:10B4A00003A823602562FFF75DFF0C4B236002F0C9
:10B4B0009DFB4FF4165102F087FB01F0F3F9214692
:10B4C00001F0E4FB6846FFF74DFF0CB070BD00BF14
:10B4D0002CAA07100CF53F02A8FC3F0224F53F02FE
:10B4E00008B500F045FD002008BD00000FB413B5FD
:10B4F00004AB53F8042B4FF480610B48019300F028
:10B50000FFFC00280BDD02F071FB04460648FFF744
:10B51000D9FD23680246DB6820460349984702B0FC
:10B52000BDE8104004B0704750AA0710084B1A68D5
:10B53000084B02F13001C3F8AC1002F110015A605F
:10B54000C3F8C420C3F8DC10C3F8F420704700BF70
:10B5500050AE0710A0A80710704710B50446302160
:10B56000FFF7D9FD204610BD30B58260094A0A4D6B
:10B57000C2601A79C0E9005102749A689B894261DD
:10B5800003834FF4007383830023836280F82C309D
:10B5900030BD00BFF8F43F028CFB3F0210B590F8BD
:10B5A0002C30044633B90123018980F82C304068DF
:10B5B00002F0FEF804F10C01606802F027F920891E
:10B5C0000021BDE8104002F059BC10B5044601212D
:10B5D000008902F053FC6068BDE8104002F0FCB83E
:10B5E00010B586B00446CDE904210393FFF7D6FFDA
:10B5F000DDE90332002005990090606802F074F9DB
:10B60000204606B0BDE81040FFF7DFBF0B2307B5AB
:10B610008DF8003000238DF801108DF80230694656
:10B62000032301AAFFF7DCFF9DF8060003B05DF8D5
:10B6300004FB0B21FFF7EABF0A2307B58DF80030A2
:10B640008DF801108DF802200323694601AAFFF747
:10B65000C7FF03B05DF804FB52221F21FFF7ECBFC8
:10B6600038B50D462D210446FFF7D0FF00F0FC024F
:10B670000DB142F002022046BDE838402D21FFF70F
:10B68000DBBF30B401294FEA81149DF80850E4B2C1
:10B6900003D0022910D0022100E0042141770AB131
:10B6A00044F010040BB144F0080405F007022243F3
:10B6B0002C2130BCFFF7C0BF0821EFE70023024870
:10B6C000036000F003B800BF54AE071009B504488A
:10B6D0000068044B03441B681B6B029309BD000008
:10B6E0009CA807103000000009B504480068044B0E
:10B6F00003441B685B6C029309BD00009CA8071003
:10B700003000000009B504480068044B03441B687E
:10B710009B6C029309BD00009CA80710300000003C
:10B7200009B504480068044B03441B68DB6C0293B2
:10B7300009BD00009CA807103000000009B50448AE
:10B740000068044B03441B685B6D029309BD000055
:10B750009CA807103000000009B504480068044B9D
:10B7600003441B685B68029309BD00009CA8071096
:10B770000000000009B504480068044B03441B683E
:10B78000DB68029309BD00009CA8071000000000C0
:10B7900009B504480068044B03441B685B690293C5
:10B7A00009BD00009CA807100000000009B504486E
:10B7B0000068044B03441B68DB6D029309BD000065
:10B7C0009CA807100000000009B504480068044B5D
:10B7D00003441B68DB68029309BD00009CA80710A6
:10B7E0001400000009B504480068044B03441B68BA
:10B7F0001B69029309BD00009CA8071014000000FB
:10B8000009B504480068044B03441B681B6A029393
:10B8100009BD00009CA807101000000009B50448ED
:10B820000068044B03441B685B6A029309BD000077
:10B830009CA807101000000009B504480068044BDC
:10B8400003441B689B6A029309BD00009CA8071073
:10B850001000000009B504480068044B03441B684D
:10B86000DB6A029309BD00009CA8071010000000CD
:10B8700009B504480068044B03441B681B6B029322
:10B8800009BD00009CA807101000000009B504487D
:10B890000068044B03441B685B6B029309BD000006
:10B8A0009CA807101000000009B504480068044B6C
:10B8B00003441B681B6C029309BD00009CA8071081
:10B8C0001000000009B504480068044B03441B68DD
:10B8D0005B69029309BD00009CA807104C000000A2
:10B8E00009B504480068044B03441B689B68029335
:10B8F00009BD00009CA807105000000009B50448CD
:10B900000068044B03441B68DB68029309BD000018
:10B910009CA807105000000009B504480068044BBB
:10B9200003441B681B68029309BD00009CA8071014
:10B930001800000009B504480068044B03441B6864
:10B94000DB69029309BD00009CA8071018000000E5
:10B9500009B504480068044B03441B681B6A029342
:10B9600009BD00009CA807101800000009B5044894
:10B970000068044B03441B685B6A029309BD000026
:10B980009CA807101800000009B504480068044B83
:10B9900003441B689B6A029309BD00009CA8071022
:10B9A0001800000009B504480068044B03441B68F4
:10B9B0009B6B029309BD00009CA8071018000000B3
:10B9C00009B504480068044B03441B68DB6B029311
:10B9D00009BD00009CA807101800000009B5044824
:10B9E0000068044B03441B681B6C029309BD0000F4
:10B9F0009CA807101800000009B504480068044B13
:10BA000003441B685B6C029309BD00009CA80710EF
:10BA10001800000009B504480068044B03441B6883
:10BA20009B68029309BD00009CA807102400000039
:10BA300009B504480068044B03441B68DB680293A3
:10BA400009BD00009CA807102400000009B50448A7
:10BA50000068044B03441B681B69029309BD000086
:10BA60009CA807102400000009B504480068044B96
:10BA700003441B685B69029309BD00009CA8071082
:10BA80002400000009B504480068044B03441B6807
:10BA90009B69029309BD00009CA8071024000000C8
:10BAA00009B504480068044B03441B68DB69029332
:10BAB00009BD00009CA807102400000009B5044837
:10BAC0000068044B03441B681B6A029309BD000015
:10BAD0009CA807102400000009B504480068044B26
:10BAE00003441B689B6A029309BD00009CA80710D1
:10BAF0002400000009B504480068044B03441B6897
:10BB0000DB6A029309BD00009CA807102400000016
:10BB100009B504480068044B03441B681B6C02937E
:10BB200009BD00009CA807102400000009B50448C6
:10BB30000068044B03441B681B68029309BD0000A6
:10BB40009CA807103400000009B504480068044BA5
:10BB500003441B685B68029309BD00009CA80710A2
:10BB60003400000009B504480068044B03441B6816
:10BB70009B68029309BD00009CA8071034000000D8
:10BB800009B504480068044B03441B681B69029311
:10BB900009BD00009CA807103400000009B5044846
:10BBA0000068044B03441B685B69029309BD0000F5
:10BBB0009CA807103400000009B504480068044B35
:10BBC00003441B689B69029309BD00009CA80710F1
:10BBD0003400000009B504480068044B03441B68A6
:10BBE000DB69029309BD00009CA807103400000027
:10BBF00009B504480068044B03441B681B6A0293A0
:10BC000009BD00009CA807103400000009B50448D5
:10BC10000068044B03441B689B6A029309BD000043
:10BC20009CA807103400000009B504480068044BC4
:10BC300003441B685B6B029309BD00009CA80710BE
:10BC40004800000009B504480068044B03441B6821
:10BC50005B6D029309BD00009CA80710480000001E
:10BC600009B504480068044B03441B68DB6E02936B
:10BC700009BD00009CA807104800000009B5044851
:10BC80000068044B03441B681B6F029309BD00004E
:10BC90009CA807104800000009B504480068044B40
:10BCA00003441B685B68029309BD00009CA8071051
:10BCB0000800000009B504480068044B03441B68F1
:10BCC0005B69029309BD00009CA8071008000000F2
:10BCD00009B504480068044B03441B68DB6A0293FF
:10BCE00009BD00009CA807100800000009B5044821
:10BCF0000068044B03441B68D3F88830029309BDE5
:10BD00009CA807100800000009B504480068044B0F
:10BD100003441B68D3F89430029309BD9CA8071014
:10BD20000800000009B504480068044B03441B6880
:10BD30009B68029309BD00009CA807102C0000001E
:10BD400009B504480068044B03441B68DB6B02938D
:10BD500009BD00009CA807102C00000009B504488C
:10BD60000068044B03441B685B68029309BD000034
:10BD70009CA807102800000009B504480068044B7F
:10BD800003441B689B68029309BD00009CA8071030
:10BD90002800000009B504480068044B03441B68F0
:10BDA000DB68029309BD00009CA807102800000072
:10BDB00009B504480068044B03441B681B690293DF
:10BDC00009BD00009CA807102800000009B5044820
:10BDD0000068044B03441B685B69029309BD0000C3
:10BDE0009CA807102800000009B504480068044B0F
:10BDF00003441B689B69029309BD00009CA80710BF
:10BE00002800000009B504480068044B03441B687F
:10BE1000DB69029309BD00009CA807102800000000
:10BE200009B504480068044B03441B681B6A02936D
:10BE300009BD00009CA807102800000009B50448AF
:10BE40000068044B03441B681B6B029309BD000090
:10BE50009CA807102800000009B504480068044B9E
:10BE600003441B685B6B029309BD00009CA807108C
:10BE70002800000009B504480068044B03441B680F
:10BE80001B6C029309BD00009CA80710280000004D
:10BE900009B504480068044B03441B685B6C0293BB
:10BEA00009BD00009CA807102800000009B504483F
:10BEB0000068044B03441B681B68029309BD000023
:10BEC0009CA807100400000009B504480068044B52
:10BED00003441B685B68029309BD00009CA807101F
:10BEE0000400000009B504480068044B03441B68C3
:10BEF0009B68029309BD00009CA807100400000085
:10BF000009B504480068044B03441B685B6A02934C
:10BF100009BD00009CA807100400000009B50448F2
:10BF20000068044B03441B68DB6B029309BD0000EF
:10BF30009CA807100400000009B504480068044BE1
:10BF400003441B681B6C029309BD00009CA80710EA
:10BF50000400000009B504480068044B03441B6852
:10BF60005B6C029309BD00009CA807100400000050
:10BF70000021FFF79FBE10B543680446013B4360B4
:10BF800063B903689B689847A368013BA3602BB91A
:10BF900023682046BDE81040DB68184710BD70B527
:10BFA0000446D0E9005305EB0316AE4204D0284600
:10BFB00001F0ADFC1035F8E72068FFF785FF20465B
:10BFC00070BD10B50446006808B1FFF7D4FF2046E5
:10BFD00010BD0000002302480360FFF785BB00BFCF
:10BFE00058AE0710002240681146FFF719BF002223
:10BFF00040681146FFF730BF00224068FFF71EBFC0
:10C000000022406881F00101FFF7FCBE0023406878
:10C010001A461946FFF7E8BE002340681A4619463B
:10C02000FFF7D4BE002240681146FFF7C1BE0022D0
:10C0300040681146FFF7A0BE002202214068FFF7CA
:10C04000A9BE002340681A46FFF788BE0322024BB0
:10C050005A60024A1A6070475CAE07109CFB3F02B0
:10C060007047F8B5064615460C468F18BC4206D0F8
:10C07000336830469B6814F8011B9847F6E728465A
:10C08000F8BD0022007CFFF7BBBB0021007CFFF75E
:10C09000C5BB0021007CFFF7CFBB0021007CFFF770
:10C0A000D9BB0021007CFFF7E3BB10B50446142187
:10C0B000FFF731F8204610BD38B5044615464FF459
:10C0C0007A730022C4E90123094B084621742360D6
:10C0D0002946FFF7E9FBBF3008D16B69DB0705D5BF
:10C0E0006868FFF7F1FEE868FFF7EEFE204638BD0E
:10C0F000D8FB3F02704710B504461821FFF70BF834
:10C10000204610BDF0B5037D0E46062B4FF000040F
:10C110008DB000F1040712D000F1080515F8011DDB
:10C120000A22304601F0DFFAAF42044419D0002C55
:10C13000F4D02E21304601F0C7FA0444EEE72F2355
:10C140006A4639460A208DF80040FFF7BBFB684677
:10C15000FEF7B8FF3368024669463046DB68984709
:10C16000044620460DB0F0BD10B50446044B112224
:10C17000002140F8043B01F0D5FF204610BD00BF70
:10C1800000FC3F020346074A10B543F8042B01F1B7
:10C19000100251F8044B914243F8044BF9D10A784C
:10C1A0001A7010BD00FC3F0210B59DF8084044EA2B
:10C1B000032343EA0242042342EA0161416003751A
:10C1C00010BD000007B5064B0360CB7800938B7859
:10C1D0004A780978FFF7E8FF03B05DF804FB00BF79
:10C1E00000FC3F02012200F1100313F8101C184656
:10C1F000012908D153F8041C02EB4102013A03F172
:10C200001003F2D17047022904BF53F8041C5218DE
:10C21000F4E70EB4F0B588B0102100AF07F1340593
:10C2200055F8042B04462B4678187A60FD60FFF71A
:10C2300067FE0F287A681AD900F1080323F0070374
:10C240006E46ADEB030D411C2B466846FD60FFF7C3
:10C2500057FE021E04DD2368694620469B68984706
:10C26000B5462037BD46BDE8F04003B07047002812
:10C27000F7D0236802469B68204607F110019847D3
:10C28000EFE738B50B68044603604D6843689D428C
:10C2900008D015B16B6801336B60606808B1FFF7B7
:10C2A0006AFE656038BD07B503688DF80710012286
:10C2B0009B680DF10701984703B05DF804FB0B463E
:10C2C0001146002210B50446C0E9002283600BB974
:10C2D000204610BDFFF7D5FFFAE78368EBB11A7867
:10C2E000032A1AD8DFE802F00417021B0520704762
:10C2F00002685B685268D05C2D2812D0A0F1300330
:10C30000092B0ED974280ED066280CD0A0F16E032C
:10C31000584258417047062070470020704704205B
:10C320007047032070470220704710B50446FFF79E
:10C33000D4FF02280ED0C31EDBB2012B14D8226812
:10C34000A36850685B680A22BDE8104000211844C9
:10C3500001F0E8BF2268A36852685B68D05CA0F176
:10C3600074035842584110BD0020FCE738B5002343
:10C370000446C0E900330E48C4E90203A9B10B78B2
:10C38000032B06D08BB9136858684B68C35C6E2BBF
:10C3900007D013684D6858688B6828445B1BA06001
:10C3A000E36011462046FFF76CFF204638BD00BF12
:10C3B000B8F43F0238B500250B4604461146C0E9E3
:10C3C0000055C0E90255C0E904554BB11A78012A5D
:10C3D00006D103F11002DB6882604361FFF751FF71
:10C3E000204638BD10B54369044663B18068013BFF
:10C3F000E0601030A0602061636113B1FFF7F2FECE
:10C40000A060012000E0184610BD10B57D21044653
:10C41000FFF749FF01232046237110BD08B50379BA
:10C42000012B02D0022B04D008BD2C21FFF73BFFCB
:10C43000FAE73A21FAE710B50446FFF7EFFF204686
:10C440007B21FFF730FF00232046237110BD000041
:10C4500013B504460191FFF7E1FF23682046DB682E
:10C46000019A0349984701232046237102B010BD69
:10C470000CFC3F0213B504460191FFF7CFFF236880
:10C480002046DB68019A034998470123204623711F
:10C4900002B010BD0FFC3F022DE9F0470D4690465B
:10C4A000222104462F46FFF7FEFEDFF8A490A844A1
:10C4B0004745BA463DD017F8016B222E06D05C2EB8
:10C4C00004D0304601F0FCFD0028F1D12368294654
:10C4D00020469B68AAEB050298475C212046FFF79F
:10C4E000E2FE0D2E0AD8072E1CD9A6F10803052B53
:10C4F00018D8DFE803F00D0F11171315222E01D005
:10C500005C2E0FD131462046FFF7CDFE3D46CFE7EA
:10C510006221F8E77421F6E76E21F4E76621F2E77D
:10C520007221F0E72368324649462046DB68984787
:10C53000ECE7BD4205D02368294620469B687A1B5C
:10C54000984722212046FFF7AEFEBDE8F08700BFE6
:10C5500012FC3F0213B50446CDE90021FFF75EFF50
:10C56000DDE900212046FFF797FF022320462371D3
:10C5700002B010BD13B50446CDE90021FFF74EFF10
:10C58000DDE900212046FFF787FF012320462371C4
:10C5900002B010BD80680368DB6818477047084622
:10C5A00011B10B685B681847704770477047704758
:10C5B000704738B504460D4600682E2101F0F5FDA0
:10C5C0002368C31A2B6023B1037803B101302368B9
:10C5D0002060184638BD10B504460C21FEF79BFDBF
:10C5E000204610BD10B504460421FEF794FD2046F8
:10C5F00010BD10B504460421FEF78DFD204610BD88
:10C60000FFF78EB808B5FEF753FDB0FA80F0400989
:10C6100008BD704710B50C4601F0E8FA844205D118
:10C6200001F0E4FABDE8104001F0D2BA01F0AEFC2E
:10C63000844205D101F0AAFCBDE8104001F06BBABC
:10C640002CB123682046BDE810405B68184710BD38
:10C650000B6803604B68436013B15A6801325A603B
:10C66000704713B5044608460191FEF72BFD0246BC
:10C670002046019902B0BDE81040FFF77BBF13B51B
:10C68000044608460191FEF71DFD02462046236838
:10C690000199DB6802B0BDE81040184707B5036890
:10C6A0008DF807100122DB680DF10701984703B0F0
:10C6B0005DF804FB0A6810B502604A684260002217
:10C6C000C0E9022202618C688A608460CC68CA601A
:10C6D000C4600C690A61046110BD00002DE9F74FC8
:10C6E0004FF0140AD0E90084174645460AFB04F4CB
:10C6F0000093174BA4105C43002C21DD66100AFB4D
:10C7000006F005EB0009B9F804B03A465F4528BFCA
:10C710005A462858019101F05AFD00284FF00103B4
:10C7200001990BD15F4503D1009A13703446E3E7BA
:10C73000FCD9A61B09F11405013EF7E7F9DBF5E783
:10C74000A5EB08050248AD10684303B0BDE8F08FC3
:10C75000CDCCCCCC7FB50369057E019103B3F9B193
:10C76000002600F10C04039603A901A8FFF721FF9E
:10C770000146A8B10DF10B032046039A8DF80B601A
:10C78000FFF7ACFF9DF80B3053B12368142404FB72
:10C790000034B4F906300834002BA8BFDDB2E3E75B
:10C7A000284604B070BD0EB4F0B58CB000AF07F1F0
:10C7B000440555F8042B04462B46202107F11000B0
:10C7C0007A60FD60FFF79CFB1F287A681AD900F198
:10C7D000080323F007036E46ADEB030D411C2B4607
:10C7E0006846FD60FFF78CFB021E04DD2368694686
:10C7F0002046DB689847B5463037BD46BDE8F04077
:10C8000003B070470028F7D023680246DB68204653
:10C8100007F110019847EFE710B5084CD4E88F3FB7
:10C82000DB0709D42046FEF785FC28B12046FEF739
:10C8300086FC034801F03EFC024810BD68AE0710BC
:10C840009BD53F02A8A9071010B5084CD4E88F3F2C
:10C85000DB0709D42046FEF76DFC28B12046FEF721
:10C860006EFC034801F026FC024810BD6CAE0710B8
:10C8700003D63F02ACA9071038B500250446C0E92D
:10C880000055C0E904558560856140F8245FFEF7D6
:10C890002BFFFFF7C1FFE061FFF7D6FF2573206292
:10C8A000204638BD10B50A4CD4E88F3FDB070CD4C6
:10C8B0002046FEF73FFC40B10648FFF7DDFF20466B
:10C8C000FEF73DFC044801F0F5FB024810BD00BF37
:10C8D00064AE071074AE0710E5DD3F020023024A84
:10C8E00002490348FFF7CAB9CDDB3F0259DB3F02DB
:10C8F000D9DA3F0200231A4619461846FFF7BEB997
:10C9000037B504468D686846FFF7A2FE6A46294699
:10C910002046FFF74FFD01A8FFF753FB204603B069
:10C9200030BD37B50446CD686846FFF791FE6A46CC
:10C9300029462046FFF71AFD01A8FFF742FB2046D3
:10C9400003B030BD37B504460D696846FFF780FE79
:10C950006A4629462046FFF7B2FC01A8FFF731FBE3
:10C96000204603B030BD000070B58AB00D460146C8
:10C9700004A8FFF7C5FF144E04A8FFF733FDE8B184
:10C98000684604A9FFF7CDFF31460298FFF73AFE4B
:10C99000044610B12C1E18BF012401A8FFF711FB9B
:10C9A000002CE9D0684604A9FFF7CCFF6846FFF7E2
:10C9B000BCFC286001A8FFF704FBDDE705A8FFF732
:10C9C00000FB0AB070BD00BF18FC3F0237B50C4633
:10C9D000134920461546FEF76BFB50B901F006F9E6
:10C9E0004FF4165101F0F0F803B0BDE8304001F00B
:10C9F000FDB820460B49FEF75BFB78B94FF41653A0
:10CA000001A928460193FFF7AFFF01F0BFFA019992
:10CA100001F07EF801F0BAFA03B030BD0020FBE768
:10CA20001DFC3F0224FC3F0270B51426D0E90053E0
:10CA3000044606FB0356AE4205D005F10800FFF799
:10CA4000F3FF1435F7E72068FFF73EFA204670BD84
:10CA500010B504460C30FFF7E7FF2046FFF79FFABA
:10CA6000204610BD10B50446034B40F8043BFFF7C9
:10CA7000EFFF204610BD00BF0CF53F0210B5044685
:10CA8000FFF7F0FF20462421FEF745FB204610BDAE
:10CA900010B50446024B0360FFF7E4FF204610BDCB
:10CAA000C0FC3F0210B50446FFF7F2FF20462421E8
:10CAB000FEF731FB204610BD0022C0E90022826053
:10CAC00010B50C680A6004604C684A6044608C6869
:10CAD0008A60846010BD10B5044603681868FEF7CC
:10CAE0002DFE204610BD00002DE9F04F87B00393C6
:10CAF0001C4B80465B688946C3F3080316466BB936
:10CB0000FFF7D0FE044600F12403406A0593FFF7C7
:10CB100077FD237B2BB105A8FFF7DDFF07B0BDE84C
:10CB2000F08F01235FFA89F92373D4E9005305EBF1
:10CB3000830AAA4512D055F8047B3146381DFFF709
:10CB400009FE8145F5D3039A3B680092D3F808B0FB
:10CB50004A46334641463846D847EAE7002323731E
:10CB6000D9E700BF00ED00E02DE9F74F9B461A4BD7
:10CB700080465B688946C3F3080316466BB9FFF726
:10CB800091FE044600F12403406A0193FFF738FD4B
:10CB9000237B2BB101A8FFF79EFF03B0BDE8F08F08
:10CBA0000123F6B22373D4E9005305EB830A5545FC
:10CBB0000ED055F8047B5946381DFFF7CBFD864251
:10CBC000F5D33B684A4641463846DB689847EEE76E
:10CBD00000232373DEE700BF00ED00E02DE9F34101
:10CBE000164B05465B680F46C3F308031BBBFFF7F4
:10CBF00059FE044600F12403406A0193FFF700FD4B
:10CC0000D4E90063462406EB8308B04509D101A8A6
:10CC1000FFF761FFA542B4BF0020012002B0BDE8CC
:10CC2000F08156F8040B39460430FFF793FD844237
:10CC3000A8BF0446E9E70020F0E700BF00ED00E0F0
:10CC4000F8B5D0E901539D4204460E460DDB6F1C3A
:10CC5000002F006804DDB900FFF744F918B9F8BDEA
:10CC6000FFF732F900202060A7602768626807EBB1
:10CC700085019200A2EB8502081D01F039FA47F800
:10CC800025606368012001336360E8E737B5044637
:10CC900000F12403406A01930D46FFF7B1FCD4E98B
:10CCA000003203EB8202934219460AD0096804332A
:10CCB000A942F8D101A8FFF70EFF0025284603B0CE
:10CCC00030BD29462046FFF7BBFF05460028F1D0BE
:10CCD0006368012B01D1FFF701FE01A8FFF7FBFEFE
:10CCE000ECE70B4670B50446D0E9000200EB820287
:10CCF00082420FD001461D6851F8046BAE4207D145
:10CD0000521A01F0F5F901206368013B636070BDC0
:10CD10000846EDE70020FAE71FB5044600F12403BA
:10CD2000406A01910393FFF76BFC204601A9FFF7CE
:10CD3000D8FF18B163680BB9FFF7DCFD03A8FFF754
:10CD4000CAFE04B010BD182370B50446D0E90456DD
:10CD500003FB0656AE4215D0204605F11001FFF741
:10CD6000C0FF63680BB9FFF7C5FDE0692969036877
:10CD7000DB689847696919B1206A0368DB689847DE
:10CD80001835E7E71826D4E9045306FB0356AE42EC
:10CD900004D0284600F0BBFD1835F8E70023636196
:10CDA00070BD73B50446FFF7A5FD04F12403606A66
:10CDB0000193FFF725FC2046FFF7C5FF01A8FFF709
:10CDC0008AFE606A08B1FEF79DFCD4E90453182678
:10CDD00006FB0356AE4204D0284600F098FD1835F5
:10CDE000F8E72069FFF770F82068FFF76DF8204634
:10CDF00002B070BD0148FFF7D4BF00BF74AE07108A
:10CE00008842F8B504460D46164615D9904214D20C
:10CE1000A2F11406751AA1F114072C44B7421AD0D6
:10CE20001CB131462046FFF745FC06F10800FFF72C
:10CE3000FBFD143E143CF1E70DD0B5420BD01CB104
:10CE400029462046FFF736FC05F10800FFF7ECFD08
:10CE500014351434F1E7F8BD8842F8B504460D46A0
:10CE6000164614D9904213D2A2F11006751AA1F1F8
:10CE700010072C44B74218D01CB13146204600F0B0
:10CE8000AFFD304600F043FD103E103CF2E70CD001
:10CE9000B5420AD01CB12946204600F0A1FD284623
:10CEA00000F035FD10351034F2E7F8BD70B50E1EF8
:10CEB000054611DD3001FEF7F9FF044658B1D5E90A
:10CEC000001201EB0212FFF7C7FF2868FEF7FCFF14
:10CED00001202C60AE6070BD0024F6E72DE9F04F14
:10CEE00090460023462295B00391D8F804100446DA
:10CEF0009942C0E90033C0E90233C0E90433CDE907
:10CF0000083302760A9323DCD8E90057142303FB85
:10CF10000757AF423BD029460BA800F061FD0BA993
:10CF20000FA8099E00F05CFDDDE9091399421BDAA8
:10CF3000089B099A03EB0616314603EB021206F131
:10CF40001000FFF789FFEEB9099B0133099311E047
:10CF500008A8FFF7ABFF0028D6D108A8FFF71FF8F5
:10CF6000204615B0BDE8F08F013108A8FFF79EFFFD
:10CF70000028DDD10FA800F0CAFC0BA800F0C7FC08
:10CF80001435C6E730460FA900F02AFDDCE700267D
:10CF90004FF01409CDE90B660D96DDE908239E429A
:10CFA0007CDA3301D35806930BB90136F5E7002339
:10CFB000079309FB06F30BAD029307A906A8FFF739
:10CFC000F8FA82460028F0D04FF0000301468DF8B1
:10CFD00017302846079A0DF11703FFF77FFB9DF8DE
:10CFE00017700190002F4AD1BDF81C30CDE91177A0
:10CFF000ADF840304FF6FF73CDF83CA0ADF84230AD
:10D000001397D5E90132934217DB03F1010ABAF114
:10D01000000F30DD09FB0AF0FEF748FF834660B3DE
:10D02000D5E9001209FB0212FFF7EAFE2868FEF7B5
:10D030004BFFC5F800B0C5F808A02B68019A09FBA2
:10D04000023A6A68514609FB02320AF11400FFF7FE
:10D05000D7FEBAF1000F03D050460FA9FFF72AFB05
:10D060006B6801336B6011A8FFF7DEFC3FB10BA8C2
:10D07000FFF7DAFC71E7BB46D8E70127F3E7019B2E
:10D080002D6809FB0355069B1B782BB9D8F8003097
:10D09000029A13441B7CEB8008358EE721682260DE
:10D0A00062686360A36809920A9A0A93E368A260BF
:10D0B0000B9A0B932369E2600C9A0C9363692261CB
:10D0C0000D9A0D93039B089162612376CFE70000D0
:10D0D000F0B504462646174687B00D466846194601
:10D0E000FEF781F90B4B694646F8043B03A8FEF7AF
:10D0F0007AF9394603AA3046FFF7F0FE03A8FEF797
:10D1000031F96846FEF72EF92046034B256223606D
:10D1100007B0F0BD0CF53F02A8FC3F02F0B50F468A
:10D1200085B038461C4916461D460A9CFDF7C0FFCF
:10D13000C0B9A4B1294601A8FFF7BEFC24201749B5
:10D1400000F0B4FF054630B101AB32462146FFF78F
:10D15000BFFF134B2B6001A8FEF704F92C462046B5
:10D1600005B0F0BD38460F49FDF7A2FF90B9002C7D
:10D17000F5D0294601A8FFF79FFC2420074900F0BD
:10D1800095FF05460028E6D03246214601ABFFF761
:10D190009FFFE0E70024E2E72CFC3F02FCFD3F029A
:10D1A000C0FC3F0230FC3F02014B024A1A6070474C
:10D1B00070AE071041FC3F022DE9F047089DD0F802
:10D1C000209004460E461746984600F00FFD814514
:10D1D0004DD02B79190704D520466A695449FFF7C9
:10D1E000E2FAB8F1000F0DD05B212046FFF756FAA6
:10D1F00041462046FFF743FA236802222046DB68B7
:10D200004C4998472B79DA0724D5D5F808802F2187
:10D21000404600F0F0FF08B100F101084146204609
:10D22000FFF72DFA2B799B0708D53A212046FFF707
:10D2300035FA2046EA684049FFF7B5FA2A792368AB
:10D2400012F0040F20464FF00202DB6814BF3B4986
:10D250003B4998472B7958071DD529690B461A4633
:10D2600013F8010B60B1202808D11946F7E73548BB
:10D2700000F083F90028ACD0BDE8F0872828EED173
:10D280002368521A2046DB68984723680422204608
:10D29000DB682D49984700213846FEF7E1FC01463E
:10D2A0002046FFF7ECF9236802222046DB68244978
:10D2B00098471EB131462046FFF7E1F92B7913F06C
:10D2C000300F2CD023682149DB6802222046984782
:10D2D0002B79D9060AD52368072220461C49DB682A
:10D2E00098472046AA691B49FFF75DFA2B799A06F1
:10D2F00011D5DB0605D5236802222046DB680F49DD
:10D3000098472368204614490A22DB68984720463C
:10D31000E969FFF7B4F95D212046FFF7BFF92368FB
:10D320002046BDE8F0470222DB680C49184700BFE1
:10D3300045FC3F024CFC3F020CFC3F024FFC3F020D
:10D3400054FC3F029CAE071052FC3F0257FC3F02C8
:10D350005AFC3F0262FC3F0265FC3F02B6F43F020A
:10D360002DE9F0410446076A0D46164600F03EFCE2
:10D37000874207D0206A324603682946BDE8F0415B
:10D38000DB681847034800F0F8F80028F2D0BDE841
:10D39000F08100BF9CAE07102DE9F04385B0D0F8B6
:10D3A000209005460F4690461E460C9C00F01EFC41
:10D3B000814505D1494800F0E0F8002840F08A8016
:10D3C0004FF000092B6A464A01A8019203938DF899
:10D3D0000890FFF730F849464046FEF741FC80468A
:10D3E0004049012201A8FFF7B5F84146FFF739F996
:10D3F0003FB13D49012201A8FFF7ACF83946FFF7DC
:10D4000030F93EB13949012201A8FFF7A3F83146AE
:10D41000FFF727F92379DF070ED5A6682F213046BD
:10D4200000F0E9FE00B1461C3149012201A8FFF7D6
:10D4300091F83146FFF715F923799E0707D52D4955
:10D44000022201A8FFF786F8E168FFF701F82379C7
:10D45000580714D5266933461F4613F8012B2AB105
:10D46000202A01D11E46F7E7282AF5D102222249B7
:10D4700001A8FFF76FF83146BA1BFFF77BF8237955
:10D48000190707D51D49012201A8FFF763F8616953
:10D49000FEF7F0FF2379DA0608D5042218490DEBD0
:10D4A0000200FFF757F8A169FEF7D2FF23799B0628
:10D4B00007D51449062201A8FFF74CF8E169FFF7E8
:10D4C000D0F801A8FEF7A1FF286A022203680E49DE
:10D4D000DB68984705B0BDE8F08300BF9CAE07103D
:10D4E00090FC3F0222FC3F0270FC3F026BFE3F02B9
:10D4F00072FC3F0274FC3F0277FC3F027AFC3F0261
:10D500007CFC3F0281FC3F02B6F43F0200234068EE
:10D510001A46FEF723BC002202214068FEF73ABCFF
:10D52000002240681146FEF727BC002240681146E1
:10D53000FEF73EBC002340681A461946FEF746BC7B
:10D54000002340681A461946FEF74EBC0021406889
:10D55000FEF790BC00214068FEF79ABC00224068AC
:10D5600081F00101FEF74EBC00224068FEF766BC68
:10D57000002240681146FEF76FBC00224068114649
:10D58000FEF74EBC2DE9F04395B014460D46074614
:10D59000FEF7EAFD00211C220DA8009100F0C2FD5B
:10D5A000402320460C9300216B460CAAFEF7A6F9F7
:10D5B000044600284BD1024601216868FEF7F8FBBB
:10D5C0000221804622466868FEF7F2FB214681462A
:10D5D000009E002E3BD0002939D17368022B03D066
:10D5E0000A2B11D0F669F4E7B8F1000FFAD071698F
:10D5F00006A804313C1D07ADFEF7E4FD0FCD0FC4B6
:10D600002B6841462370EDE7B9F1000FEAD01022F4
:10D6100001A8746900F086FD062301AD8DF8143071
:10D6200004F1080318342A4618685968083303C2FD
:10D63000A3421546F7D101A906A83C1D07ADFEF788
:10D64000A1FD0FCD0FC42B6849462370CAE700988F
:10D65000FEF746F9384615B0BDE8F083024B034AA1
:10D660001A6000225A6070479CAE071008FD3F0206
:10D67000F8B506460D4600248F18BD420CD033681D
:10D6800030469B6815F8011B9847031E01DB1C44BC
:10D69000F3E7002C08BF1C462046F8BD13B504462E
:10D6A000084659B10191FDF70DFD02462046236859
:10D6B0000199DB6802B0BDE81040184702B010BD08
:10D6C00008B5FFF7EBFF08BD03689B68184738B53E
:10D6D0000D210546FFF7F8FF0A2104462846FFF70B
:10D6E000F3FF204438BD0023012A98BF0A2230B539
:10D6F0008BB08DF8243009AC0D46B1FBF2F101FB83
:10D70000125303F0FF03092B94BF30333733DBB2DE
:10D71000AA4204F8013DEFD92146FFF7BFFF0BB045
:10D7200030BD2DE9F04186B000AF05460E46381DEC
:10D73000142114463B60FEF7E3FB13280ED828465D
:10D74000391DFFF7ABFF04461EB12846FFF7BFFFA8
:10D75000044420461837BD46BDE8F08100F10803B7
:10D7600023F00703E846ADEB030D2246411C3B685E
:10D770006846FEF7C5FB69462846FFF78FFF04465B
:10D78000C546E1E70022014B9A607047A4AE07103E
:10D790000021FEF731B90021FEF720B910B504468B
:10D7A00008462170FEF7C6F800232046636010BDCE
:10D7B00013B5044600780191FFF7EDFF019948B9D0
:10D7C00020780190FEF7A8F8019802B0BDE810405B
:10D7D000FFF7DEBF02B010BD0078FFF7D9BF000031
:10D7E00030B50024400818601868E5B2884206D9B0
:10D7F0000134082C02D040081860F5E70725024BD9
:10D800005B5D137030BD00BF3CFD3F022DE9F0436E
:10D8100006468FB000780C46FFF7BDFF00281BDBE3
:10D820001422002109A8357800F07CFC0B2300228B
:10D83000284609A9ADF82430FEF798F89DF82D3058
:10D8400013B19DF82C5055B100270125B946B846B3
:10D8500023795DB1C3B100200FB0BDE8F083DDF8DE
:10D8600030809DF834909DF83570F1E7002B35D16C
:10D87000A368434508D18DF820908DF82170BDF83C
:10D880002020A3899A42E6D00023A1688DF80F30AA
:10D890000A9804AB0DF10F02FFF7A2FF217985B9B9
:10D8A00089B9A36843450ED38DF820908DF8217077
:10D8B000BDF82020A3899A4205D1049B434502D19B
:10D8C000C9E70029F9D100230193637B9DF80F205C
:10D8D0000093237B3078FEF773F8BCE72B462A468B
:10D8E0000121CDE90055F5E730B587B00A9D044622
:10D8F00000950078FEF748F83DB9207802A9FEF7B8
:10D9000051F89DF81430DB07F7D407B030BD10B5DF
:10D9100004460068FEF7D8FA204610BD10B504464C
:10D92000006808B1FEF7D0FA0023C4E90133236090
:10D9300010BD38B504460D4600680131FEF7D2FA35
:10D9400010B1C4E90005012038BD10B503680446D4
:10D9500023B143688B4201D3012010BD2046FFF75D
:10D96000E8FF0028F9D0A368002BF5D122681370D6
:10D97000F2E737B50D46114601920446FFF7E5FF81
:10D98000019A28B92046FFF7C9FF204603B030BDF1
:10D990002946A260206800F09EFB00212268A3684F
:10D9A000D154F2E738B5054600680C4670B16A6894
:10D9B0008B689A4208D3096831B100F000FCA36873
:10D9C000AB600023A36038BDFEF77EFA23682B60AE
:10D9D00063686B60A368AB600023C4E90033F1E7C0
:10D9E000002310B50446C0E9003383600373FFF7DA
:10D9F000D9FF204610BD884210B5044605D00B68FB
:10DA00002BB18A681946FFF7B4FF204610BDFFF717
:10DA100085FFFAE7002310B50446C0E900338360B0
:10DA20000373FFF7E8FF204610BD0000022200202C
:10DA3000044B1A60044B054AC3E900009A60FEF7E4
:10DA40002BB900BFC0AE0710B4AE07100000FFFF37
:10DA5000024B1A68024B1A60704700BFB0A907104A
:10DA6000C4AE071070474174704708B5007CFEF7DC
:10DA700033F820EAE07008BD08B5007CFDF7E6FF4A
:10DA800020EAE07008BD08B5007CFDF7FBFF40EA26
:10DA9000E07008BD08B5007CFDF7E6FF40EAE070E5
:10DAA00008BD007CFDF7FCBF37B5457C04462DB1B1
:10DAB000207C03B0BDE83040FDF7BABF007C019187
:10DAC000FEF70AF800280199F2DC284603B030BDC1
:10DAD00010B504461421FDF71EFB204610BD0000C2
:10DAE00010B54FF47A730446084611460022C4E983
:10DAF0000123044B2074236001236374FEF708F8AC
:10DB0000204610BD68FD3F020023007CFDF7F2BFF8
:10DB10000022FFF7F9BF007CFDF77CBF007CFDF71A
:10DB2000CDBF417470477047704708B50021007C35
:10DB3000FEF742F840EAE07008BD08B50121007C1C
:10DB4000FEF73AF840EAE07008BD08B5007CFEF741
:10DB500025F820EAE07008BD08B5007CFEF710F853
:10DB600020EAE07008BD13B50446007C0191FEF781
:10DB700015F80028019901DC607C20B1207CFEF7BB
:10DB800029F820EAE07002B010BD007CFEF730B842
:10DB900010B504461421FDF7BEFA204610BD000062
:10DBA00010B54FF47A73044608460021C4E9011306
:10DBB000044B20742360012311466374FDF7B6FF04
:10DBC000204610BD98FD3F020022007CFDF7BCBF3F
:10DBD000007CFDF7C7BF007CFEF718B810B50446FF
:10DBE0001422002100F09EFA204610BD10B588B026
:10DBF00003A8FFF7F3FF0C4CD4E88F1F11F00101CD
:10DC00000FD120460191FDF795FA019948B103AA79
:10DC10000648FFF7C5FF2046FDF791FA044800F0DB
:10DC200049FA024808B010BDC8AE0710CCAE0710C4
:10DC300017EB3F02002240681146FEF7B9B80022F8
:10DC400040681146FEF7ECB8002240681146FEF726
:10DC500003B900224068FEF7F1B80022406881F065
:10DC60000101FEF7CFB8002340681A461946FEF7B7
:10DC7000BBB8002340681A461946FEF7A7B8002231
:10DC800040681146FEF778B8002202214068FEF78E
:10DC900081B8002340681A46FEF760B80422024BA0
:10DCA0005A60024A1A607047E0AE0710C8FD3F0292
:10DCB000014B1860704700BFB4A9071008B50F4B9F
:10DCC00043B1FFF793FF03681B699847002801DD04
:10DCD00000E000BF0A4B43B100F058F903681B692C
:10DCE0009847002801DD00E000BF064B0BB100F0B3
:10DCF00093F9054B0BB100F0C5F908BD0000000019
:10DD000000000000000000000000000008B5FFF760
:10DD1000D5FFFDF73DFD014B186008BDF0AE0710C3
:10DD20000548064A08B5121A054900F0D4F9054B12
:10DD3000054A1A6008BD00BF00B4071004B40710FC
:10DD40008CF15F0800B407101E1C279A002307B54A
:10DD50001A466FF077010093FDF7D6FF03B05DF828
:10DD600004FB000007B543880A2B08D0502B0BD1C9
:10DD7000094B1B684BB103B05DF804EB1847FFF784
:10DD8000E5FF03B05DF804FB00231A466FF077014E
:10DD90000093FDF7B9FFF4E7ECAE0710002110B5D2
:10DDA0001148FEF7D7F8114B1A68114B9A420CBF75
:10DDB000012200220F4B1A7001D0FFF7B1FFFDF7CF
:10DDC000CBFC044600F0B6F90B4B13B1204600E043
:10DDD00000BF00210848FDF7B3FFBDE81040002157
:10DDE0000648FDF783BF00BFA1EC3F0200B4071057
:10DDF0001E1C279AE8AE07100000000055ED3F02F8
:10DE00001B2837B5044602D9002003B030BDA0F16D
:10DE10000F03022B0BD9012821D800F063F8002151
:10DE2000007CFDF733FD80F00100C0B2EDE7114D3D
:10DE3000D5E88F1F11F001010BD128460191FDF7A4
:10DE400079F9019928B10C48FFF7A8FC2846FDF79D
:10DE500076F9094B1878FDF77BFD0028D4D1083CF2
:10DE6000012C05D800F092F8007CFDF727FEDAE7D8
:10DE70000120CAE71CAA071020AA071038B50446DB
:10DE80000D46FDF7A1FCFF2810D0062804D84D232D
:10DE900023FA00F0C30709D42046FFF7B1FF28B1E9
:10DEA00029462046BDE83840FDF79CBC38BD704788
:10DEB00038B50A4B04460360012309494361202019
:10DEC00000F0F6F82025606005492846A56000F0BE
:10DED000EFF8C4E90305204638BD00BF1800010073
:10DEE000FCFD3F0230B50E4D87B0D5E88F1F11F015
:10DEF000010411D12846FDF71DF968B16846FFF706
:10DF0000D7FF6A4621460748FEF7D6F82846FDF7B0
:10DF100016F9054800F0CEF8024807B030BD00BF42
:10DF2000F4AE0710F8AE07109FEE3F0270470000F6
:10DF300038B5142504462A46002100F0F3F8258060
:10DF40004025074928462581258200F0B1F804497B
:10DF50006060284600F0ACF8E060204638BD00BFA5
:10DF6000FCFD3F027047704710B50446FFF7E0FF25
:10DF7000204610BD10B50446FFF7DAFF204610BD5D
:10DF800010B50446FFF7D4FF204610BD30B50E4D46
:10DF900087B0D5E88F1F11F0010411D12846FDF795
:10DFA000C9F868B101A8FFF7DFFF214601AA0748B9
:10DFB000FFF796FD2846FDF7C2F8054800F07AF80D
:10DFC000024807B030BD00BF0CAF071018AF0710F4
:10DFD0001DEF3F0210B50D4C86B0D4E88F3FDB0734
:10DFE00011D42046FDF7A6F868B101A8FFF7C2FFDB
:10DFF000012101AA0648FFF773FD2046FDF79FF8AF
:10E00000044800F057F8024806B010BD10AF0710E2
:10E010002CAF071057EF3F0210B5FFF7DBFF074BA0
:10E02000044653B1FFF77AFD38B1236820461B69D7
:10E030009847002801DD00E000BF10BD000000008F
:10E0400010B50D4C86B0D4E88F3FDB0711D42046C5
:10E05000FDF770F868B101A8FFF792FF022101AA4D
:10E060000648FFF73DFD2046FDF769F8044800F03B
:10E0700021F8024806B010BD14AF071040AF0710DA
:10E0800055EF3F0210B5FFF7DBFF074B044653B1D6
:10E09000FFF744FD38B1236820461B6998470028E4
:10E0A00001DD00E000BF10BD00000000FDF72FB84B
:10E0B000FDF72FB8002301461A46184600F03CB978
:10E0C000024B1844407800F0970070476DFE3F0205
:10E0D0007047704770470A44431E914200D1704711
:10E0E00010B511F8014B914203F8014FF9D110BD61
:10E0F000884210B501EB020402D98442234607D8B6
:10E10000431EA14208D011F8012B03F8012FF8E7B4
:10E11000024401468A4200D110BD13F8014D02F8B5
:10E12000014DF7E702440346934200D1704703F8DC
:10E13000011BF9E738B5104B04461D68AB6BB3B94A
:10E140001820FDF7B3FE0246A86320B90B4B42210D
:10E150000B48FDF7F1FE0B490B4BC0E900130B4BCD
:10E16000002183600B2383810120C2E90401AB6B92
:10E1700000221C615A6138BDB4A90710FDFD3F02A1
:10E1800014FE3F020E33CDAB34126DE6ECDE05001B
:10E19000C9B2034610F8012B1AB18A42F9D11846C8
:10E1A0007047002918BF0023F9E710B50446FFF7B0
:10E1B000EFFF18B92046FCF785FF204410BD034649
:10E1C00011F8012B03F8012B002AF9D1704710B583
:10E1D0007AB103460139841813F8010B11F8012FA5
:10E1E000904201D1A34201D1801A10BD0028F3D181
:10E1F000FAE71046F9E738B503460C4669B9BDE8B9
:10E200003840FFF7C5BF431C054621461846FFF7B7
:10E21000BFFF0028F7D1284638BD0025F5E70000EC
:10E22000012B2DE9F04701D0242B06D9FDF776FE0E
:10E23000162303600020BDE8F0870D46DFF8E0C03C
:10E240002E4615F8014B14F80C7017F00807F7D19B
:10E250002D2C32D12C780127B51C002B5BD0102B34
:10E2600009D1302C07D12C7804F0DF04582C4DD183
:10E270006C781023023507F100484FF0000C08F1CC
:10E28000FF386646B8FBF3F903FB198AA4F1300E98
:10E29000BEF1090F16D87446A34224DDBCF1000F6D
:10E2A0001EDBB1451CD301D1A24519DB06FB034699
:10E2B0004FF0010C15F8014BE8E72B2C04BF2C782C
:10E2C000B51CCAE7A4F1410EBEF1190F01D8373CC5
:10E2D000E2E7A4F1610EBEF1190F04D8573CDBE769
:10E2E0004FF0FF3CE6E7BCF1000F05DA222346467B
:10E2F000036042B930469EE707B17642002AF9D062
:10E30000BCF1000F00D0691E1160F3E73024002B30
:10E31000B1D10823AFE7302CA5D00A23ABE700BF6B
:10E320006EFE3F0213460A46014602480068FFF7A8
:10E3300077BF00BFB4A907102DE9F843DFF8BC8010
:10E3400006461F460D46D8F800009146FFF7C0FE6E
:10E35000264B1C6834B9264C1C60264B13B11B6835
:10E36000C4F8883063681F2B07DDD8F80000FFF77A
:10E37000B1FE4FF0FF30BDE8F8835EB3D4F88800FB
:10E3800088B91D4B23B9D8F80000FFF7A2FEF0E7CB
:10E390004FF48470FDF78AFD0028F4D00023C0E913
:10E3A0004033C4F8880063680122022E40F82390AD
:10E3B00002FA03F200EB8301D0F8003143EA0203D2
:10E3C000C0F80031C1F8807002BFD0F804311343A7
:10E3D000C0F804316368D8F800005A1C0233626048
:10E3E00044F82350FFF776FE0020C4E7E4AF07109F
:10E3F00058AF0710000000009DCE3F0218AA07107A
:10E40000C5C03F02EDC03F02F1C03F020000000066
:10E4100043616C6C206F6E20707572652076697236
:10E420007475616C0064656661756C7420004D5391
:10E4300042004C5342003C53504953657474696E1A
:10E4400067732064656661756C743E003C53504987
:10E4500053657474696E6773202573257520257361
:10E46000204D4F444525753E004564676520496D44
:10E4700070756C736520696E666572656E63652084
:10E4800072756E6E657220666F722050617274696B
:10E49000636C6520646576696365730D0A006E6F51
:10E4A00020737461747573207965742C20776169A9
:10E4B00074696E6720666F7220616363656C657254
:10E4C0006F6D657465720D0A000A53746172746928
:10E4D0006E6720696E666572656E63696E67206936
:10E4E0006E2032207365636F6E64732E2E2E0A00C9
:10E4F00053616D706C696E672E2E2E0A000000004D
:10E500000000000000000000ADC13F0235C13F0225
:10E5100039C13F02000000000000000000000000C0
:10E52000000000000DC13F0237C13F0200000000A3
:10E530000000000049C13F027DC13F02A9E13F0246
:10E5400051E33F020100000093FFFFFF01000000C4
:10E5500000000000010000000000000001000000B9
:10E5600000000000010000000000000001000000A9
:10E570000000000001000000000000000100000099
:10E5800080FFFFFF0100000080FFFFFF010000008F
:10E59000FFFFFFFF01000000DEB8E83E01000000C1
:10E5A00080FFFFFF01000000C723CD3B01000000FA
:10E5B000907C3A3B010000000D7F0E3C0100000002
:10E5C00043BEB03A01000000D99E053C01000000A6
:10E5D000BBE2BF3A0100000050C31E3E0100000034
:10E5E00079D0373E010000007DBF773E000000007B
:10E5F000D4DFD6FBEF0ADDE5E31238F2E926001F8F
:10E6000023E624E22FD835E2E9E9D323E4E6DCDA95
:10E61000113418F5F12E191028F9EE0E34262FE2D8
:10E620002D28F705D1DCEAF4E4240EEED5C6D4019A
:10E63000CDF64301032A26C3E4B503BADCE3309CDC
:10E64000F425280CBFB0CBF1E0D5E22A28DBE203A9
:10E6500025E92508E7FED20D2F8132DBD316E1270D
:10E66000F109EADCDEB0BCF324F81B0E2F253905D6
:10E67000C9210206F30EF75E43E2E5450BFB3DEFD1
:10E68000A12018F31DFBCCF120F0EBDAE7E8E52739
:10E69000F932FC1A1D1711FB07DED404FCE93E2EEB
:10E6A00026F909270E0A02D32110FEECDF0DE3F351
:10E6B0001A23E34BDAFA103921FFE3F9D8ECE033FF
:10E6C000292EEFF0341536E9E1F3E1CDF742ED2FD5
:10E6D0001931361C4AFE11DAE513D5FCEA22FE1E7A
:10E6E000332EF721D6D5D0D0551C2E36360B20FC34
:10E6F00035E00B0BBACD12252AF4E0EEE2E8092052
:10E7000007F842F90CD613F2BF0EBE00C5BEE50AEB
:10E710001414DBE8D2D4B4B0D4D9B23F0A2644EF03
:10E7200029CCDDFD05C6FE09012527DB0D1B0EFFEB
:10E730002BECD8171DFFDFF11BF2422817040EF651
:10E74000EF31C1CD270CE10DF9293C28ED13E4147C
:10E75000FF0235F3100DED250107EEF4160CDA2655
:10E76000423DF837F50A2B21D513CC2037F3181783
:10E77000F81135F41CFFEFF09CE33FF6070EFF1F86
:10E780000442F636F0CFE62BEBEAE20A1DDCFC2170
:10E79000D26D21DC3809CAEF1103FB0ADC190B0D1D
:10E7A000F3F32511282328EB14FFCFDB1B0B1635C1
:10E7B0003125F217273AFBD6F5FD1EC80CDCEB24F9
:10E7C000E31E212F0B2111DD20E402E0EE23F1DE18
:10E7D000D0213DE213F5C6EAC7ED25EFCDF1DA1DF4
:10E7E0003DE419EBEF2ADAEBF005E3FDE2101EF948
:10E7F000F61BF70C1C23290CDE1448DACD171DCDAF
:10E80000DC11EFD02E21EF2BEBCB40010A2B29445A
:10E810000027CDBA40FC20E2FA14D5BDAFD5ACF547
:10E82000E10EEEE1F5EE1D31FB2E5122DBF1E01B96
:10E830001D172C262FDE150FE9D03CF82CE64517C6
:10E84000451339E51FE2D51CC1293A4A250ECAF8FD
:10E85000C4D9ECFF0EF82FEAEFCB0602E1EC19EB7E
:10E86000CB2A1C00F4F0EEDCF007FAD0DBC4ED1983
:10E87000190BC9EEDECBE320190DEF093129FEF0AB
:10E88000F5190709F7EBD3C715F3E121F12C42F78E
:10E89000190EFE1AD910F914F60547F1F932EB31C9
:10E8A00006C3E41228160E151EECEF301BEFD71C22
:10E8B000094023382730181AF20824EBE003081027
:10E8C000EFF630D6F63AF3EB2654E02041413D1105
:10E8D0001D38421D20EA181F0F05F7FACF292BF229
:10E8E00025FBE7270C04CE05F0E71424CD1B27F900
:10E8F0002CD3C9CFD62D150A0023E3140000000045
:10E90000E8FFFFFF00000000EEFFFFFF61000000D6
:10E910004C000000E6FFFFFFA100000050000000D7
:10E920005000000038000000060000001A0000003F
:10E93000F7FFFFFF0E0000003B0000008500000015
:10E94000F6FFFFFF4A00000045000000E9FFFFFF5F
:10E95000E0E9090121DDF608D0CBF0E42C1FF9062F
:10E96000D301F107EB02E11205FB4F36FCD30AD9C4
:10E9700003FB08D2262010DADA6037F71E11FED822
:10E98000482ECF2A03ADC8F3EB4CD2FAF3E3AEF432
:10E990000A066B5132DA3A081AF62B602E1E21EC69
:10E9A000F8091DBDB357C6FEC54E3EB7CD060916C4
:10E9B000FE814D061B25DB09DBF1FCEE30CECD2AB6
:10E9C000D710E42FD2FAD3251FE7D25028DE170B39
:10E9D0001D38CA1EC8F6F22F07130FE6E428D8CF59
:10E9E000F3EFDCD722141E27F4FAF2E9E505E7126B
:10E9F000DA14EB3E43F663C309EB0420283E0A4DCC
:10EA0000CC630B0AF133462AD72CF6D240F3F42B11
:10EA1000CEC7A7F42940E12C000000000000000050
:10EA200001000000E6FFFFFF340000002A000000A4
:10EA300073000000E2FFFFFF84000000CEFFFFFF35
:10EA40003A000000D2FFFFFF0000000000000000BD
:10EA5000FA3AE943DAE9BB010CFA1DCD3319D314B4
:10EA60006BD64F289CB1812C401B04EC069CB13125
:10EA700063C81FFDC7BF957A0000000000000000BA
:10EA800028000000CEFFFFFF340000000F00000050
:10EA9000010000000000803B0200000001000000B7
:10EAA0002700000002000000140000002700000002
:10EAB0000100000014000000020000000A00000035
:10EAC00014000000010000000A0000000200000025
:10EAD000040000000A000000010000000400000023
:10EAE000020000000100000014000000020000000D
:10EAF000010000000A000000020000000100000008
:10EB000004000000020000000100000004000000FA
:10EB100084F53F0234F53F020000000094F53F0207
:10EB20003CF53F02000000009CF53F0244F53F0227
:10EB300000000000A4F53F024CF53F020000000079
:10EB4000ACF53F0254F53F0200000000B4F53F026F
:10EB50005CF53F0200000000BCF53F0264F53F0297
:10EB600000000000C4F53F026CF53F020000000009
:10EB7000CCF53F0274F53F0200000000D4F53F02DF
:10EB80007CF53F020000000080FA3F028CF53F0256
:10EB900000000000000000000000000049C53F0226
:10EBA0004BC53F02000000000000000033D03F02D0
:10EBB00029D03F021FD03F0215D03F0209D03F02AB
:10EBC000FDCF3F023DE53F0245E53F02F1CF3F0269
:10EBD000E9CF3F02DFCF3F02D5CF3F0275E53F02CD
:10EBE000000000000000000051D03F029BD03F0217
:10EBF00073D03F0253D03F027BD03F0283D03F020D
:10EC00008BD03F0293D03F020000000000000000C4
:10EC1000F5D03F02E5D03F02E7D03F022564002552
:10EC20007500752530347800626175640053657233
:10EC300069616C0053657269616C31004A534F4ED3
:10EC400053747265616D4C6F6748616E646C657278
:10EC50000061707000253031307520005D20002C7F
:10EC6000200028293A2000205B00636F6465203D66
:10EC7000200025690064657461696C73203D200083
:10EC80006D0066006C6E00666E007400636F6465F4
:10EC90000064657461696C00000000000000000001
:10ECA000A1D53F02C7D53F0285D53F0203D23F021F
:10ECB000000000000000000055DA3F026DDA3F025C
:10ECC000A9E13F0251E33F02000000000000000004
:10ECD00081DA3F0295DA3F0289E33F028DD53F0298
:10ECE00000000000000000009FD53F02D5D53F0284
:10ECF0000DE13F028FD53F02000000000000000040
:10ED00009DD53F02E3D53F02BDD93F0205D63F0264
:10ED10000000000000000000FDE43F0207E53F02A4
:10ED200011E53F021BE53F0225E53F0231E53F02C9
:10ED30003DE53F0245E53F024DE53F0259E53F0213
:10ED400061E53F026BE53F0275E53F0200081018E0
:10ED50002028303825592D256D2D25645425483A15
:10ED6000254D3A2553257A0061736374696D6500FA
:10ED7000000000000000000055EA3F02C1EA3F0227
:10ED800099EA3F0261E63F0269EA3F0285EA3F02F3
:10ED900077EA3F0293EA3F0257EA3F025BEA3F020B
:10EDA000000000000000000019EB3F0281EB3F0271
:10EDB00057EB3F0261E63F0249EB3F021BEB3F028C
:10EDC0002BEB3F027BEB3F023BEB3F0213EB3F029F
:10EDD000000000000000000083EC3F0279EC3F02DD
:10EDE0006FEC3F0225EC3F0263EC3F0257EC3F0221
:10EDF0003DE53F0245E53F024BEC3F0243EC3F025D
:10EE000039EC3F022FEC3F0275E53F0200524545C9
:10EE10004E54206D616C6C6F632073756363656520
:10EE2000646564002F746D702F6A656E6B696E7314
:10EE30002D4743432D31302D706970656C696E65C7
:10EE40002D34385F32303230313132345F31363048
:10EE5000363138303633392F7372632F6E65776CE5
:10EE600069622F6E65776C69622F6C6962632F73BC
:10EE700074646C69622F72616E642E6300002020DE
:10EE8000202020202020202828282828202020205A
:10EE9000202020202020202020202020202088101A
:10EEA000101010101010101010101010101004047A
:10EEB0000404040404040404101010101010104181
:10EEC00041414141410101010101010101010101F2
:10EED0000101010101010101011010101010104287
:10EEE00042424242420202020202020202020202C2
:10EEF00002020202020202020210101010200000A0
:10EF00000000000000000000000000000000000001
:10EF100000000000000000000000000000000000F1
:10EF200000000000000000000000000000000000E1
:10EF300000000000000000000000000000000000D1
:10EF400000000000000000000000000000000000C1
:10EF500000000000000000000000000000000000B1
:10EF600000000000000000000000000000000000A1
:10EF70000000000000000000000000000000000091
:10EF80000000000000000000000000000000000081
:10EF90000000000000000000000000000000000071
:10EFA0000000000000000000000000000000000061
:10EFB0000000000000000000000000000000000051
:10EFC0000000000000000000000000000000000041
:10EFD0000000000000000000000000000000000031
:10EFE0003DC43F021DC53F02ADC63F02C5CF3F0233
:10EFF0003DD03F0299E13F024DE63F0275E73F02F7
:0CF000001DEA3F0241EA3F028DEC3F0296
:10F00C0000000002020900000000000088FA3F0224
:10F01C00270000000100000000FB3F020109000076
:10F02C00E0F53F0294FA3F020C03000001000000DF
:10F03C000CFB3F0201020000F0F83F02A0FA3F0275
:10F04C00500000000100000018FB3F020109000005
:10F05C0040F93F02A8FA3F02C8000000010000007E
:10F06C0024FB3F020102000010FA3F02B4FA3F02F7
:10F07C00280000000100000030FB3F0201090000E5
:10F08C0040FA3F02BCFA3F022800000001000000D9
:10F09C003CFB3F020102000070FA3F02C8FA3F023B
:10F0AC00100000000100000048FB3F0202090000B4
:10F0BC0000000000D0FA3F02140000000100000024
:10F0CC0054FB3F020209000000000000DCFA3F0282
:10F0DC000A0000000100000060FB3F020209000072
:10F0EC0000000000E8FA3F020400000001000000EC
:10F0FC006CFB3F020209000000000000F4FA3F0222
:10F10C00040000000100000078FB3F02D8FC3F0225
:10F11C00F0FC3F0258FD3F02B8A9071000000000A8
:10F12C0090FF3F02B0FF3F0270FF3F020000000063
:10F13C0000000000000000000000000000000000C3
:10F14C0000000000000000000000000000000000B3
:10F15C0000000000000000000000000000000000A3
:10F16C000000000000000000000000000000000093
:10F17C0000000000000000000000000054AF071069
:04F18C00000000007F
:10FFBE000200100000B05F08A8B05F0890C03F02BA
:10FFCE0001000A00FFFFFFFFFFFF00000102030414
:10FFDE0005060708090A0B0C0D0E0F10111213144B
:0EFFEE0015161718191A1B1C1D1E1F203E0089
:04FFFC0078563412ED
:04000005085FB018C8
:00000001FF
