:02000004085B97
:10E0000000E05B08FCFF5F0800000600200005013F
:08E010000401B6140000000039
:10E018000E480F4908B5884205D00E4A824202D000
:10E028000D4B121A98470D480D4A00210D4B121A34
:10E0380098470D480D49884205D00D4A824202D0C2
:10E04800054B121A9847014808BD00BF508D0610AD
:10E058007CEE5F08B09506102D0D1110C09D0610BE
:10E06800F4AF0710A10E111008F23B0290E05B0814
:0CE07800F4FF3F0219E05B08000000000C
:08E08400D01CE079010000004E
:08E090007CE05B0818693F0207
:10E0980081F0004102E000BF83F0004330B54FEA51
:10E0A80041044FEA430594EA050F08BF90EA020FBE
:10E0B8001FBF54EA000C55EA020C7FEA645C7FEA51
:10E0C800655C00F0E2804FEA5454D4EB5555B8BF74
:10E0D8006D420CDD2C4480EA020281EA030382EAE5
:10E0E800000083EA010180EA020281EA0303362D77
:10E0F80088BF30BD11F0004F4FEA01314FF4801C4A
:10E108004CEA113102D0404261EB410113F0004F5B
:10E118004FEA03334CEA133302D0524263EB430312
:10E1280094EA050F00F0A780A4F10104D5F1200EB0
:10E138000DDB02FA0EFC22FA05F2801841F100010B
:10E1480003FA0EF2801843FA05F359410EE0A5F1DF
:10E1580020050EF1200E012A03FA0EFC28BF4CF010
:10E16800020C43FA05F3C01851EBE37101F00045C6
:10E1780007D54FF0000EDCF1000C7EEB00006EEBD3
:10E188000101B1F5801F1BD3B1F5001F0CD349085D
:10E198005FEA30004FEA3C0C04F101044FEA4452B4
:10E1A80012F5800F80F09A80BCF1004F08BF5FEA3B
:10E1B800500C50F1000041EB045141EA050130BD1B
:10E1C8005FEA4C0C404141EB0101013C28BFB1F52D
:10E1D800801FE9D291F0000F04BF01460020B1FA78
:10E1E80081F308BF2033A3F10B03B3F120020CDA4B
:10E1F8000C3208DD02F1140CC2F10C0201FA0CF029
:10E2080021FA02F10CE002F11402D8BFC2F1200C8D
:10E2180001FA02F120FA0CFCDCBF41EA0C01904043
:10E22800E41AA2BF01EB0451294330BD6FEA04048C
:10E238001F3C1CDA0C340EDC04F11404C4F1200277
:10E2480020FA04F001FA02F340EA030021FA04F389
:10E2580045EA030130BDC4F10C04C4F1200220FAE0
:10E2680002F001FA04F340EA0300294630BD21FA1E
:10E2780004F0294630BD94F0000F83F4801306BFE4
:10E2880081F480110134013D4EE77FEA645C18BFD8
:10E298007FEA655C29D094EA050F08BF90EA020F6F
:10E2A80005D054EA000C04BF1946104630BD91EA67
:10E2B800030F1EBF0021002030BD5FEA545C05D16A
:10E2C8004000494128BF41F0004130BD14F58004A9
:10E2D8003CBF01F5801130BD01F0004545F0FE411D
:10E2E80041F470014FF0000030BD7FEA645C1ABF52
:10E2F800194610467FEA655C1CBF0B46024650EA89
:10E30800013406BF52EA033591EA030F41F40021B4
:10E3180030BD00BF90F0000F04BF0021704730B53A
:10E328004FF4806404F132044FF000054FF000010F
:10E3380050E700BF90F0000F04BF0021704730B5D0
:10E348004FF4806404F1320410F0004548BF4042A5
:10E358004FF000013EE700BF42004FEAE2014FEAFA
:10E3680031014FEA02701FBF12F07F4393F07F4FD5
:10E3780081F06051704732F07F4208BF704793F0D8
:10E388007F4F04BF41F40021704730B54FF46074EB
:10E3980001F0004521F000411CE700BF50EA0102EE
:10E3A80008BF704730B54FF000050AE050EA010297
:10E3B80008BF704730B511F0004502D5404261EB07
:10E3C80041014FF4806404F132045FEA915C3FF448
:10E3D800D8AE4FF003025FEADC0C18BF03325FEAE5
:10E3E800DC0C18BF033202EBDC02C2F1200300FA96
:10E3F80003FC20FA02F001FA03FE40EA0E0021FABB
:10E4080002F11444BDE600BF70B54FF0FF0C4CF4A8
:10E41800E06C1CEA11541DBF1CEA135594EA0C0F5A
:10E4280095EA0C0F00F0DEF82C4481EA030621EA95
:10E438004C5123EA4C5350EA013518BF52EA0335D0
:10E4480041F4801143F4801338D0A0FB02CE4FF082
:10E458000005E1FB02E506F00042E0FB03E54FF0B2
:10E468000006E1FB03569CF0000F18BF4EF0010EAA
:10E47800A4F1FF04B6F5007F64F5407404D25FEAA6
:10E488004E0E6D4146EB060642EAC62141EA555159
:10E498004FEAC52040EA5E504FEACE2EB4F1FD0C9B
:10E4A80088BFBCF5E06F1ED8BEF1004F08BF5FEA19
:10E4B800500E50F1000041EB045170BD06F00046CB
:10E4C80046EA010140EA020081EA0301B4EB5C0478
:10E4D800C2BFD4EB0C0541EA045170BD41F4801170
:10E4E8004FF0000E013C00F3AB8014F1360FDEBF95
:10E4F800002001F0004170BDC4F10004203C35DA71
:10E508000C341BDC04F11404C4F1200500FA05F3F3
:10E5180020FA04F001FA05F240EA020001F0004294
:10E5280021F0004110EBD37021FA04F642EB06010A
:10E538005EEA430E08BF20EAD37070BDC4F10C0434
:10E54800C4F1200500FA04F320FA05F001FA04F2F8
:10E5580040EA020001F0004110EBD37041F10001E4
:10E568005EEA430E08BF20EAD37070BDC4F12005EF
:10E5780000FA05F24EEA020E20FA04F301FA05F257
:10E5880043EA020321FA04F001F0004121FA04F2FF
:10E5980020EA020000EBD3705EEA430E08BF20EACF
:10E5A800D37070BD94F0000F0FD101F00046400009
:10E5B80041EB010111F4801F08BF013CF7D041EA8B
:10E5C800060195F0000F18BF704703F0004652008F
:10E5D80043EB030313F4801F08BF013DF7D043EA60
:10E5E8000603704794EA0C0F0CEA135518BF95EA16
:10E5F8000C0F0CD050EA410618BF52EA4306D1D19D
:10E6080081EA030101F000414FF0000070BD50EABB
:10E61800410606BF1046194652EA430619D094EA45
:10E628000C0F02D150EA013613D195EA0C0F05D12F
:10E6380052EA03361CBF104619460AD181EA030183
:10E6480001F0004141F0FE4141F470014FF000003B
:10E6580070BD41F0FE4141F4780170BD70B54FF0D6
:10E66800FF0C4CF4E06C1CEA11541DBF1CEA135556
:10E6780094EA0C0F95EA0C0F00F0A7F8A4EB050438
:10E6880081EA030E52EA03354FEA013100F088802F
:10E698004FEA03334FF0805545EA131343EA1263F8
:10E6A8004FEA022245EA111545EA10654FEA0026AD
:10E6B8000EF000419D4208BF964244F1FD0404F566
:10E6C800407402D25B084FEA3202B61A65EB0305C2
:10E6D8005B084FEA32024FF480104FF4002CB6EB7F
:10E6E800020E75EB030E22BFB61A754640EA0C00FF
:10E6F8005B084FEA3202B6EB020E75EB030E22BF3F
:10E70800B61A754640EA5C005B084FEA3202B6EB7F
:10E71800020E75EB030E22BFB61A754640EA9C003E
:10E728005B084FEA3202B6EB020E75EB030E22BF0E
:10E73800B61A754640EADC0055EA060E18D04FEACC
:10E74800051545EA16754FEA06164FEAC30343EA6C
:10E7580052734FEAC2025FEA1C1CC0D111F4801F39
:10E768000BD141EA00014FF000004FF0004CB6E732
:10E7780011F4801F04BF01430020B4F1FD0C88BFD1
:10E78800BCF5E06F3FF6AFAEB5EB030C04BFB6EBDC
:10E79800020C5FEA500C50F1000041EB045170BDCF
:10E7A8000EF0004E4EEA113114EB5C04C2BFD4EBFC
:10E7B8000C0541EA045170BD41F480114FF0000E80
:10E7C800013C90E645EA060E8DE60CEA135594EAFC
:10E7D8000C0F08BF95EA0C0F3FF43BAF94EA0C0FFF
:10E7E8000AD150EA01347FF434AF95EA0C0F7FF474
:10E7F80025AF104619462CE795EA0C0F06D152EAC8
:10E8080003353FF4FDAE1046194622E750EA4106AB
:10E8180018BF52EA43067FF4C5AE50EA41047FF4BC
:10E828000DAF52EA43057FF4EBAE12E74FF0FF3C21
:10E8380006E000BF4FF0010C02E000BF4FF0010CF2
:10E848004DF804CD4FEA410C7FEA6C5C4FEA430C6B
:10E8580018BF7FEA6C5C1BD001B050EA410C0CBFBA
:10E8680052EA430C91EA030F02BF90EA020F00201C
:10E87800704710F1000F91EA030F58BF994208BF83
:10E8880090422CBFD8176FEAE37040F00100704740
:10E898004FEA410C7FEA6C5C02D150EA013C07D197
:10E8A8004FEA430C7FEA6C5CD6D152EA033CD3D0E2
:10E8B8005DF8040B704700BF8446104662468C46DC
:10E8C8001946634600E000BF01B5FFF7B7FF00280F
:10E8D80048BF10F1000F01BD4DF808EDFFF7F4FF38
:10E8E8000CBF012000205DF808FB00BF4DF808EDC3
:10E8F800FFF7EAFF34BF012000205DF808FB00BFE6
:10E908004DF808EDFFF7E0FF94BF012000205DF807
:10E9180008FB00BF4DF808EDFFF7CEFF94BF0120BC
:10E9280000205DF808FB00BF4DF808EDFFF7C4FFB5
:10E9380034BF012000205DF808FB00BF4FEA410CFE
:10E948007FEA6C5C02D150EA013C0AD14FEA430CE1
:10E958007FEA6C5C02D152EA033C02D14FF000001E
:10E9680070474FF0010070474FEA410212F500125C
:10E9780015D211D56FF47873B3EB625212D94FEAFE
:10E98800C12343F0004343EA505311F0004F23FAE8
:10E9980002F018BF404270474FF00000704750EA3D
:10E9A800013005D111F0004008BF6FF000407047FA
:10E9B8004FF00000704700BF4A0011D212F5001254
:10E9C80011D20DD56FF47873B3EB62520ED44FEABF
:10E9D800C12343F0004343EA505323FA02F070473F
:10E9E8004FF00000704750EA013002D14FF0FF307D
:10E9F80070474FF0000070474FEA4102B2F1E04320
:10EA080024BFB3F5001CDCF1FE5C0DD901F0004C0D
:10EA18004FEAC0024CEA5070B2F1004F40EB83005D
:10EA280008BF20F00100704711F0804F21D113F189
:10EA38003872BCBF01F00040704741F480114FEAC2
:10EA48005252C2F11802C2F1200C10FA0CF320FA4B
:10EA580002F018BF40F001004FEAC1234FEAD32368
:10EA680003FA0CFC40EA0C0023FA02F34FEA4303D2
:10EA7800CCE77FEA625307D150EA01331EBF4FF05B
:10EA8800FE4040F44000704701F0004040F0FE4076
:10EA980040F40000704700BF7BB972B90029BEBFBF
:10EAA80000204FF0004106E008BF00281CBF6FF0AF
:10EAB80000414FF0FF3000F003BAADF1080C6DE9EA
:10EAC80004CE002909DB002B1ADB00F083F8DDF8FF
:10EAD80004E0DDE9022304B07047404261EB4101E4
:10EAE800002B1BDB00F076F8DDF804E0DDE90223FB
:10EAF80004B0404261EB4101524263EB430370476B
:10EB0800524263EB430300F065F8DDF804E0DDE909
:10EB1800022304B0404261EB41017047524263EB6B
:10EB2800430300F057F8DDF804E0DDE9022304B000
:10EB3800524263EB4303704753B94AB9002908BFEF
:10EB480000281CBF4FF0FF314FF0FF3000F0B8B97C
:10EB5800ADF1080C6DE904CE00F03CF8DDF804E0F6
:10EB6800DDE9022304B0704738B5002200230446CB
:10EB78000D46FFF7BBFE28B920462946BDE83840B8
:10EB880000F00AB8204605F1004100F005F84042BF
:10EB980061EB410138BD00BFD0B500220B4B0646E2
:10EBA8000F46FFF731FCFFF707FF0446FFF7B2FBFC
:10EBB8000022074BFFF728FC02460B463046394631
:10EBC800FFF76AFAFFF7F8FE2146D0BD0000F03DD6
:10EBD8000000F0412DE9F04F099D04460F46002B37
:10EBE80048D18A42944661D9B2FA82F343B1C3F15B
:10EBF80020019F4002FA03FC9C4020FA01F10F43D8
:10EC08004FEA1C411FFA8CFE220CB7FBF1F601FB00
:10EC1800167706FB0EF042EA0742904208D91CEB31
:10EC2800020206F1FF3702D2904200F237813E46D7
:10EC3800121AA4B2B2FBF1F001FB102200FB0EFE87
:10EC480044EA0244A64508D91CEB040400F1FF324B
:10EC580002D2A64500F21C81104640EA0640A4EB09
:10EC68000E0400261DB1DC400023C5E900433146EF
:10EC7800BDE8F08F8B4209D9002D00F0FD800026F9
:10EC8800C5E9000130463146BDE8F08FB3FA83F696
:10EC9800002E4BD18B42C0F0F280824240F2EF80CE
:10ECA8003046002DE3D0C5E90047E0E702B9FFDEB2
:10ECB800B2FA82F3002B40F09D80891A4FEA124E77
:10ECC80097B20126200CB1FBFEF20EFB121140EAAE
:10ECD800014107FB02F088420FD91CEB010102F148
:10ECE800FF382CBF4FF001094FF00009884203D9C3
:10ECF800B9F1000F00F0CF804246091AA4B2B1FB67
:10ED0800FEF00EFB101100FB07F744EA0144A7428E
:10ED180008D91CEB040400F1FF3102D2A74200F22B
:10ED2800B4800846E41B40EA02409BE7C6F120078E
:10ED3800B34001FA06F422FA07FCF940B2404CEA63
:10ED4800030C20FA07F34FEA1C491C431FFA8CFEF8
:10ED580000FA06F3200CB1FBF9F809FB181140EA98
:10ED6800014108FB0EF088420FD91CEB010108F1A4
:10ED7800FF3A2CBF4FF0010B4FF0000B884203D92C
:10ED8800BBF1000F00F08D80D046091AA4B2B1FB88
:10ED9800F9F009FB101100FB0EFE44EA01418E4513
:10EDA80007D91CEB010100F1FF3401D28E457FD851
:10EDB800204640EA0840A1EB0E01A0FB029841451D
:10EDC8004C46C64602D306D14B4504D20138B9EBAE
:10EDD800020468EB0C0E002D70D01A1B61EB0E01BB
:10EDE80022FA06F301FA07F7F14000261F43C5E9A6
:10EDF80000713CE702FA03FCC3F1200001FA03F2B8
:10EE080021FA00F64FEA1C4E24FA00F11FFA8CF79B
:10EE18009C401143B6FBFEF00A0C0EFB106642EA5A
:10EE2800064200FB07F696420ED91CEB020200F1DF
:10EE3800FF382CBF4FF001094FF00009964202D964
:10EE4800B9F1000F31D04046921B89B2B2FBFEF6F1
:10EE58000EFB162241EA024106FB07F28A4207D955
:10EE68001CEB010106F1FF3801D28A4223D846463D
:10EE7800891A46EA004625E72E462846F7E6841A08
:10EE880061EB030301201F460BE76444023849E79E
:10EE980064440238E1E6023A61442EE7023E6244E5
:10EEA800C6E6A8F1020861446FE702386244CBE77E
:10EEB800023861447DE7023E6144D9E72E46D6E632
:10EEC800704700BF10F8012B11F8013B012A28BF39
:10EED8009A42F7D0D01A7047034613F8012B002A3C
:10EEE800FBD1181A0138704770B512F005FD0025DE
:10EEF800054E064CA41BA408AC4200D170BD56F8C0
:10EF0800043B98470135F7E7A4FF3F02F4FF3F02AF
:10EF180002F048BC08B502F06DFCBDE8084012F0EC
:10EF2800A3BC11F08FBE11F08DBE11F099BE11F087
:10EF380097BE11F095BE00000048704721813F023E
:10EF48000C2008B5024A034911F064FDFEE700BF32
:10EF5800A9163D0228693F020078B0FA80F04009FE
:10EF6800704701230370704782B00346684680E803
:10EF7800060040F60F31998100219960997303C802
:10EF880083E8050002B0704773B504461D46A37BAD
:10EF980002A800E9060033B940F60F33A2899A4265
:10EFA80003D00123A37302B070BDD4E901329A42A1
:10EFB800F7D8019E9B1AB342F3D3AA42F1D3521B4E
:10EFC80005D0216819B12944881930F032FE20682B
:10EFD80020B132460099284430F02BFEA368334410
:10EFE800A360E0E78B7B10B51BB10023036043608F
:10EFF80010BD40F60F328C89944202D001228A73E8
:10F00800F4E70A688B680260F1E7000053EC102B04
:10F018002DE9F04100241F46DFF8A8C0C3F30A53C6
:10F0280013EB0C0644F1FF31A3F2FF7E5EEA010206
:10F0380010EE108A4FEAD775C7F3130014D158EAB7
:10F0480000033CD03B03C8F3080009D540F4007026
:10F058001F2340EAC53040EA832080B2BDE8F08132
:10F06800012838BF0120F3E7B1F1FF3F08BF66452B
:10F0780022D0102E71F1000221DA16F10E0F71F173
:10F08800FF3214DA6FF00D01891B01F12A0300F534
:10F098008010C3F1200600FA06F60A3128FA03F3B5
:10F0A80020FA01F133430B4398B22346D1E7A3F585
:10F0B8007C739BB2800ACCE723462046C9E71F230E
:10F0C8002046C6E701FCFFFF2DE9F04155EC104B47
:10F0D800064688460022002310EE100A2946FFF74C
:10F0E800FBFB58B145EC104BFFF790FF00220223C1
:10F0F800C6E9020233703046BDE8F081194FC5F306
:10F108000A5313EB070E61EB0101A3F2FF7C5CEAE3
:10F11800010720462A46E5D0B8F1000F0DD01EF1B0
:10F128000E0F71F1FF3708DBBEF1100F71F100010E
:10F1380003DAC5F309012143D4D06FF460715B1879
:10F1480061EB0101FE2B71F1000309D230F0604739
:10F1580006D120462946FFF74FFC3A460423C7E765
:10F168000823C5E701FCFFFF2DE9F0430C2987B010
:10F178000DF11505DDE90E6740D00D2942D0182E96
:10F1880077F1000303D242B9F2B22B461FE00729F8
:10F1980003D1A6F11F033B4338D04FF0000C2B4698
:10F1A800DFF86C800AE09E4618F80440A3EB0E09CD
:10F1B8004C451CDC1B1B121B0CF1010C56EA070EFC
:10F1C8005FFA8CF4EFD1002AEDDC1734E2B25C1E52
:10F1D80002EB41122D1B03F8012C21462A46109BF5
:10F1E80001940295FFF7D0FE07B0BDE8F0830EF852
:10F1F800016D360A46EA07663F0AD7E71F222B4603
:10F208000421E4E71F222B460521E0E71F22BCE783
:10F218003D693F021FB58468CDE9002302940022AE
:10F22800FFF7A2FF04B010BD8388C3F57F42FE320A
:10F23800012AC3BF0133838000200320704737B5FC
:10F248006D46044685E806009822002130F00BFD43
:10F2580095E806002046FFF787FE04F11403C4F87A
:10F2680094300423A37603B030BD7FB56E4686E89C
:10F278000C00037C04460D4683B9092910D196E891
:10F28800030002AA82E80300A368204606CAFFF723
:10F298007BFED4F89400FFF7C7FF207404B070BD5C
:10F2A8000B2908BF0221019AFFF7B4FF0B2DF0D0FC
:10F2B800E5E730B5057C044685B05DB985688DE81D
:10F2C8002C000A460721FFF74FFFD4F89400FFF7F8
:10F2D800ABFF207405B030BD1FB504460121684658
:10F2E800FFF7F2FEDDE9022320469DF8001004B086
:10F2F800BDE81040FFF7DDBF38B50446D0F89400EC
:10F30800FFF792FF207428B9A26812F1660F02D99C
:10F318000723237438BDD4F8943004F18C05AB422C
:10F328000FBF022003F10805C4F8945098811FBF4D
:10F33800D4F894301A60D4F8943099712074E9E7BD
:10F3480030B5836885B000220293002304460D4639
:10F35800CDE90023FFF708FF2946204605B0BDE8A0
:10F368003040FFF7C9BFF0B51646027C04460B468D
:10F3780087B03AB9D0F8942000F114018A4203D139
:10F388000423237407B0F0BD91798B4201D00F2379
:10F39800F7E7836802291FBF9088CB1E9BB2B0FB9A
:10F3A800F3F34FF000051768204608BFDB1B2A4619
:10F3B800CDE900350297FFF7D7FE66B1214604A8CC
:10F3C800FFF710FEDDE9043297420AD8D51B03B1D6
:10F3D8003B44C6E90035D4F89430083BC4F894306F
:10F3E800D0E72B46F5E770B5057C0446164686B08F
:10F3F8003DB9D0F8943000F11402934203D10423AC
:10F40800237406B070BD9B798B4201D00F23F7E7B8
:10F4180083681F22029300230721CDE900232A468F
:10F42800FFF7A2FE6EB1214604A8FFF7DBFDDDE978
:10F438000432A16891420AD8551A03B10B44C6E9AF
:10F448000035D4F89430083BC4F89430D9E72B46FB
:10F45800F5E773B5837B0C460BB101230374057C78
:10F4680075B9D0F8942000F114039A420BD16E4676
:10F4780001463046FFF7B6FD96E8030084E803002E
:10F48800284602B070BD0A25FAE70388426840881A
:10F498004968584300B97047F2EC017A67EE807A00
:10F4A8000138E1EC017AF5E7F0B502884B68458848
:10F4B80044684FEA820CAF0003EB820219462846E3
:10F4C800264620B9043393423C44F7D1F0BD56F8A0
:10F4D80004EB0138C1F800E06144F2E730B5F0EC24
:10F4E800017A01240025A14203D1C2ED007A1D60F2
:10F4F80030BDB0EC017AF4EEC77AF1EE10FA54BFE1
:10F50800B0EE677A2546F0EE477A0134EBE7000063
:10F518000B469FED0A7A82B001914BB9DDED017A75
:10F52800F8EE677AC7EE276AC2ED006A02B0704744
:10F53800F0EC017A013B37EE277AEEE70000000095
:10F5480030B5F0EC017A01240025A14203D1C2EDC7
:10F55800007A1D6030BDB0EC017AF4EEC77AF1EEA6
:10F5680010FAD4BFB0EE677A2546F0EE477A013438
:10F57800EBE700009FED117A13B50B461446F0EE49
:10F58800476A019183B9DDED017AF8EE677A87EE73
:10F59800270AB5EEC00AF1EE10FA0BDB2CF044FB9B
:10F5A80084ED000A02B010BDF0EC017A013BA7EE31
:10F5B800A77AE7E7C4ED006AF4E700BF000000009F
:10F5C8000129DFED137A10B502D8C2ED007A10BD1B
:10F5D8000B460446B4EC017A013B77EE877AF9D101
:10F5E80007EE101AB8EE477ADFED096A87EE876AE8
:10F5F800F0EC017A77EEC67A0139E7EEA76AF7D11F
:10F60800F7EE007A37EE677AC6EE877ADDE700BF55
:10F6180000000000F0B58C460025961CAC4500D8CB
:10F62800F0BD32F8154036F81530A4089B0850F89C
:10F63800247050F82310023540F8241040F8237045
:10F648000134013350F8247050F8231040F8241086
:10F6580040F82370E2E72DE9F04380460846B8F801
:10F6680000702DED028B01EB870905464B46D8F853
:10F6780004607908FF0883B000EB810409EB81027C
:10F6880006EB0717BE4205F1100504F1100402F15C
:10F69800100203F1100312D1D8F8042089B2022312
:10F6A800019100F0F5FA02234846D8F804200199A0
:10F6B80003B0BDEC028BBDE8F04300F0E9BA13EDEE
:10F6C800040A15ED047A53ED030A55ED033A37EEB3
:10F6D800008A12ED044A52ED034A53ED027A13ED03
:10F6E800015A54ED032A14ED023A54ED016A52ED21
:10F6F800025A12ED016A15ED021A14ED042A05EDFD
:10F70800048A33EEA08A55ED011A05ED038A31EE1D
:10F71800278A05ED028A31EE858A31EEC55A72EEE6
:10F72800041A05ED018A44ED041A72EEA41A44ED98
:10F73800031A73EE251A44ED021A76EE861A44ED82
:10F74800011A75EEC35A73EEE03A96ED013A74EE7B
:10F75800E24A36EE666A37EE407AD6ED006A63EE24
:10F76800832AE7EE262A23EE477A34EE424AA3EEAE
:10F77800A67A03ED037A24EE267A66EEE46AA4EE0E
:10F78800837AE4EE036A43ED042A42ED046A02ED4B
:10F79800037A103616ED027A56ED016A71EE677A31
:10F7A80065EE264AE7EE874A66EEE77AE5EE077ADF
:10F7B80043ED024A43ED017A65EE877A27EE467AF1
:10F7C800E6EE267AA5EEA67A42ED017A02ED027AF5
:10F7D80058E72DE9F04F2DED048B03888FB05B08B7
:10F7E80001EB830601EBC305019159080A910199C0
:10F7F80095ED007AD1ED007AD5ED015A37EE876A9A
:10F8080077EEC77A91ED017A77EE256A77EE655A39
:10F8180096ED007A05EB8304D4ED004A37EE065ADC
:10F82800426835EE245A83460846D6ED013A94EDEF
:10F83800014A80ED005A96ED015A94ED013A36EEF0
:10F84800855A35EE035A80ED015A33EEA75A08312E
:10F858000691314635EE445A08310B91294686ED1A
:10F86800005A36EE476A35EEC75A76EEE36A77EE07
:10F87800E37A37EE257A08310C91214635EE245A81
:10F8880036EE646A76EEC46A77EE847A37EE647A86
:10F8980008310D9102F10801079102F110011832A7
:10F8A80009925A08023A86ED015A089185ED006AD4
:10F8B800C5ED016A4FEA5208C4ED007A84ED017A79
:10F8C800079AA4F104090492099A03910292019AF1
:10F8D800A6F1040A02F1100E2F1F09EB830306F1AB
:10F8E800100105F1100C04F11002CDF814801CED84
:10F8F800027A5CED013A5EED024A1EED016A51EDB5
:10F90800025A51ED017A74EEC72A36EE635A74EE44
:10F91800874A36EE236A12ED024A12ED012A35EEC5
:10F92800653A77EEA26A34EEE57A76EE673A35EE16
:10F93800855A72EEE77A75EEA45A049876EEC26A92
:10F9480008300490039833EE043A1030039002987C
:10F9580037EE447A18300290059873EEC23A77EE83
:10F96800827A35EE445A75EE845AAAF1080A083F9D
:10F97800A9F10809083B0EF1080E08310CF1080C32
:10F988000832002875D1069B182703EBC802C2ED80
:10F99800005A0998079B07FB08070B9803EBC80157
:10F9A80000EBC80CDCED015A0C98089B00EBC80E64
:10F9B8000D9803EB081300EBC80836EE256AD8ED5E
:10F9C800015A36EE256A82ED016AD1ED014AD1ED80
:10F9D800005A24EE836AA5EEA66A66EEE46AE5EEAE
:10F9E800836A8CED006ACCED016AD3ED015A93ED80
:10F9F800006A65EEA36AE6EE076A27EE657AA6EE68
:10FA0800237ACEED006A8EED017A97ED016AD7ED83
:10FA1800006A26EE057AA6EEA77A67EEC67AE6EEC3
:10FA2800857A88ED007AC8ED017ABDF82810DBF8F0
:10FA3800042001980423029100F02AF90299304623
:10FA4800DBF804200423019100F022F92846DBF8B2
:10FA580004200199042300F01BF904232046DBF855
:10FA6800042001990FB0BDEC048BBDE8F04F00F005
:10FA78000FB94EED045A51ED035A36EE256A52ED90
:10FA8800035A36EE256A0EED036A99ED016ADAED3E
:10FA9800012ADAED024A72EE865A72EEC62A99ED0A
:10FAA800026A93ED020A74EE868A74EEC64A97EDEE
:10FAB800026A36EE409A78EEC61A36EE286A36EEB4
:10FAC800006A93ED014A97ED018A8AED026A97ED83
:10FAD800016A35EEC82A75EE865A93ED016A75EE0D
:10FAE800865A34EEC81ACAED015A049831EE041A3F
:10FAF80050ED015A32EE442A34EE484A10ED026ABB
:10FB080074EE644A25EE834AA6EE264A66EEE56A56
:10FB180079EE220AE6EE036A41ED036A61EE066AAF
:10FB280026EE606AE0EEA56AA1EE256A01ED044AB8
:10FB380087ED026AC7ED016A039871EEC01A50EDAD
:10FB4800036A10ED046A66EEA35AE6EE075A27EE3A
:10FB5800667AA6EE237A0CED037A21EEA67A66EE93
:10FB6800C26AA2EE467AE1EEC66A4CED045AC9EDC5
:10FB7800026A89ED017A029879EE622A10ED067A16
:10FB880050ED056A26EE856AA7EE276A67EEE67AE3
:10FB9800E7EE057A42ED037A64EE877A27EE627A19
:10FBA800E2EEA67AA4EEA67A059802ED046A013878
:10FBB80083ED027AC3ED017A059098E62DE9F041CC
:10FBC800012A06460C461746984605883ED0B5F5E4
:10FBD800807F49D026D8402D31D01CD8102D1CD07C
:10FBE800202D41D0B8F1000F04D02046B268B18969
:10FBF800FFF710FD012F0CD107EE905AF7EE006ABF
:10FC0800F8EE677A002386EEA77AAB4204F108047F
:10FC18002FD3BDE8F081802DE4D121463046FFF78F
:10FC28001AFDDFE7B5F5006F1ED005D8B5F5007FE2
:10FC380005D0B5F5806FEFE7B5F5805FD2D1012328
:10FC480029462046726800F023F8CBE700230A1DF6
:10FC5800AB4202F10802BAD252ED027AF1EE677AAB
:10FC6800013342ED027AF3E721463046FFF7B1FD52
:10FC7800B8E754ED027A67EE877A44ED027A54EDDC
:10FC8800017A67EEC77A013344ED017ABDE70000D7
:10FC98002DE9F04F2DED108BDFEDB27A8FB001908A
:10FCA80003910D92049302911820029B4FF00009D2
:10FCB800DA0800FB02F428200C9400FB02F4302040
:10FCC80051010891019900FB02FB01EB421CD10094
:10FCD80007916FF01701382051430CEB010707EB30
:10FCE800421675180694140100FB02FA059401984F
:10FCF80005EB42142144DB0001EB421800F1040E2D
:10FD0800DCED006A1EED016AD7ED005A36EE267A60
:10FD180036EE666AD6ED006A35EEA65A35EEE64A44
:10FD2800D5ED005AD4ED006A91ED003A75EEA63A89
:10FD380075EEE66AD8ED005A73EE254A77EE631A37
:10FD480033EE653A37EE237A75EE245A35EE642A97
:10FD580037EE255A37EE657A0EED015A8CED007AAA
:10FD68009CED017A9EED005AD6ED014A75EE075AD0
:10FD780035EE475A97ED017AD5ED013A77EE242A08
:10FD880037EE647AD4ED014A98ED011A73EEA40AAD
:10FD980073EEE44AD1ED013A33EE810A73EEC13ACB
:10FDA80035EEE01A75EEA05A72EEC00A72EE802A9D
:10FDB80035EEA20A75EEE25A8EED000ACCED015A34
:10FDC80071EEA05A71EEE01AC5ED005A71EE425A72
:10FDD80032EE012AC4ED001AC5ED015A84ED012A5C
:10FDE80074EE035A34EE432AB0EE664A77EE632A7D
:10FDF800A5EEE74A37EE237AE5EEA76AB0EE453A74
:10FE0800F0EE455AB0EE645AA2EEE73AE2EEA75A8F
:10FE1800F0EE463AA7EE275AA2EE276AF0EE642AD9
:10FE2800E2EE673AE7EE672A36EE057A36EE456A7D
:10FE380087ED007A33EEA27A88ED006A73EEE23A33
:10FE480086ED007A35EEE67AC1ED003A76EEA56ADF
:10FE580087ED017A33EE447A34EE034AC8ED016A3D
:10FE680086ED017A81ED014A02989C448144039809
:10FE78001F4448451E441D441C44194498449E444C
:10FE88003FF63EAF072A40F2718101980899012494
:10FE980001440B91079901440A910699014409917B
:10FEA8000599014408910BEB000107910C99014455
:10FEB80006910AEB0001059100210498A34601442C
:10FEC8000D9800EBC1056FF02F0095ED002A05EBAA
:10FED800C10595ED000A05EBC10595ED005A05EB46
:10FEE800C105D5ED008A05EBC10595ED004A05EB86
:10FEF800C10595ED001A05EBC10500FB01560198F7
:10FF0800D6ED011A00EBC40A0B9806EBC10600EB0C
:10FF1800C4090A9896ED018A00EBC408099806EB13
:10FF2800C10600EBC40E0898D6ED014A00EBC40CDC
:10FF3800079806EBC10696ED019A00EBC40706EB9D
:10FF4800C1060698D6ED013A06EBC106D6ED010AC0
:10FF580000EBC406059895ED003AD5ED012A00EBB3
:10FF6800C40501E0F304353F99ED007A9EED006A7F
:10FF7800DAED009A98ED00AA95ED00BADCED00AA3A
:10FF8800D6ED00BA79EE876A79EEC79A3AEE067A24
:10FF98003AEE46AA97ED006A7AEE865A7AEEC6AA33
:10FFA8003BEE8B6A7BEECBBA77EE46DA36EEE5BAF5
:10FFB80037EE067A76EEA56A36EE876A8AED006A2B
:10FFC800DAED015A76EEC76A99ED017A98ED016A81
:10FFD80075EE87EA35EEC7CA9EED017A76EE47CA16
:10FFE80076EE07FA9CED016A97ED017A96ED01DA53
:08FFF80036EE07EA36EE477A07
:02000004085C96
:1000000095ED016A7DEE065A3EEECEFA3EEE8EEAA0
:100010007FEEE5EA7FEEA55A3DEE46DA3BEE2E6A2C
:100020003BEE6EBA7EEE25EA3EEE65EA69EE0E5ACA
:10003000CAED01EAE8EEA65A7FEE6DEAC9ED005A74
:1000400066EEC95A68EE2E6A7DEE8FDAE0EE066A39
:10005000E8EE8E5A26EE486AC9ED015ACCED006AE8
:1000600060EEAD6AA0EE2E6AE1EE0B6A8CED016ADD
:10007000C7ED006A6BEE606AE1EE2D6A7AEE6B5AAC
:10008000C7ED016A3CEE8D6A7CEECD6AF0EE69CA7E
:100090003AEE2BAAE5EEA79AE5EEE7CAB0EE6ABA09
:1000A000F0EE47BAF0EE4C5AAAEE67BAEAEE27AA8B
:1000B000E6EE67BAE6EEA75AA6EE277AB0EE4CAAAD
:1000C00039EE876AA6EEE7AA39EEC77A7CEEAB6A0C
:1000D0007CEEEB9A75EEEABA7AEEA55A7AEE4BAA66
:1000E0003BEE0AAA21EEABBAA2EE06BA26EE616A90
:1000F000A2EE2B6A88ED016A22EEA56AA3EE076ADA
:1001000088ED00BA85ED006A27EE626A23EEAA7ACE
:10011000A3EE256AA4EE267A85ED016A66EEE36A0F
:100120008EED007A24EE8A7AE4EE2A6AA5EE297A28
:10013000CEED016A86ED007A29EEE47AA5EE0A7A20
:1001400086ED017A02989A4483440398994458456D
:1001500098449E449C441F441E441D443FF608AFEF
:100160000134A2427FF4ADAE049B0292DB009BB24D
:1001700004939DE50FB0BDEC108BBDE8F08F00BF80
:1001800010B5D1ED017A77EEA77AD1ED005AB0EE35
:10019000006AB0EE677AF6EE006AA5EE867AD5EED2
:1001A000867A27EE267A67EEA67A03884469013BB1
:1001B00004F1100001F1100401EBC30182ED007A9B
:1001C000C2ED017A0839103291ED034A91ED027ABD
:1001D00054ED023A54ED017A50ED025A50ED014AC5
:1001E00037EE635A34EE276A37EE237A77EEC47A15
:1001F000A5EE857AE4EE857AA4EE867AE5EEC67AF7
:1002000027EE267A67EEA67A013B002B02ED027AF2
:1002100042ED017A00F1080002F1080204F108043D
:10022000A1F10801D0DC10BD10B5D1ED007A91ED3F
:10023000016AF6EE006A37EE867A77EEC67A27EE26
:10024000267A67EEA67A03884469013B82ED007A3C
:10025000C2ED017A04F10800083201F1080401EB53
:10026000C301002B02F1080200F1080004F10804A8
:10027000A1F1080100DC10BD91ED034A91ED027A75
:1002800054ED023A54ED017A50ED025A50ED014A14
:1002900033EEC75A34EE276A37EE237A77EEC47A04
:1002A000A5EEC57AE4EE857AA4EEC67AE5EEC67AC6
:1002B00027EE267A67EEA67A02ED027A42ED017AFF
:1002C000013BCEE72DE9F04105460F4616461C4698
:1002D0004BB1FFF7A9FF224631462846BDE8F04161
:1002E0000123FFF76FBC22460123FFF76BFC324668
:1002F00039462846BDE8F041FFF742BF2DE9F047F7
:100300000C4616461D688AB0DDE91279DDE917A8AA
:100310001DB928460AB0BDE8F0872369384608931E
:10032000E368169A0793DAF80C3014990693D9F813
:100330000030013D05937368049333680393A36809
:1003400002936368019323680093434600F009F821
:10035000D9F800301F44DAF80C309844D8E7002070
:1003600070472DE9F04F95B0229C01902298002C07
:10037000C0F10000C8BF002004900120049C089335
:10038000A040013805904010069001300990239854
:10039000239C40000A900898002C00F10200029073
:1003A00023980C914FEA10100E9023981E9B20F07A
:1003B0000F00B8BF00200790079C019819B2204495
:1003C0000B900C981F9B039024981BB201380F9040
:1003D0000898C1EA0141C0F1FF2000F57F00FE301E
:1003E00010902398C3EA03430F381190601E1290B7
:1003F000019840421390229820EAE0700D90029CF0
:10040000109820440F9C844267DC249C2498002C84
:100410004FEA5000ACBF84464FF0000C4FEA40005A
:10042000B8BF00200C9C0A9D05FB0C4C089C0444A2
:100430002046249CE4074CD502B112680025239C79
:10044000A4F10F09019CA94504EB05080CEB050E6E
:1004500000F34C8123990E9B00294FEA0313B8BF88
:100460000023079901398C440B995B1A239DCC1802
:10047000A54200F38D81229B4FF0804123EAE37374
:100480009A4000231C46219DC2FB0514CA0F2299E5
:1004900042EA44029942D8BF0B464FF00101D8BF4F
:1004A0005B429940013952FA03F302EA01044FEA30
:1004B000610148BF0131209A8C42C8BF0133134407
:1004C000259A9342B8BF1346269A9342A8BF134673
:1004D0000370002015B0BDE8F08F002A6CD01546DF
:1004E00055F8084B50682A464FF0000C039D239E98
:1004F000AF19019D05EB0C08239DA7EB050E119D7F
:1005000065455CDC039D129EDDF82CE0AF19139D60
:10051000239E7544AE4200F3D7800D9D4FF0804678
:10052000AC400025219FC4FB0765F40F44EA450455
:10053000049E059D069F25403441099E58BF3E46B6
:10054000B5420D9D219F00FA05F64FF080404FF017
:100550000005C6FB07054FEAD07040EA4500049E3F
:10056000059D069F00EA0505C8BF01343041099E7C
:1005700058BF3E46B542209DC8BF01302C44284498
:10058000259DAC42B8BF2C46A842B8BF2846269D40
:10059000AC42A8BF2C46029D05F8024C269CA04206
:1005A000A8BF20460A9C05F8010C0398204403903C
:1005B00028460230029022E71046144694E7019D37
:1005C000DEF800B055F80C5023FA8BF621FA85FAC4
:1005D000D7F800904FEA3B2B4FEA352523FA8BFBE7
:1005E00021FA85F52AFB064423FA89F625FB0B44FC
:1005F000DEF804B04FEA392923FA89F92AFB06000C
:1006000025FB0900D8F8045023FA8BF621FA85FA65
:10061000D7F804904FEA3B2B4FEA352523FA8BFBA2
:1006200021FA85F52AFB064423FA89F625FB0B44BB
:10063000DEF808B04FEA392923FA89F92AFB0606C1
:1006400025FB0966D8F8085023FA8BF021FA85F9C2
:10065000D7F808A04FEA3B2B4FEA352523FA8BFB4E
:1006600021FA85F529FB004423FA8AF025FB0B4487
:10067000DEF80CB04FEA3A2A23FA8AFA29FB006026
:1006800025FB0A05D8F80CE023FA8BF621FA8EFA3E
:100690004FEA3B2BD7F80C804FEA3E2E23FA8BF91A
:1006A00021FA8EFE2AFB064423FA88FB2EFB09441E
:1006B0004FEA382023FA80F02AFB0B552EFB00501E
:1006C0000CF1100C103714E71E9E1EF9015B17F990
:1006D00001CF35441F9EB444239E05FB0C4417F9FB
:1006E00006C01F9EB44405FB0C0010E7019C5CF89B
:1006F0000570665923FA87FB21FA86FA4FEA3727F5
:100700004FEA362623FA87F721FA86F62AFB0B22D0
:1007100026FB0722DEF80440D8F8046023FA84FBA5
:1007200021FA86FA4FEA342423FA84F74FEA362472
:1007300021FA84F42AFB0B2224FB0724DEF808703C
:10074000D8F8086023FA87FB21FA86FA4FEA3727A0
:100750004FEA362623FA87F721FA86F62AFB0B445E
:1007600026FB0746DEF80C20D8F80CE023FA82F4CA
:1007700021FA8EF74FEA322223FA82F84FEA3E221C
:1007800021FA82F227FB046622FB0862103559E643
:100790001F9D1CF9014F1E9E2C4411F9015B35442D
:1007A00005FB042262E600002DE9F04F9B46002382
:1007B0008FB008900B91029200930393009A089BCC
:1007C000134404931A9B134407930B9A039B93427D
:1007D00002DB0FB0BDE8F08F089B009A9B56019397
:1007E0000123029A9342C0F2348100239E46DFF82F
:1007F0007882029A9645C0F23981B3FA83F2934027
:1008000003F10043D91713F1004341F100015B08E4
:1008100043EAC173C2F1230A924A49105C4202FBC7
:100820000144A3FB022004448F48121864F1000421
:10083000002C04DA6FF00040121844F10004D20FCB
:1008400042EA440202F15A3000FB01F5C21703FBF1
:100850000255A0FB034214F1804445EB0202E40F71
:1008600044EA4204C4F10054002CACBF00254FF010
:10087000FF357D4AA8BF4FF08042C0FB0425002D04
:1008800004DA6FF00044121945F10005D20F42EA74
:10089000450200EB8202002A734DA6BF4FF080454F
:1008A0004FF0000C4FF0FF3C02FB01F4D01703FBAC
:1008B0000044A2FB030E4019744444EB0C04002CCA
:1008C0004FEAD27604DA6FF00045401944F1000493
:1008D000C00F40EA4400C0F10050B6EBD07F0CBF1F
:1008E00000244FF0FF34604E08BF4FF08046C2FB3B
:1008F00000642546002D344604DA6FF000403418B9
:1009000045F10005E40F44EA4504B4F1005FABBFD4
:1009100000204FF0FF306FF00045002500EA840012
:10092000B4F1604F80EA0500CBBF4FF0FF350025E2
:1009300000244FF00044284060400244002A4A4806
:10094000A6BF4FF0804000254FF0FF355143D6172A
:1009500003FB0611A2FB03361B18314441EB0501D2
:1009600000294FEAD27404DA6FF000401B1841F1FD
:100970000001DB0F43EA4103C3F10053B4EBD37F23
:100980000CBF00204FF0FF30374908BF4FF08041C7
:10099000C2FB0310002804DA6FF00043C91840F1CD
:1009A0000000C90F41EA4000B0F1005FABBF002377
:1009B0004FF0FF336FF000410021B0F1604F03EAC8
:1009C0008003D4BF00204FF0FF3083EA0103D4BF7F
:1009D0004FF000410021184048400244B2F1804FDE
:1009E000ABBF00234FF0FF336FF00041002103EA5B
:1009F0004203B2F1404F83EA0103CBBF4FF0FF3116
:100A0000002100224FF000420B405340099355BF94
:100A10004FF080424FF0FF330023134A4FF0000C99
:100A2000CDE90C23012303FA0AF3013B05935B1084
:100A30000693DFF834E001330A93029B9C45C0F231
:100A40008381039B009A01330393029B1A44009213
:100A5000B4E6049A0199D25601339142B8BF1146C7
:100A60000191BEE6C4C3C3C3010000C0049A12F9D9
:100A70000E00019A801A199A824200F35181189A45
:100A80009040C20FB2EBDB7F0BBF4FF0804141467D
:100A900000224FF0FF32C0FB0B12002A144604DA8A
:100AA0006FF00042891844F10004CA0F584542EA29
:100AB000440204D1BBF1004F08BF6FF000424FF079
:100AC0008041002442F07F4CACEB02054FEA4C1C05
:100AD0000CF1805CCCFB0C14002C4FEAEC7604DAB1
:100AE0006FF00040091844F10004C90F41EA4401C5
:100AF000A1FB0109E41701FB04FA10F1804049EB66
:100B00004A09B9F1000F05DA6FF0004A10EB0A004C
:100B100049F10009C00F40EA490000F003098010C4
:100B200054BF4FF0010A4FF0020AD1454FEAD17984
:100B3000C8BF0130B9EBDC7F0BBF4FF08049C14625
:100B40004FF0000A4FF0FF3A0CFB04F401FB06449F
:100B5000ACFB016716EB09063C4444EB0A04002C8D
:100B600005DA6FF0004916EB090644F10004F60FB0
:100B700046EA440630440028ABBF4FF08044444668
:100B800000264FF0FF36684FC0FB0746002E04DA00
:100B90006FF00040241846F10006E40F44EA4604D2
:100BA0000C44611002D4E60748BF01318C44BCF10B
:100BB000000FABBF4FF08044444600214FF0FF319F
:100BC0005A48CCFB0041002904DA6FF00040241899
:100BD00041F10001E40F002044EA41044FF080415C
:100BE00082468C4604F1E244514FA4F52524A4F238
:100BF0006C74C4FB07CAC5F300664FEADC7C4CEAA0
:100C00004A0C45F30069013E09EA0C0934408C4660
:100C10000646484F89EA0404C4FB07C6C5F3406A88
:100C20004FEADC7C0AF1FF3A4CEA460C0AEA040A75
:100C30000E46044645F3406909EA0C093E4F89EA2D
:100C40000A09C9FB0764C5F3806AF60F46EA440641
:100C500045F3806C0AF1FF3A0AEA090A0CEA060C2D
:100C60008CEA0A0C0C468246344EC5F3C069CCFBB4
:100C7000064AE40F44EA4A0445F3C06609F1FF3925
:100C800009EA0C09264086EA0906824689462C4C68
:100C9000C5F3007CC6FB049A4FEAD97949EA4A09B0
:100CA00045F300740CF1FF3C0CEA060C04EA09045D
:100CB00084EA0C0482468C46DFF88890C5F34076BF
:100CC000013EC4FB09CA2640F224B2FA82F24FEA7E
:100CD000DC7C4CEA4A0C45F3407909EA0C0C8CEABE
:100CE000060CCCFB0410C5F3807AC90F41EA400121
:100CF00045F380750AF1FF3A0AEA0C0A52092940C5
:100D000081EA0A01501E524222F0004A014081EA63
:100D10000A0A4FEA2A321AF4006F18BF013213444C
:100D20000EF1010E65E500BFABAAAA2A94A8F570E2
:100D30007BBEAF63F2CBA24D6CAC162FA4AA5211AE
:100D4000B72A580211FE0A00049B13F90C10019BEC
:100D5000C91A199B9942C0F26A81189B9940CB0F1E
:100D6000B3EBDB7F0BBF4FF08043734600224FF0A5
:100D7000FF32C1FB0B32002A104604DA6FF000424A
:100D80009B1840F10000DA0F594542EA400204D1B5
:100D9000BBF1004F08BF6FF000424FF080410024CC
:100DA00042F07F46B31A760106F18056C6FB061460
:100DB000002C4FEAE67504DA6FF00040091844F1A0
:100DC0000004C90F41EA4401A1FB0108E41701FB3B
:100DD00004F910F1804048EB4908B8F1000F05DA3A
:100DE0006FF0004910EB090048F10008C00F40EA1D
:100DF000480000F00308801054BF4FF001094FF085
:100E00000209C8454FEAD178C8BF0130B8EBD67F98
:100E10000BBF4FF08048F0464FF000094FF0FF390C
:100E2000744301FB0544A6FB015715EB08053C4440
:100E300044EB0904002C05DA6FF0004815EB0805B7
:100E400044F10004ED0F45EA440528440028ABBFF7
:100E50004FF08044744600254FF0FF35754FC0FBBE
:100E60000745002D04DA6FF00040241845F1000515
:100E7000E40F44EA45040C44611002D4E00748BF83
:100E800001310E44002EABBF4FF080447446002168
:100E90004FF0FF316848C6FB0041002904DA6FF0CB
:100EA0000040241841F10001E40F002044EA41040D
:100EB0004FF0804181460E4604F1E2445F4FA4F5B5
:100EC0002524A4F26C74C4FB0769C3F30065F60F14
:100ED00046EA490643F30068013D08EA06082C404B
:100EE0000E460546564F88EA0404C4FB0765C3F363
:100EF0004069F60F09F1FF3946EA450609EA040997
:100F00000D46044643F3406808EA06084D4E88EA59
:100F10000908C8FB0654C3F38069ED0F45EA440590
:100F200043F3806609F1FF3909EA08092E4086EA91
:100F300009060C468146444DC3F3C068C6FB05490B
:100F4000E40F44EA490443F3C06508F1FF3808EAB6
:100F50000608254085EA0805814688463B4CC3F3D0
:100F60000076C5FB04894FEAD87848EA490843F37C
:100F70000074013E2E4004EA0804744081460E4687
:100F8000DFF8CC80C3F34075013DC4FB0869254000
:100F9000F224B2FA82F2F60F46EA490643F34078A9
:100FA00008EA06066E40C6FB0410C3F38079C90F39
:100FB00041EA400143F3807309F1FF3919405209B6
:100FC00009EA0609501E81EA09015242014022F055
:100FD000004048400999DDE90C32C1FB0032002A8B
:100FE000144604DA6FF000429B1844F10004059A9D
:100FF000DB0F43EA440306981A4053FA0AF30A99AE
:1010000058BF01468A42C8BF0133803B13F17F0FAE
:1010100008DB7E2B09DC5BB2079A02F80C300CF17E
:10102000010C0AE56FF07F03F6E77F23F4E78023E6
:10103000F2E700BFABAAAA2A94A8F5707BBEAF6303
:10104000F2CBA24D6CAC162FA4AA5211B72A5802AB
:1010500011FE0A0010289ABF024B53F820000248E4
:10106000704700BF2C6C3F02B46B3F020904064A74
:1010700041EA002040F00100044B10601168C907EC
:1010800001D5013BFAD1704700000140A086010064
:10109000064A000240F01000106005481368D906A7
:1010A00002D50138FAD17047180C70470000014092
:1010B000A08601002DE9F34717464FF090421D46E8
:1010C0008846D2F84433116923F0FE0349014CBF2E
:1010D00043F0540343F0D00315F010040646C2F861
:1010E000443340EA001959D04FF421611220FFF730
:1010F000BDFF4FF421611520FFF7B8FF1B20FFF75C
:10110000C7FF40F0070081B21B20FFF7AFFF1B2095
:10111000FFF7BEFF40F0100081B21B20FFF7A6FFD3
:1011200041F6BF711820FFF7A1FFFB20FFF7B0FFCA
:1011300040F0020081B2FB20FFF798FF1120FFF77B
:10114000A7FF20F4005141F4805189B21120FFF72C
:101150008DFF1420FFF79CFF20F4005141F48051D3
:1011600089B21420FFF782FF1820FFF791FF6FEA82
:10117000C0406FEAD04081B21820FFF777FF1721F7
:101180001B20FFF773FF49461720FFF76FFF8021F1
:10119000102002B0BDE8F047FFF768BF0320FFF75B
:1011A00077FF20F4406141F40061032089B2FFF72A
:1011B0005DFF15F0080A4AD01820FFF769FF40F0DC
:1011C0003F0081B21820FFF751FF2046FFF760FF74
:1011D00000F4406040F4467141F003012046FFF7FF
:1011E00045FF40F2FC710120FFF740FF0220FFF7AE
:1011F0004FFF00F4E05040F4014141F0EA010220C9
:10120000FFF734FF10210C20FFF730FF49F6FC7187
:101210000120FFF72BFF0220FFF73AFF00F4E05018
:1012200040F4014141F0FA010220FFF71FFF204680
:10123000FFF72EFF00F4406040F4667141F00301B7
:101240002046FFF713FF18210C20FFF70FFF15F0C2
:1012500005042FD00220FFF71BFF20F4C04141F40A
:101260000141022089B2FFF701FF052034F02CFA7A
:10127000EA077FD50C20FFF70BFF40F0100081B28A
:101280000C20FFF7F3FE0220FFF702FF40F4C060DE
:1012900081B20220FFF7EAFE642034F015FA032041
:1012A000FFF7F6FE20F0F00141F4687189B20320E7
:1012B000FFF7DCFE15F00D0F02D0C82034F0FCF96A
:1012C000BAF1000F20D00020FFF7E2FE00F44060EA
:1012D00040F4067141F003010020FFF7C7FE40F221
:1012E000FC410120FFF7C2FE0220FFF7D1FE00F40F
:1012F000E05040F4014141F0EA010220FFF7B6FE60
:1013000010210C20FFF7B2FE6CB10020FFF7C0FEE9
:1013100040F4606040F0010081B20020FFF7A6FEBB
:10132000322034F0D1F941F6BF711820FFF79EFE4C
:1013300046F220311120FFF799FE46F220311420A9
:10134000FFF794FE64B31220FFF7A2FE04461520B7
:10135000FFF79EFE24F4C76420F4C76AA4B21FFA04
:101360008AFA092E0ED8DFE806F0BBC00DB60D0DC7
:101370000D0DBBC00320FFF78BFE00F47F4040F44F
:10138000547194E744F004014AF0040A1220FFF774
:101390006DFE15205146FFF769FE322034F08CF9BE
:1013A00017211B20FFF762FE49461720FFF75EFE5C
:1013B000FB20FFF76DFE20F0060141F0080189B225
:1013C000FB20FFF753FEFD20FFF762FE20F0060131
:1013D00041F0080189B2FD20FFF748FE2720FFF702
:1013E00057FE20F4807081B20FB941F4807127203C
:1013F000FFF73CFEFA20FFF74BFE20F4007040059B
:10140000400D40F48051FA200191FFF72FFEFC209F
:101410000199FFF72BFEAB0740D51120FFF738FEEF
:10142000344C204040F4A04141F0190189B2112010
:10143000FFF71CFE1220FFF72BFE40F0040081B2E4
:101440001220FFF713FE1420FFF722FE204040F485
:10145000A04141F0180189B21420FFF707FE1520C2
:10146000FFF716FE40F0040081B21520FFF7FEFDE5
:101470001720FFF70DFE20F4E06141F4807189B27E
:101480001720FFF7F3FD1820FFF702FE6FEAC040B8
:101490006FEAD04081B21820FFF7E8FD26F0080679
:1014A000012E13D11720FFF7F3FD20F4F04141F492
:1014B000006189B21720FFF7D9FD1B20FFF7E8FD77
:1014C00020F00C0081B21B20FFF7D0FD47EA081185
:1014D00041F080015CE644F00C014AF00C0A55E74B
:1014E00044F014014AF0140A50E744F01C014AF099
:1014F0001C0A4BE7FEDFFFFF0C21054A92F83D3046
:101500004B43D118D35C0BB9486870470020704733
:10151000C09E061038B50C4D0A4695F83D4028B1DE
:101520000C2303FB045359682EF07AFB0C23012291
:1015300063431444E4B2042CEA540ABF002385F840
:101540003D4085F83D3038BDC09E0610094A92F8EE
:101550003E1069B90C2092F83C3058430133DBB29D
:10156000042B115402D082F83C30704782F83C10B2
:10157000704700BFC09E06100C21084B93F83C201A
:101580004A4399189A5C22B10022486883F83E20A9
:1015900070470122586B83F83E207047C09E0610AA
:1015A000064B93F83E200AB1986B70470C2193F8D4
:1015B0003C2001FB02339868704700BFC09E0610B4
:1015C00037B5214B04465B69D8031AD5636A228D6F
:1015D000D9064FEA820208D023F01F01013B1344D1
:1015E00023F01F0320335A1A0B46BFF34F8F1648C0
:1015F0001344002AA3EB020121DCBFF34F8FBFF39A
:101600006F8F6178114B20789847FFF79FFFFFF7A6
:10161000B3FF0190FFF7C4FF0546019A6178207877
:101620000B4B984761782078AA080A4B984701220B
:1016300061782078084B03B0BDE830401847C0F807
:101640005C12203AD5E700BF00ED00E0A5BD101008
:10165000B9C2101009C3101091BF1010B0F5FA5F95
:10166000F7B51CD0B0F5FA4F14BF05250325374B4D
:101670000120B1FA81F498474FF041410122084618
:10168000334FB847334901220846B847EB1E640977
:10169000042B07D8DFE803F0050656065800072597
:1016A000E5E70C26304610F0B3FA0223224628461E
:1016B0000021FFF7FFFC284D00212120A847002131
:1016C0002220A847254D0C212120A8470C212220AB
:1016D000A847234B234A01255A6380229A6300229C
:1016E0004FF4007020499A8783F83E200132042A83
:1016F000C3E901101D7001F5007103F10C03F5D170
:1017000000261A4D1A4B28469847294619481A4B65
:10171000AC602E60984701211648184B984701216C
:10172000174B14489847FFF727FF0446FFF738FF89
:10173000144ACDE9004011463046134B134CA047E4
:1017400003B0F0BD1826ADE73026ABE7A12D3D0272
:10175000390011100000084099CF1010B9CF1010B7
:10176000C09E0610409E0610C0950610189E0610DA
:10177000552E3D0200080140A92E3D02492F3D0291
:10178000852E3D02C49D061039273C026D2F3D0277
:1017900008B5FFF7B1FE00B908BD00210846FFF704
:1017A000B9FEF6E7FFF7A8BEFFF7B4BE10B501F02B
:1017B00089F904464FF4FA600FF00CFB0FF0C8FFF4
:1017C0004FF4E1310FF0B8FF094802F0C5F90EF00F
:1017D0003DF90DF069FC204600F024FB054C20602B
:1017E000054802F0B9F92068BDE8104004F000BFD8
:1017F000706C3F02009F0610A56C3F0210B502F00E
:1018000099F9044608F058F868B1622C07D108F03D
:1018100033F8BDE81040094B186804F0E9BEBDE894
:10182000104009F0E5BDFF2C06D0044B2146BDE871
:101830001040186805F026B910BD00BF009F0610C3
:10184000002101200FF014B910B5054C2068036881
:10185000DB6D9847206803689B689847012010BD9E
:10186000049F061008B5054B186803681B69984764
:101870000168034802F070F9012008BD049F0610BA
:10188000686D3F0210B5144C206803689B6A984746
:101890000168124802F060F9206803681B6B9847E2
:1018A00010EE100AFCF75CFD02460B460C4802F0F5
:1018B00053F9206803689B6B98470146094802F07A
:1018C0004BF9206803681B6A98470168064802F0D4
:1018D00043F9012010BD00BF049F0610CF6C3F02EA
:1018E000DE6C3F02F36C3F02076D3F0208B5054B0B
:1018F000186803689B6998470168034802F02CF94F
:10190000012008BD049F0610686D3F0210B50D4C04
:10191000206803681B6D984701680B4802F01CF9AA
:10192000206803681B6C98470168084802F014F9A6
:10193000206803689B6C98470168054802F00CF921
:10194000012010BD049F0610166D3F02256D3F0259
:10195000346D3F0208B5054B186803681B6C984747
:101960000168034802F0F8F8012008BD049F061042
:10197000686D3F0208B5024802F0EEF8012008BD8C
:10198000087F3F022DE9F04F2DED028B754C83B09F
:10199000206801AA036869465B6E9847724802F0A6
:1019A000DBF82068002603689FED708A1B69984762
:1019B00001686F4802F0D0F82068DFF824820368DD
:1019C000DFF82092DB68984701686A4802F0C4F8A3
:1019D000694802F0C1F820680368DB6E9847014649
:1019E000664802F0B9F8664802F0B6F8654802F0B9
:1019F000B3F8019BB3422FD9009B770103EB46124A
:101A00004046128BD95902F0A7F80025DFF8D8A17B
:101A1000009B4FEA850B3B4403EB8502D2ED017A34
:101A2000F4EEC87AF1EE10FA0EDD15B1504602F070
:101A300093F8009B3B445B445868FCF791FC0246DA
:101A40000B46484602F088F80135052DE0D14E4896
:101A500002F082F80136CCE703F0D0FE484802F0ED
:101A60007BF84A4802F078F8494802F075F8444893
:101A700002F072F8474802F06FF8474802F06CF83D
:101A8000464802F069F8464802F066F8454802F018
:101A900063F8454802F060F8394802F05DF84348C1
:101AA00002F05AF8206803689B6A9847016840482A
:101AB00002F052F8206803681B6B984710EE100A7A
:101AC000FCF74EFC02460B463A4802F045F8206807
:101AD00003689B6B98470146374802F03DF8206841
:101AE00003681B6A98470168344802F035F82448B7
:101AF00002F032F8324802F02FF8206803681B6DBC
:101B0000984701682F4802F027F8206803681B6C8B
:101B1000984701682C4802F01FF8206803689B6C06
:101B200098470168294802F017F8154802F014F8A0
:101B3000274802F011F8206803689B6998470168FC
:101B4000244802F009F8244802F006F8234802F07D
:101B500003F80B4802F000F8012003B0BDEC028B43
:101B6000BDE8F08F049F0610436D3F02CDCCCC3D05
:101B70005C6D3F026C6D3F027C6D3F028F6D3F02DA
:101B8000087F3F02AC6D3F02D06F3F02FB6D3F020A
:101B9000126E3F02266E3F02386E3F02456E3F02D4
:101BA000526E3F02606E3F026E6E3F027C6E3F02DD
:101BB000CF6C3F02DE6C3F02F36C3F02076D3F02C9
:101BC0009D6E3F02166D3F02256D3F02346D3F0250
:101BD000BA6E3F02D96E3F02E96E3F02F86E3F02D5
:101BE000C26D3F02F46D3F02507C3F0200292DE997
:101BF000F347054606DC214801F0AEFF012002B0A4
:101C0000BDE8F08700261E4C6946206801AA0368DB
:101C10005B6E9847DDE90079D5F80080B14517D0B3
:101C2000BA46414657F8200BFDF750F970B9DAF87B
:101C30001C3098470546B0B9124801F08DFF29467F
:101C400020680368D3F880309847D7E70136E5E786
:101C50000021404603F004FA58B102F0DBFF0546CC
:101C600008B90948E9E7206804210368D3F88030FF
:101C7000EAE72968054801F06FFFBFE7066F3F02FA
:101C8000049F06101C6F3F023B6F3F02686F3F02CC
:101C900001292DE9F04105460E4605DC254801F0F5
:101CA0005BFF0120BDE8F08100682DF092F9074646
:101CB00068682DF08EF9204C804620680321036867
:101CC000D3F880309847022E29D0AB681B78792B47
:101CD00025D11A4801F040FF2068012603685B6F98
:101CE0009847642001F00CFF4146384602F0C4FEDC
:101CF00005464EB1124801F02FFF642001F000FFAD
:101D0000206803681B6F98475DB90E4801F024FFF7
:101D1000294620680368D3F880309847C1E7002639
:101D2000E2E7094801F018FF206804210368D3F8AE
:101D30008030F2E79C6F3F02049F0610D46F3F0291
:101D4000D36F3F02D86F3F02087F3F02002208B5E1
:101D500010469FED030A114607F010FD002008BD54
:101D600000000000002908B50DDD03681A78A2F113
:101D700079035A425A419FED050A0121002007F0DC
:101D8000FDFC002008BD0022F5E700BF00000000B8
:101D90002DE9F04F0129054689B02DDD1C4B006867
:101DA0001B68DFF87890D3F800812DF012F9044613
:101DB00068682DF00EF90746DFF864A0DFF858B028
:101DC000BC4221D2D8F800302246DD696946102392
:101DD0004046A84700266D46484615F8011B01F00D
:101DE000BBFE0F2E0CBF58465046013601F0B4FE24
:101DF000102EF1D11034E3E70221064801F0ACFEC9
:101E0000012009B0BDE8F08F034801F0A5FEF7E717
:101E1000049F0610F96F3F02087F3F02DE733F0206
:101E200065DF3F0230B54B4B85B0186005F006FB0F
:101E300000240546484B49490193494B02910093C0
:101E4000484A002305F086FA474B28460093CDE91F
:101E500001442346454A464905F07CFA2846CDE927
:101E60000144444B444A4549009405F073FA444BFD
:101E700028460293434B444A0193444B4449009300
:101E8000234605F067FA434B28460293424B434AE8
:101E9000CDE900434249234605F05CFA414B284610
:101EA0000293414B414A0193414B424900932346DF
:101EB00005F050FA404B28460293404B404ACDE98A
:101EC00000434049234605F045FA3F4B284602931C
:101ED0003E4B3F4A01933F4B3F490093234605F059
:101EE00039FA3E4B284602933D4B3E4A01933E4B06
:101EF0003E490093234605F02DFA3D4B28460293B8
:101F00003C4B3D4ACDE900433C49234605F022FACB
:101F10003B4B284602933B4B3B4ACDE900433B49B0
:101F2000234605F017FA2846CDE90144384B394AD3
:101F30003949009405F00EFA384B28460293384B85
:101F4000384ACDE900433849234605F003FA2846CC
:101F500005B030BD049F0610F9313C022D703F02E0
:101F6000DD293C021A703F02FD2A3C0236703F0216
:101F70007A703F02C1293C024C703F0275703F02EB
:101F8000B8703F023D323C0281703F02FD293C02A5
:101F9000A9703F02FA703F02652D3C02DF703F02DC
:101FA000EE703F023D713F029D333C0206713F02DD
:101FB000652A3C0230713F0277713F02092E3C02D4
:101FC00041713F026C713F02C6713F02E1333C0236
:101FD00091713F02852A3C02B7713F02E9713F02CD
:101FE00045343C02D2713F02CD2A3C02E3713F02EC
:101FF0000B723F02ED2A3C02EE713F0205723F0276
:102000002C723F02092F3C0210723F0224723F02E1
:10201000C52E3C0239723F0249723F02A1723F0253
:10202000DD2E3C0254723F0291723F0200F1080320
:1020300073B504460D460360E1B10846FCF750FF56
:102040000F2805EB0006019007D90022204601A9C0
:1020500021F0A0FB019B2060A36032462946206846
:1020600021F030FC00212046019B22686360D1549E
:1020700002B070BD01481BF09BFB00BFAC723F0279
:1020800030B5002989B005DC0B4801F065FD012061
:1020900009B030BD094B01681C6801AA236802A879
:1020A0005D69FFF7C3FF0022204602A9A84702A8E6
:1020B00021F092FB0248E8E7D6723F02049F061027
:1020C000D46F3F022DE9F04F2DED028B022904461B
:1020D0000E4695B008DC4E4801F03EFD012015B0DB
:1020E000BDEC028BBDE8F08F4A4D01682F6808AA4D
:1020F0003B680EA8D3F82C80FFF798FF00223846E3
:102100000EA9C0470EA821F067FB61680EAA02A8BD
:10211000FFF78CFF2F68DDF808803B68D3F8349018
:102120000EF020FED0F800A00EF01CFE00230EA939
:10213000036040462EF0B6FD0E9BB0EE408A9845F7
:1021400002D135481BF037FB0EF00CFE0368222B42
:1021500002D131481BF035FB0EF004FE03681BB9B9
:102160000EF000FEC0F800A0B0EE480A384600218C
:10217000C847A1680EAA08A8FFF758FFD5F8008045
:10218000DDF82090D8F80030D3F83CA00EF0EAFD3E
:10219000D0F800B00EF0E6FD00230A2203600EA97D
:1021A00048462EF0B9FE0E9B0746994501D11B48C3
:1021B000C8E70EF0D7FD0368222B01D11748C9E705
:1021C0000EF0D0FD03681BB90EF0CCFDC0F800B0D6
:1021D000002239464046D047032E0ED02D68E168D4
:1021E0002B6801AA0EA85E6AFFF720FF284600228E
:1021F0000EA9B0470EA821F0EFFA094801F0ACFC97
:1022000008A821F0E9FA02A821F0E6FA66E700BF83
:10221000E9723F02049F06102D733F0232733F02A2
:10222000D46F3F0230B5002989B005DC0B4801F0BE
:1022300093FC012009B030BD094B01681C6801AA5C
:10224000236802A8DD69FFF7F1FE0022204602A9FB
:10225000A84702A821F0C0FA0248E8E7D6723F0278
:10226000049F0610D46F3F02F0B50129044689B0DF
:1022700005DC134801F070FC012009B0F0BD114DE0
:1022800001682E6801AA336802A85F6DFFF7CEFED1
:102290000022304602A9B84702A821F09DFA2D6815
:1022A00061682B6801AA02A8DE6CFFF7BFFE00225E
:1022B000284602A9B04702A821F08EFA0248D9E7C1
:1022C00037733F02049F0610D46F3F0230B50029D8
:1022D00089B005DC0B4801F03FFC012009B030BD9E
:1022E000094B01681C6801AA236802A85D6CFFF70E
:1022F0009DFE0022204602A9A84702A821F06CFA00
:102300000248E8E7D6723F02049F0610D46F3F02EE
:1023100001480FF057BE00BF089F061038307047C5
:102320005030704768307047803070479830704741
:1023300090ED2C0A7047D0F8B4007047B830704761
:10234000D0307047E8307047002070470020704759
:10235000002301200B601360704700F10C02426003
:1023600000228260027370474FF4E130704770477B
:10237000704700207047002070477047002070476A
:1023800000207047006D7047806B7047024B1B68E0
:1023900003B11847704700BF149F06104FF4E13097
:1023A0007047704780F824117047000070B50446EC
:1023B000D0F800010E4603681546DB689847D4F84C
:1023C000003101385B6904F582745843094B23607E
:1023D000094BE3614FF4FA43B0FBF3F0074B208362
:1023E0006360074B0020A360064BE3600123346069
:1023F0002B6070BD60733F02F1033D0200007A461E
:102400000000FA4500007A4510B5044616495030E0
:1024100021F069FC154904F1680021F064FC1349BE
:1024200004F1800021F05FFC104904F1980021F0D4
:102430005AFC0023C4F8B03000230C49C4F8B4306F
:1024400004F1B80021F04FFC084904F1D00021F05C
:102450004AFC04F1E800054921F045FC23682046C8
:10246000BDE810409B6818476B733F0221813F0213
:1024700010B50446FFF7C8FF236820469B689847BD
:1024800023682046BDE810401B68184738B538302F
:10249000154600231F220C4621F05AFC0023286019
:1024A0002354184638BD38B55030154600231F2236
:1024B0000C4621F04DFC002328602354184638BDFB
:1024C00038B505464FF46D7001F073FB04460028E3
:1024D00052D04FF46D7200212DF0C9FB8022696843
:1024E00020462DF08BFD8022E969A0182DF086FD95
:1024F00095F83430802284F80031D5F8B03004F5F6
:102500008670C4F80431D5F8B430C4F80831D5F871
:1025100098102DF073FD2122D5F8801004F5C670B7
:102520002DF06CFD8022D5F8B81004F2AD102DF01E
:1025300065FD8022D5F8D01004F22D202DF05EFD2F
:102540008022D5F8E81004F2AD202DF057FD80224E
:10255000A96E04F22D302DF051FD084B4FF46D7231
:10256000C4F8B033D5F80001214603685B69984789
:10257000204601F022FB012038BD00BFEFBEADDEDA
:1025800030B5054689B04FF46D7001F012FB04467A
:10259000002800F09A804FF46D7200212DF067FB47
:1025A000D5F800014FF46D72036821469B69984786
:1025B000D4F8B023464B9A4240F08180802201AB90
:1025C000214602A821F0B2FD02A9281D21F0F5F94B
:1025D00002A821F001F9802201ABA11802A821F084
:1025E000A5FD02A905F11C0021F0E7F902A821F0E0
:1025F000F3F894F80031802285F83430D4F80431AF
:1026000004F58671C5F8B030D4F8083102A8C5F8D1
:10261000B43001AB21F08AFD02A905F1980021F048
:10262000CCF902A821F0D8F8212201AB04F5C6713B
:1026300002A821F07BFD02A905F1800021F0BDF97F
:1026400002A821F0C9F8802201AB04F2AD1102A862
:1026500021F06CFD02A905F1B80021F0AEF902A845
:1026600021F0BAF8802201AB04F22D2102A821F05A
:102670005DFD02A905F1D00021F09FF902A821F02B
:10268000ABF8802201AB04F2AD2102A821F04EFD8F
:1026900002A905F1E80021F090F902A821F09CF8C8
:1026A000802201AB04F22D3102A821F03FFD02A9E6
:1026B00005F1680021F081F902A821F08DF820468B
:1026C00009B0BDE8304001F078BA09B030BD00BFB4
:1026D000EFBEADDE436913B183690C301847704714
:1026E00013B50021044608460DF0A4FE0023204641
:1026F00001A901930DF0C8FE019C0CB101232371C7
:10270000002101200DF096FE2CB1236820469B6825
:1027100098470023237102B010BD80ED2C0A11B13F
:1027200003681B6818477047C0F8B41012B10368FB
:102730001B681847704770B515460446E83021F00D
:10274000C6F82DB123682046BDE870401B681847C5
:1027500070BD70B515460446D03021F0B8F82DB1E3
:1027600023682046BDE870401B68184770BD70B5EF
:1027700015460446B83021F0AAF82DB1236820464A
:10278000BDE870401B68184770BD70B5154604461B
:10279000983021F09CF82DB123682046BDE87040A8
:1027A0001B68184770BD70B515460446803021F08F
:1027B0008EF82DB123682046BDE870401B6818478D
:1027C00070BD70B515460446683021F080F82DB113
:1027D00023682046BDE870401B68184770BD70B57F
:1027E00015460446503021F072F82DB1236820467A
:1027F000BDE870401B68184770BD012A02D1016016
:1028000000207047022A04BF0B680360F8E70368E2
:10281000184710B58368044613B103220146984750
:10282000204610BD07B58068002340B1CDE90013F4
:102830001A4602210DF036FEB0FA80F0400903B0CE
:102840005DF804FB13B5124C124BA068196058B127
:102850006FF000430022FDEEC07ACDE90032032183
:1028600017EE903A0DF01EFE00210948FFF7DAFF3F
:10287000A068002350B16FF0004219460092019306
:102880001A460DF00FFEB0FA80F0400902B010BDFC
:10289000189F0610149F061010B504466FF00041F3
:1028A0000548FFF7BFFF236820460021D3F880309A
:1028B0009847012010BD00BF189F061038B50F4B78
:1028C0000446036083689BB16FF00041FFF7AAFFE5
:1028D0000021A0680DF010FE237903F0FF0513B16D
:1028E0000DF09AFDF8E72946A0680DF0BFFDA56040
:1028F00004F10C00FFF78DFF204638BD9C743F02A9
:1029000010B50446FFF7DAFF20461C21FCF715FB43
:10291000204610BD10B50446144B40F8E83B20F0AB
:102920005BFF04F1D00020F057FF04F1B80020F065
:1029300053FF04F1980020F04FFF04F1800020F0D5
:102940004BFF04F1680020F047FF04F1500020F035
:1029500043FF04F1380020F03FFF04F11C0020F099
:102960003BFF201D20F038FF204610BDF8733F02CA
:102970000148FFF7CFBF00BF349F061037B50446AC
:10298000214B01AA40F8043B2049FFF74FFB01AA65
:102990001E4904F11C00FFF749FB00231C4D84F87D
:1029A000343001AA1B4904F13800FFF73FFB01AAAC
:1029B000194904F15000FFF739FB294601AA04F137
:1029C0006800FFF733FB01AA144904F18000FFF708
:1029D0002DFB01AA124904F19800FFF727FB01AA79
:1029E000104904F1B800FFF721FB294601AA04F1C0
:1029F000D000FFF71BFB0C4901AA04F1E800FFF728
:102A000015FB204603B030BDF8733F0221813F0221
:102A10009C733F027D733F028A733F02A1733F02A2
:102A2000AF733F02DE713F02B4733F02002210B564
:102A3000154B92B00446114658680EF051F890F8C4
:102A40005C2090F85730049290F85B20122103929A
:102A500090F85A20029290F85920019290F858204C
:102A600007A80092094A0EF029F906AA07A90CA89E
:102A7000FFF7DCFA0CA904F1500020F09EFF0CA82F
:102A800020F0AAFE12B010BD7C970710C5733F025C
:102A900038B504460D46FFF771FF084B204623600A
:102AA000C4F80051FFF7C2FF2046FFF769FD044953
:102AB00004F1380021F017F9204638BDB0743F0208
:102AC000E3733F0210B5134CD4E88F3FDA070BD401
:102AD0002046FCF745FA38B14FF46D710E4800F00E
:102AE000F5F82046FCF741FA0C4CD4E88F3FDB07A1
:102AF0000DD42046FCF734FA48B107490848FFF7DF
:102B0000C7FF2046FCF731FA06482CF059FA044872
:102B100010BD00BF109F06105CA006100C9F061091
:102B2000349F0610E93A3C0213B5044624220021E2
:102B30002DF09DF8044901AA201DFFF777FA002324
:102B40002046236202B010BD21813F0270B5174BB1
:102B500088B00493164A174B04AC1A60002294E81C
:102B6000030002AE86E8030003F10C0595E80300BC
:102B700084E8030096E8030085E803000E491A7113
:102B8000596199699A6007910C490692996103F11C
:102B900008004FF47A71CDE90022094A0DF058FC83
:102BA0002046FFF736FE08B070BD00BF05353C0279
:102BB0009C743F02189F061073393C0287393C020F
:102BC00059383C0200207047D0E90202101A7047C1
:102BD000D0E9022340699B1A5843704738B503680F
:102BE00014461D6813460022A847031B584258414B
:102BF00038BD70B4046885684669246806FB052200
:102C0000A44670BC604770B404688568466964680F
:102C100006FB0522A44670BC604730B48468456951
:102C2000036805FB041130BC9B68184738B504469F
:102C300025690846AD1A9D4228BF1D461146034B23
:102C40002A4619442CF0ECFF284638BD78A006101F
:102C500068B505691646AD1A9D4228BF1D46034852
:102C60002A4630442CF0DCFF284668BD78A00610C8
:102C700038B503690C465B1A934228BF13461D46BC
:102C800003481A46002120442CF0F1FF284638BDA5
:102C900078A00610F8B51446866842690368564362
:102CA0000F46324600219B6805469847B0420AD13C
:102CB0002B6800225E68394623462846B047231A0F
:102CC00058425841F8BD0020FCE70000B1F5007FF4
:102CD00010B5044641601ED307EE901AFBEEEB7A66
:102CE00017EE900AFBF73CFB41EC100B28F0F0FAD2
:102CF00051EC100BFBF764FE70224FF460434FF46D
:102D00000071C4E903230A23C4E90513034BA0603F
:102D10002360204610BD0120EEE700BF54753F023E
:102D200010B50446006818B1237B0BB100F045FFD5
:102D3000204610BD2DE9F04391B0189C154662085D
:102D400001329A4207460E4640F09E808C424FD890
:102D500000284DD00023804602908DF814300123C6
:102D60000298CDE9033400286CD0B8F1000F0FD1E0
:102D7000A64228BF26464FEA86094A4639462CF025
:102D80004FFF0298A61B4146B20048442CF06FFF4B
:102D9000202C77D0402C36D0802C73D0B4F5807F97
:102DA00070D0B4F5007F6DD0B4F5806F6AD0B4F503
:102DB000006F67D0B4F5805F64D00AAB0093002346
:102DC00020461A461946029E00F04AFD0446002895
:102DD00038D02A46314600F01BFE204600F0EDFEBA
:102DE000002402A8FFF79CFF204611B0BDE8F08345
:102DF0000121A00000F0DFFE01234FF00008029047
:102E00008DF81430ABE72023ADF828301F4B01219B
:102E10009A894FF48070ADF834209A685B680C9200
:102E20000B931B4BADF838400F9300F0C4FE012309
:102E30000246CDE9073406908DF8243020B906A863
:102E4000FFF76EFF134CCCE7002302990AA8FDF7A9
:102E500039FA069B1A682A6000226A605968C5F828
:102E60000421C5F8001103F1F80299680833A9603C
:102E700059689342E96005F10805F6D106A8FFF705
:102E80004FFFADE7044CACE7044CADE7A46B3F0249
:102E9000A46A3F0216FCFFFF08FCFFFF11FCFFFFC6
:102EA0002DE9F04F2DED048B4D0887B005F1010998
:102EB00003900E464FEA81084FEAC900012100F055
:102EC0007AFE0746F8B10121404600F074FE044640
:102ED000B0B10246039B00EB08010493AB000593DD
:102EE000039B00EB850C624503F108030ED053F8F9
:102EF000080C42F8040B53F8040C41F8040DF2E7F7
:102F0000384600F05AFEDFF8188117E0F30706D5BF
:102F1000039B9844059B58F8042CE3181A604B4611
:102F20003A46314620460096FFF704FF804658B1E6
:102F3000204600F042FE384600F03FFE404607B013
:102F4000BDEC048BBDE8F08F7000FBF7E7F9BB46E2
:102F500041EC190BC2465046FBF7E0F92EA3D3E92A
:102F60000023FBF755FA53EC192BFBF77BFBFBF720
:102F700047FD00EE100A08EE100A28F021FCF0EEE2
:102F8000408AB0EE480A28F08DFCDBED017A5B4602
:102F900060EE277A93ED007AE7EE287A049B0AF137
:102FA000010AE3EC017AD1450BF1080B0493D2D866
:102FB000059B751B03F1040A039B07EBC5055344EE
:102FC0009A46B145B4D24846FBF7A8F912A3D3E913
:102FD0000023FBF71DFA53EC192BFBF743FBFBF720
:102FE0000FFD00EE100A08EE100A28F0E9FBF0EEE3
:102FF000408AB0EE480A28F055FC55ED017A15EDEF
:10300000027A67EEC07AE7EE287A083DEAEC017AA8
:1030100009F10109D5E700BF182D4454FB210940EF
:1030200016FCFFFF2DE9F04F2DED088B164689B0F9
:10303000DDE91A250F46D2F804A01168BAF1010F94
:103040000AFB01F9039106FB03F1044600EBC909F1
:103050004FEAC10816D1034697E8030083E803004E
:10306000083399454744F7D105F584730593039BCD
:10307000023B032B00F28A82DFE813F01B005600AC
:10308000FB009B0108320492039A4FEACA0B724379
:103090000499019500913946CDE906230590FFF783
:1030A000C1FFDDE906230598474458448145EFD127
:1030B000DAE70AF1010304EBC303F6000834D5EDA7
:1030C000436A53ED015AD5ED427A13ED026A26EEBA
:1030D000E57AA6EE277A67EEA57AE6EE267A54ED33
:1030E000026A76EEC76A43ED026A54ED016A76EE33
:1030F000E76A43ED016A54ED026A36EE877A04ED21
:10310000027A14ED017A77EE277ABAF1010A44EDDA
:10311000017A03F1080304F108043544CFD109B062
:10312000BDEC088BBDE8F08F06FB0AF305EBC3038B
:1031300093ED439A04EBCA08330104EB0A194FEAF2
:10314000C60B04F1080644465746F1EE499AAA46D2
:1031500003930434D8ED017AD5ED436A66EEE78A2D
:1031600014ED016A95ED428AB0EE687AA6EE087A0F
:1031700028EE278AF0EE487AD9ED015AE6EE267A53
:10318000DAED436A99ED006A9AED428A66EEE58AC5
:10319000E6EE088A28EE258AA6EE268A56F8080C5E
:1031A00037EE88AA77EE28AA37EEC88A77EE688AC3
:1031B000FBF7D6F841EC1B0B1AEE900AFBF7D0F8A0
:1031C0000022F14BFBF724F902460B4651EC1B0B96
:1031D000FAF766FFFBF714FC44F8040C56F8040CED
:1031E000FBF7BEF841EC1B0B1AEE100AFBF7B8F820
:1031F0000022E54BFBF70CF90B46024651EC1B0B8A
:10320000FAF74EFFFBF7FCFBC8F8040056ED027A14
:1032100077EEAA7A46ED027A56ED017A77EE8A7A4F
:1032200046ED017A54ED017AE9EE087AC9ED007AAB
:10323000D8ED017AE9EEA87AC9ED017A54ED017A68
:10324000E9EE887A44ED017AD8ED017AE9EE287A40
:10325000C8ED017A039B013F06F1080608F1080852
:103260005D4409F108099A4404F108047FF472AF3F
:1032700055E718225746A946AE46A8464FEAC60B60
:103280004FEA061A564304EB071004EBC70100EBA4
:10329000C70304F1040C91ED017AD9ED436A91ED75
:1032A000005AD9ED427A26EEC76AA5EE276A67EE84
:1032B000877AE5EE267AD0ED014AB0EE677AD8ED4E
:1032C000437A90ED005AF0EE465A67EEE46A98EDC4
:1032D000426AE5EE066A26EE246AD3ED013AA5EECF
:1032E000276A9EED435AD3ED004ADEED427A25EE81
:1032F000634A1CED013AA4EEA74A67EEA37AD4ED27
:10330000013AE4EE857A73EE664A76EE836A35EE2C
:10331000843A4CED016A33EEC65A76EEC36A36EE55
:10332000236A84ED016AC0ED006A77EE273A35EE34
:10333000C46AD4ED015A75EEE35AC0ED015A5CED52
:10334000016A76EE836A4CED016A77EE677A94ED56
:10335000017A37EE237A84ED017A6A6874EEA76AFF
:1033600035EE467A74EEE77A35EE066AC2B1C1ED03
:10337000007A81ED016AC3ED006A83ED017A013FB5
:1033800004F1080401F10801D94400F10800D04417
:1033900003F10803B6440CF1080C7FF47CAFBEE6E1
:1033A000C1ED006A81ED017AC3ED007A83ED016A17
:1033B000E5E70AFB06F3059AAC4602EBC30797ED77
:1033C000012AF20003921822AE46A8464FF00009E7
:1033D000F1EE420A7243D7ED001A07EBC30704EB84
:1033E0000A1397ED001AD7ED012A4FEA061B04EBEA
:1033F000CA0703EBCA0103EB0A1004927601CA451F
:1034000004F1080407F1080703F1080301F10801BA
:1034100000F108007FF783AED5ED436A57ED013A1E
:10342000D5ED425A17ED026A26EEE33AA6EE253AAA
:1034300065EEA35AE6EE265AD8ED424A53ED016AEC
:10344000F0EE653AD8ED435A13ED025A25EEE66ADE
:1034500064EEA66AE5EE256AA5EE246ADEED435A1F
:10346000F0EE664A51ED016A9EED425A11ED024AB4
:10347000F0EE468A25EEE66AA4EE056A25EE265AA7
:10348000DCED436AA4EE255A50ED015A9CED424A08
:10349000F0EE439AB0EE460A26EEE53A10ED026AE7
:1034A000A6EE043A64EE255A39EE83AA39EEC33A01
:1034B00078EE809A14ED027A34EE858AE6EE265A8A
:1034C00074EEC56A3AEE295A33EEA59A35EE075ADC
:1034D00054ED017A04ED025A39EE085AF0EE474AEB
:1034E00035EE275A38EEC06A04ED015A73EEE55AFC
:1034F000B0EE675A62EEA63AE1EE8A4AE2EE253A6B
:10350000E1EE294A26EE624AA1EE895AA1EE0A7A34
:1035100065EEE25A34EEE30AE2EE265AA1EE085ACC
:10352000A0EE834AA1EEA97A66EE426AE1EE097A3C
:1035300007ED020A37EE256A35EE440AE1EE887A95
:10354000E2EE836A74EEA34A35EE045A07ED010AEF
:1035500037EE657A40ED024A00ED015A03ED026A4A
:1035600037EEA66A77EEE67A039A03ED016A154410
:10357000049A01ED027A41ED017A09F10109D8447A
:103580009644B4443BE700BF0000E03F2B6804933F
:10359000039B4FEAC30B584600F00BFB4FF0000CA7
:1035A000034665464FEACA0207920AFB06F28344C5
:1035B0000692AA4551DDAE4600220399914238DCBD
:1035C000E6464FF0000804EBC5020399414541DD92
:1035D00093E8030082E80300002103F10800584546
:1035E00031D0049F71448F42D8BFC91B059F90ED15
:1035F000015A07EBC10999ED016AD0ED005AD9EDE6
:10360000007A26EE457AA5EEA77AF0EE476A92EDAB
:10361000007A67EE857A37EE267AE5EE867A82EDD5
:10362000007A92ED017A77EE277A0830C2ED017ABE
:10363000D5E703EBC20804EBCE0103C9D64488E802
:1036400003000132B9E7079908F101080A44069915
:103650008E44BAE70135B444ABE7184609B0BDEC77
:10366000088BBDE8F04F00F0A8BA00BF00000000D2
:103670002DE9F84F00F121072DED028B04460E468F
:103680001546DDF830B0FF00002B3DD1384600F084
:1036900090FA0546D0B3C5E9004605F5847A002EB8
:1036A00044D056464FF0000A2046FAF747FEA2459E
:1036B0008046894606F1080667DA5046FAF73EFE6C
:1036C0004BA3D3E90023FAF7A3FE42464B46FAF791
:1036D000C9FF41EC100B41EC180B27F079FE51ECBF
:1036E000100BFBF78DF9B0EE480AF0EE680A46F8C9
:1036F000080C27F0DDFF51EC100BFBF781F90AF104
:10370000010A46F8040CCFE752B91F60BBF1000F65
:1037100001D0CBF800702846BDEC028BBDE8F88FD5
:103720001A681F60BA42B6D20025EFE72046FAF7C2
:1037300005FEA642804689460AF1080A25DA304687
:10374000FAF7FCFD2CA3D3E90023FAF761FE424609
:103750004B46FAF787FF41EC100B41EC180B27F0B2
:1037600037FE51EC100BFBF74BF9B0EE480AF0EEC8
:10377000680A4AF8080C27F09BFF51EC100BFBF786
:103780003FF901364AF8040CD0E72046FAF7D6FD97
:1037900041EC100B28F09EF927F07AFE042659EC34
:1037A000108B05F1080A94FBF6F306FB1342AAB14D
:1037B000022E0FD0042E0FD002363046FAF7BEFD8F
:1037C00002460B4640464946FBF794F8002818BFCE
:1037D0002646E8E70326F0E70226EEE7012B1C4623
:1037E000CAE9006392DD0AF1080ADCE7AFF3008062
:1037F000182D4454FB211940182D4454FB2119C0A5
:103800002DE9F341044691420D4610461F4604F14E
:10381000080817D12068C00000F0CBF906463B46E7
:1038200029460122CDE90084FFF7FCFB22683146DE
:103830002846D2002CF0F4F9304602B0BDE8F04141
:1038400000F0BBB90122CDE90084FFF7EBFB02B029
:10385000BDE8F0810123FFF7D3BF000000000000A6
:103860002DE9F04F2DED028B002585B010F0010AF7
:103870008B4614461F46039509D0634800F06CF947
:103880002C46204605B0BDEC028BBDE8F08F4510FC
:1038900003AB52462846CDF800A0FFF7E9FE05EB42
:1038A0004506039B06EBD67676100C3303EBC60673
:1038B000002F58D1304600F07CF90446002CE0D0AF
:1038C00004F10C022260039B59461344636003EB2E
:1038D000C503A36000232846009305EBD57703AB0F
:1038E000FFF7C6FE7F10BBF1000F42D057457DDDCC
:1038F0000AF1010A5046FAF721FD8046284689461A
:10390000FAF71CFD02460B4640464946FAF7AAFE66
:1039100000223E4BFAF7C6FB37A3D3E90023FAF7A0
:1039200077FD41EC100B41EC180B27F051FD4FEAED
:10393000CA08A36851EC100BA8F1080803EB0809AA
:10394000FBF75EF8B0EE480AF0EE680AC9F800002E
:1039500027F0AEFEA36851EC100B9844FBF750F82B
:10396000C8F80400C2E73B683E60B342A6D25446A2
:1039700087E75F453ADD0BF1010B5846FAF7DEFCAD
:10398000804628468946FAF7D9FC02460B4640464F
:103990004946FAF767FE00221C4BFAF783FB18A38F
:1039A000D3E90023FAF734FD41EC100B41EC180B7E
:1039B00027F00EFD4FEACB08A36851EC100BA8F1DD
:1039C000080803EB0809FBF71BF8B0EE480AF0EE15
:1039D000680AC9F8000027F06BFEA36851EC100BD1
:1039E0009844FBF70DF8C8F80400C2E7109B002BC1
:1039F0003FF447AF1E6044E7182D4454FB210940B3
:103A0000182D4454FB2109C080753F020000E03F9F
:103A1000F7B5036804465B68164623B13648019142
:103A200000F09AF80199206862680568FFF712FFB4
:103A300063680022D3ED007A93ED017A77EE876A0E
:103A400077EEC77A06EBC503C6ED006AC3ED007AD0
:103A500072605A606FF007020127B6EE006A05EB4C
:103A6000D5756D1006F1080C921BBD420CF1080CC7
:103A70003FDB6168F80001EBC706D6ED015AD6EDD1
:103A8000006AD6183144D1ED004AD1ED017AA1681F
:103A90000838014434EEA67A35EEE75A76EEE46A49
:103AA00077EEA57AD1ED014A91ED004A64EEE75A2E
:103AB00067EE847AE6EE845AE6EEA47A77EE256A1B
:103AC00066EE866A37EE657A4CED026A77EE856AB5
