:02000004085D95
:1010000000105D08FCFF5F080000060020000501DD
:0810100004017D150000000041
:101018001348144908B5884205D0134A824202D0C1
:10102800124B121A98471248124A0021124B121AF0
:10103800984712481249884205D0124A824202D083
:101048000A4B121A984710481049884205D0104A8E
:10105800824202D0054B121A9847014808BD00BFCA
:1010680060B9061010EE5F08D0BE06102D0D1110E5
:10107800E0C60610F4AF0710A10E111090223D0231
:10108800B0105D0898223D02A0223D02B8105D080C
:0C109800F8FF3F0219105D080000000086
:0810A400A01CE079010000002E
:0810B0009C105D08D0A23F0274
:1010B80081F0004102E000BF83F0004330B54FEA01
:1010C80041044FEA430594EA050F08BF90EA020F6E
:1010D8001FBF54EA000C55EA020C7FEA645C7FEA01
:1010E800655C00F0E2804FEA5454D4EB5555B8BF24
:1010F8006D420CDD2C4480EA020281EA030382EA95
:10110800000083EA010180EA020281EA0303362D26
:1011180088BF30BD11F0004F4FEA01314FF4801CF9
:101128004CEA113102D0404261EB410113F0004F0B
:101138004FEA03334CEA133302D0524263EB4303C2
:1011480094EA050F00F0A780A4F10104D5F1200E60
:101158000DDB02FA0EFC22FA05F2801841F10001BB
:1011680003FA0EF2801843FA05F359410EE0A5F18F
:1011780020050EF1200E012A03FA0EFC28BF4CF0C0
:10118800020C43FA05F3C01851EBE37101F0004576
:1011980007D54FF0000EDCF1000C7EEB00006EEB83
:1011A8000101B1F5801F1BD3B1F5001F0CD349080D
:1011B8005FEA30004FEA3C0C04F101044FEA445264
:1011C80012F5800F80F09A80BCF1004F08BF5FEAEB
:1011D800500C50F1000041EB045141EA050130BDCB
:1011E8005FEA4C0C404141EB0101013C28BFB1F5DD
:1011F800801FE9D291F0000F04BF01460020B1FA28
:1012080081F308BF2033A3F10B03B3F120020CDAFA
:101218000C3208DD02F1140CC2F10C0201FA0CF0D8
:1012280021FA02F10CE002F11402D8BFC2F1200C3D
:1012380001FA02F120FA0CFCDCBF41EA0C019040F3
:10124800E41AA2BF01EB0451294330BD6FEA04043C
:101258001F3C1CDA0C340EDC04F11404C4F1200227
:1012680020FA04F001FA02F340EA030021FA04F339
:1012780045EA030130BDC4F10C04C4F1200220FA90
:1012880002F001FA04F340EA0300294630BD21FACE
:1012980004F0294630BD94F0000F83F4801306BF94
:1012A80081F480110134013D4EE77FEA645C18BF88
:1012B8007FEA655C29D094EA050F08BF90EA020F1F
:1012C80005D054EA000C04BF1946104630BD91EA17
:1012D800030F1EBF0021002030BD5FEA545C05D11A
:1012E8004000494128BF41F0004130BD14F5800459
:1012F8003CBF01F5801130BD01F0004545F0FE41CD
:1013080041F470014FF0000030BD7FEA645C1ABF01
:10131800194610467FEA655C1CBF0B46024650EA38
:10132800013406BF52EA033591EA030F41F4002164
:1013380030BD00BF90F0000F04BF0021704730B5EA
:101348004FF4806404F132044FF000054FF00001BF
:1013580050E700BF90F0000F04BF0021704730B580
:101368004FF4806404F1320410F0004548BF404255
:101378004FF000013EE700BF42004FEAE2014FEAAA
:1013880031014FEA02701FBF12F07F4393F07F4F85
:1013980081F06051704732F07F4208BF704793F088
:1013A8007F4F04BF41F40021704730B54FF460749B
:1013B80001F0004521F000411CE700BF50EA01029E
:1013C80008BF704730B54FF000050AE050EA010247
:1013D80008BF704730B511F0004502D5404261EBB7
:1013E80041014FF4806404F132045FEA915C3FF4F8
:1013F800D8AE4FF003025FEADC0C18BF03325FEA95
:10140800DC0C18BF033202EBDC02C2F1200300FA45
:1014180003FC20FA02F001FA03FE40EA0E0021FA6A
:1014280002F11444BDE600BF70B54FF0FF0C4CF458
:10143800E06C1CEA11541DBF1CEA135594EA0C0F0A
:1014480095EA0C0F00F0DEF82C4481EA030621EA45
:101458004C5123EA4C5350EA013518BF52EA033580
:1014680041F4801143F4801338D0A0FB02CE4FF032
:101478000005E1FB02E506F00042E0FB03E54FF062
:101488000006E1FB03569CF0000F18BF4EF0010E5A
:10149800A4F1FF04B6F5007F64F5407404D25FEA56
:1014A8004E0E6D4146EB060642EAC62141EA555109
:1014B8004FEAC52040EA5E504FEACE2EB4F1FD0C4B
:1014C80088BFBCF5E06F1ED8BEF1004F08BF5FEAC9
:1014D800500E50F1000041EB045170BD06F000467B
:1014E80046EA010140EA020081EA0301B4EB5C0428
:1014F800C2BFD4EB0C0541EA045170BD41F4801120
:101508004FF0000E013C00F3AB8014F1360FDEBF44
:10151800002001F0004170BDC4F10004203C35DA20
:101528000C341BDC04F11404C4F1200500FA05F3A3
:1015380020FA04F001FA05F240EA020001F0004244
:1015480021F0004110EBD37021FA04F642EB0601BA
:101558005EEA430E08BF20EAD37070BDC4F10C04E4
:10156800C4F1200500FA04F320FA05F001FA04F2A8
:1015780040EA020001F0004110EBD37041F1000194
:101588005EEA430E08BF20EAD37070BDC4F120059F
:1015980000FA05F24EEA020E20FA04F301FA05F207
:1015A80043EA020321FA04F001F0004121FA04F2AF
:1015B80020EA020000EBD3705EEA430E08BF20EA7F
:1015C800D37070BD94F0000F0FD101F000464000B9
:1015D80041EB010111F4801F08BF013CF7D041EA3B
:1015E800060195F0000F18BF704703F0004652003F
:1015F80043EB030313F4801F08BF013DF7D043EA10
:101608000603704794EA0C0F0CEA135518BF95EAC5
:101618000C0F0CD050EA410618BF52EA4306D1D14C
:1016280081EA030101F000414FF0000070BD50EA6B
:10163800410606BF1046194652EA430619D094EAF5
:101648000C0F02D150EA013613D195EA0C0F05D1DF
:1016580052EA03361CBF104619460AD181EA030133
:1016680001F0004141F0FE4141F470014FF00000EB
:1016780070BD41F0FE4141F4780170BD70B54FF086
:10168800FF0C4CF4E06C1CEA11541DBF1CEA135506
:1016980094EA0C0F95EA0C0F00F0A7F8A4EB0504E8
:1016A80081EA030E52EA03354FEA013100F08880DF
:1016B8004FEA03334FF0805545EA131343EA1263A8
:1016C8004FEA022245EA111545EA10654FEA00265D
:1016D8000EF000419D4208BF964244F1FD0404F516
:1016E800407402D25B084FEA3202B61A65EB030572
:1016F8005B084FEA32024FF480104FF4002CB6EB2F
:10170800020E75EB030E22BFB61A754640EA0C00AE
:101718005B084FEA3202B6EB020E75EB030E22BFEE
:10172800B61A754640EA5C005B084FEA3202B6EB2F
:10173800020E75EB030E22BFB61A754640EA9C00EE
:101748005B084FEA3202B6EB020E75EB030E22BFBE
:10175800B61A754640EADC0055EA060E18D04FEA7C
:10176800051545EA16754FEA06164FEAC30343EA1C
:1017780052734FEAC2025FEA1C1CC0D111F4801FE9
:101788000BD141EA00014FF000004FF0004CB6E7E2
:1017980011F4801F04BF01430020B4F1FD0C88BF81
:1017A800BCF5E06F3FF6AFAEB5EB030C04BFB6EB8C
:1017B800020C5FEA500C50F1000041EB045170BD7F
:1017C8000EF0004E4EEA113114EB5C04C2BFD4EBAC
:1017D8000C0541EA045170BD41F480114FF0000E30
:1017E800013C90E645EA060E8DE60CEA135594EAAC
:1017F8000C0F08BF95EA0C0F3FF43BAF94EA0C0FAF
:101808000AD150EA01347FF434AF95EA0C0F7FF423
:1018180025AF104619462CE795EA0C0F06D152EA77
:1018280003353FF4FDAE1046194622E750EA41065B
:1018380018BF52EA43067FF4C5AE50EA41047FF46C
:101848000DAF52EA43057FF4EBAE12E74FF0FF3CD1
:1018580006E000BF4FF0010C02E000BF4FF0010CA2
:101868004DF804CD4FEA410C7FEA6C5C4FEA430C1B
:1018780018BF7FEA6C5C1BD001B050EA410C0CBF6A
:1018880052EA430C91EA030F02BF90EA020F0020CC
:10189800704710F1000F91EA030F58BF994208BF33
:1018A80090422CBFD8176FEAE37040F001007047F0
:1018B8004FEA410C7FEA6C5C02D150EA013C07D147
:1018C8004FEA430C7FEA6C5CD6D152EA033CD3D092
:1018D8005DF8040B704700BF8446104662468C468C
:1018E8001946634600E000BF01B5FFF7B7FF0028BF
:1018F80048BF10F1000F01BD4DF808EDFFF7F4FFE8
:101908000CBF012000205DF808FB00BF4DF808ED72
:10191800FFF7EAFF34BF012000205DF808FB00BF95
:101928004DF808EDFFF7E0FF94BF012000205DF8B7
:1019380008FB00BF4DF808EDFFF7CEFF94BF01206C
:1019480000205DF808FB00BF4DF808EDFFF7C4FF65
:1019580034BF012000205DF808FB00BF4FEA410CAE
:101968007FEA6C5C02D150EA013C0AD14FEA430C91
:101978007FEA6C5C02D152EA033C02D14FF00000CE
:1019880070474FF0010070474FEA410212F500120C
:1019980015D211D56FF47873B3EB625212D94FEAAE
:1019A800C12343F0004343EA505311F0004F23FA98
:1019B80002F018BF404270474FF00000704750EAED
:1019C800013005D111F0004008BF6FF000407047AA
:1019D8004FF00000704700BF4A0011D212F5001204
:1019E80011D20DD56FF47873B3EB62520ED44FEA6F
:1019F800C12343F0004343EA505323FA02F07047EF
:101A08004FF00000704750EA013002D14FF0FF302C
:101A180070474FF0000070474FEA4102B2F1E043CF
:101A280024BFB3F5001CDCF1FE5C0DD901F0004CBD
:101A38004FEAC0024CEA5070B2F1004F40EB83000D
:101A480008BF20F00100704711F0804F21D113F139
:101A58003872BCBF01F00040704741F480114FEA72
:101A68005252C2F11802C2F1200C10FA0CF320FAFB
:101A780002F018BF40F001004FEAC1234FEAD32318
:101A880003FA0CFC40EA0C0023FA02F34FEA430382
:101A9800CCE77FEA625307D150EA01331EBF4FF00B
:101AA800FE4040F44000704701F0004040F0FE4026
:101AB80040F40000704700BF53B94AB9002908BF75
:101AC80000281CBF4FF0FF314FF0FF3000F0B8B9CD
:101AD800ADF1080C6DE904CE00F03CF8DDF804E047
:101AE800DDE9022304B0704738B50022002304461C
:101AF8000D46FFF70BFF28B920462946BDE83840B8
:101B080000F00AB8204605F1004100F005F840420F
:101B180061EB410138BD00BFD0B500220B4B064632
:101B28000F46FFF781FCFFF757FF0446FFF702FC5B
:101B38000022074BFFF778FC02460B463046394631
:101B4800FFF7BAFAFFF748FF2146D0BD0000F03D85
:101B58000000F0412DE9F04F099D04460F46002B87
:101B680048D18A42944661D9B2FA82F343B1C3F1AB
:101B780020019F4002FA03FC9C4020FA01F10F4328
:101B88004FEA1C411FFA8CFE220CB7FBF1F601FB51
:101B9800167706FB0EF042EA0742904208D91CEB82
:101BA800020206F1FF3702D2904200F237813E4628
:101BB800121AA4B2B2FBF1F001FB102200FB0EFED8
:101BC80044EA0244A64508D91CEB040400F1FF329C
:101BD80002D2A64500F21C81104640EA0640A4EB5A
:101BE8000E0400261DB1DC400023C5E90043314640
:101BF800BDE8F08F8B4209D9002D00F0FD8000264A
:101C0800C5E9000130463146BDE8F08FB3FA83F6E6
:101C1800002E4BD18B42C0F0F280824240F2EF801E
:101C28003046002DE3D0C5E90047E0E702B9FFDE02
:101C3800B2FA82F3002B40F09D80891A4FEA124EC7
:101C480097B20126200CB1FBFEF20EFB121140EAFE
:101C5800014107FB02F088420FD91CEB010102F198
:101C6800FF382CBF4FF001094FF00009884203D913
:101C7800B9F1000F00F0CF804246091AA4B2B1FBB7
:101C8800FEF00EFB101100FB07F744EA0144A742DF
:101C980008D91CEB040400F1FF3102D2A74200F27C
:101CA800B4800846E41B40EA02409BE7C6F12007DF
:101CB800B34001FA06F422FA07FCF940B2404CEAB4
:101CC800030C20FA07F34FEA1C491C431FFA8CFE49
:101CD80000FA06F3200CB1FBF9F809FB181140EAE9
:101CE800014108FB0EF088420FD91CEB010108F1F5
:101CF800FF3A2CBF4FF0010B4FF0000B884203D97D
:101D0800BBF1000F00F08D80D046091AA4B2B1FBD8
:101D1800F9F009FB101100FB0EFE44EA01418E4563
:101D280007D91CEB010100F1FF3401D28E457FD8A1
:101D3800204640EA0840A1EB0E01A0FB029841456D
:101D48004C46C64602D306D14B4504D20138B9EBFE
:101D5800020468EB0C0E002D70D01A1B61EB0E010B
:101D680022FA06F301FA07F7F14000261F43C5E9F6
:101D780000713CE702FA03FCC3F1200001FA03F208
:101D880021FA00F64FEA1C4E24FA00F11FFA8CF7EC
:101D98009C401143B6FBFEF00A0C0EFB106642EAAB
:101DA800064200FB07F696420ED91CEB020200F130
:101DB800FF382CBF4FF001094FF00009964202D9B5
:101DC800B9F1000F31D04046921B89B2B2FBFEF642
:101DD8000EFB162241EA024106FB07F28A4207D9A6
:101DE8001CEB010106F1FF3801D28A4223D846468E
:101DF800891A46EA004625E72E462846F7E6841A59
:101E080061EB030301201F460BE76444023849E7EE
:101E180064440238E1E6023A61442EE7023E624435
:101E2800C6E6A8F1020861446FE702386244CBE7CE
:101E3800023861447DE7023E6144D9E72E46D6E682
:101E4800704700BF10F8012B11F8013B012A28BF89
:101E58009A42F7D0D01A7047034613F8012B002A8C
:101E6800FBD1181A0138704770B506F00DFE002531
:101E7800054E064CA41BA408AC4200D170BD56F810
:101E8800043B98470135F7E7A8FF3F02F8FF3F02F8
:101E980002F05ABD08B502F07DFDBDE8084006F025
:101EA800ABBD06F0C3B906F0C1B906F0CDB906F06E
:101EB800CBB906F0C9B900000048704723B33F0208
:101EC8000C2008B5024A034906F098F8FEE700BF5F
:101ED80049903D02E0A23F020078B0FA80F0400944
:101EE800704701230370704753EC102B2DE9F04124
:101EF80000241F46DFF8A8C0C3F30A5313EB0C06EF
:101F080044F1FF31A3F2FF7E5EEA010210EE108A6F
:101F18004FEAD775C7F3130014D158EA00033CD031
:101F28003B03C8F3080009D540F400701F2340EABA
:101F3800C53040EA832080B2BDE8F081012838BF6F
:101F48000120F3E7B1F1FF3F08BF664522D0102E0C
:101F580071F1000221DA16F10E0F71F1FF3214DA75
:101F68006FF00D01891B01F12A0300F58010C3F100
:101F7800200600FA06F60A3128FA03F320FA01F1DE
:101F880033430B4398B22346D1E7A3F57C739BB246
:101F9800800ACCE723462046C9E71F232046C6E728
:101FA80001FCFFFF2DE9F04155EC104B0646884631
:101FB8000022002310EE100A2946FFF79DFC58B1B5
:101FC80045EC104BFFF790FF00220223C6E90202FE
:101FD80033703046BDE8F081194FC5F30A5313EB4F
:101FE800070E61EB0101A3F2FF7C5CEA01072046C2
:101FF8002A46E5D0B8F1000F0DD01EF10E0F71F191
:10200800FF3708DBBEF1100F71F1000103DAC5F3E9
:1020180009012143D4D06FF460715B1861EB0101B1
:10202800FE2B71F1000309D230F0604706D120463B
:102038002946FFF7F1FC3A460423C7E70823C5E71A
:1020480001FCFFFF2DE9F0430C2987B00DF11505C0
:10205800DDE90E6740D00D2942D0182E77F1000334
:1020680003D242B9F2B22B461FE0072903D1A6F1E9
:102078001F033B4338D04FF0000C2B46DFF86C8031
:102088000AE09E4618F80440A3EB0E094C451CDCF8
:102098001B1B121B0CF1010C56EA070E5FFA8CF49D
:1020A800EFD1002AEDDC1734E2B25C1E02EB4112DC
:1020B8002D1B03F8012C21462A46109B01940295FA
:1020C80000F061F907B0BDE8F0830EF8016D360A3B
:1020D80046EA07663F0AD7E71F222B460421E4E7B2
:1020E8001F222B460521E0E71F22BCE7F5A23F028D
:1020F8001FB58468CDE9002302940022FFF7A2FFF0
:1021080004B010BD8388C3F57F42FE32012AC3BFE5
:102118000133838000200320704737B56D4604469D
:1021280085E806009822002121F09BFA95E8060030
:10213800204600F018F904F11403C4F8943004237D
:10214800A37603B030BD7FB56E4686E80C00037CED
:1021580004460D4683B9092910D196E8030002AA5E
:1021680082E80300A368204606CA00F00CF9D4F8F8
:102178009400FFF7C7FF207404B070BD0B2908BF97
:102188000221019AFFF7B4FF0B2DF0D0E5E730B537
:10219800057C044685B05DB985688DE82C000A4643
:1021A8000721FFF74FFFD4F89400FFF7ABFF207427
:1021B80005B030BD1FB5044601216846FFF7F2FEA1
:1021C800DDE9022320469DF8001004B0BDE8104068
:1021D800FFF7DDBF38B50446D0F89400FFF792FF4B
:1021E800207428B9A26812F1660F02D90723237454
:1021F80038BDD4F8943004F18C05AB420FBF0220EF
:1022080003F10805C4F8945098811FBFD4F894309E
:102218001A60D4F8943099712074E9E730B583686E
:1022280085B000220293002304460D46CDE9002321
:10223800FFF708FF2946204605B0BDE83040FFF704
:10224800C9BFF0B51646027C04460B4687B03AB9BA
:10225800D0F8942000F114018A4203D10423237496
:1022680007B0F0BD91798B4201D00F23F7E783685F
:1022780002291FBF9088CB1E9BB2B0FBF3F34FF02F
:1022880000051768204608BFDB1B2A46CDE9003544
:102298000297FFF7D7FE66B1214604A800F0A1F81F
:1022A800DDE9043297420AD8D51B03B13B44C6E99D
:1022B8000035D4F89430083BC4F89430D0E72B4666
:1022C800F5E770B5057C0446164686B03DB9D0F8EA
:1022D800943000F11402934203D10423237406B00E
:1022E80070BD9B798B4201D00F23F7E783681F22CB
:1022F800029300230721CDE900232A46FFF7A2FE17
:102308006EB1214604A800F06CF8DDE90432A1683A
:1023180091420AD8551A03B10B44C6E90035D4F8DE
:102328009430083BC4F89430D9E72B46F5E773B5E9
:10233800837B0C460BB101230374057C75B9D0F877
:10234800942000F114039A420BD16E4601463046A0
:1023580000F047F896E8030084E80300284602B036
:1023680070BD0A25FAE782B00346684680E8060091
:1023780040F60F31998100219960997303C883E869
:10238800050002B0704773B504461D46A37B02A83A
:1023980000E9060033B940F60F33A2899A4203D008
:1023A8000123A37302B070BDD4E901329A42F7D871
:1023B800019E9B1AB342F3D3AA42F1D3521B05D014
:1023C800216819B12944881921F031F9206820B110
:1023D80032460099284421F02AF9A3683344A360BF
:1023E800E0E78B7B10B51BB100230360436010BD91
:1023F80040F60F328C89944202D001228A73F4E7A6
:102408000A688B680260F1E70904064A41EA00207D
:1024180040F00100044B10601168C90701D5013B69
:10242800FAD1704700000140A0860100064A000268
:1024380040F01000106005481368D90602D501382D
:10244800FAD17047180C704700000140A0860100BF
:102458002DE9F34717464FF090421D468846D2F8BB
:102468004433116923F0FE0349014CBF43F0540380
:1024780043F0D00315F010040646C2F8443340EA8E
:10248800001959D04FF421611220FFF7BDFF4FF416
:1024980021611520FFF7B8FF1B20FFF7C7FF40F0A9
:1024A800070081B21B20FFF7AFFF1B20FFF7BEFF1D
:1024B80040F0100081B21B20FFF7A6FF41F6BF7164
:1024C8001820FFF7A1FFFB20FFF7B0FF40F0020044
:1024D80081B2FB20FFF798FF1120FFF7A7FF20F438
:1024E800005141F4805189B21120FFF78DFF14206B
:1024F800FFF79CFF20F4005141F4805189B2142069
:10250800FFF782FF1820FFF791FF6FEAC0406FEADC
:10251800D04081B21820FFF777FF17211B20FFF763
:1025280073FF49461720FFF76FFF8021102002B084
:10253800BDE8F047FFF768BF0320FFF777FF20F4F7
:10254800406141F40061032089B2FFF75DFF15F097
:10255800080A4AD01820FFF769FF40F03F0081B20F
:102568001820FFF751FF2046FFF760FF00F4406096
:1025780040F4467141F003012046FFF745FF40F261
:10258800FC710120FFF740FF0220FFF74FFF00F426
:10259800E05040F4014141F0EA010220FFF734FF26
:1025A80010210C20FFF730FF49F6FC710120FFF7DE
:1025B8002BFF0220FFF73AFF00F4E05040F40141FE
:1025C80041F0FA010220FFF71FFF2046FFF72EFF18
:1025D80000F4406040F4667141F003012046FFF7C3
:1025E80013FF18210C20FFF70FFF15F005042FD05B
:1025F8000220FFF71BFF20F4C04141F401410220F3
:1026080089B2FFF701FF052026F052FDEA077FD5C2
:102618000C20FFF70BFF40F0100081B20C20FFF7F1
:10262800F3FE0220FFF702FF40F4C06081B20220EF
:10263800FFF7EAFE642026F03BFD0320FFF7F6FED5
:1026480020F0F00141F4687189B20320FFF7DCFE45
:1026580015F00D0F02D0C82026F03AFDBAF1000F90
:1026680020D00020FFF7E2FE00F4406040F406713D
:1026780041F003010020FFF7C7FE40F2FC410120B2
:10268800FFF7C2FE0220FFF7D1FE00F4E05040F44D
:10269800014141F0EA010220FFF7B6FE10210C20AB
:1026A800FFF7B2FE6CB10020FFF7C0FE40F4606097
:1026B80040F0010081B20020FFF7A6FE322026F08C
:1026C800F7FC41F6BF711820FFF79EFE46F2203155
:1026D8001120FFF799FE46F220311420FFF794FEEF
:1026E80064B31220FFF7A2FE04461520FFF79EFEF2
:1026F80024F4C76420F4C76AA4B21FFA8AFA092E20
:102708000ED8DFE806F0BBC00DB60D0D0D0DBBC031
:102718000320FFF78BFE00F47F4040F4547194E7E8
:1027280044F004014AF0040A1220FFF76DFE152058
:102738005146FFF769FE322026F0CAFC17211B20FC
:10274800FFF762FE49461720FFF75EFEFB20FFF702
:102758006DFE20F0060141F0080189B2FB20FFF769
:1027680053FEFD20FFF762FE20F0060141F008014C
:1027780089B2FD20FFF748FE2720FFF757FE20F417
:10278800807081B20FB941F480712720FFF73CFEB9
:10279800FA20FFF74BFE20F400704005400D40F48E
:1027A8008051FA200191FFF72FFEFC200199FFF7D5
:1027B8002BFEAB0740D51120FFF738FE344C2040E4
:1027C80040F4A04141F0190189B21120FFF71CFE25
:1027D8001220FFF72BFE40F0040081B21220FFF711
:1027E80013FE1420FFF722FE204040F4A04141F0E0
:1027F800180189B21420FFF707FE1520FFF716FE0F
:1028080040F0040081B21520FFF7FEFD1720FFF706
:102818000DFE20F4E06141F4807189B21720FFF7C2
:10282800F3FD1820FFF702FE6FEAC0406FEAD040C0
:1028380081B21820FFF7E8FD26F00806012E13D113
:102848001720FFF7F3FD20F4F04141F4006189B24D
:102858001720FFF7D9FD1B20FFF7E8FD20F00C003B
:1028680081B21B20FFF7D0FD47EA081141F0800133
:102878005CE644F00C014AF00C0A55E744F01401F8
:102888004AF0140A50E744F01C014AF01C0A4BE7CE
:10289800FEDFFFFF0C21054A92F83D304B43D1186B
:1028A800D35C0BB94868704700207047E0C7061032
:1028B80038B50C4D0A4695F83D4028B10C2303FB6A
:1028C8000453596820F0A6FE0C23012263431444E4
:1028D800E4B2042CEA540ABF002385F83D4085F889
:1028E8003D3038BDE0C70610094A92F83E1069B974
:1028F8000C2092F83C3058430133DBB2042B1154BE
:1029080002D082F83C30704782F83C10704700BF14
:10291800E0C706100C21084B93F83C204A4399184D
:102928009A5C22B10022486883F83E207047012251
:10293800586B83F83E207047E0C70610064B93F8A3
:102948003E200AB1986B70470C2193F83C2001FB9C
:1029580002339868704700BFE0C7061037B5214BAF
:1029680004465B69D8031AD5636A228DD9064FEAF3
:10297800820208D023F01F01013B134423F01F03F8
:1029880020335A1A0B46BFF34F8F16481344002AB8
:10299800A3EB020121DCBFF34F8FBFF36F8F617888
:1029A800114B20789847FFF79FFFFFF7B3FF01907F
:1029B800FFF7C4FF0546019A617820780B4B9847CA
:1029C80061782078AA080A4B984701226178207814
:1029D800084B03B0BDE830401847C0F85C12203AF5
:1029E800D5E700BF00ED00E0A5BD1010B9C210107A
:1029F80009C3101091BF1010B0F5FA5FF7B51CD0DD
:102A0800B0F5FA4F14BF05250325374B0120B1FA5D
:102A180081F498474FF0414101220846334FB847A7
:102A2800334901220846B847EB1E6409042B07D82E
:102A3800DFE803F00506560658000725E5E70C26EB
:102A4800304606F0D6FB0223224628460021FFF72F
:102A5800FFFC284D00212120A84700212220A8475B
:102A6800254D0C212120A8470C212220A847234BC3
:102A7800234A01255A6380229A6300224FF400708A
:102A880020499A8783F83E200132042AC3E90110BD
:102A98001D7001F5007103F10C03F5D100261A4DE4
:102AA8001A4B28469847294619481A4BAC602E609D
:102AB800984701211648184B98470121174B14488D
:102AC8009847FFF727FF0446FFF738FF144ACDE978
:102AD800004011463046134B134CA04703B0F0BDDD
:102AE8001826ADE73026ABE7F9A33D0239001110EF
:102AF8000000084099CF1010B9CF1010E0C7061099
:102B080060C70610E0BE061038C70610ADA43D0227
:102B18000008014001A53D02A1A53D02DDA43D023A
:102B2800E4C606104D3B3D02C5A53D0208B5FFF7BA
:102B3800B1FE00B908BD00210846FFF7B9FEF6E767
:102B4800FFF7A8BEFFF7B4BE08B5024801F058FF6A
:102B5800002008BDF9A23F0210B5144611460248EC
:102B680001F04EFF204610BD07A33F022DE9F043B8
:102B7800ADB00C46164601F0DFFBD0F8005146B167
:102B8800B4F5FA6F2146544838BF4FF4FA6101F0A2
:102B980037FFB4F5FA6F03D2C4F5FA6001F00EFFFF
:102BA8004E4C2B6822685B6A52000021284602F5C9
:102BB8008052984723685B0003F58053984240F0A1
:102BC800878001F0B9FB036804461B6AD0F80081CE
:102BD800984743490268434804F0B0FCAC220021FE
:102BE80001A820F03EFD404B204604933F4B404F48
:102BF80005932368D3F890309847019023682046BE
:102C0800D3F8983098473B4BDFED3B6AD3ED007A19
:102C1800F8EE677A86EEA77A029001A901230022CE
:102C280038468DED037A02F0EBFE014658B1334881
:102C380001F0E6FE002E4DD0314801F0E1FE3046AD
:102C48002DB0BDE8F083FC69BB69013C1A5D03EB5C
:102C5800040922B12CB92B4801F0D2FEEAE7013C65
:102C6800F4E7484614F0030518BFC5F1040505F15B
:102C78006E0300F8013B244B09F10F01884213D180
:102C88002A46202120F0EDFCFF23A94489F80F30C3
:102C9800B868B96910352A4603692144984702463D
:102CA80038B101461948C3E713F8012B00F8012B86
:102CB800E4E7D8F800302C4440461D6AB969234639
:102CC800A847844201D01248C6E7124B1C60B1E7FE
:102CD8000026B4E70126B2E715A33F0250C8061044
:102CE80028C8061054CC06104CA33F0252A33F023A
:102CF80064B9061030BA061000007A4456A33F02A1
:102D0800F3A33F0272A33F0290A33F029FA33F0297
:102D1800CCA33F0220C806102DE9F0472DED028B09
:102D280001F00AFB0446D0F80051824801F068FE21
:102D3800236820461B6B984710EE100AFEF71CFB11
:102D480002460B467C4801F05BFE236820469B6BDD
:102D580098470146794801F053FE236820469B6A4C
:102D680098470168764801F04BFE236820461B6AA5
:102D780098470168734801F043FE236820469B6A20
:102D880098470168704801F03BFE236820469B6B1A
:102D9800984708EE100A236820461B6B9847B8EE40
:102DA800488AC8EE007AFCEEE77A17EE903A4FF0C0
:102DB800000913F0010F654EDFF8D08118BF013309
:102DC80068693360C8F8009001F047FE604B1860EE
:102DD80028B90024BDEC028B2046BDE8F0872368A3
:102DE80020461B6B98479FED5B7AC7EE007AFCEE96
:102DF800E77A594F4FF0010AC7ED007A04F044FC16
:102E08000822C0E904A23A680368C260DB689847F0
:102E180020B10146514801F0F3FDDAE72368204666
:102E28009B6B9847336869695B00B3FBF1F3A96949
:102E380052465943FFF79AFE04460028C9D0DFF8E6
:102E48005091D9F80800D9F82010436998470646E8
:102E580010B101464248DEE7686901F0FEFD074609
:102E680018B9404801F0CCFDB3E72B680146D3F808
:102E78001CA032466B692846D0476B69984206D039
:102E8800394801F0BDFD384605F0DEF9A1E7D9F86B
:102E98002000D9F82430B6EB530F17D2815D07EB29
:102EA800460C0A0901F00F039F29D9F8C4108CBFFA
:102EB800573230320CF80120D9F8C420092B8CBFC6
:102EC80057333033624453700136E2E72B686A693E
:102ED8005B6A0021284698476A690346904201D0F8
:102EE8002248CEE72A683946166A28460022B047A3
:102EF8000646384605F0A8F96B699E4201D01C4881
:102F0800B0E7D8F800101B4801F07AFD1A4801F024
:102F180077FD1A4BD8F800201B6800211A4418487E
:102F280001F06EFD174801F06BFD174801F068FDD0
:102F380050E700BF45A43F0259A43F026EA43F02D8
:102F480080A43F028BA43F029AA43F0250C80610F7
:102F580024C8061000007A4430BA06102CA43F0298
:102F6800AEA43F02CFA43F0203A53F021EA53F0225
:102F78003AA53F0268A53F0292A53F0220C8061065
:102F8800BBA53F0206A63F02B1AA3F024CC80610E5
:102F980064B90610704710B504461021FEF789FF82
:102FA800204610BD07B51148694600680DF10202B8
:102FB80001AB04F0A5FC6A460021DFED0D6A9FED28
:102FC8000D7A0D4832F9023B01315B0007EE903A69
:102FD800F8EEE77A67EEA67A67EE877A0329E0ECDF
:102FE800017AEFD1044803B05DF804FB8CCC0610DD
:102FF8000000003A0AE81C417CCC06100EB403B568
:1030080003AB53F8042B0021019305F0BCFE02B07A
:103018005DF804EB03B0704773B50446227908469F
:10302800A36832B1A3B90B4902B0BDE8704005F0FE
:10303800A1BD094A267B094D0949647B012E18BFA9
:103048002946CDE900140749FFF7D8FF02B070BD43
:10305800054AEFE74DA63F0223B33F0249A63F02C8
:1030680045A63F0263A63F023CA63F0230B52B4C63
:10307800B5B0D4E88F1F11F001010BD120462F9174
:10308800FEF72AFF2F9928B1254805F089FA20462E
:10309800FEF727FF234B3020309300238DF8C430F0
:1030A800214B32930123ADF8CC30FEF7FAFE0446EB
:1030B80020B10D221A4930AB04F0D0FB1B4D20463D
:1030C8002C6004F06CFC642005F016FD184C286890
:1030D80004F052FC38B9204601F092FC4FF47A70A3
:1030E80001F06CFCF3E704230093002328681A46D8
:1030F8001946104C04F068FC2868012104F053FCC0
:1031080004F11001B422684620F084FA94E80F0014
:1031180001F02AFF012035B030BD00BF70CC061089
:1031280074CC0610B4A63F0200093D008CCC0610F2
:1031380080A63F02E8A63F02014806F033BA00BF66
:1031480088CC061010B5054C20680368DB6D9847DD
:10315800206803689B689847012010BD90CC061032
:1031680008B5054B186803681B6998470168034848
:1031780001F046FC012008BD90CC061045A83F028E
:1031880010B5144C206803689B6A98470168124878
:1031980001F036FC206803681B6B984710EE100A94
:1031A800FEF7EAF802460B460C4801F029FC2068B5
:1031B80003689B6B98470146094801F021FC206889
:1031C80003681B6A98470168064801F019FC01204A
:1031D80010BD00BF90CC0610ACA73F02BBA73F02B2
:1031E800D0A73F02E4A73F0208B5054B186803685B
:1031F8009B6998470168034801F002FC012008BD5B
:1032080090CC061045A83F0210B50D4C2068036805
:103218001B6D984701680B4801F0F2FB20680368B2
:103228001B6C98470168084801F0EAFB20680368AE
:103238009B6C98470168054801F0E2FB012010BD2E
:1032480090CC0610F3A73F0202A83F0211A83F0244
:1032580008B5054B186803681B6C98470168034854
:1032680001F0CEFB012008BD90CC061045A83F0216
:1032780008B5024801F0C4FB012008BD02B43F02B2
:103288002DE9F04F2DED028B754C83B0206801AA13
:10329800036869465B6E9847724801F0B1FB206885
:1032A800002603689FED708A1B69984701686F487C
:1032B80001F0A6FB2068DFF824820368DFF820927B
:1032C800DB68984701686A4801F09AFB694801F091
:1032D80097FB20680368DB6E98470146664801F053
:1032E8008FFB664801F08CFB654801F089FB019B68
:1032F800B3422FD9009B770103EB46124046128B4D
:10330800D95901F07DFB0025DFF8D8A1009B4FEAD1
:10331800850B3B4403EB8502D2ED017AF4EEC87AC3
:10332800F1EE10FA0EDD15B1504601F069FB009B75
:103338003B445B445868FEF71FF802460B46484674
:1033480001F05EFB0135052DE0D14E4801F058FB38
:103358000136CCE702F048FA484801F051FB4A48E8
:1033680001F04EFB494801F04BFB444801F048FB93
:10337800474801F045FB474801F042FB464801F049
:103388003FFB464801F03CFB454801F039FB454806
:1033980001F036FB394801F033FB434801F030FBBC
:1033A800206803689B6A98470168404801F028FB39
:1033B800206803681B6B984710EE100AFDF7DCFFC6
:1033C80002460B463A4801F01BFB206803689B6BDA
:1033D80098470146374801F013FB206803681B6AC9
:1033E80098470168344801F00BFB244801F008FBBA
:1033F800324801F005FB206803681B6D9847016897
:103408002F4801F0FDFA206803681B6C9847016893
:103418002C4801F0F5FA206803689B6C984701680E
:10342800294801F0EDFA154801F0EAFA274801F0B9
:10343800E7FA206803689B6998470168244801F007
:10344800DFFA244801F0DCFA234801F0D9FA0B48E6
:1034580001F0D6FA012003B0BDEC028BBDE8F08F75
:1034680090CC061020A83F02CDCCCC3D39A83F0215
:1034780049A83F0259A83F026CA83F0202B43F0284
:1034880089A83F02ADAA3F02D8A83F02EFA83F0291
:1034980003A93F0215A93F0222A93F022FA93F0213
:1034A8003DA93F024BA93F0259A93F02ACA73F02E1
:1034B800BBA73F02D0A73F02E4A73F027AA93F0279
:1034C800F3A73F0202A83F0211A83F0297A93F02B3
:1034D800B6A93F02C6A93F02D5A93F029FA83F024D
:1034E800D1A83F0206B13F0200292DE9F34705465E
:1034F80006DC214801F084FA012002B0BDE8F0871B
:1035080000261E4C6946206801AA03685B6E98472E
:10351800DDE90079D5F80080B14517D0BA464146B3
:1035280057F8200BFEF78EFC70B9DAF81C30984774
:103538000546B0B9124801F063FA294620680368C5
:10354800D3F880309847D7E70136E5E700214046B1
:1035580001F07CFD58B101F053FB054608B9094854
:10356800E9E7206804210368D3F88030EAE729688E
:10357800054801F045FABFE7E3A93F0290CC0610E1
:10358800F9A93F0218AA3F0245AA3F0201292DE9DD
:10359800F04105460E4605DC254801F031FA0120C8
:1035A800BDE8F08100681FF017FA074668681FF049
:1035B80013FA204C8046206803210368D3F8803032
:1035C8009847022E29D0AB681B78792B25D11A4849
:1035D80001F016FA2068012603685B6F984764209B
:1035E80001F0ECF94146384601F03CFA05464EB187
:1035F800124801F005FA642001F0E0F92068036838
:103608001B6F98475DB90E4801F0FAF92946206802
:103618000368D3F880309847C1E70026E2E70948F5
:1036280001F0EEF9206804210368D3F88030F2E74E
:1036380079AA3F0290CC0610B1AA3F02B0AA3F0275
:10364800B5AA3F0202B43F022DE9F04F0129054611
:1036580089B02DDD1C4B00681B68DFF87890D3F823
:1036680000811FF0B9F9044668681FF0B5F90746EC
:10367800DFF864A0DFF858B0BC4221D2D8F8003097
:103688002246DD69694610234046A84700266D4654
:10369800484615F8011B01F0B3F90F2E0CBF584628
:1036A8005046013601F0ACF9102EF1D11034E3E7A1
:1036B8000221064801F0A4F9012009B0BDE8F08F05
:1036C800034801F09DF9F7E790CC0610D6AA3F020F
:1036D80002B43F0248AE3F0245E43F0230B5414BD9
:1036E80085B0186003F01EFF002405463E4B3F4995
:1036F80001933F4B029100933E4A002303F09EFE44
:103708003D4B28460093CDE9014423463B4A3C49BA
:1037180003F094FE2846CDE901443A4B3A4A3B4926
:10372800009403F08BFE3A4B28460293394B3A4AF1
:1037380001933A4B3A490093234603F07FFE394BF5
:1037480028460293384B394ACDE900433849234685
:1037580003F074FE374B28460293374B374A0193E0
:10376800374B38490093234603F068FE364B28460A
:103778000293364B364ACDE900433649234603F0D7
:103788005DFE354B28460293344B354A0193354B41
:1037980035490093234603F051FE344B28460293E3
:1037A800334B344A0193344B34490093234603F096
:1037B80045FE334B28460293324B334ACDE900434A
:1037C8003249234603F03AFE314B28460293314BE7
:1037D800314ACDE900433149234603F02FFE2846FC
:1037E80005B030BD90CC0610E54A3D020AAB3F0259
:1037F80051433D02F7AA3F0271443D0213AB3F0219
:1038080057AB3F0235433D0229AB3F0252AB3F0263
:1038180095AB3F02294B3D025EAB3F0271433D022F
:1038280086AB3F02D7AB3F02D9463D02BCAB3F0255
:10383800CBAB3F021AAC3F02894C3D02E3AB3F02DF
:10384800D9433D020DAC3F0254AC3F027D473D02D7
:103858001EAC3F0249AC3F02A3AC3F02CD4C3D0237
:103868006EAC3F02F9433D0294AC3F02C6AC3F0246
:10387800314D3D02AFAC3F0241443D02C0AC3F0276
:10388800E8AC3F0261443D02CBAC3F02E2AC3F02F0
:1038980009AD3F0239483D02EDAC3F0201AD3F02A0
:1038A80000F1080373B504460D460360E1B108460C
:1038B800FEF7D2FA0F2805EB0006019007D900227F
:1038C800204601A917F056FA019B2060A3603246F2
:1038D8002946206817F0E6FA00212046019B226855
:1038E8006360D15402B070BD014811F051FA00BFB5
:1038F80016AD3F0230B5002989B005DC0B4801F050
:103908007FF8012009B030BD094B01681C6801AA85
:10391800236802A85D69FFF7C3FF0022204602A9B9
:10392800A84702A817F048FA0248E8E740AD3F0266
:1039380090CC0610B1AA3F022DE9F04F2DED028B75
:10394800022904460E4695B008DC4E4801F058F8A6
:10395800012015B0BDEC028BBDE8F08F4A4D01681F
:103968002F6808AA3B680EA8D3F82C80FFF798FFA9
:10397800002238460EA9C0470EA817F01DFA616844
:103988000EAA02A8FFF78CFF2F68DDF808803B68B5
:10399800D3F8349004F0D6FCD0F800A004F0D2FCA0
:1039A80000230EA90360404620F078FE0E9BB0EE7F
:1039B800408A984502D1354811F0EDF904F0C2FC6F
:1039C8000368222B02D1314811F0EBF904F0BAFC5C
:1039D80003681BB904F0B6FCC0F800A0B0EE480AB2
:1039E80038460021C847A1680EAA08A8FFF758FF63
:1039F800D5F80080DDF82090D8F80030D3F83CA046
:103A080004F0A0FCD0F800B004F09CFC00230A22CB
:103A180003600EA9484620F07BFF0E9B0746994598
:103A280001D11B48C8E704F08DFC0368222B01D1A3
:103A38001748C9E704F086FC03681BB904F082FC48
:103A4800C0F800B0002239464046D047032E0ED0B9
:103A58002D68E1682B6801AA0EA85E6AFFF720FFAF
:103A6800284600220EA9B0470EA817F0A5F9094864
:103A780000F0C6FF08A817F09FF902A817F09CF9F4
:103A880066E700BF53AD3F0290CC061097AD3F02EA
:103A98009CAD3F02B1AA3F0230B5002989B005DCD0
:103AA8000B4800F0ADFF012009B030BD094B01689B
:103AB8001C6801AA236802A8DD69FFF7F1FE00224D
:103AC800204602A9A84702A817F076F90248E8E7B5
:103AD80040AD3F0290CC0610B1AA3F02F0B50129D3
:103AE800044689B005DC134800F08AFF012009B0BC
:103AF800F0BD114D01682E6801AA336802A85F6DF8
:103B0800FFF7CEFE0022304602A9B84702A817F0F8
:103B180053F92D6861682B6801AA02A8DE6CFFF7CB
:103B2800BFFE0022284602A9B04702A817F044F9B0
:103B38000248D9E7A1AD3F0290CC0610B1AA3F02D6
:103B480030B5002989B005DC0B4800F059FF012089
:103B580009B030BD094B01681C6801AA236802A896
:103B68005D6CFFF79DFE0022204602A9A84702A827
:103B780017F022F90248E8E740AD3F0290CC061062
:103B8800B1AA3F02014805F00DBD00BF94CC061054
:103B98003830704750307047683070478030704711
:103BA8009830704790ED2C0A7047D0F8B4007047F1
:103BB800B8307047D0307047E83070470020704701
:103BC80000207047002301200B601360704700F14C
:103BD8000C02426000228260027370474FF4E130A9
:103BE8007047704770470020704700207047704743
:103BF8000020704700207047006D7047806B704749
:103C0800024B1B6803B11847704700BFA0CC0610D1
:103C18004FF4E1307047704780F824117047000076
:103C280070B50446D0F800010E4603681546DB68F7
:103C38009847D4F8003101385B6904F58274584319
:103C4800094B2360094BE3614FF4FA43B0FBF3F0EF
:103C5800074B20836360074B0020A360064BE3609B
:103C6800012334602B6070BDCAAD3F02093F3D029D
:103C780000007A460000FA4500007A4510B504466F
:103C88001649503017F01FFB154904F1680017F06A
:103C98001AFB134904F1800017F015FB104904F1D1
:103CA800980017F010FB0023C4F8B03000230C492B
:103CB800C4F8B43004F1B80017F005FB084904F162
:103CC800D00017F000FB04F1E800054917F0FBFAF3
:103CD80023682046BDE810409B681847D5AD3F02D1
:103CE80023B33F0210B50446FFF7C8FF23682046F8
:103CF8009B68984723682046BDE810401B68184712
:103D080038B53830154600231F220C4617F010FB33
:103D1800002328602354184638BD38B5503015465E
:103D280000231F220C4617F003FB002328602354AE
:103D3800184638BD38B505464FF46D7000F08DFE55
:103D48000446002852D04FF46D7200211FF089FC00
:103D58008022696820461FF04BFE8022E969A0187E
:103D68001FF046FE95F83430802284F80031D5F8EB
:103D7800B03004F58670C4F80431D5F8B430C4F80E
:103D88000831D5F898101FF033FE2122D5F880109D
:103D980004F5C6701FF02CFE8022D5F8B81004F286
:103DA800AD101FF025FE8022D5F8D01004F22D208A
:103DB8001FF01EFE8022D5F8E81004F2AD201FF097
:103DC80017FE8022A96E04F22D301FF011FE084B59
:103DD8004FF46D72C4F8B033D5F80001214603687A
:103DE8005B699847204600F03AFE012038BD00BFC5
:103DF800EFBEADDE30B5054689B04FF46D7000F00A
:103E08002CFE0446002800F09A804FF46D720021C1
:103E18001FF027FCD5F800014FF46D7203682146A6
:103E28009B699847D4F8B023464B9A4240F081806A
:103E3800802201AB214602A817F068FC02A9281DC0
:103E480017F0ABF802A816F0B7FF802201ABA11853
:103E580002A817F05BFC02A905F11C0017F09DF8F9
:103E680002A816F0A9FF94F80031802285F83430B2
:103E7800D4F8043104F58671C5F8B030D4F80831A7
:103E880002A8C5F8B43001AB17F040FC02A905F14F
:103E9800980017F082F802A816F08EFF212201ABD5
:103EA80004F5C67102A817F031FC02A905F18000DB
:103EB80017F073F802A816F07FFF802201AB04F216
:103EC800AD1102A817F022FC02A905F1B80017F0FD
:103ED80064F802A816F070FF802201AB04F22D21CD
:103EE80002A817F013FC02A905F1D00017F055F845
:103EF80002A816F061FF802201AB04F2AD2102A8EE
:103F080017F004FC02A905F1E80017F046F802A82A
:103F180016F052FF802201AB04F22D3102A817F0EF
:103F2800F5FB02A905F1680017F037F802A816F0AA
:103F380043FF204609B0BDE8304000F090BD09B00D
:103F480030BD00BFEFBEADDE436913B183690C30ED
:103F58001847704713B500210446084603F0AAFE27
:103F68000023204601A9019303F0CEFE019C0CB169
:103F7800012323710021012003F09CFE2CB123684A
:103F880020469B6898470023237102B010BD80ED3E
:103F98002C0A11B103681B6818477047C0F8B410A1
:103FA80012B103681B681847704770B51546044678
:103FB800E83016F07CFF2DB123682046BDE870403C
:103FC8001B68184770BD70B515460446D03016F00A
:103FD8006EFF2DB123682046BDE870401B68184766
:103FE80070BD70B515460446B83016F060FF2DB1A7
:103FF80023682046BDE870401B68184770BD70B53F
:1040080015460446983016F052FF2DB12368204615
:10401800BDE870401B68184770BD70B5154604466A
:10402800803016F044FF2DB123682046BDE870406B
:104038001B68184770BD70B515460446683016F001
:1040480036FF2DB123682046BDE870401B6818472D
:1040580070BD70B515460446503016F028FF2DB1D6
:1040680023682046BDE870401B68184770BD012AC8
:1040780002D1016000207047022A04BF0B68036068
:10408800F8E70368184710B58368044613B103229C
:1040980001469847204610BD07B58068002340B107
:1040A800CDE900131A46022103F03CFEB0FA80F075
:1040B800400903B05DF804FB13B5124C124BA0681D
:1040C800196058B16FF000430022FDEEC07ACDE9C7
:1040D8000032032117EE903A03F024FE002109482C
:1040E800FFF7DAFFA068002350B16FF000421946CD
:1040F800009201931A4603F015FEB0FA80F04009C9
:1041080002B010BDA4CC0610A0CC061010B5044611
:104118006FF000410548FFF7BFFF236820460021E4
:10412800D3F880309847012010BD00BFA4CC0610FA
:1041380038B50F4B0446036083689BB16FF00041AC
:10414800FFF7AAFF0021A06803F016FE237903F009
:10415800FF0513B103F0A0FDF8E72946A06803F0B6
:10416800C5FDA56004F10C00FFF78DFF204638BDA2
:1041780008AF3F0210B50446FFF7DAFF20461C21BE
:10418800FDF797FE204610BD10B50446144B40F8C5
:10419800E83B16F011FE04F1D00016F00DFE04F114
:1041A800B80016F009FE04F1980016F005FE04F1B7
:1041B800800016F001FE04F1680016F0FDFD04F120
:1041C800500016F0F9FD04F1380016F0F5FD04F181
:1041D8001C0016F0F1FD201D16F0EEFD204610BD66
:1041E80064AE3F020148FFF7CFBF00BFC0CC061046
:1041F80037B50446214B01AA40F8043B2049FFF794
:104208004FFB01AA1E4904F11C00FFF749FB0023DC
:104218001C4D84F8343001AA1B4904F13800FFF71B
:104228003FFB01AA194904F15000FFF739FB294661
:1042380001AA04F16800FFF733FB01AA144904F14D
:104248008000FFF72DFB01AA124904F19800FFF73F
:1042580027FB01AA104904F1B800FFF721FB294602
:1042680001AA04F1D000FFF71BFB0C4901AA04F1D5
:10427800E800FFF715FB204603B030BD64AE3F02EF
:1042880023B33F0206AE3F02E7AD3F02F4AD3F0263
:104298000BAE3F0219AE3F02BBAC3F021EAE3F025F
:1042A800002210B5154B92B004461146586803F029
:1042B800C1FE90F85C2090F85730049290F85B208B
:1042C8001221039290F85A20029290F859200192F4
:1042D80090F8582007A80092094A03F0DFFF06AAC1
:1042E80007A90CA8FFF7DCFA0CA904F1500016F096
:1042F80054FE0CA816F060FD12B010BD30970710E0
:104308002FAE3F0238B504460D46FFF771FF084B44
:1043180020462360C4F80051FFF7C2FF2046FFF78C
:1043280069FD044904F1380016F0CDFF204638BD78
:104338001CAF3F024DAE3F0210B5134CD4E88F3F7F
:10434800DA070BD42046FDF7C7FD38B14FF46D717D
:104358000E4800F0F5F82046FDF7C3FD0C4CD4E8F4
:104368008F3FDB070DD42046FDF7B6FD48B107495E
:104378000848FFF7C7FF2046FDF7B3FD06481EF0C3
:1043880025FB044810BD00BF9CCC0610E8CD0610E4
:1043980098CC0610C0CC0610D5533D0213B5044680
:1043A800242200211FF05DF9044901AA201DFFF70E
:1043B80077FA00232046236202B010BD23B33F02E0
:1043C80070B5174B88B00493164A174B04AC1A60A3
:1043D800002294E8030002AE86E8030003F10C050E
:1043E80095E8030084E8030096E8030085E80300E5
:1043F8000E491A71596199699A6007910C49069298
:10440800996103F108004FF47A71CDE90022094A55
:1044180003F05EFC2046FFF736FE08B070BD00BF13
:10442800F14D3D0208AF3F02A4CC06105F523D0299
:1044380073523D0245513D0200207047D0E9020207
:10444800101A7047D0E9022340699B1A58437047F5
:1044580038B5036814461D6813460022A847031B95
:104468005842584138BD70B4046885684669246864
:1044780006FB0522A44670BC604770B404688568D2
:104488004669646806FB0522A44670BC604730B4E0
:1044980084684569036805FB041130BC9B681847AC
:1044A80038B5044625690846AD1A9D4228BF1D4601
:1044B8001146034B2A4619441FF0ACF8284638BD6C
:1044C80004CE061068B505691646AD1A9D4228BF88
:1044D8001D4603482A4630441FF09CF8284668BD0C
:1044E80004CE061038B503690C465B1A934228BF00
:1044F80013461D4603481A46002120441FF0B1F810
:10450800284638BD04CE0610F8B5144686684269B8
:10451800036856430F46324600219B680546984774
:10452800B0420AD12B6800225E68394623462846E5
:10453800B047231A58425841F8BD0020FCE7000054
:10454800B1F5007F10B5044641601ED307EE901AFE
:10455800FBEEEB7A17EE900AFCF70EFF41EC100B1E
:104568001EF0A6F951EC100BFDF736FA60224FF455
:1045780040434FF40071C4E903230A23C4E9051337
:10458800034BA0602360204610BD0120EEE700BF6A
:10459800C0AF3F020020704720B105A3D3E9002334
:1045A800C0E9002302A1D1E900017047AFF3008000
:1045B80083A74500000000002DE9F84F0446164681
:1045C800FFF7BAFEDFF84C80D0F800711049DFF829
:1045D80048A004EB060B5C4517D0D8F8005014F837
:1045E800012B05F003030135CA54AB07C8F8005086
:1045F800F1D1DAF800203B68043AD3F82090384625
:1046080004232A44C8470249E5E73046BDE8F88F45
:10461800108E0710048E0710088E071008B58A0838
:104628000146074801F084FB064A1368013313600A
:10463800054A1068834294BF0020012008BD00BFCE
:1046480034BA06100C8E0710388E07102DE9F04F7B
:104658002DED028B83B090468B460746FFF76CFE24
:104668000446D0F800619E4800F0CAF92368204645
:104678001B6B984710EE100AFCF77EFE02460B46AD
:10468800984800F0BDF9236820469B6B984701467F
:10469800954800F0B5F9236820469B6A9847016859
:1046A800924800F0ADF9236820461B6A98470168D4
:1046B8008F4800F0A5F9236820469B6A984701684F
:1046C8008C4800F09DF9236820469B6B984708EEBC
:1046D800100A236820461B6B9847B8EE488AC8EE34
:1046E800007AFCEEE77A17EE905A08FB05F5824B44
:1046F800DFF84892C3ED007A73696D00C9F800507D
:10470800B5FBF3F54FF0000AB369DFF8348205FB17
:104718000335B5F5FA6F2946784838BF4FF4FA6182
:10472800C8F800A000F06CF9236801212046D3F8EE
:1047380080309847336851465B6A3046D9F8002084
:104748009847D9F80030984206D00025284603B08B
:10475800BDEC028BBDE8F08FB5F5FA6F03D2C5F555
:10476800FA6000F02BF9FFF7E7FD0368D0F8009135
:104778001B6A9847624E02686249634802F0DEFE8F
:10478800394601230022304601F03AF9014618B1B2
:104798005E4800F035F9D8E7F569B169013D002DAB
:1047A80000F08F804B5D002B40F08D80013DF6E7D7
:1047B800574BDFF890A1C6F8C8300023554F56482C
:1047C800CAF800503B6000F01BF9236820461B6BB9
:1047D80098475248D84705460028B6D02368022192
:1047E8002046D3F880309847434BD8F800201B6800
:1047F8009A4203D20A2000F0E1F8F5E7FFF79CFDA2
:10480800D7F80090D0F800B119F00300DFF8108154
:1048180014D0C0F10402FF21D2B240441EF021FF9F
:10482800DAF80010DBF8003029F003020A44D3F864
:104838002090414604235846C84704204FF0FF09FA
:104848003A68DAF8003088F8009088F8019088F81B
:10485800029088F8039022F003021A44DBF8003033
:104868000244D3F820802E4904235846C0473B68A9
:10487800B06801333B60012203698DF8049001A9F7
:104888009847804600287FF461AFB068316A436971
:104898009847236820469B6B9847174B214819680F
:1048A80000F0AEF8204800F0ABF83A68DAF80030CB
:1048B8001E4841461A4400F0A3F81D4800F0A0F82D
:1048C80044E71C48FAE7D9F8003000221F6A484636
:1048D8002B46B847854201463FF46AAF164858E769
:1048E80045A43F0259A43F026EA43F0280A43F02A0
:1048F8008BA43F02ECAF3F02388E071015A33F028E
:1049080034BA0610148E07104092071056A33F02BF
:104918005C920710048E0710F3A33F020D583D0266
:10492800108E071068A53F0292A53F02BBA53F0263
:10493800B1AA3F0272A33F02FCAF3F023C8E0710B0
:104948000C8E0710088E071010B5FFF7F5FC04460B
:104958004FF4FA6004F0D0F803F084FF4FF4E1312B
:1049680003F074FF084800F04BF8FEF77FFB204681
:10497800FEF7B4FE054C2060054800F041F82068B9
:10498800BDE8104001F0A8BE28B03F0260920710B1
:104998005DB03F0208B500F021F8FF28014605D0B8
:1049A800034B1868BDE8084002F0E0B808BD00BF36
:1049B800609207100021012003F00EBC08B504F036
:1049C8009BF8002008BD07B5019003F04BFF036872
:1049D80001999B6803B05DF804EB184708B503F02C
:1049E80041FF03681B699847002806DD03F03AFF7A
:1049F80003685B699847C0B208BD0020FCE7000067
:104A08000FB413B504AB53F8042B4FF480610B4873
:104A1800019303F051FC00280BDD03F023FF04464B
:104A28000648FDF719FA23680246DB682046034961
:104A3800984702B0BDE8104004B070476492071070
:104A480007B58DED010A03F00DFF06219DED010A62
:104A580003B05DF804EB04F087B903F0E7BB03F09B
:104A6800F3BB00002DE9F0470C460746FFF764FC4E
:104A7800D0F8008140F20120FFF7EFFF0646DFF88B
:104A88005090B4F5007F06D8BCB93046FFF7E7FF71
:104A98000120BDE8F08740F20125D8F800303A46F9
:104AA800D3F81CA031462B464046D047A84206D032
:104AB8003046FFF7D4FF0020EBE72546EDE74A46EE
:104AC8002946304601F080F92F44641BD9E700BF1E
:104AD800B75B3D0213B504468DED010AFFF72CFCC8
:104AE800074A146044B19DED010A036805499B6FAC
:104AF80002B0BDE810401847204602B010BD00BF04
:104B080074960710F95C3D022DE9F84FFFF714FC85
:104B1800DFF8C4900746D9F800008000FFF79DFF32
:104B28000446002854D000252E46DFF8B0B0DFF840
:104B3800B080DBF80030AB4239DDD8F800304FEAFE
:104B4800850A53F82520D2F8BC3050689BB900225A
:104B58000020D8F8003053F80A104B68934224DD3F
:104B6800D1F8C0301341DB0742BF04EB860318605D
:104B780001360132EDE798470028E8D003460021C6
:104B8800D8F8002052F80A0042688A420DDDD0F8B1
:104B9800C02004330A41D20741BF53F8040C04EB88
:104BA8008602106001360131EAE70135C1E7D9F81C
:104BB8000010084B20461B688900984718B13B68CD
:104BC8003846DB6F98472046BDE8F84FFFF747BFE8
:104BD800BDE8F88F749607109496071098960710FA
:104BE8006896071008B548B1B0F1005F01D310F01E
:104BF800C9F88000BDE80840FDF753B908BD0000BA
:104C08002DE9F04F2DED028BB1B0FFF795FB4FF07A
:104C18000008754E754F33680446D0F80051C7F840
:104C280000803BB94FF00008404631B0BDEC028B24
:104C3800BDE8F08F2B682846DB6898476D692368C4
:104C4800013845439B6B2046984708EE100A2368B5
:104C580020461B6B9847D6F80090B8EE488A4FEA72
:104C6800890307EE903A88EE007AF8EE677A67EEE5
:104C7800277A77EEA77AFAFE677AFCEEE77A17EEDC
:104C8800903A9D4228D2236820461B6B4FEAC909F7
:104C9800984707EE109A07EE905AB8EE477AF8EE62
:104CA800677AC7EE006A87EEA67AFBFE477AFDEEC2
:104CB800E77A4F4817EE901AFFF7A2FE23682046BE
:104CC8001B6B9847F7EE007A87EE800AFFF7B8FE6D
:104CD8004848FFF795FEA7E7AC22414605A81EF015
:104CE800C0FC236820461B69984703682046059343
:104CF8002368DB6898470368204606932368444680
:104D08001B6B984740468DED070A3B4B1B68019388
:104D18003A4BD3F800A0019BA34237DD02464FF07F
:104D2800000805AB03EBC0095AF824103D684B682E
:104D380008EB02004345039209F1080924DD08F154
:104D4800030001EBC0014968C9F804105AF824307F
:104D580003EBC0039B68C9F808305AF8243003EB0A
:104D6800C803D8690293FDF777F8029B8346186A4F
:104D7800FDF772F805F10E0303EB0B052844039ABF
:104D8800386008F10108CFE70134C4E73868043017
:104D9800FFF763FE054600283FF444AF3A68941CC9
:104DA80014F0030415D0336830A901EBC30353F89A
:104DB800A41C1EF01DFE124F3946284601341EF071
:104DC800EAFD042CF8D1336830AA02EBC30343F898
:104DD800A45C32680B49920005A8FFF737FC8046AF
:104DE8002846FFF73CFE1FE79496071064960710C5
:104DF80087B03F02C3B03F02989607106896071025
:104E080045E43F02C55C3D0210B50446C06918B1CF
:104E1800616A091AFDF74DF8204615F0CDFF2046C6
:104E280010BDF8B504460F4615460026BC422BD0E7
:104E380005B3234605F108022A6053F8081B8B4284
:104E48001ED1194604F1180051F804CB814242F8EA
:104E580004CBF9D162686A60C4E90036A369267296
:104E6800AB61E369EB61236A2B62636A6B62C4E935
:104E78000866E6612046FFF7C7FF28342835D5E7DE
:104E88002960A268AA60E5E72846F8BD70B504461F
:104E9800D0E90056AE4204D02846FFF7B5FF2835C2
:104EA800F8E7206818B1A168091AFDF702F820464A
:104EB80070BD00002DE9F347284BD0E90089A9EB24
:104EC8000804A4105C43264B8A469C4207461146B8
:104ED80002D124480FF062FF012C224638BF01227C
:104EE800A418AAEB080535D2B4B39C4228BF1C46C7
:104EF800C42060430191FCF7D4FF0646019970195C
:104F080002D0C4221EF086FB002D04DD2A4641464D
:104F180030461EF08CFBA9EB0A09C435B9F1000F25
:104F2800354404DD4A46514628461EF073FB4D447D
:104F3800B8F1000F05D0B9684046A1EB0801FCF7AD
:104F4800B8FFC42000FB0464C7E90065BC6002B078
:104F5800BDE8F0871C46CBE72646D0E7D1581F1A94
:104F6800052FA700C9B03F0284B010B502AC84E891
:104F78000F000C4CD4E9010398420CD018B1C4229C
:104F880002A91EF047FB6368C43363600120BDE8D3
:104F9800104004B07047014602AA2046FFF78AFF76
:104FA800F4E700BF7C9607102DE9F84F6FF06043D7
:104FB800D0E900899346A9EB0802B3EBA20F074694
:104FC8008A464FEAA20402D11F480FF0E7FE012CDF
:104FD800224638BF0122A418A1EB080530D28CB3B1
:104FE8009C4228BF1C46A000FCF75BFF0646EE4229
:104FF8001CBFDBF800307351002D04DD2A46414602
:1050080030461EF014FBA9EB0A090435B9F1000F6C
:10501800354404DD4A46514628461EF0FBFA4D4405
:10502800B8F1000F05D0B9684046A1EB0801FCF7BC
:1050380040FF06EB8404C7E90065BC60BDE8F88F53
:105048001C46D0E72646D2E7C9B03F0200232DE927
:10505800F04F05460027874A874C884E89B0336051
:105068001360DFF82492D4E900329342039118BF09
:105078006360D9E900239B1A814A9B1053439F42DE
:1050880011D2D4E9011200239142079306D001B14D
:105098000B606368043363600137EAE7764807AA60
:1050A800FFF782FFF8E72846FCF7D6FE0130FFF746
:1050B800D4FC0746002800F0C2802846FCF7CCFE46
:1050C8000021421C38461EF0CCFA2846FCF7C4FEE4
:1050D8002946024638461EF08BFC384669491FF0BF
:1050E80039FB4FF000080546002D00F0A180002391
:1050F80063490093D9E900239B1A9B104B430099FD
:10510800994280F093800B46C4214B430193039B43
:10511800FBB9019B2846D15802EB03081EF07BFC23
:1051280010B9009B0133E3E73368D4F800B0DDF829
:105138000CA0534540F385805BF82A202846116867
:1051480000931EF068FC002862D1009B0AF1010A56
:10515800EFE74FF00008C346D9F80030019A03EB97
:10516800020ADAF8043043454FDD0AEBC803284643
:10517800D9691EF050FC002832D04FF0000B33687C
:1051880002932368029A5A450BDD53F82B202846D0
:10519800116804931EF03FFC00BB049B0BF1010B4C
:1051A800F0E74FF0000B029A5A451FDD53F82B2009
:1051B800DAF800101068059304921EF02CFCDDE963
:1051C800042380B1012303FA08F1D2F8C0300B435D
:1051D800C2F8C030274A1368013313604FF0010B3F
:1051E80008F10108B8E70BF1010BDCE70121029A8D
:1051F80001FA08F143F822A03368226852F8232004
:105208000133C2F8C0103360E4E7BBF1000F88D067
:105218003368012B02DD4FF0010809E0002019492D
:105228001FF098FA4FF0010805465DE74FF00008B7
:105238003846FFF714FC404609B0BDE8F08F8046B9
:10524800F9E701204BF82380019AD9F80030094981
:1052580013445B680A681A440A603268216800FAD5
:1052680003F351F82210013B0244C1F8C030326008
:10527800CEE700BF94960710689607109896071017
:10528800D1581F1A26B33F027C96071038B503463B
:10529800D3E90035ED1A6FF06043AC10A3EBA50518
:1052A8008D42104601D20FF079FDA14238BF214648
:1052B800601803D2984228BF184638BD1846FCE744
:1052C800F7B500F108030360D1E9006304460D4611
:1052D800F7181EB917B11B480FF05AFD0F2B019391
:1052E80007D90022204601A915F044FD019B206042
:1052F800A3603A463146206815F0CFFD0023019A95
:10530800216862608B54AA69A261D5E90727BF1A90
:10531800C4E907336362B810FFF764FCC4E9070007
:1053280007446762D5E9071399420646A3EB0105CE
:1053380002D02A461EF07BF920462E44266203B08E
:10534800F0BD00BF16AD3F022DE9F347244BD0E96D
:105358000087A7EB0804E4105C43224B0E469C42EE
:105368000546114602D120480FF018FD012C2246AF
:1053780038BF0122A418A6EB080A2DD274B39C42A8
:1053880028BF1C46282060430191FCF78AFD81460E
:10539800019919EB0A0001D0FFF792FF31464A46FE
:1053A8004046FFF73EFD394600F128023046FFF738
:1053B80038FD0646B8F1000F05D0A9684046A1EBB4
:1053C8000801FCF776FD282000FB0494C5E9009647
:1053D800AC6002B0BDE8F0871C46D3E7A146D8E729
:1053E800CDCCCCCC33333303C9B03F022DE9F04FD9
:1053F80000251E46A1B006AB049318ABCDE91635BF
:105408002A9B81469E420F46CDE91D55DFF8108341
:1054180005958DF818508DF860501F9540F04A8119
:105428002C46DFF800B3A1F1040AC4215AF8043F5E
:10543800D8F800204B4352F803900CAB0A93B9F10B
:10544800000F00F05D814846FCF706FD0F2809EBC8
:105458000003109009D9002210A90AA8029315F098
:1054680089FC109A029B0A900C9249464FF0000959
:105478001A460A9815F016FD109B0A9A0B9359467E
:1054880002F803900AA84A4616F00DF848B3012E10
:1054980027D0431E4A460AA910A816F023F9DDE9C9
:1054A800101204A815F013FF10A815F085FCC421EC
:1054B800DAF80020D8F80030013501FB02335B68C8
:1054C8001C442A9B9D4217DA059BC3F17F5303F5C1
:1054D8007F1303F57F533F33022B08D88A480FF018
:1054E8005DFC04A8DDE90A1215F0F1FEDFE70322EE
:1054F800864904A815F0EBFE0AA815F05DFC2A9B66
:105508009D4292D104A916A815F0D1FCA300012E42
:1055180007EE903A40F08A80C4219FED7D7A3A6880
:10552800D8F8003001FB023303F108021C33F2EC17
:10553800016AB4EE667AF1EE10FA48BFB0EE667A08
:105548009342F4D1F8EE677ADDED2B6A67EE877A3D
:10555800F8EE666A77EEA77A86EEA77ABDEEC77A86
:1055680000268DED1C7A4FF0C40ADFF8ACB13A681A
:10557800B3000AFB0233D8F800201344D3ED027AB3
:10558800F5EE407AF1EE10FA09D0DDE91E429442B8
:105598001FD00CB1C4ED007A1E9B04331E93013654
:1055A800052EE4D11C9B5BB15A4CD4E90103984207
:1055B8007AD010B116A9FFF783FE636828336360B9
:1055C80016A8FFF721FC04A815F0F6FB21B0BDE8EA
:1055D800F08F01215A461DA80393FFF757FE1D9D22
:1055E8000290FFF7FFFAA4EB050910EB090118BFB9
:1055F800039B04461CBF9B680B60B9F1000F03DDD9
:105608004A4629461EF013F809F10402224435B12E
:105618001F992846491B0392FCF74BFC039A029BEF
:10562800CDE91D4204EB83041F94B8E79DED2B7A66
:10563800DDE91E43F8EE677AF8EE476A77EEA77A57
:1056480086EEA77ABDEEC77A9C428DED1C7A07D00C
:1056580014B14FF07E5323601E9B04331E93A1E7C1
:105668002D4A01211DA8FFF711FE1D9E0746FFF7D1
:10567800B9FAA41B03191CBF4FF07E521A60002C04
:10568800054603DD224631461DF0D1FF04342C4483
:1056980026B11F993046891BFCF70BFCCDE91D5438
:1056A80005EB87051F957DE7014616AA2046FFF7FB
:1056B8004BFE85E714462A9BDFF86CA001EB860BAE
:1056C8009D1B0136D8E90012521A92100AFB02F209
:1056D800531EA342FFF474AF121BAA42FFF670AF29
:1056E80059F824300134CBF800302B9B2246019323
:1056F8002A9B3946009348463346FFF777FEE1E791
:1057080006480FF045FB00BFE5B03F02FAB03F0284
:105718000000000088960710C9B03F0216AD3F028E
:105728007C960710E3B03F02D1581F1A2DE9F743C2
:10573800FEF702FED0F80041284E23682046DB68B9
:105748009847D6E9007864690138474500FB04F4B6
:1057580007D03D4628462835FFF756FBA845F9D11E
:10576800776000231E4D1F4F5E1CB000FCF79BFBAB
:105778008046D5E900031B1A5BBF9B107B434FF0A3
:10578800FF309800FCF78FFBD5E9002381469B1A70
:1057980000229B107B43934203D049F82220013218
:1057A800F9E7002341461A464846CDE90064FFF769
:1057B8001DFEB8F1000F02D04046FCF778FBB9F1A6
:1057C800000F02D04846FCF772FB022E4FF001038F
:1057D800CAD1024803B0BDE8F08300BF889607101D
:1057E8007C960710D1581F1A2DE9FF47FFF79EFF37
:1057F8000023D0E90025AD1A0646CDE9013303930D
:1058080018D0284B9D4201D90FF0BCFA2846FCF766
:1058180048FB0446CDE9014425440395D6E90057E1
:10582800AF4209D01CB129462046FFF749FD28346C
:105838002835F5E72C46EDE702941B4E019C1B4FDB
:10584800DFF87080029BA34225D030462168FFF71D
:10585800D7F83846A169FFF7D3F84046FFF7D0F8E4
:10586800DFF854A0E569DFF85490236A9D420DD013
:10587800B5EC010AFFF7E4F85046FFF7C1F8236AD0
:10588800AB42F2D04846FFF7BBF8EEE70848FFF70F
:10589800B7F82834D6E701A8FFF7F8FA04B0BDE84E
:1058A800F08700BFF8FFFF7FFEB03F0209B13F025B
:1058B800ADAA3F02C2A83F02D5A83F0206B13F02E7
:1058C80008B5084803F06EFE0023074AC2E9003312
:1058D8009360064AC2E900339360054AC2E900337F
:1058E800936008BD789607107C9607108896071075
:1058F8006896071037B5054608460C46FCF7ACFA1B
:105908000321CDE90040284602AB13E90C0003B09F
:10591800BDE83040FCF717BC00220521FCF791BC1C
:1059280010B40446D4F8C83008462BB1E468012105
:10593800A4465DF8044B604701485DF8044B704786
:1059480085E8FFFFF0B5D0F8C830054685B01BB92B
:10595800194C204605B0F0BD00F12806314602A8D2
:10596800FCF73FFD304602A9FCF7E1FC044600289D
:10597800EFD1DDE90272D5F8C830002BE8D0A8686D
:10598800394603690192984704460028E1D1019AF3
:1059980039462846FFF7C4FF019A824209D12146B9
:1059A80038461DF05EFED5E906123046FCF7B5FB19
:1059B800CFE7024CCDE700BF85E8FFFF81E8FFFF96
:1059C8007FB56E46054608460C4686E80C00FCF78F
:1059D80043FACDE9024002AC284694E80C000321C2
:1059E800FCF7B1FB96E8030084E80300032194E880
:1059F8000C00284604B0BDE87040FCF7A4BB0000CA
:105A08002DE9F04F2DED028B0E469046044689B0E5
:105A1800002800F04081002900F03F8112B9002BD6
:105A280000F03D81A36862685B68934280F0398129
:105A380020685B006362D31A0344236200211DF0CF
:105A480010FE626A3021206A1DF00BFE6368626AEC
:105A5800C4F8C8809B1AE3612368A361E368002B3C
:105A680000F021812369002B00F01F81A068002825
:105A780000F01D818368002B00F01B810269002A59
:105A880000F019814269002A00F017817268002A23
:105A980000F0158198470546002840F0F680D4E9C3
:105AA800061204F12805C4F8C0002846FCF735FBA7
:105AB80005212846FCF78EFB28468349FFF71AFF85
:105AC80005212846FCF786FB804B0DF1100904934D
:105AD8000223059399E80C007D492846FFF770FFDB
:105AE800A36806AF18680690FCF7B6F9079097E820
:105AF8000C0028467749FFF763FFA068C3680BB11D
:105B0800294698472846FFF707FF236A2846069341
:105B1800636A7149079397E80C00FFF751FF28461D
:105B28006E49FFF7E7FE28460521FCF753FB30686E
:105B380048B10690FCF790F907906949284697E81C
:105B48000C00FFF73DFF7068DFF8DCA10290FCF75E
:105B580083F9029A0346634903902846FFF730FF0A
:105B6800B068FBF709FC41EC180B5F492846FFF7C2
:105B7800C1FEB0EE480AF0EE680A2846FCF71AFBA8
:105B880028465A49FFF7B6FE04212846FCF722FBAF
:105B9800DFF898B106F1A0030193F3682BB31B78E3
:105BA8001BB333690BB3D4F8C0300133C4F8C03029
:105BB80030690490FCF750F9052105902846FCF758
:105BC80009FBF0680690FCF747F90790514697E8FB
:105BD8000C002846FFF7F4FE99E80C0028465946C1
:105BE800FFF7EEFE2846FFF797FE019B0836B34203
:105BF800D3D1002228460421FCF723FB28463C4940
:105C0800FFF778FE28460C21FCF708FB00220C2140
:105C18002846FCF756FB2846FFF77EFE2846FFF786
:105C28007BFE29463846FCF7DCFB28463946FCF75C
:105C38007EFB054648BB079ED4F82490013E069F8C
:105C48000796A6EB090AAA453BD04A46216A781965
:105C58001DF0D0FC08B10135F5E7002D31D0A06862
:105C6800C4F8C4503246394603699847054660B9B6
:105C7800B8F1000F09D0DDE906122046FFF750FE03
:105C8800079A1C4B904218BF1D46284609B0BDEC28
:105C9800028BBDE8F08F184DF7E7184DF5E7184D62
:105CA800F3E7184DF1E7184DEFE7184DEDE7184DFC
:105CB800EBE7184DE9E7184DE7E7184DE5E7184D0C
:105CC800E3E7184DE1E700BF25B13F0222B13F02EB
:105CD8002FB13F0233B13F0237B13F0241B13F021A
:105CE80049B13F0255B13F0261B13F026DB13F0278
:105CF8007BB13F0281E8FFFF87E8FFFF86E8FFFFEF
:105D080085E8FFFF8FE8FFFF8DE8FFFF8CE8FFFFC6
:105D18007EE8FFFF8AE8FFFF89E8FFFF88E8FFFFCA
:105D280084E8FFFF82E8FFFF50B13F0275B13F02F0
:105D38002DE9F041D0F8C080044690450D4617463D
:105D480038D1D0F8C830C3B3C2690021806904F1E2
:105D580028061DF086FCD4E906123046FCF7DDF96A
:105D6800B8F1010F0CD12868FBF706FB41EC100BCA
:105D78003046FCF71FFA2046BDE8F041FFF7E2BDC8
:105D880004213046FCF726FA4FF00008B8450BD03E
:105D980055F8040BFBF7F0FA41EC100B3046FCF712
:105DA80009FA08F10108F1E7002204213046FCF75E
:105DB80048FAE0E70248BDE8F0810248FBE700BF87
:105DC80080E8FFFF85E8FFFF2DE9F7430646154603
:105DD8000024DFF8EC804718BE4232D016F8011BC9
:105DE80002AA2244022C04F1010302F8081C26D15D
:105DF80000249DF800200DF1040993088DF8043063
:105E080012019DF8013002F0300202EB13128DF8F6
:105E180005209B009DF8022003F03C0303EB92133E
:105E280002F03F028DF806308DF8072019F8013B83
:105E3800013418F80300A847042CF7D100231C46A6
:105E4800CAE7CCB326460027032CC4F103024FF05F
:105E58000001C8BF00220DEB04001DF002FC9DF8F4
:105E680000109DF802208B088DF8043009019DF878
:105E7800013001F0300101EB13119B0003F03C03EA
:105E880003EB9213DFF8389002F03F028DF805100B
:105E98008DF806308DF807200DF1040818F8013B3D
:105EA800013719F80300A847BC42F7DA022E03D8D5
:105EB8003D20A8470136F9E703B0BDE8F08300BFED
:105EC80082B13F022DE9F047B2B06A464D4908A8B1
:105ED800FDF7E6FC4C4901AA0EA8FDF7E1FC4B4989
:105EE80002AA14A8FDF7DCFC494903AA1AA8FDF781
:105EF800D7FC484904AA20A8FDF7D2FC464905AAC0
:105F080026A8FDF7CDFC454906AA2CA8FDF7C8FC34
:105F1800A820FBF7C6FF4FF0000905460EAE00F1BA
:105F2800180400F1C008182CA4F1180027D0A4F117
:105F3800100344F8183C56E9067307EB030A2FB917
:105F4800BAF1000F02D036480EF022FF0F2B07934C
:105F580008D9002207A914F00DFF079B44F8180C74
:105F680044F8103C5246394654F8180C14F095FF82
:105F7800079B54F8182C44F8143C02F80390274661
:105F88001834A04506F11806CDD10624182608AB0A
:105F980006FB043014F010FF013CF8D22148FEF74C
:105FA8002FFD2148FEF72CFD1E48FEF729FD1F484E
:105FB800FEF726FD1E48FEF723FD1E48FEF720FDCE
:105FC8001D48FEF71DFD42F2DD111C48FEF718FDC5
:105FD8004FF485711A48FEF713FD296B1948FEF72F
:105FE8000FFD2C46A74204D0204614F0E5FE1834D5
:105FF800F8E72846A821FBF75CFF012032B0BDE88E
:10600800F08700BFC3B13F02CBB13F02D6B13F0218
:10601800E4B13F02EBB13F02F0B13F02FEB13F02F3
:1060280016AD3F0205B23F0220B23F023BB23F022B
:106038005FB23F0280B23F02A7B23F02D0B23F0236
:10604800EBB23F0206B33F0273B500F108030360E9
:10605800D1E900530446EE181DB916B10C480EF0EC
:1060680097FE0F2B019307D90022204601A914F0AF
:1060780081FE019B2060A36032462946206814F007
:106088000CFF0021019B22686360D15402B070BDEF
:1060980016AD3F0273B5044616460D4619B912B13E
:1060A8000D480EF075FE731B0F2B019307D90022C4
:1060B800204601A914F05EFE019B2060A3603246D1
:1060C8002946206814F0EEFE0021019B22686360D7
:1060D800D15402B070BD00BF16AD3F020B4670B57B
:1060E8000C4653F8081B0546994200680DD16268B2
:1060F8000AB114F08FFE002163682A686B60D154DE
:10610800002322686360137070BD05F10806B04271
:1061180008BF00202960616818BFAA686960A16883
:10612800A96010B12060A260EAE72360E8E7F8B54B
:106138000D4614460027A8421FD000F118069CB14E
:10614800034604F10802226053F8081B994210D153
:10615800194651F804CBB14242F804CBF9D1426850
:106168006260C0E90037077214F026FE1834304622
:10617800E1E721608268A260F1E72046F8BDF8B542
:10618800032303700023426883601370D0E9076714
:10619800BE42044607D035462846183514F00CFE92
:1061A800AF42F9D126620023A362F8BD2DE9F34777
:1061B800244BD0E90087A7EB0804E4105C43224B8A
:1061C8000E469C420546114602D120480EF0E6FDD7
:1061D800012C224638BF0122A418A6EB080A2DD2AA
:1061E80074B39C4228BF1C46182060430191FBF7FA
:1061F80058FE8146019919EB0A0001D0FFF724FFE8
:1062080031464A464046FFF792FF394600F11802E8
:106218003046FFF78CFF0646B8F1000F05D0A96895
:106228004046A1EB0801FBF744FE182000FB04944C
:10623800C5E90096AC6002B0BDE8F0871C46D3E71C
:10624800A146D8E7ABAAAAAA55555505C9B03F0239
:1062580038B5D0E90135AB4204460A4607D013B138
:106268001846FFF7F1FE63681833636038BD1946B6
:10627800FFF79CFFFAE700002DE9F0470C460026DF
:106288008CB002AB0093054601968DF80860FFF7C5
:1062980076FF636843B903232B70684614F08CFDBE
:1062A80028460CB0BDE8F08732465E49204615F016
:1062B8006EF94FF0FF330246214606A815F012FA90
:1062C80006A92046FFF70AFF06A814F075FD324616
:1062D8002046554915F00FF907460028DBD14FF045
:1062E800FF330322214606A815F0FCF906A920462B
:1062F800FFF7F4FE06A814F05FFD4FF0FF324B499C
:10630800204615F078F94FF0FF32411C204614F072
:10631800C7FE0146204614F0CAFD3A4644492046C5
:1063280015F00EF9064603463A46214606A815F02A
:10633800D9F906A9281DFFF7D1FE06A814F03CFDDF
:10634800731C01D12F70A8E73146204614F07EFE59
:1063580003783D2B26D102232B703146204614F0BA
:1063680075FE03783D2B98D132462046314915F009
:10637800E7F88246DFF8BC9008AF05F11C08721CEC
:10638800BAF1FF3FD4E9000300EB020130D00AF173
:10639800FF309A42A0EB0600069708D926492748FD
:1063A8000EF002FD3F2B0CBF01230323D4E79B1AF9
:1063B800834294BFCA180A1806A8FFF76BFE06A9FD
:1063C8006846FFF78BFE06A814F0F6FC69464046BF
:1063D800FFF73EFFAA6A019B49469A4220460AF106
:1063E800010238BFAB6215F0ABF856468246C6E7E5
:1063F8009A420697D2D8C21806A8FFF74BFE06A9FC
:106408006846FFF76BFE06A814F0D6FC69464046BE
:10641800FFF71EFF019BAA6A9A42BFF43EAFAB6228
:106428003BE700BF21B33F0224B33F0228B33F023A
:106438002CB33F022FB33F0231B33F024CB33F02AC
:1064480001207047012A02D1016000207047022A0A
:1064580004BF0B680360F8E710B40C4603681168C2
:1064680020685DF8044B1847012A02D1016000201A
:106478007047022A04BF0B680360F8E703681847EF
:106488000B4670B50C4653F8081B05469942006840
:106498000DD162680AB114F0BDFC002163682A6856
:1064A8006B60D154002322686360137070BD05F1DE
:1064B8000806B04208BF00202960616818BFAA68B2
:1064C8006960A168A96010B12060A260EAE7236052
:1064D800E8E71FB5044608460391FBF7BDFC002119
:1064E8000090039B2046626814F062FE04B010BD61
:1064F80073B500F108030360D1E900530446EE18B0
:106508001DB916B10C480EF043FC0F2B019307D9A7
:106518000022204601A914F02DFC019B2060A360F5
:1065280032462946206814F0B8FC0021019B2268F5
:106538006360D15402B070BD16AD3F02034B1868BA
:1065480018B19968091AFBF7B4BC7047A4960710EC
:106558000B4670B500F10802026053F8084B9C42E4
:106568000FD11C4601F1180554F8046BAC4242F8EF
:10657800046BF9D10B6000234A684B6042600B72D0
:1065880070BD8A6804608260F4E7000073B50D4648
:10659800466881690446D5E90032B14208D11946F6
:1065A80014F095FEA3696A681344A36102B070BD34
:1065B80005D90A463346044904480EF0F5FB009213
:1065C800002214F0F5FDEDE783B33F024CB33F0220
:1065D80043688B4201DA83617047002901DA00239E
:1065E800F9E78161704710B50446603014F0E4FBA8
:1065F80004F15000FDF747FD04F14000FDF743FDAD
:1066080004F13000FDF73FFD04F1180014F0D4FB4D
:10661800204614F0D1FB204610BD00002DE9F843B8
:10662800064600252548FEF7EBF92548FEF7E8F968
:106638007469244FDFF89880DFF898906034B26965
:10664800A4F160039A4235D054F8283C3BB954F879
:10665800183C53B954F8083C3BB97834EFE754F880
:10666800601C1948FEF7CCF9012554F8183C2BB1E9
:1066780054F8601C1548FEF7C3F9012554F8083C86
:106688005BB9002DE9D054F8443C23B1384654F89E
:10669800481CFEF7B5F90125DFE74146204614F00E
:1066A800B9FF0028EDD04846226854F8601CFEF770
:1066B800A7F9E8E70120BDE8F88300BF99B33F02D6
:1066C800BFB33F021DB43F0204B43F020BB43F0204
:1066D80023B33F0213B43F020148FEF791B900BF4C
:1066E80023B43F0270B50446D0E90056AE4204D048
:1066F800284614F061FB1835F8E7206818B1A1683E
:10670800091AFBF7D6FB204670BD70B50446583011
:10671800FFF7E8FF04F1400014F04EFB04F12000FD
:1067280014F04AFBD4E90556AE4204D02846FFF7D8
:106738005AFF7835F8E7606918B1E169091AFBF77B
:10674800B8FB2046FFF7CEFF204670BD08B542686B
:106758004B689A4208D14AB1096800681CF04AFFA0
:10676800B0FA80F0400908BD0020FCE70120FAE7F4
:1067780010B5D0E90042121B914202D302480EF034
:1067880013FB601810BD00BF26B43F0210B5826825
:106798000AB90EF028FBC368BDE81040184700008E
:1067A8002DE9F04F95B00CAB82460A93002303A85D
:1067B800CDE910330B938DF8303012938846FFF7EC
:1067C80097FE03A90AF13C00FFF756FD014606466D
:1067D80011F8043B0AA88DF824300DF1400914F093
:1067E80066FB06F11C03994538D0D6E90745DDF864
:1067F80040B0129B2F1BA3EB0B03BB423ED2A7B1A9
:10680800894B9F4201D90EF0BDFA3846FBF749FB88
:1068180083465846A5420AD020B121460090FFF78A
:1068280067FE009818301834F4E7BB46F1E7DDE955
:106838001045A54204D0204614F0BEFA1834F8E7F3
:10684800109818B11299091AFBF733FB0BEB0700E4
:10685800CDF840B01290109B3B441193B36A03A843
:10686800139314F0A9FA9DF82430032B4AD1D8F8D1
:1068780000106E48FEF7C4F801244FE0119B6C4DE0
:10688800A3EB0B039F421FD8F810454358462B46ED
:10689800002B019309DD2146009014F008FB0098B5
:1068A800019B18341830013BF2E7182425EAE575F6
:1068B80004FB05B4119BA3420093CCD0204614F0EE
:1068C8007BFA1834009BF6E7DB105D43002D08DDEA
:1068D8002146584614F0EBFA18340BF1180B013D19
:1068E800F4E7DDE91045291BF469D6F820B00C441B
:1068F800A345B0D01DB121462846FFF7F9FD18344D
:106908001835F5E74B490AA814F084FE80B99DF8BC
:1069180024306BB95046FFF781FE04464846FFF71E
:10692800E1FE0AA814F048FA204615B0BDE8F08F39
:10693800DAE90567BE42354673D030460AA9FFF743
:1069480005FF783604460028F4D09DF8243033B982
:10695800AB6B43B105F13000FFF718FFDDE7012B02
:1069680007D0022B0BD0D8F800103348FEF748F8B0
:10697800D4E7AB6C002BF6D005F14000ECE7AB6D2B
:10698800002BF0D0DDE91030294CC01AC01060434C
:106998008000FEF762F84FF0000806461827DDE988
:1069A80010239B1ADB10634398451AD213980130C1
:1069B800FEF753F846F82800DDE91032D21AD21053
:1069C8006243904503D341461C480EF0EDF907FB9E
:1069D80008F1139A595801321DF00AF808F1010814
:1069E800DDE7CDE90263AB6D0BB90EF0FCF9EB6D99
:1069F80005F1500003AA02A99847002504460C4F48
:106A0800DDE910239B1ADB107B439D4205D256F823
:106A18002500FEF724F80135F2E73046FEF71FF8A7
:106A28007CE70A99064825E7F8FFFF7F70B43F0224
:106A3800ABAAAAAA8DB43F0292B43F0226B43F0281
:106A4800B0B43F020A4673B504461F491046019286
:106A580014F0E0FDB0B3D4E901039842019A20D0C4
:106A680010B11146FFF744FD636818336360174996
:106A7800D4E900031A1AD2104A43E568AA421AD97F
:106A880000F11805AB4211D05D1BED104D43002DF0
:106A980000F118060ADD3146FFF7F2FC013D3046E9
:106AA800F5E701462046FFF781FBE0E76068183804
:106AB800606014F081F9D4E900239B1A034ADB10C3
:106AC8005343236102B070BD23B33F02ABAAAAAA05
