:02000004085B97
:10E0000000E05B08FCFF5F0800000600200005013F
:08E0100004017D150000000071
:10E018001348144908B5884205D0134A824202D0F1
:10E02800124B121A98471248124A0021124B121A20
:10E03800984712481249884205D0124A824202D0B3
:10E048000A4B121A984710481049884205D0104ABE
:10E05800824202D0054B121A9847014808BD00BFFA
:10E06800608D0610D4E15F08C09506102D0D1110C3
:10E07800C09D0610E8AF0710A10E1110D0FE3B029C
:10E08800B0E05B08D8FE3B02E0FE3B02B8E05B086C
:0CE09800FCFF3F0219E05B0800000000E4
:08E0A4008029E0790100000071
:08E0B0009CE05B08DC6A3F0202
:10E0B80081F0004102E000BF83F0004330B54FEA31
:10E0C80041044FEA430594EA050F08BF90EA020F9E
:10E0D8001FBF54EA000C55EA020C7FEA645C7FEA31
:10E0E800655C00F0E2804FEA5454D4EB5555B8BF54
:10E0F8006D420CDD2C4480EA020281EA030382EAC5
:10E10800000083EA010180EA020281EA0303362D56
:10E1180088BF30BD11F0004F4FEA01314FF4801C29
:10E128004CEA113102D0404261EB410113F0004F3B
:10E138004FEA03334CEA133302D0524263EB4303F2
:10E1480094EA050F00F0A780A4F10104D5F1200E90
:10E158000DDB02FA0EFC22FA05F2801841F10001EB
:10E1680003FA0EF2801843FA05F359410EE0A5F1BF
:10E1780020050EF1200E012A03FA0EFC28BF4CF0F0
:10E18800020C43FA05F3C01851EBE37101F00045A6
:10E1980007D54FF0000EDCF1000C7EEB00006EEBB3
:10E1A8000101B1F5801F1BD3B1F5001F0CD349083D
:10E1B8005FEA30004FEA3C0C04F101044FEA445294
:10E1C80012F5800F80F09A80BCF1004F08BF5FEA1B
:10E1D800500C50F1000041EB045141EA050130BDFB
:10E1E8005FEA4C0C404141EB0101013C28BFB1F50D
:10E1F800801FE9D291F0000F04BF01460020B1FA58
:10E2080081F308BF2033A3F10B03B3F120020CDA2A
:10E218000C3208DD02F1140CC2F10C0201FA0CF008
:10E2280021FA02F10CE002F11402D8BFC2F1200C6D
:10E2380001FA02F120FA0CFCDCBF41EA0C01904023
:10E24800E41AA2BF01EB0451294330BD6FEA04046C
:10E258001F3C1CDA0C340EDC04F11404C4F1200257
:10E2680020FA04F001FA02F340EA030021FA04F369
:10E2780045EA030130BDC4F10C04C4F1200220FAC0
:10E2880002F001FA04F340EA0300294630BD21FAFE
:10E2980004F0294630BD94F0000F83F4801306BFC4
:10E2A80081F480110134013D4EE77FEA645C18BFB8
:10E2B8007FEA655C29D094EA050F08BF90EA020F4F
:10E2C80005D054EA000C04BF1946104630BD91EA47
:10E2D800030F1EBF0021002030BD5FEA545C05D14A
:10E2E8004000494128BF41F0004130BD14F5800489
:10E2F8003CBF01F5801130BD01F0004545F0FE41FD
:10E3080041F470014FF0000030BD7FEA645C1ABF31
:10E31800194610467FEA655C1CBF0B46024650EA68
:10E32800013406BF52EA033591EA030F41F4002194
:10E3380030BD00BF90F0000F04BF0021704730B51A
:10E348004FF4806404F132044FF000054FF00001EF
:10E3580050E700BF90F0000F04BF0021704730B5B0
:10E368004FF4806404F1320410F0004548BF404285
:10E378004FF000013EE700BF42004FEAE2014FEADA
:10E3880031014FEA02701FBF12F07F4393F07F4FB5
:10E3980081F06051704732F07F4208BF704793F0B8
:10E3A8007F4F04BF41F40021704730B54FF46074CB
:10E3B80001F0004521F000411CE700BF50EA0102CE
:10E3C80008BF704730B54FF000050AE050EA010277
:10E3D80008BF704730B511F0004502D5404261EBE7
:10E3E80041014FF4806404F132045FEA915C3FF428
:10E3F800D8AE4FF003025FEADC0C18BF03325FEAC5
:10E40800DC0C18BF033202EBDC02C2F1200300FA75
:10E4180003FC20FA02F001FA03FE40EA0E0021FA9A
:10E4280002F11444BDE600BF70B54FF0FF0C4CF488
:10E43800E06C1CEA11541DBF1CEA135594EA0C0F3A
:10E4480095EA0C0F00F0DEF82C4481EA030621EA75
:10E458004C5123EA4C5350EA013518BF52EA0335B0
:10E4680041F4801143F4801338D0A0FB02CE4FF062
:10E478000005E1FB02E506F00042E0FB03E54FF092
:10E488000006E1FB03569CF0000F18BF4EF0010E8A
:10E49800A4F1FF04B6F5007F64F5407404D25FEA86
:10E4A8004E0E6D4146EB060642EAC62141EA555139
:10E4B8004FEAC52040EA5E504FEACE2EB4F1FD0C7B
:10E4C80088BFBCF5E06F1ED8BEF1004F08BF5FEAF9
:10E4D800500E50F1000041EB045170BD06F00046AB
:10E4E80046EA010140EA020081EA0301B4EB5C0458
:10E4F800C2BFD4EB0C0541EA045170BD41F4801150
:10E508004FF0000E013C00F3AB8014F1360FDEBF74
:10E51800002001F0004170BDC4F10004203C35DA50
:10E528000C341BDC04F11404C4F1200500FA05F3D3
:10E5380020FA04F001FA05F240EA020001F0004274
:10E5480021F0004110EBD37021FA04F642EB0601EA
:10E558005EEA430E08BF20EAD37070BDC4F10C0414
:10E56800C4F1200500FA04F320FA05F001FA04F2D8
:10E5780040EA020001F0004110EBD37041F10001C4
:10E588005EEA430E08BF20EAD37070BDC4F12005CF
:10E5980000FA05F24EEA020E20FA04F301FA05F237
:10E5A80043EA020321FA04F001F0004121FA04F2DF
:10E5B80020EA020000EBD3705EEA430E08BF20EAAF
:10E5C800D37070BD94F0000F0FD101F000464000E9
:10E5D80041EB010111F4801F08BF013CF7D041EA6B
:10E5E800060195F0000F18BF704703F0004652006F
:10E5F80043EB030313F4801F08BF013DF7D043EA40
:10E608000603704794EA0C0F0CEA135518BF95EAF5
:10E618000C0F0CD050EA410618BF52EA4306D1D17C
:10E6280081EA030101F000414FF0000070BD50EA9B
:10E63800410606BF1046194652EA430619D094EA25
:10E648000C0F02D150EA013613D195EA0C0F05D10F
:10E6580052EA03361CBF104619460AD181EA030163
:10E6680001F0004141F0FE4141F470014FF000001B
:10E6780070BD41F0FE4141F4780170BD70B54FF0B6
:10E68800FF0C4CF4E06C1CEA11541DBF1CEA135536
:10E6980094EA0C0F95EA0C0F00F0A7F8A4EB050418
:10E6A80081EA030E52EA03354FEA013100F088800F
:10E6B8004FEA03334FF0805545EA131343EA1263D8
:10E6C8004FEA022245EA111545EA10654FEA00268D
:10E6D8000EF000419D4208BF964244F1FD0404F546
:10E6E800407402D25B084FEA3202B61A65EB0305A2
:10E6F8005B084FEA32024FF480104FF4002CB6EB5F
:10E70800020E75EB030E22BFB61A754640EA0C00DE
:10E718005B084FEA3202B6EB020E75EB030E22BF1E
:10E72800B61A754640EA5C005B084FEA3202B6EB5F
:10E73800020E75EB030E22BFB61A754640EA9C001E
:10E748005B084FEA3202B6EB020E75EB030E22BFEE
:10E75800B61A754640EADC0055EA060E18D04FEAAC
:10E76800051545EA16754FEA06164FEAC30343EA4C
:10E7780052734FEAC2025FEA1C1CC0D111F4801F19
:10E788000BD141EA00014FF000004FF0004CB6E712
:10E7980011F4801F04BF01430020B4F1FD0C88BFB1
:10E7A800BCF5E06F3FF6AFAEB5EB030C04BFB6EBBC
:10E7B800020C5FEA500C50F1000041EB045170BDAF
:10E7C8000EF0004E4EEA113114EB5C04C2BFD4EBDC
:10E7D8000C0541EA045170BD41F480114FF0000E60
:10E7E800013C90E645EA060E8DE60CEA135594EADC
:10E7F8000C0F08BF95EA0C0F3FF43BAF94EA0C0FDF
:10E808000AD150EA01347FF434AF95EA0C0F7FF453
:10E8180025AF104619462CE795EA0C0F06D152EAA7
:10E8280003353FF4FDAE1046194622E750EA41068B
:10E8380018BF52EA43067FF4C5AE50EA41047FF49C
:10E848000DAF52EA43057FF4EBAE12E74FF0FF3C01
:10E8580006E000BF4FF0010C02E000BF4FF0010CD2
:10E868004DF804CD4FEA410C7FEA6C5C4FEA430C4B
:10E8780018BF7FEA6C5C1BD001B050EA410C0CBF9A
:10E8880052EA430C91EA030F02BF90EA020F0020FC
:10E89800704710F1000F91EA030F58BF994208BF63
:10E8A80090422CBFD8176FEAE37040F00100704720
:10E8B8004FEA410C7FEA6C5C02D150EA013C07D177
:10E8C8004FEA430C7FEA6C5CD6D152EA033CD3D0C2
:10E8D8005DF8040B704700BF8446104662468C46BC
:10E8E8001946634600E000BF01B5FFF7B7FF0028EF
:10E8F80048BF10F1000F01BD4DF808EDFFF7F4FF18
:10E908000CBF012000205DF808FB00BF4DF808EDA2
:10E91800FFF7EAFF34BF012000205DF808FB00BFC5
:10E928004DF808EDFFF7E0FF94BF012000205DF8E7
:10E9380008FB00BF4DF808EDFFF7CEFF94BF01209C
:10E9480000205DF808FB00BF4DF808EDFFF7C4FF95
:10E9580034BF012000205DF808FB00BF4FEA410CDE
:10E968007FEA6C5C02D150EA013C0AD14FEA430CC1
:10E978007FEA6C5C02D152EA033C02D14FF00000FE
:10E9880070474FF0010070474FEA410212F500123C
:10E9980015D211D56FF47873B3EB625212D94FEADE
:10E9A800C12343F0004343EA505311F0004F23FAC8
:10E9B80002F018BF404270474FF00000704750EA1D
:10E9C800013005D111F0004008BF6FF000407047DA
:10E9D8004FF00000704700BF4A0011D212F5001234
:10E9E80011D20DD56FF47873B3EB62520ED44FEA9F
:10E9F800C12343F0004343EA505323FA02F070471F
:10EA08004FF00000704750EA013002D14FF0FF305C
:10EA180070474FF0000070474FEA4102B2F1E043FF
:10EA280024BFB3F5001CDCF1FE5C0DD901F0004CED
:10EA38004FEAC0024CEA5070B2F1004F40EB83003D
:10EA480008BF20F00100704711F0804F21D113F169
:10EA58003872BCBF01F00040704741F480114FEAA2
:10EA68005252C2F11802C2F1200C10FA0CF320FA2B
:10EA780002F018BF40F001004FEAC1234FEAD32348
:10EA880003FA0CFC40EA0C0023FA02F34FEA4303B2
:10EA9800CCE77FEA625307D150EA01331EBF4FF03B
:10EAA800FE4040F44000704701F0004040F0FE4056
:10EAB80040F40000704700BF7BB972B90029BEBF9F
:10EAC80000204FF0004106E008BF00281CBF6FF08F
:10EAD80000414FF0FF3000F003BAADF1080C6DE9CA
:10EAE80004CE002909DB002B1ADB00F083F8DDF8DF
:10EAF80004E0DDE9022304B07047404261EB4101C4
:10EB0800002B1BDB00F076F8DDF804E0DDE90223DA
:10EB180004B0404261EB4101524263EB430370474A
:10EB2800524263EB430300F065F8DDF804E0DDE9E9
:10EB3800022304B0404261EB41017047524263EB4B
:10EB4800430300F057F8DDF804E0DDE9022304B0E0
:10EB5800524263EB4303704753B94AB9002908BFCF
:10EB680000281CBF4FF0FF314FF0FF3000F0B8B95C
:10EB7800ADF1080C6DE904CE00F03CF8DDF804E0D6
:10EB8800DDE9022304B0704738B5002200230446AB
:10EB98000D46FFF7BBFE28B920462946BDE8384098
:10EBA80000F00AB8204605F1004100F005F840429F
:10EBB80061EB410138BD00BFD0B500220B4B0646C2
:10EBC8000F46FFF731FCFFF707FF0446FFF7B2FBDC
:10EBD8000022074BFFF728FC02460B463046394611
:10EBE800FFF76AFAFFF7F8FE2146D0BD0000F03DB6
:10EBF8000000F0412DE9F04F099D04460F46002B17
:10EC080048D18A42944661D9B2FA82F343B1C3F13A
:10EC180020019F4002FA03FC9C4020FA01F10F43B7
:10EC28004FEA1C411FFA8CFE220CB7FBF1F601FBE0
:10EC3800167706FB0EF042EA0742904208D91CEB11
:10EC4800020206F1FF3702D2904200F237813E46B7
:10EC5800121AA4B2B2FBF1F001FB102200FB0EFE67
:10EC680044EA0244A64508D91CEB040400F1FF322B
:10EC780002D2A64500F21C81104640EA0640A4EBE9
:10EC88000E0400261DB1DC400023C5E900433146CF
:10EC9800BDE8F08F8B4209D9002D00F0FD800026D9
:10ECA800C5E9000130463146BDE8F08FB3FA83F676
:10ECB800002E4BD18B42C0F0F280824240F2EF80AE
:10ECC8003046002DE3D0C5E90047E0E702B9FFDE92
:10ECD800B2FA82F3002B40F09D80891A4FEA124E57
:10ECE80097B20126200CB1FBFEF20EFB121140EA8E
:10ECF800014107FB02F088420FD91CEB010102F128
:10ED0800FF382CBF4FF001094FF00009884203D9A2
:10ED1800B9F1000F00F0CF804246091AA4B2B1FB46
:10ED2800FEF00EFB101100FB07F744EA0144A7426E
:10ED380008D91CEB040400F1FF3102D2A74200F20B
:10ED4800B4800846E41B40EA02409BE7C6F120076E
:10ED5800B34001FA06F422FA07FCF940B2404CEA43
:10ED6800030C20FA07F34FEA1C491C431FFA8CFED8
:10ED780000FA06F3200CB1FBF9F809FB181140EA78
:10ED8800014108FB0EF088420FD91CEB010108F184
:10ED9800FF3A2CBF4FF0010B4FF0000B884203D90C
:10EDA800BBF1000F00F08D80D046091AA4B2B1FB68
:10EDB800F9F009FB101100FB0EFE44EA01418E45F3
:10EDC80007D91CEB010100F1FF3401D28E457FD831
:10EDD800204640EA0840A1EB0E01A0FB02984145FD
:10EDE8004C46C64602D306D14B4504D20138B9EB8E
:10EDF800020468EB0C0E002D70D01A1B61EB0E019B
:10EE080022FA06F301FA07F7F14000261F43C5E985
:10EE180000713CE702FA03FCC3F1200001FA03F297
:10EE280021FA00F64FEA1C4E24FA00F11FFA8CF77B
:10EE38009C401143B6FBFEF00A0C0EFB106642EA3A
:10EE4800064200FB07F696420ED91CEB020200F1BF
:10EE5800FF382CBF4FF001094FF00009964202D944
:10EE6800B9F1000F31D04046921B89B2B2FBFEF6D1
:10EE78000EFB162241EA024106FB07F28A4207D935
:10EE88001CEB010106F1FF3801D28A4223D846461D
:10EE9800891A46EA004625E72E462846F7E6841AE8
:10EEA80061EB030301201F460BE76444023849E77E
:10EEB80064440238E1E6023A61442EE7023E6244C5
:10EEC800C6E6A8F1020861446FE702386244CBE75E
:10EED800023861447DE7023E6144D9E72E46D6E612
:10EEE800704700BF10F8012B11F8013B012A28BF19
:10EEF8009A42F7D0D01A7047034613F8012B002A1C
:10EF0800FBD1181A0138704770B512F00FF80025B8
:10EF1800054E064CA41BA408AC4200D170BD56F89F
:10EF2800043B98470135F7E7ACFF3F02FCFF3F027F
:10EF380001F04CBD08B501F071FDBDE8084011F0C5
:10EF4800ADBF11F099B911F097B911F0A3B911F04B
:10EF5800A1B911F09FB9000000487047B9803F027D
:10EF68000C2008B5024A034911F06EF8FEE700BF0D
:10EF78008D193D02EC6A3F020078B0FA80F0400932
:10EF880070470123037070470388426840884968C6
:10EF9800584300B97047F2EC017A67EE807A01387D
:10EFA800E1EC017AF5E7F0B502884B6845884468DA
:10EFB8004FEA820CAF0003EB820219462846264628
:10EFC80020B9043393423C44F7D1F0BD56F804EB22
:10EFD8000138C1F800E06144F2E730B5F0EC017A9D
:10EFE80001240025A14203D1C2ED007A1D6030BD85
:10EFF800B0EC017AF4EEC77AF1EE10FA54BFB0EE35
:10F00800677A2546F0EE477A0134EBE70B469FED29
:10F018000A7A82B001914BB9DDED017AF8EE677A90
:10F02800C7EE276AC2ED006A02B07047F0EC017AB9
:10F03800013B37EE277AEEE70000000030B5F0EC30
:10F04800017A01240025A14203D1C2ED007A1D6096
:10F0580030BDB0EC017AF4EEC77AF1EE10FAD4BF05
:10F06800B0EE677A2546F0EE477A0134EBE7000008
:10F078009FED117A13B50B461446F0EE476A0191DD
:10F0880083B9DDED017AF8EE677A87EE270AB5EEE7
:10F09800C00AF1EE10FA0BDB2CF062F884ED000ADE
:10F0A80002B010BDF0EC017A013BA7EEA77AE7E7C2
:10F0B800C4ED006AF4E700BF000000000129DFED9D
:10F0C800137A10B502D8C2ED007A10BD0B4604467B
:10F0D800B4EC017A013B77EE877AF9D107EE101A82
:10F0E800B8EE477ADFED096A87EE876AF0EC017AB5
:10F0F80077EEC67A0139E7EEA76AF7D1F7EE007A1C
:10F1080037EE677AC6EE877ADDE700BF00000000B9
:10F118002DE9F04F0C4616464FF0000B1D688BB0DA
:10F12800DDE91478DDE9199A1DB928460BB0BDE868
:10F13800F08F01230993236938460893E368189AE6
:10F148000793D9F80C3016990693D8F80030013D8A
:10F1580005937368049333680393A368CDE901B3F7
:10F1680023680093534600F009F8D8F800301F448C
:10F17800D9F80C309A44D7E7002070472DE9F04FB2
:10F1880095B007910F93DDE9233101EBD171491057
:10F198000A911E99002B09B2C1EA014B1946B8BF62
:10F1A800D91C81468810019058000990229821F0B6
:10F1B800030A22990028C1F10001C8BF0021049167
:10F1C80001210498079E8140013905914910069153
:10F1D80001310B91279949000891079901EB0A051C
:10F1E80009EB0A010E910F99029100210391C9F1CF
:10F1F80000011391229921EAE171119103990A986A
:10F2080081424DDB089D20EAE070099C079945433F
:10F2180000FB0411249C2846E4073DD502B112687E
:10F228008C46019C002C40F0DB800E9E5144AAEBDA
:10F2380006057719BB4200F3E780229B4FF0804117
:10F2480023EAE3739A400023219CC2FB0413229A09
:10F258001D46002ADCBF524201920122CB0F0199C0
:10F26800019C8A4043EA4503013A53FA04F403EA4D
:10F2780002014FEA620248BF0132209B9142C8BF97
:10F2880001341C44259B9C42B8BF1C46269B9C42CB
:10F29800A8BF1C460F9B1C54002015B0BDE8F08F7A
:10F2A800002A6AD0174657F8080B51683A46F718EB
:10F2B8000D97099FDDF804E0F7191297CDF8309003
:10F2C800BEF1000F5CD105EB030CE6460E9F139CC4
:10F2D8003E19B34277DC4FF080460025119CA040D0
:10F2E800219CC0FB0465059CF00F40EA450000EA3C
:10F2F8000405049C069E20410B9C48BF2646119C91
:10F30800B54201FA04F64FF000054FF08041219C08
:10F31800C8BF0130C6FB0415059CC90F41EA450169
:10F3280001EA0405049C069E21410B9C48BF264621
:10F33800209CB542C8BF013120442144259C129E1F
:10F34800A042B8BF2046A142B8BF2146269C03EB85
:10F358000C05A042A8BF2046029C20702698814236
:10F36800A8BF01462046279C01550146089801443C
:10F37800029103990131039140E71146104696E73F
:10F388000C9C54F8047B0C942BFA97F456F804CB95
:10F3980010942BFA87F72FFA9CF82FFA8CFC28FB8D
:10F3A80004002CFB07000D9C54F804CB0D942FFA95
:10F3B8009CF8109C2FFA8CFC28FB04112CFB0711DD
:10F3C8000EF1FF3E7CE717F9016B1E9C15F9018BC6
:10F3D800264406FB08001EF9018B06FB081176E798
:10F3E80059F8046B2BFA96FE5CF8045B2BFA86F648
:10F3F8002FFA95F72FFA85F527FB0E2225FB062213
:10F40800019C013C01940CE716F9017B1E9C11F943
:10F4180001CB274407FB0C220BE700002DE9F04F36
:10F4280091B09B469DF870300A900D9300230C9183
:10F43800039201930493019A0A9B134405930C9A2F
:10F44800049B934202DB11B0BDE8F08F0A9B019A3E
:10F458009B5602930123039A9342C0F27A810025B6
:10F46800AE46DFF80083039B9E45C0F27F81002DE6
:10F4780000F0D682B5FA85F6B54005F100456FF083
:10F488000043E917ED1841F10001B1F1FF3F08BF52
:10F49800B5F1FF3F0BBF2B4601230A460022EB18AC
:10F4A80041EB0202D50FEB1842F100025B0843EA78
:10F4B800C2735F1CAB4806BF4FF0804000254FF079
:10F4C800FF35A94952105C4201FB0244A3FB011C11
:10F4D8000918644444EB0504002C04DA6FF000407A
:10F4E800091844F10004C90F41EA44015C1C9D4D10
:10F4F8001ABF4FF080454FF0000E4FF0FF3E01F16C
:10F508005A3101FB02F4C81703FB0044A1FB0308AE
:10F518004019444444EB0E04002C4FEAD37C04DA2F
:10F528006FF00045401944F10004C00F40EA440060
:10F53800C0F100500028ACBF00254FF0FF35894CC2
:10F54800A8BF4FF08044C1FB0045002D04DA6FF0DE
:10F558000040241845F10005E40F44EA4504B4F1DD
:10F56800604FCBBF4FF0FF3500254FF0000E4FF036
:10F57800004E05EA840484EA0E0460184FEAD07E3F
:10F58800F445784D06BF4FF080454FF000084FF026
:10F59800FF3800FB02F4C11703FB0144A0FB031969
:10F5A80049194C4444EB0804002C04DA6FF0004578
:10F5B800491944F10004C90F41EA4401C1F100515D
:10F5C800684CBEEBD17F13BFA6464FF0804E002497
:10F5D8004FF0FF34C0FB01E42546002D744604DAE1
:10F5E8006FF00041641845F10005E40F44EA450452
:10F5F800B4F1005FABBF00214FF0FF316FF0004561
:10F60800002501EA8401B4F1604F81EA0501D5BF04
:10F6180000254FF0FF354FF0004400242940614099
:10F628000844C40FA4454F4906BF4FF08041002548
:10F638004FF0FF3542434FEAE07C03FB0C22A0FB6E
:10F64800033C5B18624442EB0502002A04DA6FF0BF
:10F6580000415B1842F10002DB0F43EA4203C3F1A9
:10F668000053B4EBD37F0CBF00214FF0FF313D4A6C
:10F6780008BF4FF08042C0FB0321002904DA6FF075
:10F688000043D21841F10001D20F42EA4101B1F121
:10F69800005FB5BF4FF0FF33002300226FF0004238
:10F6A800B1F1604F03EA8103D4BF00214FF0FF316D
:10F6B80083EA0203D4BF4FF00042002219405140B0
:10F6C8000844B0F1804FABBF00234FF0FF336FF019
:10F6D80000420022B0F1404FD4BF00214FF0FF316B
:10F6E80003EA400383EA0203D4BF4FF0004200223A
:10F6F8000B40534006930D9B002B7FF4A4AE019A58
:10F708001D9B4FF0000C13440993069BC6F1230A76
:10F71800002BB3BF4FF0FF3300234FF08042114A54
:10F72800DFF840E0CDE90E23012303FA0AF3013B99
:10F7380007935B10089301330B93039B9C45C0F21E
:10F748008381049B019A01330493039B1A44019219
:10F7580071E6059A0299D25601339142B8BF114613
:10F76800029178E6010000C0C4C3C3C3059B13F926
:10F778000E10029BC91A1B9B8B4200F34E811A9BE9
:10F788009940CB0FB3EBDB7F0BBF4FF08042424673
:10F7980000234FF0FF33C1FB0B23002B184604DA7C
:10F7A8006FF00043D21840F10000D30F594543EAE7
:10F7B800400304D1BBF1004F08BF6FF000434FF086
:10F7C8008042002443F07F4CACEB03014FEA4C1C11
:10F7D8000CF1805CCCFB0C24002C4FEAEC7604DAAC
:10F7E8006FF00040121844F10004D20F42EA4402BC
:10F7F800A2FB0209E41702FB04FA10F1804049EB6E
:10F808004A09B9F1000F05DA6FF0004A10EB0A0057
:10F8180049F10009C00F40EA490000F003098010CF
:10F8280054BF4FF0010A4FF0020AD1454FEAD2798E
:10F83800C8BF0130B9EBDC7F0BBF4FF08049C14630
:10F848004FF0000A4FF0FF3A0CFB04F402FB0644A9
:10F85800ACFB026716EB09063C4444EB0A04002C97
:10F8680005DA6FF0004916EB090644F10004F60FBB
:10F8780046EA440630440028ABBF4FF08044444673
:10F8880000264FF0FF36684FC0FB0746002E04DA0B
:10F898006FF00040241846F10006E40F44EA4604DD
:10F8A8001444621002D4E60748BF01329444BCF104
:10F8B800000FABBF4FF08044444600204FF0FF30AC
:10F8C8005A4ACCFB0240002804DA6FF00042A41820
:10F8D80040F10000E40F4FF0804244EA4004002069
:10F8E8009446824604F1E244514FA4F52524A4F23B
:10F8F8006C74C4FB07CAC1F300664FEADC7C4CEAAF
:10F908004A0C41F30069013E09EA0C093440944667
:10F918000646484F89EA0404C4FB07C6C1F3406A97
:10F928004FEADC7C0AF1FF3A4CEA460C0AEA040A80
:10F938001646044641F3406909EA0C093E4F89EA34
:10F948000A09C9FB0764C1F3806AF60F46EA440650
:10F9580041F3806C0AF1FF3A0AEA090A0CEA060C3C
:10F968008CEA0A0C14468246344EC1F3C069CCFBBB
:10F97800064AE40F44EA4A0441F3C06609F1FF3934
:10F9880009EA0C09264086EA0906824691462C4C6B
:10F99800C1F3007CC6FB049A4FEAD97949EA4A09BF
:10F9A80041F300740CF1FF3C0CEA060C04EA09046C
:10F9B80084EA0C0482469446DFF88890C1F34076C6
:10F9C800013EC4FB09CA2640F224B3FA83F34FEA86
:10F9D800DC7C4CEA4A0C41F3407909EA0C0C8CEACD
:10F9E800060CCCFB0420C1F3807AD20F42EA400215
:10F9F80041F380710AF1FF3A0A405B090AEA0C0CEC
:10FA0800581E82EA0C025B4223F0004302405A402F
:10FA18001313110548BF01331D440EF1010E22E5F1
:10FA280020264FF000452AE5ABAAAA2A94A8F5702B
:10FA38007BBEAF63F2CBA24D6CAC162FA4AA5211B9
:10FA4800B72A580211FE0A00059B13F90C10029BF5
:10FA5800C91A1B9B9942C0F269811A9B9940CB0F26
:10FA6800B3EBDB7F0BBF4FF08043734600224FF0B0
:10FA7800FF32C1FB0B32002A104604DA6FF0004255
:10FA88009B1840F10000DA0F594542EA400204D1C0
:10FA9800BBF1004F08BF6FF000424FF080410024D7
:10FAA80042F07F46B31A760106F18056C6FB06146B
:10FAB800002C4FEAE67504DA6FF00040091844F1AB
:10FAC8000004C90F41EA4401A1FB0108E41701FB46
:10FAD80004F910F1804048EB4908B8F1000F05DA45
:10FAE8006FF0004910EB090048F10008C00F40EA28
:10FAF800480000F00308801054BF4FF001094FF090
:10FB08000209C8454FEAD178C8BF0130B8EBD67FA3
:10FB18000BBF4FF08048F0464FF000094FF0FF3917
:10FB2800744301FB0544A6FB015715EB08053C444B
:10FB380044EB0904002C05DA6FF0004815EB0805C2
:10FB480044F10004ED0F45EA440528440028ABBF02
:10FB58004FF08044744600254FF0FF35744FC0FBCA
:10FB68000745002D04DA6FF00040241845F1000520
:10FB7800E40F44EA45040C44611002D4E00748BF8E
:10FB880001310E44002EABBF4FF080447446002173
:10FB98004FF0FF316748C6FB0041002904DA6FF0D7
:10FBA8000040241841F10001E40F002044EA410418
:10FBB8004FF0804181460E4604F1E2445E4FA4F5C1
:10FBC8002524A4F26C74C4FB0769C3F30065F60F1F
:10FBD80046EA490643F30068013D08EA06082C4056
:10FBE8000E460546554F88EA0404C4FB0765C3F36F
:10FBF8004069F60F09F1FF3946EA450609EA0409A2
:10FC08000D46044643F3406808EA06084C4E88EA65
:10FC18000908C8FB0654C3F38069ED0F45EA44059B
:10FC280043F3806609F1FF3909EA08092E4086EA9C
:10FC380009060C468146434DC3F3C068C6FB054917
:10FC4800E40F44EA490443F3C06508F1FF3808EAC1
:10FC58000608254085EA0805814688463A4CC3F3DC
:10FC68000076C5FB04894FEAD87848EA490843F387
:10FC78000074013E2E4004EA0804744081460E4692
:10FC8800DFF8C880C3F34075013DC4FB086925400F
:10FC9800F224B2FA82F2F60F46EA490643F34078B4
:10FCA80008EA06066E40C6FB0410C3F38079C90F44
:10FCB80041EA400143F3807309F1FF3919405209C1
:10FCC80009EA0606501E71405242014022F00040E7
:10FCD80048400699DDE90E32C1FB0032002A14467D
:10FCE80004DA6FF000429B1844F10004079ADB0F16
:10FCF80043EA440308981A4053FA0AF30B9958BF89
:10FD080001468A42C8BF0133803B13F17F0F08DBED
:10FD18007E2B09DC5BB2099A02F80C300CF1010C5D
:10FD28000BE56FF07F03F6E77F23F4E78023F2E724
:10FD3800ABAAAA2A94A8F5707BBEAF63F2CBA24DFA
:10FD48006CAC162FA4AA5211B72A580211FE0A0049
:10FD58001FB5089C039400240294079C0194069CF8
:10FD68000094FFF75BFB04B010BD82B00346684601
:10FD780080E8060040F60F31998100219960997357
:10FD880003C883E8050002B0704773B504461D46F2
:10FD9800A37B02A800E9060033B940F60F33A28915
:10FDA8009A4203D00123A37302B070BDD4E9013293
:10FDB8009A42F7D8019E9B1AB342F3D3AA42F1D3D1
:10FDC800521B05D0216819B1294488192FF0CDF9A3
:10FDD800206820B13246009928442FF0C6F9A3685C
:10FDE8003344A360E0E78B7B10B51BB100230360AD
:10FDF800436010BD40F60F328C89944202D0012234
:10FE08008A73F4E70A688B680260F1E753EC102BF9
:10FE18002DE9F04100241F46DFF8A8C0C3F30A53B8
:10FE280013EB0C0644F1FF31A3F2FF7E5EEA0102F8
:10FE380010EE108A4FEAD775C7F3130014D158EAA9
:10FE480000033CD03B03C8F3080009D540F4007018
:10FE58001F2340EAC53040EA832080B2BDE8F08124
:10FE6800012838BF0120F3E7B1F1FF3F08BF66451D
:10FE780022D0102E71F1000221DA16F10E0F71F165
:10FE8800FF3214DA6FF00D01891B01F12A0300F526
:10FE98008010C3F1200600FA06F60A3128FA03F3A7
:10FEA80020FA01F133430B4398B22346D1E7A3F577
:10FEB8007C739BB2800ACCE723462046C9E71F2300
:10FEC8002046C6E701FCFFFF2DE9F04155EC104B39
:10FED800064688460022002310EE100A2946FEF73F
:10FEE8000BFD58B145EC104BFFF790FF00220223A1
:10FEF800C6E9020233703046BDE8F081194FC5F3F8
:10FF08000A5313EB070E61EB0101A3F2FF7C5CEAD5
:10FF1800010720462A46E5D0B8F1000F0DD01EF1A2
:10FF28000E0F71F1FF3708DBBEF1100F71F1000100
:10FF380003DAC5F309012143D4D06FF460715B186B
:10FF480061EB0101FE2B71F1000309D230F060472B
:10FF580006D120462946FEF75FFD3A460423C7E747
:10FF68000823C5E701FCFFFF2DE9F0430C2987B002
:10FF78000DF11505DDE90E6740D00D2942D0182E88
:10FF880077F1000303D242B9F2B22B461FE00729EA
:10FF980003D1A6F11F033B4338D04FF0000C2B468A
:10FFA800DFF86C800AE09E4618F80440A3EB0E09BF
:10FFB8004C451CDC1B1B121B0CF1010C56EA070EEE
:10FFC8005FFA8CF4EFD1002AEDDC1734E2B25C1E44
:10FFD80002EB41122D1B03F8012C21462A46109BE7
:10FFE80001940295FFF7D1FE07B0BDE8F0830EF843
:08FFF800016D360A46EA0766B6
:02000004085C96
:100000003F0AD7E71F222B460421E4E71F222B4695
:100010000521E0E71F22BCE7016B3F021FB58468A2
:10002000CDE9002302940022FFF7A2FF04B010BD27
:100030008388C3F57F42FE32012AC3BF0133838028
:1000400000200320704737B56D46044685E806005A
:10005000982200212FF0A7F895E806002046FFF728
:1000600088FE04F11403C4F894300423A37603B08B
:1000700030BD7FB56E4686E80C00037C04460D4615
:1000800083B9092910D196E8030002AA82E8030087
:10009000A368204606CAFFF77CFED4F89400FFF759
:1000A000C7FF207404B070BD0B2908BF0221019A5C
:1000B000FFF7B4FF0B2DF0D0E5E730B5057C044623
:1000C00085B05DB985688DE82C000A460721FFF7E9
:1000D0004FFFD4F89400FFF7ABFF207405B030BD9C
:1000E0001FB5044601216846FFF7F2FEDDE9022351
:1000F00020469DF8001004B0BDE81040FFF7DDBFBA
:1001000038B50446D0F89400FFF792FF207428B960
:10011000A26812F1660F02D90723237438BDD4F800
:10012000943004F18C05AB420FBF022003F10805A7
:10013000C4F8945098811FBFD4F894301A60D4F852
:10014000943099712074E9E730B5836885B0002256
:100150000293002304460D46CDE90023FFF708FF74
:100160002946204605B0BDE83040FFF7C9BFF0B5CD
:100170001646027C04460B4687B03AB9D0F8942064
:1001800000F114018A4203D10423237407B0F0BDA7
:1001900091798B4201D00F23F7E7836802291FBFB3
:1001A0009088CB1E9BB2B0FBF3F34FF000051768AD
:1001B000204608BFDB1B2A46CDE900350297FFF732
:1001C000D7FE66B1214604A8FFF711FEDDE904322F
:1001D00097420AD8D51B03B13B44C6E90035D4F891
:1001E0009430083BC4F89430D0E72B46F5E770B55F
:1001F000057C0446164686B03DB9D0F8943000F12F
:100200001402934203D10423237406B070BD9B797A
:100210008B4201D00F23F7E783681F22029300234C
:100220000721CDE900232A46FFF7A2FE6EB1214641
:1002300004A8FFF7DCFDDDE90432A16891420AD889
:10024000551A03B10B44C6E90035D4F89430083B85
:10025000C4F89430D9E72B46F5E773B5837B0C4699
:100260000BB101230374057C75B9D0F8942000F11B
:1002700014039A420BD16E4601463046FFF7B7FD94
:1002800096E8030084E80300284602B070BD0A2502
:10029000FAE700000904064A41EA002040F00100A4
:1002A000044B10601168C90701D5013BFAD17047B2
:1002B00000000140A0860100064A000240F0100044
:1002C000106005481368D90602D50138FAD1704785
:1002D000180C704700000140A08601002DE9F3478B
:1002E00017464FF090421D468846D2F844331169B4
:1002F00023F0FE0349014CBF43F0540343F0D00305
:1003000015F010040646C2F8443340EA001959D0EB
:100310004FF421611220FFF7BDFF4FF4216115203A
:10032000FFF7B8FF1B20FFF7C7FF40F0070081B2BF
:100330001B20FFF7AFFF1B20FFF7BEFF40F01000B0
:1003400081B21B20FFF7A6FF41F6BF711820FFF70F
:10035000A1FFFB20FFF7B0FF40F0020081B2FB20BD
:10036000FFF798FF1120FFF7A7FF20F4005141F499
:10037000805189B21120FFF78DFF1420FFF79CFFF9
:1003800020F4005141F4805189B21420FFF782FF1C
:100390001820FFF791FF6FEAC0406FEAD04081B2AA
:1003A0001820FFF777FF17211B20FFF773FF49463F
:1003B0001720FFF76FFF8021102002B0BDE8F04743
:1003C000FFF768BF0320FFF777FF20F4406141F497
:1003D0000061032089B2FFF75DFF15F0080A4AD0DB
:1003E0001820FFF769FF40F03F0081B21820FFF7A7
:1003F00051FF2046FFF760FF00F4406040F4467173
:1004000041F003012046FFF745FF40F2FC71012057
:10041000FFF740FF0220FFF74FFF00F4E05040F4E9
:10042000014141F0EA010220FFF734FF10210C20C6
:10043000FFF730FF49F6FC710120FFF72BFF022088
:10044000FFF73AFF00F4E05040F4014141F0FA01B7
:100450000220FFF71FFF2046FFF72EFF00F4406049
:1004600040F4667141F003012046FFF713FF1821A5
:100470000C20FFF70FFF15F005042FD00220FFF727
:100480001BFF20F4C04141F40141022089B2FFF773
:1004900001FF052034F0ACFBEA077FD50C20FFF705
:1004A0000BFF40F0100081B20C20FFF7F3FE02209A
:1004B000FFF702FF40F4C06081B20220FFF7EAFEBE
:1004C000642034F095FB0320FFF7F6FE20F0F001E6
:1004D00041F4687189B20320FFF7DCFE15F00D0FBF
:1004E00002D0C82034F094FBBAF1000F20D00020D5
:1004F000FFF7E2FE00F4406040F4067141F00301B2
:100500000020FFF7C7FE40F2FC410120FFF7C2FECA
:100510000220FFF7D1FE00F4E05040F4014141F029
:10052000EA010220FFF7B6FE10210C20FFF7B2FE11
:100530006CB10020FFF7C0FE40F4606040F00100A5
:1005400081B20020FFF7A6FE322034F051FB41F6C5
:10055000BF711820FFF79EFE46F220311120FFF7F1
:1005600099FE46F220311420FFF794FE64B3122066
:10057000FFF7A2FE04461520FFF79EFE24F4C76491
:1005800020F4C76AA4B21FFA8AFA092E0ED8DFE84F
:1005900006F0BBC00DB60D0D0D0DBBC00320FFF75F
:1005A0008BFE00F47F4040F4547194E744F0040162
:1005B0004AF0040A1220FFF76DFE15205146FFF79E
:1005C00069FE322034F024FB17211B20FFF762FE66
:1005D00049461720FFF75EFEFB20FFF76DFE20F077
:1005E000060141F0080189B2FB20FFF753FEFD2010
:1005F000FFF762FE20F0060141F0080189B2FD20FC
:10060000FFF748FE2720FFF757FE20F4807081B2E5
:100610000FB941F480712720FFF73CFEFA20FFF765
:100620004BFE20F400704005400D40F48051FA204C
:100630000191FFF72FFEFC200199FFF72BFEAB077E
:1006400040D51120FFF738FE344C204040F4A04143
:1006500041F0190189B21120FFF71CFE1220FFF7AB
:100660002BFE40F0040081B21220FFF713FE14208D
:10067000FFF722FE204040F4A04141F0180189B26A
:100680001420FFF707FE1520FFF716FE40F00400C8
:1006900081B21520FFF7FEFD1720FFF70DFE20F4B5
:1006A000E06141F4807189B21720FFF7F3FD182053
:1006B000FFF702FE6FEAC0406FEAD04081B2182017
:1006C000FFF7E8FD26F00806012E13D11720FFF7EB
:1006D000F3FD20F4F04141F4006189B21720FFF7E7
:1006E000D9FD1B20FFF7E8FD20F00C0081B21B2094
:1006F000FFF7D0FD47EA081141F080015CE644F0C5
:100700000C014AF00C0A55E744F014014AF0140AAF
:1007100050E744F01C014AF01C0A4BE7FEDFFFFFE4
:100720000C21054A92F83D304B43D118D35C0BB9EC
:100730004868704700207047C09E061038B50C4DC1
:100740000A4695F83D4028B10C2303FB0453596831
:100750002EF002FD0C23012263431444E4B2042C66
:10076000EA540ABF002385F83D4085F83D3038BD86
:10077000C09E0610094A92F83E1069B90C2092F802
:100780003C3058430133DBB2042B115402D082F8C1
:100790003C30704782F83C10704700BFC09E061086
:1007A0000C21084B93F83C204A4399189A5C22B1DB
:1007B0000022486883F83E2070470122586B83F876
:1007C0003E207047C09E0610064B93F83E200AB1AB
:1007D000986B70470C2193F83C2001FB023398681A
:1007E000704700BFC09E061037B5214B04465B69B9
:1007F000D8031AD5636A228DD9064FEA820208D03F
:1008000023F01F01013B134423F01F0320335A1A26
:100810000B46BFF34F8F16481344002AA3EB020187
:1008200021DCBFF34F8FBFF36F8F6178114B2078BE
:100830009847FFF79FFFFFF7B3FF0190FFF7C4FF53
:100840000546019A617820780B4B984761782078AB
:10085000AA080A4B9847012261782078084B03B018
:10086000BDE830401847C0F85C12203AD5E700BF19
:1008700000ED00E0A5BD1010B9C2101009C31010A2
:1008800091BF1010B0F5FA5FF7B51CD0B0F5FA4F74
:1008900014BF05250325374B0120B1FA81F4984791
:1008A0004FF0414101220846334FB84733490122F6
:1008B0000846B847EB1E6409042B07D8DFE803F0AD
:1008C0000506560658000725E5E70C26304610F0C9
:1008D000B9FC0223224628460021FFF7FFFC284DE1
:1008E00000212120A84700212220A847254D0C21C6
:1008F0002120A8470C212220A847234B234A012569
:100900005A6380229A6300224FF4007020499A872C
:1009100083F83E200132042AC3E901101D7001F55D
:10092000007103F10C03F5D100261A4D1A4B28462D
:100930009847294619481A4BAC602E609847012108
:100940001648184B98470121174B14489847FFF752
:1009500027FF0446FFF738FF144ACDE9004011464F
:100960003046134B134CA04703B0F0BD1826ADE73B
:100970003026ABE785303D023900111000000840F9
:1009800099CF1010B9CF1010C09E0610409E0610CF
:10099000C0950610189E061039313D02000801402E
:1009A0008D313D022D323D0269313D02C49D06105C
:1009B00011263C0251323D0208B5FFF7B1FE00B9E5
:1009C00008BD00210846FFF7B9FEF6E7FFF7A8BE0D
:1009D000FFF7B4BE10B501F0A5F904464FF4FA6074
:1009E00002F0BEF910F0CEF94FF4E13110F0BEF98B
:1009F000094802F0E1F90EF001FB0DF047FE204638
:100A000000F030FB054C2060054802F0D5F9206865
:100A1000BDE8104004F0CABD056B3F02009F061000
:100A20003A6B3F0210B502F0B5F9044608F0AEF992
:100A300068B1622C07D108F089F9BDE81040094B74
:100A4000186804F0B3BDBDE8104009F02FBFFF2CBB
:100A500006D0044B2146BDE81040186804F0F0BFF2
:100A600010BD00BF009F0610002101200FF01ABB2F
:100A700010B5054C20680368DB6D98472068036853
:100A80009B689847012010BD049F061008B5054BD0
:100A9000186803681B6998470168034802F08CF9DD
:100AA000012008BD049F0610FD6B3F0210B5144CD9
:100AB000206803689B6A98470168124802F07CF935
:100AC000206803681B6B984710EE100AFDF758FC6E
:100AD00002460B460C4802F06FF9206803689B6BD6
:100AE00098470146094802F067F9206803681B6AC5
:100AF00098470168064802F05FF9012010BD00BF69
:100B0000049F0610646B3F02736B3F02886B3F02C9
:100B10009C6B3F0208B5054B186803689B699847B2
:100B20000168034802F048F9012008BD049F06103F
:100B3000FD6B3F0210B50D4C206803681B6D984794
:100B400001680B4802F038F9206803681B6C98476D
:100B50000168084802F030F9206803689B6C9847E8
:100B60000168054802F028F9012010BD049F061015
:100B7000AB6B3F02BA6B3F02C96B3F0208B5054B36
:100B8000186803681B6C98470168034802F014F961
:100B9000012008BD049F0610FD6B3F0208B5024806
:100BA00002F00AF9012008BD337E3F022DE9F04F23
:100BB0002DED028B754C83B0206801AA036869464D
:100BC0005B6E9847724802F0F7F8206800260368C9
:100BD0009FED708A1B69984701686F4802F0ECF836
:100BE0002068DFF824820368DFF82092DB689847EA
:100BF00001686A4802F0E0F8694802F0DDF8206810
:100C00000368DB6E98470146664802F0D5F86648EF
:100C100002F0D2F8654802F0CFF8019BB3422FD919
:100C2000009B770103EB46124046128BD95902F024
:100C3000C3F80025DFF8D8A1009B4FEA850B3B44A1
:100C400003EB8502D2ED017AF4EEC87AF1EE10FAE8
:100C50000EDD15B1504602F0AFF8009B3B445B44FB
:100C60005868FDF78DFB02460B46484602F0A4F893
:100C70000135052DE0D14E4802F09EF80136CCE753
:100C800004F00CF8484802F097F84A4802F094F84B
:100C9000494802F091F8444802F08EF8474802F0C3
:100CA0008BF8474802F088F8464802F085F8464835
:100CB00002F082F8454802F07FF8454802F07CF8DF
:100CC000394802F079F8434802F076F82068036862
:100CD0009B6A98470168404802F06EF820680368F4
:100CE0001B6B984710EE100AFDF74AFB02460B46B5
:100CF0003A4802F061F8206803689B6B9847014608
:100D0000374802F059F8206803681B6A9847016861
:100D1000344802F051F8244802F04EF8324802F00C
:100D20004BF8206803681B6D984701682F4802F054
:100D300043F8206803681B6C984701682C4802F050
:100D40003BF8206803689B6C98470168294802F0CB
:100D500033F8154802F030F8274802F02DF82068E3
:100D600003689B6998470168244802F025F82448E5
:100D700002F022F8234802F01FF80B4802F01CF89A
:100D8000012003B0BDEC028BBDE8F08F049F06107C
:100D9000D86B3F02CDCCCC3DF16B3F02016C3F02E2
:100DA000116C3F02246C3F02337E3F02416C3F02D4
:100DB000656E3F02906C3F02A76C3F02BB6C3F0226
:100DC000CD6C3F02DA6C3F02E76C3F02F56C3F02EC
:100DD000036D3F02116D3F02646B3F02736B3F0274
:100DE000886B3F029C6B3F02326D3F02AB6B3F0250
:100DF000BA6B3F02C96B3F024F6D3F026E6D3F02FF
:100E00007E6D3F028D6D3F02576C3F02896C3F0241
:100E1000C07B3F0200292DE9F347054606DC214847
:100E200001F0CAFF012002B0BDE8F08700261E4C89
:100E30006946206801AA03685B6E9847DDE900797E
:100E4000D5F80080B14517D0BA46414657F8200B77
:100E5000FEF74CF870B9DAF81C3098470546B0B97F
:100E6000124801F0A9FF294620680368D3F88030B2
:100E70009847D7E70136E5E70021404603F040FBFD
:100E800058B103F017F9054608B90948E9E72068A1
:100E900004210368D3F88030EAE72968054801F0A7
:100EA0008BFFBFE79B6D3F02049F0610B16D3F02B1
:100EB000D06D3F02FD6D3F0201292DE9F04105464D
:100EC0000E4605DC254801F077FF0120BDE8F081E2
:100ED00000682DF01AFB074668682DF016FB204CC1
:100EE0008046206803210368D3F880309847022E9B
:100EF00029D0AB681B78792B25D11A4801F05CFF0B
:100F00002068012603685B6F9847642001F028FF82
:100F10004146384603F000F805464EB1124801F04C
:100F20004BFF642001F01CFF206803681B6F98478B
:100F30005DB90E4801F040FF294620680368D3F8E8
:100F400080309847C1E70026E2E7094801F034FF06
:100F5000206804210368D3F88030F2E7316E3F0245
:100F6000049F0610696E3F02686E3F026D6E3F027D
:100F7000337E3F02002208B510469FED030A11465A
:100F800007F066FE002008BD00000000002908B53B
:100F90000DDD03681A78A2F179035A425A419FED98
:100FA000050A0121002007F053FE002008BD0022A1
:100FB000F5E700BF00000000002208B59FED030A1E
:100FC0001146012007F044FE002008BD000000008B
:100FD0002DE9F04F0129054689B02DDD1C4B006835
:100FE0001B68DFF87890D3F800812DF08EFA044664
:100FF00068682DF08AFA0746DFF864A0DFF858B079
:10100000BC4221D2D8F800302246DD69694610235F
:101010004046A84700266D46484615F8011B01F0DA
:10102000CBFE0F2E0CBF58465046013601F0C4FED1
:10103000102EF1D11034E3E70221064801F0BCFE86
:10104000012009B0BDE8F08F034801F0B5FEF7E7D5
:10105000049F06108E6E3F02337E3F0282723F0273
:1010600071DF3F0230B5504B85B0186005F0C4F910
:10107000002405464D4B4E4901934E4B029100937F
:101080004D4A002305F044F94C4B28460093CDE926
:10109000014423464A4A4B4905F03AF92846CDE92E
:1010A0000144494B494A4A49009405F031F9494BFA
:1010B00028460293484B494A0193494B49490093BA
:1010C000234605F025F9484B28460293474B484AEA
:1010D000CDE900434749234605F01AF9464B284617
:1010E0000293464B464A0193464B47490093234699
:1010F00005F00EF9454B28460293454B454ACDE98C
:1011000000434549234605F003F9444B2846029322
:10111000434B444A0193444B44490093234605F012
:10112000F7F8434B28460293424B434A0193434B03
:1011300043490093234605F0EBF8424B28460293BF
:10114000414B424ACDE900434149234605F0E0F8CE
:10115000404B28460293404B404ACDE9004340496A
:10116000234605F0D5F82846CDE901443D4A3E4BDB
:101170003E49009405F0CCF82846CDE901443C4BAB
:10118000384A3C49009405F0C3F83B4B284602938B
:101190003A4B3B4ACDE900433A49234605F0B8F8BB
:1011A000284605B030BD00BF049F061005313C0243
:1011B000C26E3F02B5283C02AF6E3F02D5293C0209
:1011C000CB6E3F020F6F3F0299283C02E16E3F0257
:1011D0000A6F3F024D6F3F0249313C02166F3F02DA
:1011E000D5283C023E6F3F028F6F3F023D2C3C02F0
:1011F000746F3F02836F3F02D26F3F02A9323C02FD
:101200009B6F3F023D293C02C56F3F020C703F02BD
:10121000E12C3C02D66F3F0201703F025B703F023F
:10122000ED323C0226703F025D293C024C703F02C9
:101230007E703F0251333C0267703F02A5293C0299
:1012400078703F02A0703F02C5293C0283703F02C4
:101250009A703F02C1703F02F92D3C02A5703F0217
:10126000B9703F02CE703F029D2D3C02DE703F02FE
:10127000E12D3C02E9703F0245713F02B52D3C0271
:10128000F8703F0235713F0200F1080373B5044660
:101290000D460360E1B10846FDF732FE0F2805EB6D
:1012A0000006019007D90022204601A921F08EFDF9
:1012B000019B2060A36032462946206821F01EFE73
:1012C00000212046019B22686360D15402B070BDAA
:1012D00001481BF089FD00BF50713F0230B5002965
:1012E00089B005DC0B4801F067FD012009B030BD75
:1012F000094B01681C6801AA236802A85D69FFF711
:10130000C3FF0022204602A9A84702A821F080FDC1
:101310000248E8E77A713F02049F0610696E3F02B7
:101320002DE9F04F2DED028B022904460E4695B0B3
:1013300008DC4E4801F040FD012015B0BDEC028BE9
:10134000BDE8F08F4A4D01682F6808AA3B680EA8D7
:10135000D3F82C80FFF798FF002238460EA9C0472B
:101360000EA821F055FD61680EAA02A8FFF78CFFB8
:101370002F68DDF808803B68D3F834900FF00CF844
:10138000D0F800A00FF008F800230EA90360404633
:101390002EF024FF0E9BB0EE408A984502D13548CE
:1013A0001BF025FD0EF0F8FF0368222B02D1314817
:1013B0001BF023FD0EF0F0FF03681BB90EF0ECFFED
:1013C000C0F800A0B0EE480A38460021C847A1681E
:1013D0000EAA08A8FFF758FFD5F80080DDF8209086
:1013E000D8F80030D3F83CA00EF0D6FFD0F800B00B
:1013F0000EF0D2FF00230A2203600EA948462FF008
:1014000027F80E9B0746994501D11B48C8E70EF007
:10141000C3FF0368222B01D11748C9E70EF0BCFFB8
:1014200003681BB90EF0B8FFC0F800B000223946BF
:101430004046D047032E0ED02D68E1682B6801AAE4
:101440000EA85E6AFFF720FF284600220EA9B047CB
:101450000EA821F0DDFC094801F0AEFC08A821F03F
:10146000D7FC02A821F0D4FC66E700BF8D713F02D3
:10147000049F0610D1713F02D6713F02696E3F0290
:1014800030B5002989B005DC0B4801F095FC01203E
:1014900009B030BD094B01681C6801AA236802A885
:1014A000DD69FFF7F1FE0022204602A9A84702A845
:1014B00021F0AEFC0248E8E77A713F02049F061073
:1014C000696E3F02F0B50129044689B005DC134876
:1014D00001F072FC012009B0F0BD114D01682E68C9
:1014E00001AA336802A85F6DFFF7CEFE00223046E6
:1014F00002A9B84702A821F08BFC2D6861682B680F
:1015000001AA02A8DE6CFFF7BFFE0022284602A94E
:10151000B04702A821F07CFC0248D9E7DB713F020A
:10152000049F0610696E3F0230B5002989B005DCC2
:101530000B4801F041FC012009B030BD094B0168A6
:101540001C6801AA236802A85D6CFFF79DFE0022BB
:10155000204602A9A84702A821F05AFC0248E8E761
:101560007A713F02049F0610696E3F02014810F035
:1015700043B800BF089F061038307047503070479E
:1015800068307047803070479830704790ED2C0A73
:101590007047D0F8B4007047B8307047D03070470B
:1015A000E83070470020704700207047002301207A
:1015B0000B601360704700F10C02426000228260F1
:1015C000027370474FF4E130704770477047002056
:1015D0007047002070477047002070470020704718
:1015E000006D7047806B7047024B1B6803B1184752
:1015F000704700BF149F06104FF4E13070477047EA
:1016000080F824117047000070B50446D0F800013E
:101610000E4603681546DB689847D4F80031013858
:101620001B6904F582745843094B2360094BE3613D
:101630004FF4FA43B0FBF3F0074B20836360074B92
:101640000020A360064BE360012334602B6070BD73
:1016500004723F0285063D0200007A460000FA450A
:1016600000007A4510B504461649503021F057FE67
:10167000154904F1680021F052FE134904F180007D
:1016800021F04DFE104904F1980021F048FE00239E
:10169000C4F8B03000230C49C4F8B43004F1B800E9
:1016A00021F03DFE084904F1D00021F038FE04F19C
:1016B000E800054921F033FE23682046BDE81040CC
:1016C0009B6818470F723F02B9803F0210B504466D
:1016D000FFF7C8FF236820469B6898472368204689
:1016E000BDE810401B68184738B538301546002350
:1016F0001F220C4621F048FE002328602354184680
:1017000038BD38B55030154600231F220C4621F055
:101710003BFE002328602354184638BD38B50546E3
:101720004FF46D7001F075FB0446002854D04FF45F
:101730006D7200212DF037FD6968802220462DF062
:10174000F9FE8022E969A0182DF0F4FE95F83430F6
:10175000802284F80031D5F8B03004F58670C4F8E2
:101760000431D5F8B430C4F80831D5F898102DF00C
:10177000E1FED5F88010212204F5C6702DF0DAFEC6
:10178000D5F8B810802204F2AD102DF0D3FED5F8B4
:10179000D010802204F22D202DF0CCFED5F8E810D8
:1017A000802204F2AD202DF0C5FEA96E802204F245
:1017B0002D302DF0BFFE094B4FF46D72C4F8B033DD
:1017C000D5F80001214603685B6998470546204625
:1017D00001F023FB284638BD0546FBE7EFBEADDE32
:1017E00030B5054689B04FF46D7001F012FB044628
:1017F000002800F09A804FF46D7200212DF0D3FC88
:10180000D5F800014FF46D72036821469B69984733
:10181000D4F8B023464B9A4240F08180802201AB3D
:10182000214602A821F09EFF02A9281D21F0E1FB1C
:1018300002A821F0EDFA802201ABA11802A821F044
:1018400091FF02A905F11C0021F0D3FB02A821F0B1
:10185000DFFA94F80031802285F83430D4F804316E
:1018600004F58671C5F8B030D4F8083102A8C5F87F
:10187000B43001AB21F076FF02A905F1980021F008
:10188000B8FB02A821F0C4FA212201AB04F5C6710D
:1018900002A821F067FF02A905F1800021F0A9FB51
:1018A00002A821F0B5FA802201AB04F2AD1102A822
:1018B00021F058FF02A905F1B80021F09AFB02A817
:1018C00021F0A6FA802201AB04F22D2102A821F01A
:1018D00049FF02A905F1D00021F08BFB02A821F0FD
:1018E00097FA802201AB04F2AD2102A821F03AFF61
:1018F00002A905F1E80021F07CFB02A821F088FA9A
:10190000802201AB04F22D3102A821F02BFF02A9A5
:1019100005F1680021F06DFB02A821F079FA20465C
:1019200009B0BDE8304001F078BA09B030BD00BF61
:10193000EFBEADDE436913B183690C3018477047C1
:1019400013B50021044608460EF08EF80023204609
:1019500001A901930EF0B2F8019C0CB1012323718F
:10196000002101200EF080F82CB1236820469B68EE
:1019700098470023237102B010BD80ED2C0A11B1ED
:1019800003681B6818477047C0F8B41012B10368A9
:101990001B681847704770B515460446E83021F0BB
:1019A000B2FA2DB123682046BDE870401B68184785
:1019B00070BD70B515460446D03021F0A4FA2DB1A3
:1019C00023682046BDE870401B68184770BD70B59D
:1019D00015460446B83021F096FA2DB1236820460A
:1019E000BDE870401B68184770BD70B515460446C9
:1019F000983021F088FA2DB123682046BDE8704068
:101A00001B68184770BD70B515460446803021F03C
:101A10007AFA2DB123682046BDE870401B6818474C
:101A200070BD70B515460446683021F06CFA2DB1D2
:101A300023682046BDE870401B68184770BD70B52C
:101A400015460446503021F05EFA2DB12368204639
:101A5000BDE870401B68184770BD012A02D10160C3
:101A600000207047022A04BF0B680360F8E7036890
:101A7000184710B58368044613B1032201469847FE
:101A8000204610BD07B58068002340B1CDE90013A2
:101A90001A4602210EF020F8B0FA80F0400903B097
:101AA0005DF804FB13B5124C124BA068196058B1D5
:101AB0006FF000430022FDEEC07ACDE90032032131
:101AC00017EE903A0EF008F800210948FFF7DAFF08
:101AD000A068002350B16FF00042194600920193B4
:101AE0001A460DF0F9FFB0FA80F0400902B010BDBF
:101AF000189F0610149F061010B504466FF00041A1
:101B00000548FFF7BFFF236820460021D3F8803047
:101B10009847012010BD00BF189F061038B50F4B25
:101B20000446036083689BB16FF00041FFF7AAFF92
:101B30000021A0680DF0FAFF237903F0FF0513B12F
:101B40000DF084FFF8E72946A0680DF0A9FFA56015
:101B500004F10C00FFF78DFF204638BD40733F02B3
:101B600010B50446FFF7DAFF20461C21FDF7F5F912
:101B7000204610BD10B50446144B40F8E83B21F058
:101B800047F904F1D00021F043F904F1B80021F045
:101B90003FF904F1980021F03BF904F1800021F0B5
:101BA00037F904F1680021F033F904F1500021F015
:101BB0002FF904F1380021F02BF904F11C0021F079
:101BC00027F9201D21F024F9204610BD9C723F0208
:101BD0000148FFF7CFBF00BF349F061037B504465A
:101BE000214B01AA40F8043B2049FFF74DFB01AA15
:101BF0001E4904F11C00FFF747FB00231C4D84F82D
:101C0000343001AA1B4904F13800FFF73DFB01AA5B
:101C1000194904F15000FFF737FB294601AA04F1E6
:101C20006800FFF731FB01AA144904F18000FFF7B7
:101C30002BFB01AA124904F19800FFF725FB01AA2A
:101C4000104904F1B800FFF71FFB294601AA04F16F
:101C5000D000FFF719FB0C4901AA04F1E800FFF7D7
:101C600013FB204603B030BD9C723F02B9803F0297
:101C700040723F0221723F022E723F0245723F02C4
:101C800053723F0273703F0258723F02002210B538
:101C9000154B92B00446114658680EF03BFA90F886
:101CA0005C2090F85730049290F85B201221039248
:101CB00090F85A20029290F85920019290F85820FA
:101CC00007A80092094A0EF013FB06AA07A90CA860
:101CD000FFF7DAFA0CA904F1500021F08AF90CA8F8
:101CE00021F096F812B010BD7097071069723F028C
:101CF00038B504460D46FFF771FF084B20462360B8
:101D0000C4F80051FFF7C2FF2046FFF769FD044900
:101D100004F1380021F003FB204638BD54733F0224
:101D200087723F0210B5134CD4E88F3FDA070BD40B
:101D30002046FDF725F938B14FF46D710E4800F0DB
:101D400065F92046FDF721F90C4CD4E88F3FDB07FD
:101D50000DD42046FDF714F948B107490848FFF7AC
:101D6000C7FF2046FDF711F906482CF0C5FB0448D3
:101D700010BD00BF109F06105CA006100C9F06103F
:101D8000349F0610F9393C0213B504462422002181
:101D90002DF009FA044901AA201DFFF775FA002366
:101DA0002046236202B010BDB9803F0270B5174BC8
:101DB00088B00493164A174B04AC1A60002294E8CA
:101DC000030002AE86E8030003F10C0595E803006A
:101DD00084E8030096E8030085E803000E491A71C1
:101DE000596199699A6007910C490692996103F1CA
:101DF00008004FF47A71CDE90022094A0DF042FE45
:101E00002046FFF736FE08B070BD00BF11343C021B
:101E100040733F02189F061083383C0297383C02FB
:101E200069373C02D0E90102101A7047D0E901235A
:101E300000699B1A5843704738B5036814461D68FB
:101E400013460022A847031B5842584138BD70B4BE
:101E5000046845680669246806FB0522A44670BC30
:101E6000604770B4046845680669646806FB05222B
:101E7000A44670BC604730B444680569036805FB3C
:101E8000041130BC9B68184700207047D0E901025C
:101E9000101A7047D0E9012300699B1A5843704714
:101EA00038B5036814461D6813460022A847031B73
:101EB0005842584138BD70B40468456806692468C2
:101EC00006FB0522A44670BC604770B404684568F0
:101ED0000669646806FB0522A44670BC604730B4FE
:101EE00044680569036805FB041130BC9B6818470A
:101EF00038B50446E5680846AD1A9D4228BF1D4620
:101F00001146034B2A4619442DF026F9284638BDC0
:101F100074A0061068B5C5681646AD1A9D4228BF64
:101F20001D4603482A4630442DF016F9284668BD60
:101F300074A0061038B5C3680C465B1A934228BFDC
:101F400013461D4603481A46002120442DF02BF964
:101F5000284638BD74A00610F8B5144646680269D4
:101F6000054656430F4601D10020F8BD03683246AE
:101F700000219B689847B042F6D12B6800225E682A
:101F8000394623462846B047231A58425841ECE7C1
:101F9000F8B5144646680269036856430F46324650
:101FA00000219B6805469847B0420AD12B68002261
:101FB0005E68394623462846B047231A584258419E
:101FC000F8BD0020FCE7000030B5039C0E4D056015
:101FD0004CB1B3FBF4F5C0E90253C0E9044221B9A6
:101FE0000023436030BD2546F5E78C4201D901232B
:101FF000F7E7002CF4D0B1FBF4F304FB1311002934
:10200000EFD00133EDE700BFF8733F024FF40073E8
:1020100013B5044600930A224FF46043FFF7D4FF40
:102020002046024B236002B010BD00BF2C743F025B
:102030002DE9F04385B00C9C9046620801329A422B
:1020400006460D4651D18C4201D8002847D10121C6
:10205000A00000F0E0FE0746002844D0A54228BFBB
:1020600025464FEA850931464A46651B2DF074F82E
:10207000AA00002107EB09002DF095F83E46012546
:10208000202C34D0402C32D0802C30D0B4F5807F3E
:102090002DD0B4F5007F2AD0B4F5806F27D0B4F5E9
:1020A000006F24D0B4F5805F21D003AB00930023F0
:1020B00020461A46194600F003FD044688B1424600
:1020C000314600F0D5FD204600F0A7FE002415B1F2
:1020D000304600F0A2FE204605B0BDE8F0830025A2
:1020E000CEE7044CF3E7034CF5E7034CF3E7034C6E
:1020F000EDE700BF16FCFFFF11FCFFFF08FCFFFF30
:102100002DE9F04F2DED048B4D0887B005F1010945
:1021100003900E464FEA81084FEAC900012100F002
:102120007AFE0746F8B10121404600F074FE0446ED
:10213000B0B10246039B00EB08010493AB0005938A
:10214000039B00EB850C624503F108030ED053F8A6
:10215000080C42F8040B53F8040C41F8040DF2E7A4
:10216000384600F05AFEDFF8188117E0F30706D56D
:10217000039B9844059B58F8042CE3181A604B46BF
:102180003A46314620460096FFF752FF804658B146
:10219000204600F042FE384600F03FFE404607B0C1
:1021A000BDEC048BBDE8F08F7000FCF7C7F8BB46B0
:1021B00041EC190BC2465046FCF7C0F82EA3D3E9F8
:1021C0000023FCF735F953EC192BFCF75BFAFCF70D
:1021D00027FC00EE100A08EE100A28F08DFDF0EE44
:1021E000408AB0EE480A28F0F9FDDBED017A5B4643
:1021F00060EE277A93ED007AE7EE287A049B0AF1E5
:10220000010AE3EC017AD1450BF1080B0493D2D813
:10221000059B751B03F1040A039B07EBC50553449B
:102220009A46B145B4D24846FCF788F812A3D3E9E0
:102230000023FCF7FDF853EC192BFCF723FAFCF70D
:10224000EFFB00EE100A08EE100A28F055FDF0EE44
:10225000408AB0EE480A28F0C1FD55ED017A15ED2F
:10226000027A67EEC07AE7EE287A083DEAEC017A56
:1022700009F10109D5E700BF182D4454FB2109409D
:1022800016FCFFFF2DE9F04F2DED088B164689B0A7
:10229000DDE91A250F46D2F804A01168BAF1010F42
:1022A0000AFB01F9039106FB03F1044600EBC9099F
:1022B0004FEAC10816D1034697E8030083E80300FC
:1022C000083399454744F7D105F584730593039B7B
:1022D000023B032B00F28A82DFE813F01B0056005A
:1022E000FB009B0108320492039A4FEACA0B724327
:1022F0000499019500913946CDE906230590FFF731
:10230000C1FFDDE906230598474458448145EFD1D4
:10231000DAE70AF1010304EBC303F6000834D5ED54
:10232000436A53ED015AD5ED427A13ED026A26EE67
:10233000E57AA6EE277A67EEA57AE6EE267A54EDE0
:10234000026A76EEC76A43ED026A54ED016A76EEE0
:10235000E76A43ED016A54ED026A36EE877A04EDCE
:10236000027A14ED017A77EE277ABAF1010A44ED88
:10237000017A03F1080304F108043544CFD109B010
:10238000BDEC088BBDE8F08F06FB0AF305EBC30339
:1023900093ED439A04EBCA08330104EB0A194FEAA0
:1023A000C60B04F1080644465746F1EE499AAA4680
:1023B00003930434D8ED017AD5ED436A66EEE78ADB
:1023C00014ED016A95ED428AB0EE687AA6EE087ABD
:1023D00028EE278AF0EE487AD9ED015AE6EE267A01
:1023E000DAED436A99ED006A9AED428A66EEE58A73
:1023F000E6EE088A28EE258AA6EE268A56F8080C0C
:1024000037EE88AA77EE28AA37EEC88A77EE688A70
:10241000FBF7B6FF41EC1B0B1AEE900AFBF7B0FF7F
:102420000022F14BFCF704F802460B4651EC1B0B63
:10243000FBF746FEFCF7F4FA44F8040C56F8040CDB
:10244000FBF79EFF41EC1B0B1AEE100AFBF798FFFF
:102450000022E54BFBF7ECFF0B46024651EC1B0B51
:10246000FBF72EFEFCF7DCFAC8F8040056ED027A02
:1024700077EEAA7A46ED027A56ED017A77EE8A7AFD
:1024800046ED017A54ED017AE9EE087AC9ED007A59
:10249000D8ED017AE9EEA87AC9ED017A54ED017A16
:1024A000E9EE887A44ED017AD8ED017AE9EE287AEE
:1024B000C8ED017A039B013F06F1080608F1080800
:1024C0005D4409F108099A4404F108047FF472AFED
:1024D00055E718225746A946AE46A8464FEAC60B0E
:1024E0004FEA061A564304EB071004EBC70100EB52
:1024F000C70304F1040C91ED017AD9ED436A91ED23
:10250000005AD9ED427A26EEC76AA5EE276A67EE31
:10251000877AE5EE267AD0ED014AB0EE677AD8EDFB
:10252000437A90ED005AF0EE465A67EEE46A98ED71
:10253000426AE5EE066A26EE246AD3ED013AA5EE7C
:10254000276A9EED435AD3ED004ADEED427A25EE2E
:10255000634A1CED013AA4EEA74A67EEA37AD4EDD4
:10256000013AE4EE857A73EE664A76EE836A35EEDA
:10257000843A4CED016A33EEC65A76EEC36A36EE03
:10258000236A84ED016AC0ED006A77EE273A35EEE2
:10259000C46AD4ED015A75EEE35AC0ED015A5CED00
:1025A000016A76EE836A4CED016A77EE677A94ED04
:1025B000017A37EE237A84ED017A6A6874EEA76AAD
:1025C00035EE467A74EEE77A35EE066AC2B1C1EDB1
:1025D000007A81ED016AC3ED006A83ED017A013F63
:1025E00004F1080401F10801D94400F10800D044C5
:1025F00003F10803B6440CF1080C7FF47CAFBEE68F
:10260000C1ED006A81ED017AC3ED007A83ED016AC4
:10261000E5E70AFB06F3059AAC4602EBC30797ED24
:10262000012AF20003921822AE46A8464FF0000994
:10263000F1EE420A7243D7ED001A07EBC30704EB31
:102640000A1397ED001AD7ED012A4FEA061B04EB97
:10265000CA0703EBCA0103EB0A1004927601CA45CC
:1026600004F1080407F1080703F1080301F1080168
:1026700000F108007FF783AED5ED436A57ED013ACC
:10268000D5ED425A17ED026A26EEE33AA6EE253A58
:1026900065EEA35AE6EE265AD8ED424A53ED016A9A
:1026A000F0EE653AD8ED435A13ED025A25EEE66A8C
:1026B00064EEA66AE5EE256AA5EE246ADEED435ACD
:1026C000F0EE664A51ED016A9EED425A11ED024A62
:1026D000F0EE468A25EEE66AA4EE056A25EE265A55
:1026E000DCED436AA4EE255A50ED015A9CED424AB6
:1026F000F0EE439AB0EE460A26EEE53A10ED026A95
:10270000A6EE043A64EE255A39EE83AA39EEC33AAE
:1027100078EE809A14ED027A34EE858AE6EE265A37
:1027200074EEC56A3AEE295A33EEA59A35EE075A89
:1027300054ED017A04ED025A39EE085AF0EE474A98
:1027400035EE275A38EEC06A04ED015A73EEE55AA9
:10275000B0EE675A62EEA63AE1EE8A4AE2EE253A18
:10276000E1EE294A26EE624AA1EE895AA1EE0A7AE2
:1027700065EEE25A34EEE30AE2EE265AA1EE085A7A
:10278000A0EE834AA1EEA97A66EE426AE1EE097AEA
:1027900007ED020A37EE256A35EE440AE1EE887A43
:1027A000E2EE836A74EEA34A35EE045A07ED010A9D
:1027B00037EE657A40ED024A00ED015A03ED026AF8
:1027C00037EEA66A77EEE67A039A03ED016A1544BE
:1027D000049A01ED027A41ED017A09F10109D84428
:1027E0009644B4443BE700BF0000E03F2B680493ED
:1027F000039B4FEAC30B584600F00BFB4FF0000C55
:10280000034665464FEACA0207920AFB06F2834472
:102810000692AA4551DDAE4600220399914238DC6A
:10282000E6464FF0000804EBC5020399414541DD3F
:1028300093E8030082E80300002103F108005845F3
:1028400031D0049F71448F42D8BFC91B059F90EDC2
:10285000015A07EBC10999ED016AD0ED005AD9ED93
:10286000007A26EE457AA5EEA77AF0EE476A92ED59
:10287000007A67EE857A37EE267AE5EE867A82ED83
:10288000007A92ED017A77EE277A0830C2ED017A6C
:10289000D5E703EBC20804EBCE0103C9D64488E8B0
:1028A00003000132B9E7079908F101080A440699C3
:1028B0008E44BAE70135B444ABE7184609B0BDEC25
:1028C000088BBDE8F04F00F0A8BA00BF0000000080
:1028D0002DE9F84F00F121072DED028B04460E463D
:1028E0001546DDF830B0FF00002B3DD1384600F032
:1028F00090FA0546D0B3C5E9004605F5847A002E66
:1029000044D056464FF0000A2046FBF727FDA2456B
:102910008046894606F1080667DA5046FBF71EFD39
:102920004BA3D3E90023FBF783FD42464B46FBF75D
:10293000A9FE41EC100B41EC180B27F0E5FF51EC20
:10294000100BFCF76DF8B0EE480AF0EE680A46F896
:10295000080C28F049F951EC100BFCF761F80AF16A
:10296000010A46F8040CCFE752B91F60BBF1000F13
:1029700001D0CBF800702846BDEC028BBDE8F88F83
:102980001A681F60BA42B6D20025EFE72046FBF76F
:10299000E5FCA642804689460AF1080A25DA304657
:1029A000FBF7DCFC2CA3D3E90023FBF741FD4246F7
:1029B0004B46FBF767FE41EC100B41EC180B27F080
:1029C000A3FF51EC100BFCF72BF8B0EE480AF0EE29
:1029D000680A4AF8080C28F007F951EC100BFCF7CC
:1029E0001FF801364AF8040CD0E72046FBF7B6FC86
:1029F00041EC100B28F00AFB27F0E6FF042659EC07
:102A0000108B05F1080A94FBF6F306FB1342AAB1FA
:102A1000022E0FD0042E0FD002363046FBF79EFC5C
:102A200002460B4640464946FBF774FF002818BF94
:102A30002646E8E70326F0E70226EEE7012B1C46D0
:102A4000CAE9006392DD0AF1080ADCE7AFF300800F
:102A5000182D4454FB211940182D4454FB2119C052
:102A60002DE9F341044691420D4610461F4604F1FC
:102A7000080817D12068C00000F0CBF906463B4695
:102A800029460122CDE90084FFF7FCFB226831468C
:102A90002846D2002CF060FB304602B0BDE8F04181
:102AA00000F0BBB90122CDE90084FFF7EBFB02B0D7
:102AB000BDE8F0810123FFF7D3BF00000000000054
:102AC0002DE9F04F2DED028B002585B010F0010AA5
:102AD0008B4614461F46039509D0634800F06CF9F5
:102AE0002C46204605B0BDEC028BBDE8F08F4510AA
:102AF00003AB52462846CDF800A0FFF7E9FE05EBF0
:102B00004506039B06EBD67676100C3303EBC60620
:102B1000002F58D1304600F07CF90446002CE0D05C
:102B200004F10C022260039B59461344636003EBDB
:102B3000C503A36000232846009305EBD57703ABBC
:102B4000FFF7C6FE7F10BBF1000F42D057457DDD79
:102B50000AF1010A5046FBF701FC804628468946E7
:102B6000FBF7FCFB02460B4640464946FBF78AFD55
:102B700000223E4BFBF7A6FA37A3D3E90023FBF76D
:102B800057FC41EC100B41EC180B27F0BDFE4FEA4F
:102B9000CA08A36851EC100BA8F1080803EB080958
:102BA000FBF73EFFB0EE480AF0EE680AC9F80000F5
:102BB00028F01AF8A36851EC100B9844FBF730FF8B
:102BC000C8F80400C2E73B683E60B342A6D2544650
:102BD00087E75F453ADD0BF1010B5846FBF7BEFB7B
:102BE000804628468946FBF7B9FB02460B4640461D
:102BF0004946FBF747FD00221C4BFBF763FA18A37D
:102C0000D3E90023FBF714FC41EC100B41EC180B4B
:102C100027F07AFE4FEACB08A36851EC100BA8F11D
:102C2000080803EB0809FBF7FBFEB0EE480AF0EEDC
:102C3000680AC9F8000027F0D7FFA36851EC100B11
:102C40009844FBF7EDFEC8F80400C2E7109B002B88
:102C50003FF447AF1E6044E7182D4454FB21094060
:102C6000182D4454FB2109C058743F020000E03F76
:102C7000F7B5036804465B68164623B136480191F0
:102C800000F09AF80199206862680568FFF712FF62
:102C900063680022D3ED007A93ED017A77EE876ABC
:102CA00077EEC77A06EBC503C6ED006AC3ED007A7E
:102CB00072605A606FF007020127B6EE006A05EBFA
:102CC000D5756D1006F1080C921BBD420CF1080C75
:102CD0003FDB6168F80001EBC706D6ED015AD6ED7F
:102CE000006AD6183144D1ED004AD1ED017AA168CD
:102CF0000838014434EEA67A35EEE75A76EEE46AF7
:102D000077EEA57AD1ED014A91ED004A64EEE75ADB
:102D100067EE847AE6EE845AE6EEA47A77EE256AC8
:102D200066EE866A37EE657A4CED026A77EE856A62
:102D300077EEC57A66EE866A27EE067A67EE867AC1
:102D40004CED016A013703ED027A43ED017A083B4D
:102D5000BBE703B0F0BD00BF71743F0200207047B5
:102D600008B50DF051FB002008BD08B50CF016FFAA
:102D7000002108BD08B50CF003FF002108BD07B510
:102D800001900DF0FFFF036801999B6803B05DF8A7
:102D900004EB184708B50DF0F5FF03681B69984769
:102DA000002806DD0DF0EEFF03685B699847C0B2AE
:102DB00008BD0020FCE700000FB413B504AB53F8C6
:102DC000042B4FF480610B4801930DF09FFA00280B
:102DD0000BDD0DF0D7FF04460648FCF791F8236899
:102DE0000246DB6820460349984702B0BDE8104020
:102DF00004B070477480071007B58DED010A0DF01F
:102E0000C1FF06219DED010A03B05DF804EB0DF052
:102E1000E3BD0DF035BA2BF0C7BB0DF03FBA000093
:102E200012289ABF024B53F820000248704700BF97
:102E300018753F0297743F02C0EE807A9FED117AB9
:102E4000F8FE677AF4EEC77AF1EE10FA13B50FDBED
:102E50009FED0D7AF4EEC77AF1EE10FA08D8FDEE88
:102E6000E77A17EE903A00200B44136002B010BDD1
:102E7000064B074A0093046940F257130549A047DF
:102E80000120F3E7000000CF0000004F08763F026A
:102E900064753F02F1753F0273B5D1ED037A92ED8F
:102EA000037A67EE877AF5EEC07AF1EE10FA1E46E5
:102EB0000ADA0F4B0F4A0093046940F249130E4996
:102EC000A047012002B070BD17EE900AFBF758FA38
:102ED0000446F0680D46FBF753FA0B4602462946B6
:102EE0002046FBF7CFFB069BC3E900010020E9E782
:102EF0002E763F0264753F02F1753F02000000002C
:102F00002DE9F74F0446DDE90C7BC86815461E46DF
:102F10008A46FBF735FA8046E8688946FBF730FABF
:102F200002460B4640464946FBF782FA80468946F0
:102F3000D6B1F068FBF724FA02460B4640464946F4
:102F4000FBF7BEF88046F86821F00049FBF718FA55
:102F500002460B4640464946FBF794FB11A3D3E9D2
:102F60000023FBF7E1FC50B13B462A465146204680
:102F7000CDF830B003B0BDE8F04FFFF78DBF064B82
:102F80002046009325694FF49E73044A0449A847DC
:102F9000012003B0BDE8F08F47763F0264753F0221
:102FA000F1753F027B14AE47E17A943F2DE9F04181
:102FB0001F46137886B0032B06468C460C9D0FD017
:102FC000092B26D0072B28D0374B384A00930469A9
:102FD00040F28F133649A047012006B0BDE8F081CA
:102FE000FF244FF00008BCF1010F92ED030A1169B4
:102FF00018D1DFED300A304605AAFFF71DFF002883
:10300000EBD1059B4345ACBF3B60C7F800802C600B
:10301000E3E77F246FF07F08E5E747F6FF74DFF80A
:103020009880E0E7BCF1030F21D1DFED220A3046A2
:1030300005AA8DED020A0391FFF7FEFE0028CCD110
:10304000F1EE080A059B05AA4345ACBF3B60C7F8F3
:1030500000809DED020A30460399FFF7EDFE00283F
:10306000BBD1059BA342D4BF2B602C60B5E7BCF15C
:10307000020F14D1FFEE000A304605AA8DED020AB8
:103080000391FFF7D9FE0028A7D1059BF7EE000AB0
:103090004345ACBF3B60C7F8008005AAD9E7C7F835
:1030A000008000202C6098E769763F0264753F023B
:1030B000F1753F02000000000080FFFF002370B5A3
:1030C000561C8B420CDA5D10445744F30304D4546D
:1030D0005C1CA14204D044572411F4540233F0E79D
:1030E00070BD000073B5002206460C46002351EC6B
:1030F000100B8DED000BFBF703FC9DED000B05465F
:1031000020B100233360236002B070BD204627F059
:10311000DFFC0022134B51EC100BFBF789F941EC5B
:10312000100B27F00DFD51EC100BFBF731FD4FF0AC
:103130000042824275EB010C034601DA0DF0F4F80F
:10314000A94208BF904202BF23680133236022686E
:1031500008BF4FF080431F32BCBF002323603360A1
:10316000D2E700BF0000E04137B50C4B05460C46E6
:10317000002251EC100B8DED000BFBF7E9FB9DEDF0
:10318000000B08B90DF0D0F821462846FFF7AAFF3A
:103190002368002BF6DB03B030BD00BF0000F03F1A
:1031A0002DE9F84F4FF000432DED028B23FA00F08C
:1031B00057EC106B59EC118B93468A46FBF7CEF80F
:1031C000424604460D464B4630463946FBF730F939
:1031D00002460B4620462946FBF72AF902460B46D3
:1031E00043EC182B0AA3D3E90023FBF7B1FB08B18A
:1031F0009FED078B59465046B0EE480AF0EE680A3C
:10320000BDEC028BBDE8F84FFFF7AEBFAFF3008017
:103210000000C0FFFFFFDF412DE9F8430124814694
:1032200004FA00F0013888461546FBF797F8064681
:10323000A5EB09000F46C0F12003A0F1200124FAFC
:1032400003F304FA01F104FA00F01943FBF7C2F8A2
:1032500002460B4630463946FBF7EAF8C8F1200330
:103260000F46A8F1200124FA03F304FA01F10646FF
:10327000194304FA08F0FBF7ADF802460B46304656
:103280003946FBF7FFF941EC100B27F09DFB51ECA1
:10329000100BFBF77DFBBDE8F8834B1E1844B0FB19
:1032A000F1F0484370470421C069FFF7F6BF2DE9EC
:1032B000F8430446894690461F46FFF7F4FF0C2367
:1032C00005460022A6695E4381198D4205D06B68D0
:1032D0000C35013308BF0132F7E70B2A0DD84FF048
:1032E000FF3340F806900020C5E90138A3693B6030
:1032F000A3690133A361BDE8F8830120FBE77047B0
:10330000406803685B691847036953F821007047F8
:1033100037B5D0E9014255690B46216800954D68E3
:103320001269C1682046A84703B030BD40680368F1
:103330009B6818478268D2E9043003EBC0030C2075
:103340005B6800FB0130704710B504461821FBF79D
:1033500004FE204610BD10B48468134640686269BC
:103360005DF8044BFFF7A3BFC0E90232002330B57C
:10337000024DC0E90433C0E9005130BD78763F0208
:10338000002904DB914202DA53F8210070474FF024
:10339000FF3070470B4610B511461A680446131DDE
:1033A0001268FFF7EDFF011E05DB23682046BDE82C
:1033B00010405B691847002010BD0B4610B5114640
:1033C0005A680446131D1268FFF7DAFF011E05DB79
:1033D00023682046BDE810405B691847002010BDF7
:1033E0000B4610B511469A680446131D1268FFF784
:1033F000C7FF011E05DB23682046BDE810405B695E
:103400001847002010BD002908B501DA0CF08CFF28
:1034100003688B42FADD00EB8100406808BD10B5FF
:10342000044611B90160204610BD896851F8042B8B
:1034300040F8042B92002BF08FFEF4E710B5436B9D
:103440000BB90CF071FF3C21BDE81040184700009B
:103450002DE9F04FABB0DDE9348A04460E4624A8CE
:1034600051469946154600F08AFA249B023B022BEE
:1034700001D90CF059FF3368726B0B937368CDE977
:1034800012220C930123B26BCDE91033CDE9143332
:10349000CDE91623CDE91833CDE91C330023316B78
:1034A000CDE90D33CDE91A210F91F16A1E929942AF
:1034B00003DB2046236C98470D90B8F1000F01D034
:1034C000D8F800804FF0000B7369CDF880B05B42F4
:1034D0001F93F3692193B3682293F3682393002D1C
:1034E000C7D02B68D9F80020BAF1000FC1D0DAF8A4
:1034F000001017AECDE902261BAF13AACDE90032AA
:103500000691CDE904870FAB0BAA1FA90DA8FBF705
:1035100003FE08B323690BAA0993DAF800301FA948
:10352000CDE90573D9F80030CDE90368029313ABF8
:1035300001932B680DA800930FABFBF7EDFD084B33
:10354000CDE9020B0193074B20460093064AF22374
:103550000649099CA04701202BB0BDE8F08F00BFB1
:1035600050773F0265773F02A4763F0236773F02ED
:103570002DE9F0474B6905460C4686B00BB90CF0B7
:10358000D3FE234B1A6800F0EAF9224B21461A6851
:103590000746284600F0E3F91F4B21461A68064605
:1035A000284600F0DCF91D4B8146214628461A6862
:1035B00000F0D7F9D4F810808246B8F1000FDED0C1
:1035C00033462946D8F8202003A800F0E9F93C7AD0
:1035D000072C18D0092C08D0012C204614D1FFF755
:1035E0001FFC204606B0BDE8F0879DF81430092B7B
:1035F00009D13A4641462846CDE9009A03ABFFF788
:1036000027FF0446EDE7307AFFF70AFC0124E8E7DC
:10361000D4783F02DC783F02D0783F02D8783F026E
:103620002DE9F04FD1F8108005460E469FB0B8F155
:10363000000F01D10CF078FE4B690593002BF9D0F7
:103640008468804A236820469B6912689847074629
:1036500060B97D4B2C690093472328467B4A7C49FF
:10366000A047012630461FB0BDE8F08F2368794A95
:10367000314620469B6912689847814620B9764BAF
:103680002C6900934A23E8E72368744A31469B6912
:103690001268204698472368714A049031462046B4
:1036A000DB6912689847824620B96E4B2C690093FB
:1036B0004F23D2E738789AF80030834213D02E692E
:1036C000FFF7AEFB04469AF80000FFF7A9FB664B34
:1036D000CDE902400193654B284600935B4A512394
:1036E0006349B047BDE749460CA8FFF798FE51462D
:1036F00012A8FFF794FE0C9A0CA8013A1146079203
:10370000FFF781FE0126DDF848B008900BF1FF338A
:10371000194612A80693CDE90966FFF774FE079AC9
:103720000B9011460CA8FFF76EFE069BC8F83400FC
:10373000002BFFF67FAF002212A9934507D09342DA
:103740000CBF01204868013246430431F5E71946B1
:10375000C8F8306012A8FFF756FE4FF0FF33C8F8E4
:103760002C30059BC8F838001978049B3A78284615
:10377000CDE90093CDE902A83B4600F08DF806465E
:1037800000287FF46FAF3878072802D1FFF748FB95
:1037900067E7092829D1394618A8ABF1020BFFF7D2
:1037A0003EFEBBF1020F3FF645AF08A8FBF7E8FC71
:1037B000834699F80030122B1ED1D9F8081019A8A9
:1037C00051F8043B9A00189305932BF0C5FC002296
:1037D0000121059B0DF1600C93420CF1040C06DDF8
:1037E000DCF8000001324143F6E7B346E1E7284642
:1037F000EB6B08F120029847BBF1000F18DC23683F
:10380000514620465B6A98472368394620465B6AE2
:103810009847236849465B6A20469847049B002BDB
:103820003FF420AF236820465B6A0499984719E764
:1038300059462846EB6B08F12C0298470028DED049
:1038400006460FE7D4783F0267783F02A4763F022E
:10385000F1753F02DC783F0278783F02D0783F0272
:10386000D8783F028A783F02B6783F02C3783F0299
:103870009C783F02002313B504460093034A044B8F
:10388000044900F044F8204602B010BD49543C02FF
:1038900099533C0265523C022DE9FF47012A074635
:1038A000DDE90E9588461E46DDF830A02DD00022B9
:1038B0000023CDE9022302ABCDE900935246314605
:1038C0000D9BFFF71DFB0446D8B928469DED020B62
:1038D000291DFFF707FC33696B61DAF810300BB173
:1038E0000CF022FDAC61D9F810304A46EB6105F1CD
:1038F0000C0300934146384605F10803FFF756FBD9
:103900000446204604B0BDE8F0870024F9E7C36010
:10391000002310B501600299C0E90433C0E9011227
:10392000C0E90633036210BD70B508B90CF0FCFCA9
:103930000029FBD00B68002A194651F8045B0CDB08
:1039400095420ADD51F82210002906DBBDE87040DF
:1039500003EB82025168036D1847002070BDFFF72A
:10396000E3BF10B508B90CF0DFFC0029FBD0BDE8BF
:1039700010404968036D01EB82025168184710B589
:10398000044609B1496819B900232360204610BDD7
:1039900051F8042B40F8042B92002BF0DDFBF5E7E7
:1039A0002DE9F0411D461B7A0446122B084686B0CD
:1039B000114607D095E8070084E80700204606B0C6
:1039C000BDE8F081036C9847D5E900872946064693
:1039D0006846FFF7D4FF6B4600220121009D954207
:1039E00003F1040303DD186801324143F7E732466F
:1039F0004046FFF763FB0923C4E900672372DDE754
:103A000010B5436B0BB90CF08FFC4021BDE81040A2
:103A100018477FB500220C460646FFF7A0FF214657
:103A2000054600223046FFF79CFF216909B90CF0DA
:103A30007BFC2C7A072C1AD0092C07D0012C2046AD
:103A400016D1FFF7EDF9204604B070BD037A092BBB
:103A50000DD10368002402938B690193CB68009316
:103A60008B682868D1E90E12FCF776F9EBE720465F
:103A7000FFF7D6F90124E6E72DE9F04F0B6805467C
:103A8000884693B013B11B68012B10D00124CDE9F7
:103A90000234584B28460193574B584A00932E69DD
:103AA00034235749B047204613B0BDE8F08F4C6827
:103AB00014B12468012C0ED001264E4BCDE90246EC
:103AC0000193504B284600932C6935234B4A4C49AF
